{
	"User.sol": {
		"User": {
			"abi": [
				{
					"inputs": [
						{
							"internalType": "uint256",
							"name": "projectId",
							"type": "uint256"
						}
					],
					"name": "addInvestedProject",
					"outputs": [],
					"stateMutability": "nonpayable",
					"type": "function"
				},
				{
					"inputs": [
						{
							"internalType": "uint256",
							"name": "projectId",
							"type": "uint256"
						}
					],
					"name": "addOwnedProject",
					"outputs": [],
					"stateMutability": "nonpayable",
					"type": "function"
				},
				{
					"inputs": [
						{
							"internalType": "string",
							"name": "name",
							"type": "string"
						},
						{
							"internalType": "string",
							"name": "profile",
							"type": "string"
						}
					],
					"name": "addUser",
					"outputs": [],
					"stateMutability": "nonpayable",
					"type": "function"
				},
				{
					"inputs": [
						{
							"internalType": "address",
							"name": "userAddr",
							"type": "address"
						},
						{
							"internalType": "string",
							"name": "newName",
							"type": "string"
						}
					],
					"name": "changeUsername",
					"outputs": [],
					"stateMutability": "nonpayable",
					"type": "function"
				},
				{
					"inputs": [
						{
							"internalType": "address",
							"name": "userAddr",
							"type": "address"
						}
					],
					"name": "getInvestedProjects",
					"outputs": [
						{
							"internalType": "uint256[]",
							"name": "",
							"type": "uint256[]"
						}
					],
					"stateMutability": "view",
					"type": "function"
				},
				{
					"inputs": [
						{
							"internalType": "address",
							"name": "userAddr",
							"type": "address"
						}
					],
					"name": "getOwnedProjects",
					"outputs": [
						{
							"internalType": "uint256[]",
							"name": "",
							"type": "uint256[]"
						}
					],
					"stateMutability": "view",
					"type": "function"
				},
				{
					"inputs": [
						{
							"internalType": "address",
							"name": "userAddr",
							"type": "address"
						}
					],
					"name": "getUser",
					"outputs": [
						{
							"internalType": "address",
							"name": "",
							"type": "address"
						},
						{
							"internalType": "string",
							"name": "",
							"type": "string"
						},
						{
							"internalType": "string",
							"name": "",
							"type": "string"
						}
					],
					"stateMutability": "view",
					"type": "function"
				},
				{
					"inputs": [],
					"name": "totalUsers",
					"outputs": [
						{
							"internalType": "uint256",
							"name": "",
							"type": "uint256"
						}
					],
					"stateMutability": "view",
					"type": "function"
				},
				{
					"inputs": [
						{
							"internalType": "address",
							"name": "",
							"type": "address"
						}
					],
					"name": "users",
					"outputs": [
						{
							"internalType": "address",
							"name": "userWallet",
							"type": "address"
						},
						{
							"internalType": "string",
							"name": "userName",
							"type": "string"
						},
						{
							"internalType": "string",
							"name": "userProfile",
							"type": "string"
						}
					],
					"stateMutability": "view",
					"type": "function"
				}
			],
			"devdoc": {
				"kind": "dev",
				"methods": {},
				"version": 1
			},
			"evm": {
				"assembly": "    /* \"User.sol\":61:2044  contract User {... */\n  mstore(0x40, 0x80)\n  callvalue\n  dup1\n  iszero\n  tag_1\n  jumpi\n  revert(0x00, 0x00)\ntag_1:\n  pop\n  dataSize(sub_0)\n  dup1\n  dataOffset(sub_0)\n  0x00\n  codecopy\n  0x00\n  return\nstop\n\nsub_0: assembly {\n        /* \"User.sol\":61:2044  contract User {... */\n      mstore(0x40, 0x80)\n      callvalue\n      dup1\n      iszero\n      tag_1\n      jumpi\n      revert(0x00, 0x00)\n    tag_1:\n      pop\n      jumpi(tag_2, lt(calldatasize, 0x04))\n      shr(0xe0, calldataload(0x00))\n      dup1\n      0xa87430ba\n      gt\n      tag_12\n      jumpi\n      dup1\n      0xa87430ba\n      eq\n      tag_7\n      jumpi\n      dup1\n      0xb9aa11b9\n      eq\n      tag_8\n      jumpi\n      dup1\n      0xbff1f9e1\n      eq\n      tag_9\n      jumpi\n      dup1\n      0xc9f107f6\n      eq\n      tag_10\n      jumpi\n      dup1\n      0xd0cc47bb\n      eq\n      tag_11\n      jumpi\n      jump(tag_2)\n    tag_12:\n      dup1\n      0x079eaf34\n      eq\n      tag_3\n      jumpi\n      dup1\n      0x35debf2d\n      eq\n      tag_4\n      jumpi\n      dup1\n      0x6f77926b\n      eq\n      tag_5\n      jumpi\n      dup1\n      0x8d505263\n      eq\n      tag_6\n      jumpi\n    tag_2:\n      revert(0x00, 0x00)\n        /* \"User.sol\":495:913  function addUser(string memory name, string memory profile) external {... */\n    tag_3:\n      tag_13\n      0x04\n      dup1\n      calldatasize\n      sub\n      dup2\n      add\n      swap1\n      tag_14\n      swap2\n      swap1\n      tag_15\n      jump\t// in\n    tag_14:\n      tag_16\n      jump\t// in\n    tag_13:\n      stop\n        /* \"User.sol\":1747:1893  function getInvestedProjects(address userAddr) external view returns (uint256[] memory) {... */\n    tag_4:\n      tag_17\n      0x04\n      dup1\n      calldatasize\n      sub\n      dup2\n      add\n      swap1\n      tag_18\n      swap2\n      swap1\n      tag_19\n      jump\t// in\n    tag_18:\n      tag_20\n      jump\t// in\n    tag_17:\n      mload(0x40)\n      tag_21\n      swap2\n      swap1\n      tag_22\n      jump\t// in\n    tag_21:\n      mload(0x40)\n      dup1\n      swap2\n      sub\n      swap1\n      return\n        /* \"User.sol\":1075:1319  function getUser(address userAddr) external view returns (... */\n    tag_5:\n      tag_23\n      0x04\n      dup1\n      calldatasize\n      sub\n      dup2\n      add\n      swap1\n      tag_24\n      swap2\n      swap1\n      tag_19\n      jump\t// in\n    tag_24:\n      tag_25\n      jump\t// in\n    tag_23:\n      mload(0x40)\n      tag_26\n      swap4\n      swap3\n      swap2\n      swap1\n      tag_27\n      jump\t// in\n    tag_26:\n      mload(0x40)\n      dup1\n      swap2\n      sub\n      swap1\n      return\n        /* \"User.sol\":1901:2041  function getOwnedProjects(address userAddr) external view returns (uint256[] memory) {... */\n    tag_6:\n      tag_28\n      0x04\n      dup1\n      calldatasize\n      sub\n      dup2\n      add\n      swap1\n      tag_29\n      swap2\n      swap1\n      tag_19\n      jump\t// in\n    tag_29:\n      tag_30\n      jump\t// in\n    tag_28:\n      mload(0x40)\n      tag_31\n      swap2\n      swap1\n      tag_22\n      jump\t// in\n    tag_31:\n      mload(0x40)\n      dup1\n      swap2\n      sub\n      swap1\n      return\n        /* \"User.sol\":303:344  mapping(address => UserInfo) public users */\n    tag_7:\n      tag_32\n      0x04\n      dup1\n      calldatasize\n      sub\n      dup2\n      add\n      swap1\n      tag_33\n      swap2\n      swap1\n      tag_19\n      jump\t// in\n    tag_33:\n      tag_34\n      jump\t// in\n    tag_32:\n      mload(0x40)\n      tag_35\n      swap4\n      swap3\n      swap2\n      swap1\n      tag_27\n      jump\t// in\n    tag_35:\n      mload(0x40)\n      dup1\n      swap2\n      sub\n      swap1\n      return\n        /* \"User.sol\":1540:1739  function addOwnedProject(uint256 projectId) external {... */\n    tag_8:\n      tag_36\n      0x04\n      dup1\n      calldatasize\n      sub\n      dup2\n      add\n      swap1\n      tag_37\n      swap2\n      swap1\n      tag_38\n      jump\t// in\n    tag_37:\n      tag_39\n      jump\t// in\n    tag_36:\n      stop\n        /* \"User.sol\":82:107  uint256 public totalUsers */\n    tag_9:\n      tag_40\n      tag_41\n      jump\t// in\n    tag_40:\n      mload(0x40)\n      tag_42\n      swap2\n      swap1\n      tag_43\n      jump\t// in\n    tag_42:\n      mload(0x40)\n      dup1\n      swap2\n      sub\n      swap1\n      return\n        /* \"User.sol\":1327:1532  function addInvestedProject(uint256 projectId) external {... */\n    tag_10:\n      tag_44\n      0x04\n      dup1\n      calldatasize\n      sub\n      dup2\n      add\n      swap1\n      tag_45\n      swap2\n      swap1\n      tag_38\n      jump\t// in\n    tag_45:\n      tag_46\n      jump\t// in\n    tag_44:\n      stop\n        /* \"User.sol\":921:1067  function changeUsername(address userAddr, string memory newName) external onlyUser(userAddr) {... */\n    tag_11:\n      tag_47\n      0x04\n      dup1\n      calldatasize\n      sub\n      dup2\n      add\n      swap1\n      tag_48\n      swap2\n      swap1\n      tag_49\n      jump\t// in\n    tag_48:\n      tag_50\n      jump\t// in\n    tag_47:\n      stop\n        /* \"User.sol\":495:913  function addUser(string memory name, string memory profile) external {... */\n    tag_16:\n        /* \"User.sol\":623:624  0 */\n      0x00\n        /* \"User.sol\":583:625  users[msg.sender].userWallet == address(0) */\n      0xffffffffffffffffffffffffffffffffffffffff\n      and\n        /* \"User.sol\":583:588  users */\n      0x01\n        /* \"User.sol\":583:600  users[msg.sender] */\n      0x00\n        /* \"User.sol\":589:599  msg.sender */\n      caller\n        /* \"User.sol\":583:600  users[msg.sender] */\n      0xffffffffffffffffffffffffffffffffffffffff\n      and\n      0xffffffffffffffffffffffffffffffffffffffff\n      and\n      dup2\n      mstore\n      0x20\n      add\n      swap1\n      dup2\n      mstore\n      0x20\n      add\n      0x00\n      keccak256\n        /* \"User.sol\":583:611  users[msg.sender].userWallet */\n      0x00\n      add\n      0x00\n      swap1\n      sload\n      swap1\n      0x0100\n      exp\n      swap1\n      div\n      0xffffffffffffffffffffffffffffffffffffffff\n      and\n        /* \"User.sol\":583:625  users[msg.sender].userWallet == address(0) */\n      0xffffffffffffffffffffffffffffffffffffffff\n      and\n      eq\n        /* \"User.sol\":575:649  require(users[msg.sender].userWallet == address(0), \"User already exists\") */\n      tag_52\n      jumpi\n      mload(0x40)\n      0x08c379a000000000000000000000000000000000000000000000000000000000\n      dup2\n      mstore\n      0x04\n      add\n      tag_53\n      swap1\n      tag_54\n      jump\t// in\n    tag_53:\n      mload(0x40)\n      dup1\n      swap2\n      sub\n      swap1\n      revert\n    tag_52:\n        /* \"User.sol\":660:670  totalUsers */\n      0x00\n      0x00\n        /* \"User.sol\":660:672  totalUsers++ */\n      dup2\n      sload\n      dup1\n      swap3\n      swap2\n      swap1\n      tag_55\n      swap1\n      tag_56\n      jump\t// in\n    tag_55:\n      swap2\n      swap1\n      pop\n      sstore\n      pop\n        /* \"User.sol\":683:704  UserInfo storage user */\n      0x00\n        /* \"User.sol\":707:712  users */\n      0x01\n        /* \"User.sol\":707:724  users[msg.sender] */\n      0x00\n        /* \"User.sol\":713:723  msg.sender */\n      caller\n        /* \"User.sol\":707:724  users[msg.sender] */\n      0xffffffffffffffffffffffffffffffffffffffff\n      and\n      0xffffffffffffffffffffffffffffffffffffffff\n      and\n      dup2\n      mstore\n      0x20\n      add\n      swap1\n      dup2\n      mstore\n      0x20\n      add\n      0x00\n      keccak256\n        /* \"User.sol\":683:724  UserInfo storage user = users[msg.sender] */\n      swap1\n      pop\n        /* \"User.sol\":753:763  msg.sender */\n      caller\n        /* \"User.sol\":735:739  user */\n      dup2\n        /* \"User.sol\":735:750  user.userWallet */\n      0x00\n      add\n      0x00\n        /* \"User.sol\":735:763  user.userWallet = msg.sender */\n      0x0100\n      exp\n      dup2\n      sload\n      dup2\n      0xffffffffffffffffffffffffffffffffffffffff\n      mul\n      not\n      and\n      swap1\n      dup4\n      0xffffffffffffffffffffffffffffffffffffffff\n      and\n      mul\n      or\n      swap1\n      sstore\n      pop\n        /* \"User.sol\":790:794  name */\n      dup3\n        /* \"User.sol\":774:778  user */\n      dup2\n        /* \"User.sol\":774:787  user.userName */\n      0x01\n      add\n        /* \"User.sol\":774:794  user.userName = name */\n      swap1\n      dup2\n      tag_57\n      swap2\n      swap1\n      tag_58\n      jump\t// in\n    tag_57:\n      pop\n        /* \"User.sol\":824:831  profile */\n      dup2\n        /* \"User.sol\":805:809  user */\n      dup2\n        /* \"User.sol\":805:821  user.userProfile */\n      0x02\n      add\n        /* \"User.sol\":805:831  user.userProfile = profile */\n      swap1\n      dup2\n      tag_59\n      swap2\n      swap1\n      tag_58\n      jump\t// in\n    tag_59:\n      pop\n        /* \"User.sol\":564:913  {... */\n      pop\n        /* \"User.sol\":495:913  function addUser(string memory name, string memory profile) external {... */\n      pop\n      pop\n      jump\t// out\n        /* \"User.sol\":1747:1893  function getInvestedProjects(address userAddr) external view returns (uint256[] memory) {... */\n    tag_20:\n        /* \"User.sol\":1817:1833  uint256[] memory */\n      0x60\n        /* \"User.sol\":1853:1858  users */\n      0x01\n        /* \"User.sol\":1853:1868  users[userAddr] */\n      0x00\n        /* \"User.sol\":1859:1867  userAddr */\n      dup4\n        /* \"User.sol\":1853:1868  users[userAddr] */\n      0xffffffffffffffffffffffffffffffffffffffff\n      and\n      0xffffffffffffffffffffffffffffffffffffffff\n      and\n      dup2\n      mstore\n      0x20\n      add\n      swap1\n      dup2\n      mstore\n      0x20\n      add\n      0x00\n      keccak256\n        /* \"User.sol\":1853:1885  users[userAddr].investedProjects */\n      0x03\n      add\n        /* \"User.sol\":1846:1885  return users[userAddr].investedProjects */\n      dup1\n      sload\n      dup1\n      0x20\n      mul\n      0x20\n      add\n      mload(0x40)\n      swap1\n      dup2\n      add\n      0x40\n      mstore\n      dup1\n      swap3\n      swap2\n      swap1\n      dup2\n      dup2\n      mstore\n      0x20\n      add\n      dup3\n      dup1\n      sload\n      dup1\n      iszero\n      tag_61\n      jumpi\n      0x20\n      mul\n      dup3\n      add\n      swap2\n      swap1\n      0x00\n      mstore\n      keccak256(0x00, 0x20)\n      swap1\n    tag_62:\n      dup2\n      sload\n      dup2\n      mstore\n      0x20\n      add\n      swap1\n      0x01\n      add\n      swap1\n      dup1\n      dup4\n      gt\n      tag_62\n      jumpi\n    tag_61:\n      pop\n      pop\n      pop\n      pop\n      pop\n      swap1\n      pop\n        /* \"User.sol\":1747:1893  function getInvestedProjects(address userAddr) external view returns (uint256[] memory) {... */\n      swap2\n      swap1\n      pop\n      jump\t// out\n        /* \"User.sol\":1075:1319  function getUser(address userAddr) external view returns (... */\n    tag_25:\n        /* \"User.sol\":1143:1150  address */\n      0x00\n        /* \"User.sol\":1161:1174  string memory */\n      0x60\n        /* \"User.sol\":1185:1198  string memory */\n      dup1\n        /* \"User.sol\":1217:1234  UserInfo memory u */\n      0x00\n        /* \"User.sol\":1237:1242  users */\n      0x01\n        /* \"User.sol\":1237:1252  users[userAddr] */\n      0x00\n        /* \"User.sol\":1243:1251  userAddr */\n      dup7\n        /* \"User.sol\":1237:1252  users[userAddr] */\n      0xffffffffffffffffffffffffffffffffffffffff\n      and\n      0xffffffffffffffffffffffffffffffffffffffff\n      and\n      dup2\n      mstore\n      0x20\n      add\n      swap1\n      dup2\n      mstore\n      0x20\n      add\n      0x00\n      keccak256\n        /* \"User.sol\":1217:1252  UserInfo memory u = users[userAddr] */\n      mload(0x40)\n      dup1\n      0xa0\n      add\n      0x40\n      mstore\n      swap1\n      dup2\n      0x00\n      dup3\n      add\n      0x00\n      swap1\n      sload\n      swap1\n      0x0100\n      exp\n      swap1\n      div\n      0xffffffffffffffffffffffffffffffffffffffff\n      and\n      0xffffffffffffffffffffffffffffffffffffffff\n      and\n      0xffffffffffffffffffffffffffffffffffffffff\n      and\n      dup2\n      mstore\n      0x20\n      add\n      0x01\n      dup3\n      add\n      dup1\n      sload\n      tag_64\n      swap1\n      tag_65\n      jump\t// in\n    tag_64:\n      dup1\n      0x1f\n      add\n      0x20\n      dup1\n      swap2\n      div\n      mul\n      0x20\n      add\n      mload(0x40)\n      swap1\n      dup2\n      add\n      0x40\n      mstore\n      dup1\n      swap3\n      swap2\n      swap1\n      dup2\n      dup2\n      mstore\n      0x20\n      add\n      dup3\n      dup1\n      sload\n      tag_66\n      swap1\n      tag_65\n      jump\t// in\n    tag_66:\n      dup1\n      iszero\n      tag_67\n      jumpi\n      dup1\n      0x1f\n      lt\n      tag_68\n      jumpi\n      0x0100\n      dup1\n      dup4\n      sload\n      div\n      mul\n      dup4\n      mstore\n      swap2\n      0x20\n      add\n      swap2\n      jump(tag_67)\n    tag_68:\n      dup3\n      add\n      swap2\n      swap1\n      0x00\n      mstore\n      keccak256(0x00, 0x20)\n      swap1\n    tag_69:\n      dup2\n      sload\n      dup2\n      mstore\n      swap1\n      0x01\n      add\n      swap1\n      0x20\n      add\n      dup1\n      dup4\n      gt\n      tag_69\n      jumpi\n      dup3\n      swap1\n      sub\n      0x1f\n      and\n      dup3\n      add\n      swap2\n    tag_67:\n      pop\n      pop\n      pop\n      pop\n      pop\n      dup2\n      mstore\n      0x20\n      add\n      0x02\n      dup3\n      add\n      dup1\n      sload\n      tag_70\n      swap1\n      tag_65\n      jump\t// in\n    tag_70:\n      dup1\n      0x1f\n      add\n      0x20\n      dup1\n      swap2\n      div\n      mul\n      0x20\n      add\n      mload(0x40)\n      swap1\n      dup2\n      add\n      0x40\n      mstore\n      dup1\n      swap3\n      swap2\n      swap1\n      dup2\n      dup2\n      mstore\n      0x20\n      add\n      dup3\n      dup1\n      sload\n      tag_71\n      swap1\n      tag_65\n      jump\t// in\n    tag_71:\n      dup1\n      iszero\n      tag_72\n      jumpi\n      dup1\n      0x1f\n      lt\n      tag_73\n      jumpi\n      0x0100\n      dup1\n      dup4\n      sload\n      div\n      mul\n      dup4\n      mstore\n      swap2\n      0x20\n      add\n      swap2\n      jump(tag_72)\n    tag_73:\n      dup3\n      add\n      swap2\n      swap1\n      0x00\n      mstore\n      keccak256(0x00, 0x20)\n      swap1\n    tag_74:\n      dup2\n      sload\n      dup2\n      mstore\n      swap1\n      0x01\n      add\n      swap1\n      0x20\n      add\n      dup1\n      dup4\n      gt\n      tag_74\n      jumpi\n      dup3\n      swap1\n      sub\n      0x1f\n      and\n      dup3\n      add\n      swap2\n    tag_72:\n      pop\n      pop\n      pop\n      pop\n      pop\n      dup2\n      mstore\n      0x20\n      add\n      0x03\n      dup3\n      add\n      dup1\n      sload\n      dup1\n      0x20\n      mul\n      0x20\n      add\n      mload(0x40)\n      swap1\n      dup2\n      add\n      0x40\n      mstore\n      dup1\n      swap3\n      swap2\n      swap1\n      dup2\n      dup2\n      mstore\n      0x20\n      add\n      dup3\n      dup1\n      sload\n      dup1\n      iszero\n      tag_75\n      jumpi\n      0x20\n      mul\n      dup3\n      add\n      swap2\n      swap1\n      0x00\n      mstore\n      keccak256(0x00, 0x20)\n      swap1\n    tag_76:\n      dup2\n      sload\n      dup2\n      mstore\n      0x20\n      add\n      swap1\n      0x01\n      add\n      swap1\n      dup1\n      dup4\n      gt\n      tag_76\n      jumpi\n    tag_75:\n      pop\n      pop\n      pop\n      pop\n      pop\n      dup2\n      mstore\n      0x20\n      add\n      0x04\n      dup3\n      add\n      dup1\n      sload\n      dup1\n      0x20\n      mul\n      0x20\n      add\n      mload(0x40)\n      swap1\n      dup2\n      add\n      0x40\n      mstore\n      dup1\n      swap3\n      swap2\n      swap1\n      dup2\n      dup2\n      mstore\n      0x20\n      add\n      dup3\n      dup1\n      sload\n      dup1\n      iszero\n      tag_77\n      jumpi\n      0x20\n      mul\n      dup3\n      add\n      swap2\n      swap1\n      0x00\n      mstore\n      keccak256(0x00, 0x20)\n      swap1\n    tag_78:\n      dup2\n      sload\n      dup2\n      mstore\n      0x20\n      add\n      swap1\n      0x01\n      add\n      swap1\n      dup1\n      dup4\n      gt\n      tag_78\n      jumpi\n    tag_77:\n      pop\n      pop\n      pop\n      pop\n      pop\n      dup2\n      mstore\n      pop\n      pop\n      swap1\n      pop\n        /* \"User.sol\":1271:1272  u */\n      dup1\n        /* \"User.sol\":1271:1283  u.userWallet */\n      0x00\n      add\n      mload\n        /* \"User.sol\":1285:1286  u */\n      dup2\n        /* \"User.sol\":1285:1295  u.userName */\n      0x20\n      add\n      mload\n        /* \"User.sol\":1297:1298  u */\n      dup3\n        /* \"User.sol\":1297:1310  u.userProfile */\n      0x40\n      add\n      mload\n        /* \"User.sol\":1263:1311  return (u.userWallet, u.userName, u.userProfile) */\n      swap4\n      pop\n      swap4\n      pop\n      swap4\n      pop\n      pop\n        /* \"User.sol\":1075:1319  function getUser(address userAddr) external view returns (... */\n      swap2\n      swap4\n      swap1\n      swap3\n      pop\n      jump\t// out\n        /* \"User.sol\":1901:2041  function getOwnedProjects(address userAddr) external view returns (uint256[] memory) {... */\n    tag_30:\n        /* \"User.sol\":1968:1984  uint256[] memory */\n      0x60\n        /* \"User.sol\":2004:2009  users */\n      0x01\n        /* \"User.sol\":2004:2019  users[userAddr] */\n      0x00\n        /* \"User.sol\":2010:2018  userAddr */\n      dup4\n        /* \"User.sol\":2004:2019  users[userAddr] */\n      0xffffffffffffffffffffffffffffffffffffffff\n      and\n      0xffffffffffffffffffffffffffffffffffffffff\n      and\n      dup2\n      mstore\n      0x20\n      add\n      swap1\n      dup2\n      mstore\n      0x20\n      add\n      0x00\n      keccak256\n        /* \"User.sol\":2004:2033  users[userAddr].ownedProjects */\n      0x04\n      add\n        /* \"User.sol\":1997:2033  return users[userAddr].ownedProjects */\n      dup1\n      sload\n      dup1\n      0x20\n      mul\n      0x20\n      add\n      mload(0x40)\n      swap1\n      dup2\n      add\n      0x40\n      mstore\n      dup1\n      swap3\n      swap2\n      swap1\n      dup2\n      dup2\n      mstore\n      0x20\n      add\n      dup3\n      dup1\n      sload\n      dup1\n      iszero\n      tag_80\n      jumpi\n      0x20\n      mul\n      dup3\n      add\n      swap2\n      swap1\n      0x00\n      mstore\n      keccak256(0x00, 0x20)\n      swap1\n    tag_81:\n      dup2\n      sload\n      dup2\n      mstore\n      0x20\n      add\n      swap1\n      0x01\n      add\n      swap1\n      dup1\n      dup4\n      gt\n      tag_81\n      jumpi\n    tag_80:\n      pop\n      pop\n      pop\n      pop\n      pop\n      swap1\n      pop\n        /* \"User.sol\":1901:2041  function getOwnedProjects(address userAddr) external view returns (uint256[] memory) {... */\n      swap2\n      swap1\n      pop\n      jump\t// out\n        /* \"User.sol\":303:344  mapping(address => UserInfo) public users */\n    tag_34:\n      mstore(0x20, 0x01)\n      dup1\n      0x00\n      mstore\n      keccak256(0x00, 0x40)\n      0x00\n      swap2\n      pop\n      swap1\n      pop\n      dup1\n      0x00\n      add\n      0x00\n      swap1\n      sload\n      swap1\n      0x0100\n      exp\n      swap1\n      div\n      0xffffffffffffffffffffffffffffffffffffffff\n      and\n      swap1\n      dup1\n      0x01\n      add\n      dup1\n      sload\n      tag_82\n      swap1\n      tag_65\n      jump\t// in\n    tag_82:\n      dup1\n      0x1f\n      add\n      0x20\n      dup1\n      swap2\n      div\n      mul\n      0x20\n      add\n      mload(0x40)\n      swap1\n      dup2\n      add\n      0x40\n      mstore\n      dup1\n      swap3\n      swap2\n      swap1\n      dup2\n      dup2\n      mstore\n      0x20\n      add\n      dup3\n      dup1\n      sload\n      tag_83\n      swap1\n      tag_65\n      jump\t// in\n    tag_83:\n      dup1\n      iszero\n      tag_84\n      jumpi\n      dup1\n      0x1f\n      lt\n      tag_85\n      jumpi\n      0x0100\n      dup1\n      dup4\n      sload\n      div\n      mul\n      dup4\n      mstore\n      swap2\n      0x20\n      add\n      swap2\n      jump(tag_84)\n    tag_85:\n      dup3\n      add\n      swap2\n      swap1\n      0x00\n      mstore\n      keccak256(0x00, 0x20)\n      swap1\n    tag_86:\n      dup2\n      sload\n      dup2\n      mstore\n      swap1\n      0x01\n      add\n      swap1\n      0x20\n      add\n      dup1\n      dup4\n      gt\n      tag_86\n      jumpi\n      dup3\n      swap1\n      sub\n      0x1f\n      and\n      dup3\n      add\n      swap2\n    tag_84:\n      pop\n      pop\n      pop\n      pop\n      pop\n      swap1\n      dup1\n      0x02\n      add\n      dup1\n      sload\n      tag_87\n      swap1\n      tag_65\n      jump\t// in\n    tag_87:\n      dup1\n      0x1f\n      add\n      0x20\n      dup1\n      swap2\n      div\n      mul\n      0x20\n      add\n      mload(0x40)\n      swap1\n      dup2\n      add\n      0x40\n      mstore\n      dup1\n      swap3\n      swap2\n      swap1\n      dup2\n      dup2\n      mstore\n      0x20\n      add\n      dup3\n      dup1\n      sload\n      tag_88\n      swap1\n      tag_65\n      jump\t// in\n    tag_88:\n      dup1\n      iszero\n      tag_89\n      jumpi\n      dup1\n      0x1f\n      lt\n      tag_90\n      jumpi\n      0x0100\n      dup1\n      dup4\n      sload\n      div\n      mul\n      dup4\n      mstore\n      swap2\n      0x20\n      add\n      swap2\n      jump(tag_89)\n    tag_90:\n      dup3\n      add\n      swap2\n      swap1\n      0x00\n      mstore\n      keccak256(0x00, 0x20)\n      swap1\n    tag_91:\n      dup2\n      sload\n      dup2\n      mstore\n      swap1\n      0x01\n      add\n      swap1\n      0x20\n      add\n      dup1\n      dup4\n      gt\n      tag_91\n      jumpi\n      dup3\n      swap1\n      sub\n      0x1f\n      and\n      dup3\n      add\n      swap2\n    tag_89:\n      pop\n      pop\n      pop\n      pop\n      pop\n      swap1\n      pop\n      dup4\n      jump\t// out\n        /* \"User.sol\":1540:1739  function addOwnedProject(uint256 projectId) external {... */\n    tag_39:\n        /* \"User.sol\":1652:1653  0 */\n      0x00\n        /* \"User.sol\":1612:1654  users[msg.sender].userWallet != address(0) */\n      0xffffffffffffffffffffffffffffffffffffffff\n      and\n        /* \"User.sol\":1612:1617  users */\n      0x01\n        /* \"User.sol\":1612:1629  users[msg.sender] */\n      0x00\n        /* \"User.sol\":1618:1628  msg.sender */\n      caller\n        /* \"User.sol\":1612:1629  users[msg.sender] */\n      0xffffffffffffffffffffffffffffffffffffffff\n      and\n      0xffffffffffffffffffffffffffffffffffffffff\n      and\n      dup2\n      mstore\n      0x20\n      add\n      swap1\n      dup2\n      mstore\n      0x20\n      add\n      0x00\n      keccak256\n        /* \"User.sol\":1612:1640  users[msg.sender].userWallet */\n      0x00\n      add\n      0x00\n      swap1\n      sload\n      swap1\n      0x0100\n      exp\n      swap1\n      div\n      0xffffffffffffffffffffffffffffffffffffffff\n      and\n        /* \"User.sol\":1612:1654  users[msg.sender].userWallet != address(0) */\n      0xffffffffffffffffffffffffffffffffffffffff\n      and\n      sub\n        /* \"User.sol\":1604:1673  require(users[msg.sender].userWallet != address(0), \"User not found\") */\n      tag_93\n      jumpi\n      mload(0x40)\n      0x08c379a000000000000000000000000000000000000000000000000000000000\n      dup2\n      mstore\n      0x04\n      add\n      tag_94\n      swap1\n      tag_95\n      jump\t// in\n    tag_94:\n      mload(0x40)\n      dup1\n      swap2\n      sub\n      swap1\n      revert\n    tag_93:\n        /* \"User.sol\":1684:1689  users */\n      0x01\n        /* \"User.sol\":1684:1701  users[msg.sender] */\n      0x00\n        /* \"User.sol\":1690:1700  msg.sender */\n      caller\n        /* \"User.sol\":1684:1701  users[msg.sender] */\n      0xffffffffffffffffffffffffffffffffffffffff\n      and\n      0xffffffffffffffffffffffffffffffffffffffff\n      and\n      dup2\n      mstore\n      0x20\n      add\n      swap1\n      dup2\n      mstore\n      0x20\n      add\n      0x00\n      keccak256\n        /* \"User.sol\":1684:1715  users[msg.sender].ownedProjects */\n      0x04\n      add\n        /* \"User.sol\":1721:1730  projectId */\n      dup2\n        /* \"User.sol\":1684:1731  users[msg.sender].ownedProjects.push(projectId) */\n      swap1\n      dup1\n      0x01\n      dup2\n      sload\n      add\n      dup1\n      dup3\n      sstore\n      dup1\n      swap2\n      pop\n      pop\n      0x01\n      swap1\n      sub\n      swap1\n      0x00\n      mstore\n      keccak256(0x00, 0x20)\n      add\n      0x00\n      swap1\n      swap2\n      swap1\n      swap2\n      swap1\n      swap2\n      pop\n      sstore\n        /* \"User.sol\":1540:1739  function addOwnedProject(uint256 projectId) external {... */\n      pop\n      jump\t// out\n        /* \"User.sol\":82:107  uint256 public totalUsers */\n    tag_41:\n      sload(0x00)\n      dup2\n      jump\t// out\n        /* \"User.sol\":1327:1532  function addInvestedProject(uint256 projectId) external {... */\n    tag_46:\n        /* \"User.sol\":1442:1443  0 */\n      0x00\n        /* \"User.sol\":1402:1444  users[msg.sender].userWallet != address(0) */\n      0xffffffffffffffffffffffffffffffffffffffff\n      and\n        /* \"User.sol\":1402:1407  users */\n      0x01\n        /* \"User.sol\":1402:1419  users[msg.sender] */\n      0x00\n        /* \"User.sol\":1408:1418  msg.sender */\n      caller\n        /* \"User.sol\":1402:1419  users[msg.sender] */\n      0xffffffffffffffffffffffffffffffffffffffff\n      and\n      0xffffffffffffffffffffffffffffffffffffffff\n      and\n      dup2\n      mstore\n      0x20\n      add\n      swap1\n      dup2\n      mstore\n      0x20\n      add\n      0x00\n      keccak256\n        /* \"User.sol\":1402:1430  users[msg.sender].userWallet */\n      0x00\n      add\n      0x00\n      swap1\n      sload\n      swap1\n      0x0100\n      exp\n      swap1\n      div\n      0xffffffffffffffffffffffffffffffffffffffff\n      and\n        /* \"User.sol\":1402:1444  users[msg.sender].userWallet != address(0) */\n      0xffffffffffffffffffffffffffffffffffffffff\n      and\n      sub\n        /* \"User.sol\":1394:1463  require(users[msg.sender].userWallet != address(0), \"User not found\") */\n      tag_98\n      jumpi\n      mload(0x40)\n      0x08c379a000000000000000000000000000000000000000000000000000000000\n      dup2\n      mstore\n      0x04\n      add\n      tag_99\n      swap1\n      tag_95\n      jump\t// in\n    tag_99:\n      mload(0x40)\n      dup1\n      swap2\n      sub\n      swap1\n      revert\n    tag_98:\n        /* \"User.sol\":1474:1479  users */\n      0x01\n        /* \"User.sol\":1474:1491  users[msg.sender] */\n      0x00\n        /* \"User.sol\":1480:1490  msg.sender */\n      caller\n        /* \"User.sol\":1474:1491  users[msg.sender] */\n      0xffffffffffffffffffffffffffffffffffffffff\n      and\n      0xffffffffffffffffffffffffffffffffffffffff\n      and\n      dup2\n      mstore\n      0x20\n      add\n      swap1\n      dup2\n      mstore\n      0x20\n      add\n      0x00\n      keccak256\n        /* \"User.sol\":1474:1508  users[msg.sender].investedProjects */\n      0x03\n      add\n        /* \"User.sol\":1514:1523  projectId */\n      dup2\n        /* \"User.sol\":1474:1524  users[msg.sender].investedProjects.push(projectId) */\n      swap1\n      dup1\n      0x01\n      dup2\n      sload\n      add\n      dup1\n      dup3\n      sstore\n      dup1\n      swap2\n      pop\n      pop\n      0x01\n      swap1\n      sub\n      swap1\n      0x00\n      mstore\n      keccak256(0x00, 0x20)\n      add\n      0x00\n      swap1\n      swap2\n      swap1\n      swap2\n      swap1\n      swap2\n      pop\n      sstore\n        /* \"User.sol\":1327:1532  function addInvestedProject(uint256 projectId) external {... */\n      pop\n      jump\t// out\n        /* \"User.sol\":921:1067  function changeUsername(address userAddr, string memory newName) external onlyUser(userAddr) {... */\n    tag_50:\n        /* \"User.sol\":1004:1012  userAddr */\n      dup2\n        /* \"User.sol\":438:448  msg.sender */\n      caller\n        /* \"User.sol\":408:448  users[userAddr].userWallet == msg.sender */\n      0xffffffffffffffffffffffffffffffffffffffff\n      and\n        /* \"User.sol\":408:413  users */\n      0x01\n        /* \"User.sol\":408:423  users[userAddr] */\n      0x00\n        /* \"User.sol\":414:422  userAddr */\n      dup4\n        /* \"User.sol\":408:423  users[userAddr] */\n      0xffffffffffffffffffffffffffffffffffffffff\n      and\n      0xffffffffffffffffffffffffffffffffffffffff\n      and\n      dup2\n      mstore\n      0x20\n      add\n      swap1\n      dup2\n      mstore\n      0x20\n      add\n      0x00\n      keccak256\n        /* \"User.sol\":408:434  users[userAddr].userWallet */\n      0x00\n      add\n      0x00\n      swap1\n      sload\n      swap1\n      0x0100\n      exp\n      swap1\n      div\n      0xffffffffffffffffffffffffffffffffffffffff\n      and\n        /* \"User.sol\":408:448  users[userAddr].userWallet == msg.sender */\n      0xffffffffffffffffffffffffffffffffffffffff\n      and\n      eq\n        /* \"User.sol\":400:467  require(users[userAddr].userWallet == msg.sender, \"Not authorized\") */\n      tag_102\n      jumpi\n      mload(0x40)\n      0x08c379a000000000000000000000000000000000000000000000000000000000\n      dup2\n      mstore\n      0x04\n      add\n      tag_103\n      swap1\n      tag_104\n      jump\t// in\n    tag_103:\n      mload(0x40)\n      dup1\n      swap2\n      sub\n      swap1\n      revert\n    tag_102:\n        /* \"User.sol\":1052:1059  newName */\n      dup2\n        /* \"User.sol\":1025:1030  users */\n      0x01\n        /* \"User.sol\":1025:1040  users[userAddr] */\n      0x00\n        /* \"User.sol\":1031:1039  userAddr */\n      dup6\n        /* \"User.sol\":1025:1040  users[userAddr] */\n      0xffffffffffffffffffffffffffffffffffffffff\n      and\n      0xffffffffffffffffffffffffffffffffffffffff\n      and\n      dup2\n      mstore\n      0x20\n      add\n      swap1\n      dup2\n      mstore\n      0x20\n      add\n      0x00\n      keccak256\n        /* \"User.sol\":1025:1049  users[userAddr].userName */\n      0x01\n      add\n        /* \"User.sol\":1025:1059  users[userAddr].userName = newName */\n      swap1\n      dup2\n      tag_106\n      swap2\n      swap1\n      tag_58\n      jump\t// in\n    tag_106:\n      pop\n        /* \"User.sol\":921:1067  function changeUsername(address userAddr, string memory newName) external onlyUser(userAddr) {... */\n      pop\n      pop\n      pop\n      jump\t// out\n        /* \"#utility.yul\":7:82   */\n    tag_107:\n        /* \"#utility.yul\":40:46   */\n      0x00\n        /* \"#utility.yul\":73:75   */\n      0x40\n        /* \"#utility.yul\":67:76   */\n      mload\n        /* \"#utility.yul\":57:76   */\n      swap1\n      pop\n        /* \"#utility.yul\":7:82   */\n      swap1\n      jump\t// out\n        /* \"#utility.yul\":88:205   */\n    tag_108:\n        /* \"#utility.yul\":197:198   */\n      0x00\n        /* \"#utility.yul\":194:195   */\n      0x00\n        /* \"#utility.yul\":187:199   */\n      revert\n        /* \"#utility.yul\":211:328   */\n    tag_109:\n        /* \"#utility.yul\":320:321   */\n      0x00\n        /* \"#utility.yul\":317:318   */\n      0x00\n        /* \"#utility.yul\":310:322   */\n      revert\n        /* \"#utility.yul\":334:451   */\n    tag_110:\n        /* \"#utility.yul\":443:444   */\n      0x00\n        /* \"#utility.yul\":440:441   */\n      0x00\n        /* \"#utility.yul\":433:445   */\n      revert\n        /* \"#utility.yul\":457:574   */\n    tag_111:\n        /* \"#utility.yul\":566:567   */\n      0x00\n        /* \"#utility.yul\":563:564   */\n      0x00\n        /* \"#utility.yul\":556:568   */\n      revert\n        /* \"#utility.yul\":580:682   */\n    tag_112:\n        /* \"#utility.yul\":621:627   */\n      0x00\n        /* \"#utility.yul\":672:674   */\n      0x1f\n        /* \"#utility.yul\":668:675   */\n      not\n        /* \"#utility.yul\":663:665   */\n      0x1f\n        /* \"#utility.yul\":656:661   */\n      dup4\n        /* \"#utility.yul\":652:666   */\n      add\n        /* \"#utility.yul\":648:676   */\n      and\n        /* \"#utility.yul\":638:676   */\n      swap1\n      pop\n        /* \"#utility.yul\":580:682   */\n      swap2\n      swap1\n      pop\n      jump\t// out\n        /* \"#utility.yul\":688:868   */\n    tag_113:\n        /* \"#utility.yul\":736:813   */\n      0x4e487b7100000000000000000000000000000000000000000000000000000000\n        /* \"#utility.yul\":733:734   */\n      0x00\n        /* \"#utility.yul\":726:814   */\n      mstore\n        /* \"#utility.yul\":833:837   */\n      0x41\n        /* \"#utility.yul\":830:831   */\n      0x04\n        /* \"#utility.yul\":823:838   */\n      mstore\n        /* \"#utility.yul\":857:861   */\n      0x24\n        /* \"#utility.yul\":854:855   */\n      0x00\n        /* \"#utility.yul\":847:862   */\n      revert\n        /* \"#utility.yul\":874:1155   */\n    tag_114:\n        /* \"#utility.yul\":957:984   */\n      tag_172\n        /* \"#utility.yul\":979:983   */\n      dup3\n        /* \"#utility.yul\":957:984   */\n      tag_112\n      jump\t// in\n    tag_172:\n        /* \"#utility.yul\":949:955   */\n      dup2\n        /* \"#utility.yul\":945:985   */\n      add\n        /* \"#utility.yul\":1087:1093   */\n      dup2\n        /* \"#utility.yul\":1075:1085   */\n      dup2\n        /* \"#utility.yul\":1072:1094   */\n      lt\n        /* \"#utility.yul\":1051:1069   */\n      0xffffffffffffffff\n        /* \"#utility.yul\":1039:1049   */\n      dup3\n        /* \"#utility.yul\":1036:1070   */\n      gt\n        /* \"#utility.yul\":1033:1095   */\n      or\n        /* \"#utility.yul\":1030:1118   */\n      iszero\n      tag_173\n      jumpi\n        /* \"#utility.yul\":1098:1116   */\n      tag_174\n      tag_113\n      jump\t// in\n    tag_174:\n        /* \"#utility.yul\":1030:1118   */\n    tag_173:\n        /* \"#utility.yul\":1138:1148   */\n      dup1\n        /* \"#utility.yul\":1134:1136   */\n      0x40\n        /* \"#utility.yul\":1127:1149   */\n      mstore\n        /* \"#utility.yul\":917:1155   */\n      pop\n        /* \"#utility.yul\":874:1155   */\n      pop\n      pop\n      jump\t// out\n        /* \"#utility.yul\":1161:1290   */\n    tag_115:\n        /* \"#utility.yul\":1195:1201   */\n      0x00\n        /* \"#utility.yul\":1222:1242   */\n      tag_176\n      tag_107\n      jump\t// in\n    tag_176:\n        /* \"#utility.yul\":1212:1242   */\n      swap1\n      pop\n        /* \"#utility.yul\":1251:1284   */\n      tag_177\n        /* \"#utility.yul\":1279:1283   */\n      dup3\n        /* \"#utility.yul\":1271:1277   */\n      dup3\n        /* \"#utility.yul\":1251:1284   */\n      tag_114\n      jump\t// in\n    tag_177:\n        /* \"#utility.yul\":1161:1290   */\n      swap2\n      swap1\n      pop\n      jump\t// out\n        /* \"#utility.yul\":1296:1604   */\n    tag_116:\n        /* \"#utility.yul\":1358:1362   */\n      0x00\n        /* \"#utility.yul\":1448:1466   */\n      0xffffffffffffffff\n        /* \"#utility.yul\":1440:1446   */\n      dup3\n        /* \"#utility.yul\":1437:1467   */\n      gt\n        /* \"#utility.yul\":1434:1490   */\n      iszero\n      tag_179\n      jumpi\n        /* \"#utility.yul\":1470:1488   */\n      tag_180\n      tag_113\n      jump\t// in\n    tag_180:\n        /* \"#utility.yul\":1434:1490   */\n    tag_179:\n        /* \"#utility.yul\":1508:1537   */\n      tag_181\n        /* \"#utility.yul\":1530:1536   */\n      dup3\n        /* \"#utility.yul\":1508:1537   */\n      tag_112\n      jump\t// in\n    tag_181:\n        /* \"#utility.yul\":1500:1537   */\n      swap1\n      pop\n        /* \"#utility.yul\":1592:1596   */\n      0x20\n        /* \"#utility.yul\":1586:1590   */\n      dup2\n        /* \"#utility.yul\":1582:1597   */\n      add\n        /* \"#utility.yul\":1574:1597   */\n      swap1\n      pop\n        /* \"#utility.yul\":1296:1604   */\n      swap2\n      swap1\n      pop\n      jump\t// out\n        /* \"#utility.yul\":1610:1758   */\n    tag_117:\n        /* \"#utility.yul\":1708:1714   */\n      dup3\n        /* \"#utility.yul\":1703:1706   */\n      dup2\n        /* \"#utility.yul\":1698:1701   */\n      dup4\n        /* \"#utility.yul\":1685:1715   */\n      calldatacopy\n        /* \"#utility.yul\":1749:1750   */\n      0x00\n        /* \"#utility.yul\":1740:1746   */\n      dup4\n        /* \"#utility.yul\":1735:1738   */\n      dup4\n        /* \"#utility.yul\":1731:1747   */\n      add\n        /* \"#utility.yul\":1724:1751   */\n      mstore\n        /* \"#utility.yul\":1610:1758   */\n      pop\n      pop\n      pop\n      jump\t// out\n        /* \"#utility.yul\":1764:2189   */\n    tag_118:\n        /* \"#utility.yul\":1842:1847   */\n      0x00\n        /* \"#utility.yul\":1867:1933   */\n      tag_184\n        /* \"#utility.yul\":1883:1932   */\n      tag_185\n        /* \"#utility.yul\":1925:1931   */\n      dup5\n        /* \"#utility.yul\":1883:1932   */\n      tag_116\n      jump\t// in\n    tag_185:\n        /* \"#utility.yul\":1867:1933   */\n      tag_115\n      jump\t// in\n    tag_184:\n        /* \"#utility.yul\":1858:1933   */\n      swap1\n      pop\n        /* \"#utility.yul\":1956:1962   */\n      dup3\n        /* \"#utility.yul\":1949:1954   */\n      dup2\n        /* \"#utility.yul\":1942:1963   */\n      mstore\n        /* \"#utility.yul\":1994:1998   */\n      0x20\n        /* \"#utility.yul\":1987:1992   */\n      dup2\n        /* \"#utility.yul\":1983:1999   */\n      add\n        /* \"#utility.yul\":2032:2035   */\n      dup5\n        /* \"#utility.yul\":2023:2029   */\n      dup5\n        /* \"#utility.yul\":2018:2021   */\n      dup5\n        /* \"#utility.yul\":2014:2030   */\n      add\n        /* \"#utility.yul\":2011:2036   */\n      gt\n        /* \"#utility.yul\":2008:2120   */\n      iszero\n      tag_186\n      jumpi\n        /* \"#utility.yul\":2039:2118   */\n      tag_187\n      tag_111\n      jump\t// in\n    tag_187:\n        /* \"#utility.yul\":2008:2120   */\n    tag_186:\n        /* \"#utility.yul\":2129:2183   */\n      tag_188\n        /* \"#utility.yul\":2176:2182   */\n      dup5\n        /* \"#utility.yul\":2171:2174   */\n      dup3\n        /* \"#utility.yul\":2166:2169   */\n      dup6\n        /* \"#utility.yul\":2129:2183   */\n      tag_117\n      jump\t// in\n    tag_188:\n        /* \"#utility.yul\":1848:2189   */\n      pop\n        /* \"#utility.yul\":1764:2189   */\n      swap4\n      swap3\n      pop\n      pop\n      pop\n      jump\t// out\n        /* \"#utility.yul\":2209:2549   */\n    tag_119:\n        /* \"#utility.yul\":2265:2270   */\n      0x00\n        /* \"#utility.yul\":2314:2317   */\n      dup3\n        /* \"#utility.yul\":2307:2311   */\n      0x1f\n        /* \"#utility.yul\":2299:2305   */\n      dup4\n        /* \"#utility.yul\":2295:2312   */\n      add\n        /* \"#utility.yul\":2291:2318   */\n      slt\n        /* \"#utility.yul\":2281:2403   */\n      tag_190\n      jumpi\n        /* \"#utility.yul\":2322:2401   */\n      tag_191\n      tag_110\n      jump\t// in\n    tag_191:\n        /* \"#utility.yul\":2281:2403   */\n    tag_190:\n        /* \"#utility.yul\":2439:2445   */\n      dup2\n        /* \"#utility.yul\":2426:2446   */\n      calldataload\n        /* \"#utility.yul\":2464:2543   */\n      tag_192\n        /* \"#utility.yul\":2539:2542   */\n      dup5\n        /* \"#utility.yul\":2531:2537   */\n      dup3\n        /* \"#utility.yul\":2524:2528   */\n      0x20\n        /* \"#utility.yul\":2516:2522   */\n      dup7\n        /* \"#utility.yul\":2512:2529   */\n      add\n        /* \"#utility.yul\":2464:2543   */\n      tag_118\n      jump\t// in\n    tag_192:\n        /* \"#utility.yul\":2455:2543   */\n      swap2\n      pop\n        /* \"#utility.yul\":2271:2549   */\n      pop\n        /* \"#utility.yul\":2209:2549   */\n      swap3\n      swap2\n      pop\n      pop\n      jump\t// out\n        /* \"#utility.yul\":2555:3389   */\n    tag_15:\n        /* \"#utility.yul\":2643:2649   */\n      0x00\n        /* \"#utility.yul\":2651:2657   */\n      0x00\n        /* \"#utility.yul\":2700:2702   */\n      0x40\n        /* \"#utility.yul\":2688:2697   */\n      dup4\n        /* \"#utility.yul\":2679:2686   */\n      dup6\n        /* \"#utility.yul\":2675:2698   */\n      sub\n        /* \"#utility.yul\":2671:2703   */\n      slt\n        /* \"#utility.yul\":2668:2787   */\n      iszero\n      tag_194\n      jumpi\n        /* \"#utility.yul\":2706:2785   */\n      tag_195\n      tag_108\n      jump\t// in\n    tag_195:\n        /* \"#utility.yul\":2668:2787   */\n    tag_194:\n        /* \"#utility.yul\":2854:2855   */\n      0x00\n        /* \"#utility.yul\":2843:2852   */\n      dup4\n        /* \"#utility.yul\":2839:2856   */\n      add\n        /* \"#utility.yul\":2826:2857   */\n      calldataload\n        /* \"#utility.yul\":2884:2902   */\n      0xffffffffffffffff\n        /* \"#utility.yul\":2876:2882   */\n      dup2\n        /* \"#utility.yul\":2873:2903   */\n      gt\n        /* \"#utility.yul\":2870:2987   */\n      iszero\n      tag_196\n      jumpi\n        /* \"#utility.yul\":2906:2985   */\n      tag_197\n      tag_109\n      jump\t// in\n    tag_197:\n        /* \"#utility.yul\":2870:2987   */\n    tag_196:\n        /* \"#utility.yul\":3011:3074   */\n      tag_198\n        /* \"#utility.yul\":3066:3073   */\n      dup6\n        /* \"#utility.yul\":3057:3063   */\n      dup3\n        /* \"#utility.yul\":3046:3055   */\n      dup7\n        /* \"#utility.yul\":3042:3064   */\n      add\n        /* \"#utility.yul\":3011:3074   */\n      tag_119\n      jump\t// in\n    tag_198:\n        /* \"#utility.yul\":3001:3074   */\n      swap3\n      pop\n        /* \"#utility.yul\":2797:3084   */\n      pop\n        /* \"#utility.yul\":3151:3153   */\n      0x20\n        /* \"#utility.yul\":3140:3149   */\n      dup4\n        /* \"#utility.yul\":3136:3154   */\n      add\n        /* \"#utility.yul\":3123:3155   */\n      calldataload\n        /* \"#utility.yul\":3182:3200   */\n      0xffffffffffffffff\n        /* \"#utility.yul\":3174:3180   */\n      dup2\n        /* \"#utility.yul\":3171:3201   */\n      gt\n        /* \"#utility.yul\":3168:3285   */\n      iszero\n      tag_199\n      jumpi\n        /* \"#utility.yul\":3204:3283   */\n      tag_200\n      tag_109\n      jump\t// in\n    tag_200:\n        /* \"#utility.yul\":3168:3285   */\n    tag_199:\n        /* \"#utility.yul\":3309:3372   */\n      tag_201\n        /* \"#utility.yul\":3364:3371   */\n      dup6\n        /* \"#utility.yul\":3355:3361   */\n      dup3\n        /* \"#utility.yul\":3344:3353   */\n      dup7\n        /* \"#utility.yul\":3340:3362   */\n      add\n        /* \"#utility.yul\":3309:3372   */\n      tag_119\n      jump\t// in\n    tag_201:\n        /* \"#utility.yul\":3299:3372   */\n      swap2\n      pop\n        /* \"#utility.yul\":3094:3382   */\n      pop\n        /* \"#utility.yul\":2555:3389   */\n      swap3\n      pop\n      swap3\n      swap1\n      pop\n      jump\t// out\n        /* \"#utility.yul\":3395:3521   */\n    tag_120:\n        /* \"#utility.yul\":3432:3439   */\n      0x00\n        /* \"#utility.yul\":3472:3514   */\n      0xffffffffffffffffffffffffffffffffffffffff\n        /* \"#utility.yul\":3465:3470   */\n      dup3\n        /* \"#utility.yul\":3461:3515   */\n      and\n        /* \"#utility.yul\":3450:3515   */\n      swap1\n      pop\n        /* \"#utility.yul\":3395:3521   */\n      swap2\n      swap1\n      pop\n      jump\t// out\n        /* \"#utility.yul\":3527:3623   */\n    tag_121:\n        /* \"#utility.yul\":3564:3571   */\n      0x00\n        /* \"#utility.yul\":3593:3617   */\n      tag_204\n        /* \"#utility.yul\":3611:3616   */\n      dup3\n        /* \"#utility.yul\":3593:3617   */\n      tag_120\n      jump\t// in\n    tag_204:\n        /* \"#utility.yul\":3582:3617   */\n      swap1\n      pop\n        /* \"#utility.yul\":3527:3623   */\n      swap2\n      swap1\n      pop\n      jump\t// out\n        /* \"#utility.yul\":3629:3751   */\n    tag_122:\n        /* \"#utility.yul\":3702:3726   */\n      tag_206\n        /* \"#utility.yul\":3720:3725   */\n      dup2\n        /* \"#utility.yul\":3702:3726   */\n      tag_121\n      jump\t// in\n    tag_206:\n        /* \"#utility.yul\":3695:3700   */\n      dup2\n        /* \"#utility.yul\":3692:3727   */\n      eq\n        /* \"#utility.yul\":3682:3745   */\n      tag_207\n      jumpi\n        /* \"#utility.yul\":3741:3742   */\n      0x00\n        /* \"#utility.yul\":3738:3739   */\n      0x00\n        /* \"#utility.yul\":3731:3743   */\n      revert\n        /* \"#utility.yul\":3682:3745   */\n    tag_207:\n        /* \"#utility.yul\":3629:3751   */\n      pop\n      jump\t// out\n        /* \"#utility.yul\":3757:3896   */\n    tag_123:\n        /* \"#utility.yul\":3803:3808   */\n      0x00\n        /* \"#utility.yul\":3841:3847   */\n      dup2\n        /* \"#utility.yul\":3828:3848   */\n      calldataload\n        /* \"#utility.yul\":3819:3848   */\n      swap1\n      pop\n        /* \"#utility.yul\":3857:3890   */\n      tag_209\n        /* \"#utility.yul\":3884:3889   */\n      dup2\n        /* \"#utility.yul\":3857:3890   */\n      tag_122\n      jump\t// in\n    tag_209:\n        /* \"#utility.yul\":3757:3896   */\n      swap3\n      swap2\n      pop\n      pop\n      jump\t// out\n        /* \"#utility.yul\":3902:4231   */\n    tag_19:\n        /* \"#utility.yul\":3961:3967   */\n      0x00\n        /* \"#utility.yul\":4010:4012   */\n      0x20\n        /* \"#utility.yul\":3998:4007   */\n      dup3\n        /* \"#utility.yul\":3989:3996   */\n      dup5\n        /* \"#utility.yul\":3985:4008   */\n      sub\n        /* \"#utility.yul\":3981:4013   */\n      slt\n        /* \"#utility.yul\":3978:4097   */\n      iszero\n      tag_211\n      jumpi\n        /* \"#utility.yul\":4016:4095   */\n      tag_212\n      tag_108\n      jump\t// in\n    tag_212:\n        /* \"#utility.yul\":3978:4097   */\n    tag_211:\n        /* \"#utility.yul\":4136:4137   */\n      0x00\n        /* \"#utility.yul\":4161:4214   */\n      tag_213\n        /* \"#utility.yul\":4206:4213   */\n      dup5\n        /* \"#utility.yul\":4197:4203   */\n      dup3\n        /* \"#utility.yul\":4186:4195   */\n      dup6\n        /* \"#utility.yul\":4182:4204   */\n      add\n        /* \"#utility.yul\":4161:4214   */\n      tag_123\n      jump\t// in\n    tag_213:\n        /* \"#utility.yul\":4151:4214   */\n      swap2\n      pop\n        /* \"#utility.yul\":4107:4224   */\n      pop\n        /* \"#utility.yul\":3902:4231   */\n      swap3\n      swap2\n      pop\n      pop\n      jump\t// out\n        /* \"#utility.yul\":4237:4351   */\n    tag_124:\n        /* \"#utility.yul\":4304:4310   */\n      0x00\n        /* \"#utility.yul\":4338:4343   */\n      dup2\n        /* \"#utility.yul\":4332:4344   */\n      mload\n        /* \"#utility.yul\":4322:4344   */\n      swap1\n      pop\n        /* \"#utility.yul\":4237:4351   */\n      swap2\n      swap1\n      pop\n      jump\t// out\n        /* \"#utility.yul\":4357:4541   */\n    tag_125:\n        /* \"#utility.yul\":4456:4467   */\n      0x00\n        /* \"#utility.yul\":4490:4496   */\n      dup3\n        /* \"#utility.yul\":4485:4488   */\n      dup3\n        /* \"#utility.yul\":4478:4497   */\n      mstore\n        /* \"#utility.yul\":4530:4534   */\n      0x20\n        /* \"#utility.yul\":4525:4528   */\n      dup3\n        /* \"#utility.yul\":4521:4535   */\n      add\n        /* \"#utility.yul\":4506:4535   */\n      swap1\n      pop\n        /* \"#utility.yul\":4357:4541   */\n      swap3\n      swap2\n      pop\n      pop\n      jump\t// out\n        /* \"#utility.yul\":4547:4679   */\n    tag_126:\n        /* \"#utility.yul\":4614:4618   */\n      0x00\n        /* \"#utility.yul\":4637:4640   */\n      dup2\n        /* \"#utility.yul\":4629:4640   */\n      swap1\n      pop\n        /* \"#utility.yul\":4667:4671   */\n      0x20\n        /* \"#utility.yul\":4662:4665   */\n      dup3\n        /* \"#utility.yul\":4658:4672   */\n      add\n        /* \"#utility.yul\":4650:4672   */\n      swap1\n      pop\n        /* \"#utility.yul\":4547:4679   */\n      swap2\n      swap1\n      pop\n      jump\t// out\n        /* \"#utility.yul\":4685:4762   */\n    tag_127:\n        /* \"#utility.yul\":4722:4729   */\n      0x00\n        /* \"#utility.yul\":4751:4756   */\n      dup2\n        /* \"#utility.yul\":4740:4756   */\n      swap1\n      pop\n        /* \"#utility.yul\":4685:4762   */\n      swap2\n      swap1\n      pop\n      jump\t// out\n        /* \"#utility.yul\":4768:4876   */\n    tag_128:\n        /* \"#utility.yul\":4845:4869   */\n      tag_219\n        /* \"#utility.yul\":4863:4868   */\n      dup2\n        /* \"#utility.yul\":4845:4869   */\n      tag_127\n      jump\t// in\n    tag_219:\n        /* \"#utility.yul\":4840:4843   */\n      dup3\n        /* \"#utility.yul\":4833:4870   */\n      mstore\n        /* \"#utility.yul\":4768:4876   */\n      pop\n      pop\n      jump\t// out\n        /* \"#utility.yul\":4882:5061   */\n    tag_129:\n        /* \"#utility.yul\":4951:4961   */\n      0x00\n        /* \"#utility.yul\":4972:5018   */\n      tag_221\n        /* \"#utility.yul\":5014:5017   */\n      dup4\n        /* \"#utility.yul\":5006:5012   */\n      dup4\n        /* \"#utility.yul\":4972:5018   */\n      tag_128\n      jump\t// in\n    tag_221:\n        /* \"#utility.yul\":5050:5054   */\n      0x20\n        /* \"#utility.yul\":5045:5048   */\n      dup4\n        /* \"#utility.yul\":5041:5055   */\n      add\n        /* \"#utility.yul\":5027:5055   */\n      swap1\n      pop\n        /* \"#utility.yul\":4882:5061   */\n      swap3\n      swap2\n      pop\n      pop\n      jump\t// out\n        /* \"#utility.yul\":5067:5180   */\n    tag_130:\n        /* \"#utility.yul\":5137:5141   */\n      0x00\n        /* \"#utility.yul\":5169:5173   */\n      0x20\n        /* \"#utility.yul\":5164:5167   */\n      dup3\n        /* \"#utility.yul\":5160:5174   */\n      add\n        /* \"#utility.yul\":5152:5174   */\n      swap1\n      pop\n        /* \"#utility.yul\":5067:5180   */\n      swap2\n      swap1\n      pop\n      jump\t// out\n        /* \"#utility.yul\":5216:5948   */\n    tag_131:\n        /* \"#utility.yul\":5335:5338   */\n      0x00\n        /* \"#utility.yul\":5364:5418   */\n      tag_224\n        /* \"#utility.yul\":5412:5417   */\n      dup3\n        /* \"#utility.yul\":5364:5418   */\n      tag_124\n      jump\t// in\n    tag_224:\n        /* \"#utility.yul\":5434:5520   */\n      tag_225\n        /* \"#utility.yul\":5513:5519   */\n      dup2\n        /* \"#utility.yul\":5508:5511   */\n      dup6\n        /* \"#utility.yul\":5434:5520   */\n      tag_125\n      jump\t// in\n    tag_225:\n        /* \"#utility.yul\":5427:5520   */\n      swap4\n      pop\n        /* \"#utility.yul\":5544:5600   */\n      tag_226\n        /* \"#utility.yul\":5594:5599   */\n      dup4\n        /* \"#utility.yul\":5544:5600   */\n      tag_126\n      jump\t// in\n    tag_226:\n        /* \"#utility.yul\":5623:5630   */\n      dup1\n        /* \"#utility.yul\":5654:5655   */\n      0x00\n        /* \"#utility.yul\":5639:5923   */\n    tag_227:\n        /* \"#utility.yul\":5664:5670   */\n      dup4\n        /* \"#utility.yul\":5661:5662   */\n      dup2\n        /* \"#utility.yul\":5658:5671   */\n      lt\n        /* \"#utility.yul\":5639:5923   */\n      iszero\n      tag_229\n      jumpi\n        /* \"#utility.yul\":5740:5746   */\n      dup2\n        /* \"#utility.yul\":5734:5747   */\n      mload\n        /* \"#utility.yul\":5767:5830   */\n      tag_230\n        /* \"#utility.yul\":5826:5829   */\n      dup9\n        /* \"#utility.yul\":5811:5824   */\n      dup3\n        /* \"#utility.yul\":5767:5830   */\n      tag_129\n      jump\t// in\n    tag_230:\n        /* \"#utility.yul\":5760:5830   */\n      swap8\n      pop\n        /* \"#utility.yul\":5853:5913   */\n      tag_231\n        /* \"#utility.yul\":5906:5912   */\n      dup4\n        /* \"#utility.yul\":5853:5913   */\n      tag_130\n      jump\t// in\n    tag_231:\n        /* \"#utility.yul\":5843:5913   */\n      swap3\n      pop\n        /* \"#utility.yul\":5699:5923   */\n      pop\n        /* \"#utility.yul\":5686:5687   */\n      0x01\n        /* \"#utility.yul\":5683:5684   */\n      dup2\n        /* \"#utility.yul\":5679:5688   */\n      add\n        /* \"#utility.yul\":5674:5688   */\n      swap1\n      pop\n        /* \"#utility.yul\":5639:5923   */\n      jump(tag_227)\n    tag_229:\n        /* \"#utility.yul\":5643:5657   */\n      pop\n        /* \"#utility.yul\":5939:5942   */\n      dup6\n        /* \"#utility.yul\":5932:5942   */\n      swap4\n      pop\n        /* \"#utility.yul\":5340:5948   */\n      pop\n      pop\n      pop\n        /* \"#utility.yul\":5216:5948   */\n      swap3\n      swap2\n      pop\n      pop\n      jump\t// out\n        /* \"#utility.yul\":5954:6327   */\n    tag_22:\n        /* \"#utility.yul\":6097:6101   */\n      0x00\n        /* \"#utility.yul\":6135:6137   */\n      0x20\n        /* \"#utility.yul\":6124:6133   */\n      dup3\n        /* \"#utility.yul\":6120:6138   */\n      add\n        /* \"#utility.yul\":6112:6138   */\n      swap1\n      pop\n        /* \"#utility.yul\":6184:6193   */\n      dup2\n        /* \"#utility.yul\":6178:6182   */\n      dup2\n        /* \"#utility.yul\":6174:6194   */\n      sub\n        /* \"#utility.yul\":6170:6171   */\n      0x00\n        /* \"#utility.yul\":6159:6168   */\n      dup4\n        /* \"#utility.yul\":6155:6172   */\n      add\n        /* \"#utility.yul\":6148:6195   */\n      mstore\n        /* \"#utility.yul\":6212:6320   */\n      tag_233\n        /* \"#utility.yul\":6315:6319   */\n      dup2\n        /* \"#utility.yul\":6306:6312   */\n      dup5\n        /* \"#utility.yul\":6212:6320   */\n      tag_131\n      jump\t// in\n    tag_233:\n        /* \"#utility.yul\":6204:6320   */\n      swap1\n      pop\n        /* \"#utility.yul\":5954:6327   */\n      swap3\n      swap2\n      pop\n      pop\n      jump\t// out\n        /* \"#utility.yul\":6333:6451   */\n    tag_132:\n        /* \"#utility.yul\":6420:6444   */\n      tag_235\n        /* \"#utility.yul\":6438:6443   */\n      dup2\n        /* \"#utility.yul\":6420:6444   */\n      tag_121\n      jump\t// in\n    tag_235:\n        /* \"#utility.yul\":6415:6418   */\n      dup3\n        /* \"#utility.yul\":6408:6445   */\n      mstore\n        /* \"#utility.yul\":6333:6451   */\n      pop\n      pop\n      jump\t// out\n        /* \"#utility.yul\":6457:6556   */\n    tag_133:\n        /* \"#utility.yul\":6509:6515   */\n      0x00\n        /* \"#utility.yul\":6543:6548   */\n      dup2\n        /* \"#utility.yul\":6537:6549   */\n      mload\n        /* \"#utility.yul\":6527:6549   */\n      swap1\n      pop\n        /* \"#utility.yul\":6457:6556   */\n      swap2\n      swap1\n      pop\n      jump\t// out\n        /* \"#utility.yul\":6562:6731   */\n    tag_134:\n        /* \"#utility.yul\":6646:6657   */\n      0x00\n        /* \"#utility.yul\":6680:6686   */\n      dup3\n        /* \"#utility.yul\":6675:6678   */\n      dup3\n        /* \"#utility.yul\":6668:6687   */\n      mstore\n        /* \"#utility.yul\":6720:6724   */\n      0x20\n        /* \"#utility.yul\":6715:6718   */\n      dup3\n        /* \"#utility.yul\":6711:6725   */\n      add\n        /* \"#utility.yul\":6696:6725   */\n      swap1\n      pop\n        /* \"#utility.yul\":6562:6731   */\n      swap3\n      swap2\n      pop\n      pop\n      jump\t// out\n        /* \"#utility.yul\":6737:6876   */\n    tag_135:\n        /* \"#utility.yul\":6826:6832   */\n      dup3\n        /* \"#utility.yul\":6821:6824   */\n      dup2\n        /* \"#utility.yul\":6816:6819   */\n      dup4\n        /* \"#utility.yul\":6810:6833   */\n      mcopy\n        /* \"#utility.yul\":6867:6868   */\n      0x00\n        /* \"#utility.yul\":6858:6864   */\n      dup4\n        /* \"#utility.yul\":6853:6856   */\n      dup4\n        /* \"#utility.yul\":6849:6865   */\n      add\n        /* \"#utility.yul\":6842:6869   */\n      mstore\n        /* \"#utility.yul\":6737:6876   */\n      pop\n      pop\n      pop\n      jump\t// out\n        /* \"#utility.yul\":6882:7259   */\n    tag_136:\n        /* \"#utility.yul\":6970:6973   */\n      0x00\n        /* \"#utility.yul\":6998:7037   */\n      tag_240\n        /* \"#utility.yul\":7031:7036   */\n      dup3\n        /* \"#utility.yul\":6998:7037   */\n      tag_133\n      jump\t// in\n    tag_240:\n        /* \"#utility.yul\":7053:7124   */\n      tag_241\n        /* \"#utility.yul\":7117:7123   */\n      dup2\n        /* \"#utility.yul\":7112:7115   */\n      dup6\n        /* \"#utility.yul\":7053:7124   */\n      tag_134\n      jump\t// in\n    tag_241:\n        /* \"#utility.yul\":7046:7124   */\n      swap4\n      pop\n        /* \"#utility.yul\":7133:7198   */\n      tag_242\n        /* \"#utility.yul\":7191:7197   */\n      dup2\n        /* \"#utility.yul\":7186:7189   */\n      dup6\n        /* \"#utility.yul\":7179:7183   */\n      0x20\n        /* \"#utility.yul\":7172:7177   */\n      dup7\n        /* \"#utility.yul\":7168:7184   */\n      add\n        /* \"#utility.yul\":7133:7198   */\n      tag_135\n      jump\t// in\n    tag_242:\n        /* \"#utility.yul\":7223:7252   */\n      tag_243\n        /* \"#utility.yul\":7245:7251   */\n      dup2\n        /* \"#utility.yul\":7223:7252   */\n      tag_112\n      jump\t// in\n    tag_243:\n        /* \"#utility.yul\":7218:7221   */\n      dup5\n        /* \"#utility.yul\":7214:7253   */\n      add\n        /* \"#utility.yul\":7207:7253   */\n      swap2\n      pop\n        /* \"#utility.yul\":6974:7259   */\n      pop\n        /* \"#utility.yul\":6882:7259   */\n      swap3\n      swap2\n      pop\n      pop\n      jump\t// out\n        /* \"#utility.yul\":7265:7889   */\n    tag_27:\n        /* \"#utility.yul\":7454:7458   */\n      0x00\n        /* \"#utility.yul\":7492:7494   */\n      0x60\n        /* \"#utility.yul\":7481:7490   */\n      dup3\n        /* \"#utility.yul\":7477:7495   */\n      add\n        /* \"#utility.yul\":7469:7495   */\n      swap1\n      pop\n        /* \"#utility.yul\":7505:7576   */\n      tag_245\n        /* \"#utility.yul\":7573:7574   */\n      0x00\n        /* \"#utility.yul\":7562:7571   */\n      dup4\n        /* \"#utility.yul\":7558:7575   */\n      add\n        /* \"#utility.yul\":7549:7555   */\n      dup7\n        /* \"#utility.yul\":7505:7576   */\n      tag_132\n      jump\t// in\n    tag_245:\n        /* \"#utility.yul\":7623:7632   */\n      dup2\n        /* \"#utility.yul\":7617:7621   */\n      dup2\n        /* \"#utility.yul\":7613:7633   */\n      sub\n        /* \"#utility.yul\":7608:7610   */\n      0x20\n        /* \"#utility.yul\":7597:7606   */\n      dup4\n        /* \"#utility.yul\":7593:7611   */\n      add\n        /* \"#utility.yul\":7586:7634   */\n      mstore\n        /* \"#utility.yul\":7651:7729   */\n      tag_246\n        /* \"#utility.yul\":7724:7728   */\n      dup2\n        /* \"#utility.yul\":7715:7721   */\n      dup6\n        /* \"#utility.yul\":7651:7729   */\n      tag_136\n      jump\t// in\n    tag_246:\n        /* \"#utility.yul\":7643:7729   */\n      swap1\n      pop\n        /* \"#utility.yul\":7776:7785   */\n      dup2\n        /* \"#utility.yul\":7770:7774   */\n      dup2\n        /* \"#utility.yul\":7766:7786   */\n      sub\n        /* \"#utility.yul\":7761:7763   */\n      0x40\n        /* \"#utility.yul\":7750:7759   */\n      dup4\n        /* \"#utility.yul\":7746:7764   */\n      add\n        /* \"#utility.yul\":7739:7787   */\n      mstore\n        /* \"#utility.yul\":7804:7882   */\n      tag_247\n        /* \"#utility.yul\":7877:7881   */\n      dup2\n        /* \"#utility.yul\":7868:7874   */\n      dup5\n        /* \"#utility.yul\":7804:7882   */\n      tag_136\n      jump\t// in\n    tag_247:\n        /* \"#utility.yul\":7796:7882   */\n      swap1\n      pop\n        /* \"#utility.yul\":7265:7889   */\n      swap5\n      swap4\n      pop\n      pop\n      pop\n      pop\n      jump\t// out\n        /* \"#utility.yul\":7895:8017   */\n    tag_137:\n        /* \"#utility.yul\":7968:7992   */\n      tag_249\n        /* \"#utility.yul\":7986:7991   */\n      dup2\n        /* \"#utility.yul\":7968:7992   */\n      tag_127\n      jump\t// in\n    tag_249:\n        /* \"#utility.yul\":7961:7966   */\n      dup2\n        /* \"#utility.yul\":7958:7993   */\n      eq\n        /* \"#utility.yul\":7948:8011   */\n      tag_250\n      jumpi\n        /* \"#utility.yul\":8007:8008   */\n      0x00\n        /* \"#utility.yul\":8004:8005   */\n      0x00\n        /* \"#utility.yul\":7997:8009   */\n      revert\n        /* \"#utility.yul\":7948:8011   */\n    tag_250:\n        /* \"#utility.yul\":7895:8017   */\n      pop\n      jump\t// out\n        /* \"#utility.yul\":8023:8162   */\n    tag_138:\n        /* \"#utility.yul\":8069:8074   */\n      0x00\n        /* \"#utility.yul\":8107:8113   */\n      dup2\n        /* \"#utility.yul\":8094:8114   */\n      calldataload\n        /* \"#utility.yul\":8085:8114   */\n      swap1\n      pop\n        /* \"#utility.yul\":8123:8156   */\n      tag_252\n        /* \"#utility.yul\":8150:8155   */\n      dup2\n        /* \"#utility.yul\":8123:8156   */\n      tag_137\n      jump\t// in\n    tag_252:\n        /* \"#utility.yul\":8023:8162   */\n      swap3\n      swap2\n      pop\n      pop\n      jump\t// out\n        /* \"#utility.yul\":8168:8497   */\n    tag_38:\n        /* \"#utility.yul\":8227:8233   */\n      0x00\n        /* \"#utility.yul\":8276:8278   */\n      0x20\n        /* \"#utility.yul\":8264:8273   */\n      dup3\n        /* \"#utility.yul\":8255:8262   */\n      dup5\n        /* \"#utility.yul\":8251:8274   */\n      sub\n        /* \"#utility.yul\":8247:8279   */\n      slt\n        /* \"#utility.yul\":8244:8363   */\n      iszero\n      tag_254\n      jumpi\n        /* \"#utility.yul\":8282:8361   */\n      tag_255\n      tag_108\n      jump\t// in\n    tag_255:\n        /* \"#utility.yul\":8244:8363   */\n    tag_254:\n        /* \"#utility.yul\":8402:8403   */\n      0x00\n        /* \"#utility.yul\":8427:8480   */\n      tag_256\n        /* \"#utility.yul\":8472:8479   */\n      dup5\n        /* \"#utility.yul\":8463:8469   */\n      dup3\n        /* \"#utility.yul\":8452:8461   */\n      dup6\n        /* \"#utility.yul\":8448:8470   */\n      add\n        /* \"#utility.yul\":8427:8480   */\n      tag_138\n      jump\t// in\n    tag_256:\n        /* \"#utility.yul\":8417:8480   */\n      swap2\n      pop\n        /* \"#utility.yul\":8373:8490   */\n      pop\n        /* \"#utility.yul\":8168:8497   */\n      swap3\n      swap2\n      pop\n      pop\n      jump\t// out\n        /* \"#utility.yul\":8503:8621   */\n    tag_139:\n        /* \"#utility.yul\":8590:8614   */\n      tag_258\n        /* \"#utility.yul\":8608:8613   */\n      dup2\n        /* \"#utility.yul\":8590:8614   */\n      tag_127\n      jump\t// in\n    tag_258:\n        /* \"#utility.yul\":8585:8588   */\n      dup3\n        /* \"#utility.yul\":8578:8615   */\n      mstore\n        /* \"#utility.yul\":8503:8621   */\n      pop\n      pop\n      jump\t// out\n        /* \"#utility.yul\":8627:8849   */\n    tag_43:\n        /* \"#utility.yul\":8720:8724   */\n      0x00\n        /* \"#utility.yul\":8758:8760   */\n      0x20\n        /* \"#utility.yul\":8747:8756   */\n      dup3\n        /* \"#utility.yul\":8743:8761   */\n      add\n        /* \"#utility.yul\":8735:8761   */\n      swap1\n      pop\n        /* \"#utility.yul\":8771:8842   */\n      tag_260\n        /* \"#utility.yul\":8839:8840   */\n      0x00\n        /* \"#utility.yul\":8828:8837   */\n      dup4\n        /* \"#utility.yul\":8824:8841   */\n      add\n        /* \"#utility.yul\":8815:8821   */\n      dup5\n        /* \"#utility.yul\":8771:8842   */\n      tag_139\n      jump\t// in\n    tag_260:\n        /* \"#utility.yul\":8627:8849   */\n      swap3\n      swap2\n      pop\n      pop\n      jump\t// out\n        /* \"#utility.yul\":8855:9509   */\n    tag_49:\n        /* \"#utility.yul\":8933:8939   */\n      0x00\n        /* \"#utility.yul\":8941:8947   */\n      0x00\n        /* \"#utility.yul\":8990:8992   */\n      0x40\n        /* \"#utility.yul\":8978:8987   */\n      dup4\n        /* \"#utility.yul\":8969:8976   */\n      dup6\n        /* \"#utility.yul\":8965:8988   */\n      sub\n        /* \"#utility.yul\":8961:8993   */\n      slt\n        /* \"#utility.yul\":8958:9077   */\n      iszero\n      tag_262\n      jumpi\n        /* \"#utility.yul\":8996:9075   */\n      tag_263\n      tag_108\n      jump\t// in\n    tag_263:\n        /* \"#utility.yul\":8958:9077   */\n    tag_262:\n        /* \"#utility.yul\":9116:9117   */\n      0x00\n        /* \"#utility.yul\":9141:9194   */\n      tag_264\n        /* \"#utility.yul\":9186:9193   */\n      dup6\n        /* \"#utility.yul\":9177:9183   */\n      dup3\n        /* \"#utility.yul\":9166:9175   */\n      dup7\n        /* \"#utility.yul\":9162:9184   */\n      add\n        /* \"#utility.yul\":9141:9194   */\n      tag_123\n      jump\t// in\n    tag_264:\n        /* \"#utility.yul\":9131:9194   */\n      swap3\n      pop\n        /* \"#utility.yul\":9087:9204   */\n      pop\n        /* \"#utility.yul\":9271:9273   */\n      0x20\n        /* \"#utility.yul\":9260:9269   */\n      dup4\n        /* \"#utility.yul\":9256:9274   */\n      add\n        /* \"#utility.yul\":9243:9275   */\n      calldataload\n        /* \"#utility.yul\":9302:9320   */\n      0xffffffffffffffff\n        /* \"#utility.yul\":9294:9300   */\n      dup2\n        /* \"#utility.yul\":9291:9321   */\n      gt\n        /* \"#utility.yul\":9288:9405   */\n      iszero\n      tag_265\n      jumpi\n        /* \"#utility.yul\":9324:9403   */\n      tag_266\n      tag_109\n      jump\t// in\n    tag_266:\n        /* \"#utility.yul\":9288:9405   */\n    tag_265:\n        /* \"#utility.yul\":9429:9492   */\n      tag_267\n        /* \"#utility.yul\":9484:9491   */\n      dup6\n        /* \"#utility.yul\":9475:9481   */\n      dup3\n        /* \"#utility.yul\":9464:9473   */\n      dup7\n        /* \"#utility.yul\":9460:9482   */\n      add\n        /* \"#utility.yul\":9429:9492   */\n      tag_119\n      jump\t// in\n    tag_267:\n        /* \"#utility.yul\":9419:9492   */\n      swap2\n      pop\n        /* \"#utility.yul\":9214:9502   */\n      pop\n        /* \"#utility.yul\":8855:9509   */\n      swap3\n      pop\n      swap3\n      swap1\n      pop\n      jump\t// out\n        /* \"#utility.yul\":9515:9684   */\n    tag_140:\n        /* \"#utility.yul\":9655:9676   */\n      0x5573657220616c72656164792065786973747300000000000000000000000000\n        /* \"#utility.yul\":9651:9652   */\n      0x00\n        /* \"#utility.yul\":9643:9649   */\n      dup3\n        /* \"#utility.yul\":9639:9653   */\n      add\n        /* \"#utility.yul\":9632:9677   */\n      mstore\n        /* \"#utility.yul\":9515:9684   */\n      pop\n      jump\t// out\n        /* \"#utility.yul\":9690:10056   */\n    tag_141:\n        /* \"#utility.yul\":9832:9835   */\n      0x00\n        /* \"#utility.yul\":9853:9920   */\n      tag_270\n        /* \"#utility.yul\":9917:9919   */\n      0x13\n        /* \"#utility.yul\":9912:9915   */\n      dup4\n        /* \"#utility.yul\":9853:9920   */\n      tag_134\n      jump\t// in\n    tag_270:\n        /* \"#utility.yul\":9846:9920   */\n      swap2\n      pop\n        /* \"#utility.yul\":9929:10022   */\n      tag_271\n        /* \"#utility.yul\":10018:10021   */\n      dup3\n        /* \"#utility.yul\":9929:10022   */\n      tag_140\n      jump\t// in\n    tag_271:\n        /* \"#utility.yul\":10047:10049   */\n      0x20\n        /* \"#utility.yul\":10042:10045   */\n      dup3\n        /* \"#utility.yul\":10038:10050   */\n      add\n        /* \"#utility.yul\":10031:10050   */\n      swap1\n      pop\n        /* \"#utility.yul\":9690:10056   */\n      swap2\n      swap1\n      pop\n      jump\t// out\n        /* \"#utility.yul\":10062:10481   */\n    tag_54:\n        /* \"#utility.yul\":10228:10232   */\n      0x00\n        /* \"#utility.yul\":10266:10268   */\n      0x20\n        /* \"#utility.yul\":10255:10264   */\n      dup3\n        /* \"#utility.yul\":10251:10269   */\n      add\n        /* \"#utility.yul\":10243:10269   */\n      swap1\n      pop\n        /* \"#utility.yul\":10315:10324   */\n      dup2\n        /* \"#utility.yul\":10309:10313   */\n      dup2\n        /* \"#utility.yul\":10305:10325   */\n      sub\n        /* \"#utility.yul\":10301:10302   */\n      0x00\n        /* \"#utility.yul\":10290:10299   */\n      dup4\n        /* \"#utility.yul\":10286:10303   */\n      add\n        /* \"#utility.yul\":10279:10326   */\n      mstore\n        /* \"#utility.yul\":10343:10474   */\n      tag_273\n        /* \"#utility.yul\":10469:10473   */\n      dup2\n        /* \"#utility.yul\":10343:10474   */\n      tag_141\n      jump\t// in\n    tag_273:\n        /* \"#utility.yul\":10335:10474   */\n      swap1\n      pop\n        /* \"#utility.yul\":10062:10481   */\n      swap2\n      swap1\n      pop\n      jump\t// out\n        /* \"#utility.yul\":10487:10667   */\n    tag_142:\n        /* \"#utility.yul\":10535:10612   */\n      0x4e487b7100000000000000000000000000000000000000000000000000000000\n        /* \"#utility.yul\":10532:10533   */\n      0x00\n        /* \"#utility.yul\":10525:10613   */\n      mstore\n        /* \"#utility.yul\":10632:10636   */\n      0x11\n        /* \"#utility.yul\":10629:10630   */\n      0x04\n        /* \"#utility.yul\":10622:10637   */\n      mstore\n        /* \"#utility.yul\":10656:10660   */\n      0x24\n        /* \"#utility.yul\":10653:10654   */\n      0x00\n        /* \"#utility.yul\":10646:10661   */\n      revert\n        /* \"#utility.yul\":10673:10906   */\n    tag_56:\n        /* \"#utility.yul\":10712:10715   */\n      0x00\n        /* \"#utility.yul\":10735:10759   */\n      tag_276\n        /* \"#utility.yul\":10753:10758   */\n      dup3\n        /* \"#utility.yul\":10735:10759   */\n      tag_127\n      jump\t// in\n    tag_276:\n        /* \"#utility.yul\":10726:10759   */\n      swap2\n      pop\n        /* \"#utility.yul\":10781:10847   */\n      0xffffffffffffffffffffffffffffffffffffffffffffffffffffffffffffffff\n        /* \"#utility.yul\":10774:10779   */\n      dup3\n        /* \"#utility.yul\":10771:10848   */\n      sub\n        /* \"#utility.yul\":10768:10871   */\n      tag_277\n      jumpi\n        /* \"#utility.yul\":10851:10869   */\n      tag_278\n      tag_142\n      jump\t// in\n    tag_278:\n        /* \"#utility.yul\":10768:10871   */\n    tag_277:\n        /* \"#utility.yul\":10898:10899   */\n      0x01\n        /* \"#utility.yul\":10891:10896   */\n      dup3\n        /* \"#utility.yul\":10887:10900   */\n      add\n        /* \"#utility.yul\":10880:10900   */\n      swap1\n      pop\n        /* \"#utility.yul\":10673:10906   */\n      swap2\n      swap1\n      pop\n      jump\t// out\n        /* \"#utility.yul\":10912:11092   */\n    tag_143:\n        /* \"#utility.yul\":10960:11037   */\n      0x4e487b7100000000000000000000000000000000000000000000000000000000\n        /* \"#utility.yul\":10957:10958   */\n      0x00\n        /* \"#utility.yul\":10950:11038   */\n      mstore\n        /* \"#utility.yul\":11057:11061   */\n      0x22\n        /* \"#utility.yul\":11054:11055   */\n      0x04\n        /* \"#utility.yul\":11047:11062   */\n      mstore\n        /* \"#utility.yul\":11081:11085   */\n      0x24\n        /* \"#utility.yul\":11078:11079   */\n      0x00\n        /* \"#utility.yul\":11071:11086   */\n      revert\n        /* \"#utility.yul\":11098:11418   */\n    tag_65:\n        /* \"#utility.yul\":11142:11148   */\n      0x00\n        /* \"#utility.yul\":11179:11180   */\n      0x02\n        /* \"#utility.yul\":11173:11177   */\n      dup3\n        /* \"#utility.yul\":11169:11181   */\n      div\n        /* \"#utility.yul\":11159:11181   */\n      swap1\n      pop\n        /* \"#utility.yul\":11226:11227   */\n      0x01\n        /* \"#utility.yul\":11220:11224   */\n      dup3\n        /* \"#utility.yul\":11216:11228   */\n      and\n        /* \"#utility.yul\":11247:11265   */\n      dup1\n        /* \"#utility.yul\":11237:11318   */\n      tag_281\n      jumpi\n        /* \"#utility.yul\":11303:11307   */\n      0x7f\n        /* \"#utility.yul\":11295:11301   */\n      dup3\n        /* \"#utility.yul\":11291:11308   */\n      and\n        /* \"#utility.yul\":11281:11308   */\n      swap2\n      pop\n        /* \"#utility.yul\":11237:11318   */\n    tag_281:\n        /* \"#utility.yul\":11365:11367   */\n      0x20\n        /* \"#utility.yul\":11357:11363   */\n      dup3\n        /* \"#utility.yul\":11354:11368   */\n      lt\n        /* \"#utility.yul\":11334:11352   */\n      dup2\n        /* \"#utility.yul\":11331:11369   */\n      sub\n        /* \"#utility.yul\":11328:11412   */\n      tag_282\n      jumpi\n        /* \"#utility.yul\":11384:11402   */\n      tag_283\n      tag_143\n      jump\t// in\n    tag_283:\n        /* \"#utility.yul\":11328:11412   */\n    tag_282:\n        /* \"#utility.yul\":11149:11418   */\n      pop\n        /* \"#utility.yul\":11098:11418   */\n      swap2\n      swap1\n      pop\n      jump\t// out\n        /* \"#utility.yul\":11424:11565   */\n    tag_144:\n        /* \"#utility.yul\":11473:11477   */\n      0x00\n        /* \"#utility.yul\":11496:11499   */\n      dup2\n        /* \"#utility.yul\":11488:11499   */\n      swap1\n      pop\n        /* \"#utility.yul\":11519:11522   */\n      dup2\n        /* \"#utility.yul\":11516:11517   */\n      0x00\n        /* \"#utility.yul\":11509:11523   */\n      mstore\n        /* \"#utility.yul\":11553:11557   */\n      0x20\n        /* \"#utility.yul\":11550:11551   */\n      0x00\n        /* \"#utility.yul\":11540:11558   */\n      keccak256\n        /* \"#utility.yul\":11532:11558   */\n      swap1\n      pop\n        /* \"#utility.yul\":11424:11565   */\n      swap2\n      swap1\n      pop\n      jump\t// out\n        /* \"#utility.yul\":11571:11664   */\n    tag_145:\n        /* \"#utility.yul\":11608:11614   */\n      0x00\n        /* \"#utility.yul\":11655:11657   */\n      0x20\n        /* \"#utility.yul\":11650:11652   */\n      0x1f\n        /* \"#utility.yul\":11643:11648   */\n      dup4\n        /* \"#utility.yul\":11639:11653   */\n      add\n        /* \"#utility.yul\":11635:11658   */\n      div\n        /* \"#utility.yul\":11625:11658   */\n      swap1\n      pop\n        /* \"#utility.yul\":11571:11664   */\n      swap2\n      swap1\n      pop\n      jump\t// out\n        /* \"#utility.yul\":11670:11777   */\n    tag_146:\n        /* \"#utility.yul\":11714:11722   */\n      0x00\n        /* \"#utility.yul\":11764:11769   */\n      dup3\n        /* \"#utility.yul\":11758:11762   */\n      dup3\n        /* \"#utility.yul\":11754:11770   */\n      shl\n        /* \"#utility.yul\":11733:11770   */\n      swap1\n      pop\n        /* \"#utility.yul\":11670:11777   */\n      swap3\n      swap2\n      pop\n      pop\n      jump\t// out\n        /* \"#utility.yul\":11783:12176   */\n    tag_147:\n        /* \"#utility.yul\":11852:11858   */\n      0x00\n        /* \"#utility.yul\":11902:11903   */\n      0x08\n        /* \"#utility.yul\":11890:11900   */\n      dup4\n        /* \"#utility.yul\":11886:11904   */\n      mul\n        /* \"#utility.yul\":11925:12022   */\n      tag_288\n        /* \"#utility.yul\":11955:12021   */\n      0xffffffffffffffffffffffffffffffffffffffffffffffffffffffffffffffff\n        /* \"#utility.yul\":11944:11953   */\n      dup3\n        /* \"#utility.yul\":11925:12022   */\n      tag_146\n      jump\t// in\n    tag_288:\n        /* \"#utility.yul\":12043:12082   */\n      tag_289\n        /* \"#utility.yul\":12073:12081   */\n      dup7\n        /* \"#utility.yul\":12062:12071   */\n      dup4\n        /* \"#utility.yul\":12043:12082   */\n      tag_146\n      jump\t// in\n    tag_289:\n        /* \"#utility.yul\":12031:12082   */\n      swap6\n      pop\n        /* \"#utility.yul\":12115:12119   */\n      dup1\n        /* \"#utility.yul\":12111:12120   */\n      not\n        /* \"#utility.yul\":12104:12109   */\n      dup5\n        /* \"#utility.yul\":12100:12121   */\n      and\n        /* \"#utility.yul\":12091:12121   */\n      swap4\n      pop\n        /* \"#utility.yul\":12164:12168   */\n      dup1\n        /* \"#utility.yul\":12154:12162   */\n      dup7\n        /* \"#utility.yul\":12150:12169   */\n      and\n        /* \"#utility.yul\":12143:12148   */\n      dup5\n        /* \"#utility.yul\":12140:12170   */\n      or\n        /* \"#utility.yul\":12130:12170   */\n      swap3\n      pop\n        /* \"#utility.yul\":11859:12176   */\n      pop\n      pop\n        /* \"#utility.yul\":11783:12176   */\n      swap4\n      swap3\n      pop\n      pop\n      pop\n      jump\t// out\n        /* \"#utility.yul\":12182:12242   */\n    tag_148:\n        /* \"#utility.yul\":12210:12213   */\n      0x00\n        /* \"#utility.yul\":12231:12236   */\n      dup2\n        /* \"#utility.yul\":12224:12236   */\n      swap1\n      pop\n        /* \"#utility.yul\":12182:12242   */\n      swap2\n      swap1\n      pop\n      jump\t// out\n        /* \"#utility.yul\":12248:12390   */\n    tag_149:\n        /* \"#utility.yul\":12298:12307   */\n      0x00\n        /* \"#utility.yul\":12331:12384   */\n      tag_292\n        /* \"#utility.yul\":12349:12383   */\n      tag_293\n        /* \"#utility.yul\":12358:12382   */\n      tag_294\n        /* \"#utility.yul\":12376:12381   */\n      dup5\n        /* \"#utility.yul\":12358:12382   */\n      tag_127\n      jump\t// in\n    tag_294:\n        /* \"#utility.yul\":12349:12383   */\n      tag_148\n      jump\t// in\n    tag_293:\n        /* \"#utility.yul\":12331:12384   */\n      tag_127\n      jump\t// in\n    tag_292:\n        /* \"#utility.yul\":12318:12384   */\n      swap1\n      pop\n        /* \"#utility.yul\":12248:12390   */\n      swap2\n      swap1\n      pop\n      jump\t// out\n        /* \"#utility.yul\":12396:12471   */\n    tag_150:\n        /* \"#utility.yul\":12439:12442   */\n      0x00\n        /* \"#utility.yul\":12460:12465   */\n      dup2\n        /* \"#utility.yul\":12453:12465   */\n      swap1\n      pop\n        /* \"#utility.yul\":12396:12471   */\n      swap2\n      swap1\n      pop\n      jump\t// out\n        /* \"#utility.yul\":12477:12746   */\n    tag_151:\n        /* \"#utility.yul\":12587:12626   */\n      tag_297\n        /* \"#utility.yul\":12618:12625   */\n      dup4\n        /* \"#utility.yul\":12587:12626   */\n      tag_149\n      jump\t// in\n    tag_297:\n        /* \"#utility.yul\":12648:12739   */\n      tag_298\n        /* \"#utility.yul\":12697:12738   */\n      tag_299\n        /* \"#utility.yul\":12721:12737   */\n      dup3\n        /* \"#utility.yul\":12697:12738   */\n      tag_150\n      jump\t// in\n    tag_299:\n        /* \"#utility.yul\":12689:12695   */\n      dup5\n        /* \"#utility.yul\":12682:12686   */\n      dup5\n        /* \"#utility.yul\":12676:12687   */\n      sload\n        /* \"#utility.yul\":12648:12739   */\n      tag_147\n      jump\t// in\n    tag_298:\n        /* \"#utility.yul\":12642:12646   */\n      dup3\n        /* \"#utility.yul\":12635:12740   */\n      sstore\n        /* \"#utility.yul\":12553:12746   */\n      pop\n        /* \"#utility.yul\":12477:12746   */\n      pop\n      pop\n      pop\n      jump\t// out\n        /* \"#utility.yul\":12752:12825   */\n    tag_152:\n        /* \"#utility.yul\":12797:12800   */\n      0x00\n        /* \"#utility.yul\":12818:12819   */\n      0x00\n        /* \"#utility.yul\":12811:12819   */\n      swap1\n      pop\n        /* \"#utility.yul\":12752:12825   */\n      swap1\n      jump\t// out\n        /* \"#utility.yul\":12831:13020   */\n    tag_153:\n        /* \"#utility.yul\":12908:12940   */\n      tag_302\n      tag_152\n      jump\t// in\n    tag_302:\n        /* \"#utility.yul\":12949:13014   */\n      tag_303\n        /* \"#utility.yul\":13007:13013   */\n      dup2\n        /* \"#utility.yul\":12999:13005   */\n      dup5\n        /* \"#utility.yul\":12993:12997   */\n      dup5\n        /* \"#utility.yul\":12949:13014   */\n      tag_151\n      jump\t// in\n    tag_303:\n        /* \"#utility.yul\":12884:13020   */\n      pop\n        /* \"#utility.yul\":12831:13020   */\n      pop\n      pop\n      jump\t// out\n        /* \"#utility.yul\":13026:13212   */\n    tag_154:\n        /* \"#utility.yul\":13086:13206   */\n    tag_305:\n        /* \"#utility.yul\":13103:13106   */\n      dup2\n        /* \"#utility.yul\":13096:13101   */\n      dup2\n        /* \"#utility.yul\":13093:13107   */\n      lt\n        /* \"#utility.yul\":13086:13206   */\n      iszero\n      tag_307\n      jumpi\n        /* \"#utility.yul\":13157:13196   */\n      tag_308\n        /* \"#utility.yul\":13194:13195   */\n      0x00\n        /* \"#utility.yul\":13187:13192   */\n      dup3\n        /* \"#utility.yul\":13157:13196   */\n      tag_153\n      jump\t// in\n    tag_308:\n        /* \"#utility.yul\":13130:13131   */\n      0x01\n        /* \"#utility.yul\":13123:13128   */\n      dup2\n        /* \"#utility.yul\":13119:13132   */\n      add\n        /* \"#utility.yul\":13110:13132   */\n      swap1\n      pop\n        /* \"#utility.yul\":13086:13206   */\n      jump(tag_305)\n    tag_307:\n        /* \"#utility.yul\":13026:13212   */\n      pop\n      pop\n      jump\t// out\n        /* \"#utility.yul\":13218:13761   */\n    tag_155:\n        /* \"#utility.yul\":13319:13321   */\n      0x1f\n        /* \"#utility.yul\":13314:13317   */\n      dup3\n        /* \"#utility.yul\":13311:13322   */\n      gt\n        /* \"#utility.yul\":13308:13754   */\n      iszero\n      tag_310\n      jumpi\n        /* \"#utility.yul\":13353:13391   */\n      tag_311\n        /* \"#utility.yul\":13385:13390   */\n      dup2\n        /* \"#utility.yul\":13353:13391   */\n      tag_144\n      jump\t// in\n    tag_311:\n        /* \"#utility.yul\":13437:13466   */\n      tag_312\n        /* \"#utility.yul\":13455:13465   */\n      dup5\n        /* \"#utility.yul\":13437:13466   */\n      tag_145\n      jump\t// in\n    tag_312:\n        /* \"#utility.yul\":13427:13435   */\n      dup2\n        /* \"#utility.yul\":13423:13467   */\n      add\n        /* \"#utility.yul\":13620:13622   */\n      0x20\n        /* \"#utility.yul\":13608:13618   */\n      dup6\n        /* \"#utility.yul\":13605:13623   */\n      lt\n        /* \"#utility.yul\":13602:13651   */\n      iszero\n      tag_313\n      jumpi\n        /* \"#utility.yul\":13641:13649   */\n      dup2\n        /* \"#utility.yul\":13626:13649   */\n      swap1\n      pop\n        /* \"#utility.yul\":13602:13651   */\n    tag_313:\n        /* \"#utility.yul\":13664:13744   */\n      tag_314\n        /* \"#utility.yul\":13720:13742   */\n      tag_315\n        /* \"#utility.yul\":13738:13741   */\n      dup6\n        /* \"#utility.yul\":13720:13742   */\n      tag_145\n      jump\t// in\n    tag_315:\n        /* \"#utility.yul\":13710:13718   */\n      dup4\n        /* \"#utility.yul\":13706:13743   */\n      add\n        /* \"#utility.yul\":13693:13704   */\n      dup3\n        /* \"#utility.yul\":13664:13744   */\n      tag_154\n      jump\t// in\n    tag_314:\n        /* \"#utility.yul\":13323:13754   */\n      pop\n      pop\n        /* \"#utility.yul\":13308:13754   */\n    tag_310:\n        /* \"#utility.yul\":13218:13761   */\n      pop\n      pop\n      pop\n      jump\t// out\n        /* \"#utility.yul\":13767:13884   */\n    tag_156:\n        /* \"#utility.yul\":13821:13829   */\n      0x00\n        /* \"#utility.yul\":13871:13876   */\n      dup3\n        /* \"#utility.yul\":13865:13869   */\n      dup3\n        /* \"#utility.yul\":13861:13877   */\n      shr\n        /* \"#utility.yul\":13840:13877   */\n      swap1\n      pop\n        /* \"#utility.yul\":13767:13884   */\n      swap3\n      swap2\n      pop\n      pop\n      jump\t// out\n        /* \"#utility.yul\":13890:14059   */\n    tag_157:\n        /* \"#utility.yul\":13934:13940   */\n      0x00\n        /* \"#utility.yul\":13967:14018   */\n      tag_318\n        /* \"#utility.yul\":14015:14016   */\n      0x00\n        /* \"#utility.yul\":14011:14017   */\n      not\n        /* \"#utility.yul\":14003:14008   */\n      dup5\n        /* \"#utility.yul\":14000:14001   */\n      0x08\n        /* \"#utility.yul\":13996:14009   */\n      mul\n        /* \"#utility.yul\":13967:14018   */\n      tag_156\n      jump\t// in\n    tag_318:\n        /* \"#utility.yul\":13963:14019   */\n      not\n        /* \"#utility.yul\":14048:14052   */\n      dup1\n        /* \"#utility.yul\":14042:14046   */\n      dup4\n        /* \"#utility.yul\":14038:14053   */\n      and\n        /* \"#utility.yul\":14028:14053   */\n      swap2\n      pop\n        /* \"#utility.yul\":13941:14059   */\n      pop\n        /* \"#utility.yul\":13890:14059   */\n      swap3\n      swap2\n      pop\n      pop\n      jump\t// out\n        /* \"#utility.yul\":14064:14359   */\n    tag_158:\n        /* \"#utility.yul\":14140:14144   */\n      0x00\n        /* \"#utility.yul\":14286:14315   */\n      tag_320\n        /* \"#utility.yul\":14311:14314   */\n      dup4\n        /* \"#utility.yul\":14305:14309   */\n      dup4\n        /* \"#utility.yul\":14286:14315   */\n      tag_157\n      jump\t// in\n    tag_320:\n        /* \"#utility.yul\":14278:14315   */\n      swap2\n      pop\n        /* \"#utility.yul\":14348:14351   */\n      dup3\n        /* \"#utility.yul\":14345:14346   */\n      0x02\n        /* \"#utility.yul\":14341:14352   */\n      mul\n        /* \"#utility.yul\":14335:14339   */\n      dup3\n        /* \"#utility.yul\":14332:14353   */\n      or\n        /* \"#utility.yul\":14324:14353   */\n      swap1\n      pop\n        /* \"#utility.yul\":14064:14359   */\n      swap3\n      swap2\n      pop\n      pop\n      jump\t// out\n        /* \"#utility.yul\":14364:15759   */\n    tag_58:\n        /* \"#utility.yul\":14481:14518   */\n      tag_322\n        /* \"#utility.yul\":14514:14517   */\n      dup3\n        /* \"#utility.yul\":14481:14518   */\n      tag_133\n      jump\t// in\n    tag_322:\n        /* \"#utility.yul\":14583:14601   */\n      0xffffffffffffffff\n        /* \"#utility.yul\":14575:14581   */\n      dup2\n        /* \"#utility.yul\":14572:14602   */\n      gt\n        /* \"#utility.yul\":14569:14625   */\n      iszero\n      tag_323\n      jumpi\n        /* \"#utility.yul\":14605:14623   */\n      tag_324\n      tag_113\n      jump\t// in\n    tag_324:\n        /* \"#utility.yul\":14569:14625   */\n    tag_323:\n        /* \"#utility.yul\":14649:14687   */\n      tag_325\n        /* \"#utility.yul\":14681:14685   */\n      dup3\n        /* \"#utility.yul\":14675:14686   */\n      sload\n        /* \"#utility.yul\":14649:14687   */\n      tag_65\n      jump\t// in\n    tag_325:\n        /* \"#utility.yul\":14734:14801   */\n      tag_326\n        /* \"#utility.yul\":14794:14800   */\n      dup3\n        /* \"#utility.yul\":14786:14792   */\n      dup3\n        /* \"#utility.yul\":14780:14784   */\n      dup6\n        /* \"#utility.yul\":14734:14801   */\n      tag_155\n      jump\t// in\n    tag_326:\n        /* \"#utility.yul\":14828:14829   */\n      0x00\n        /* \"#utility.yul\":14852:14856   */\n      0x20\n        /* \"#utility.yul\":14839:14856   */\n      swap1\n      pop\n        /* \"#utility.yul\":14884:14886   */\n      0x1f\n        /* \"#utility.yul\":14876:14882   */\n      dup4\n        /* \"#utility.yul\":14873:14887   */\n      gt\n        /* \"#utility.yul\":14901:14902   */\n      0x01\n        /* \"#utility.yul\":14896:15514   */\n      dup2\n      eq\n      tag_328\n      jumpi\n        /* \"#utility.yul\":15558:15559   */\n      0x00\n        /* \"#utility.yul\":15575:15581   */\n      dup5\n        /* \"#utility.yul\":15572:15649   */\n      iszero\n      tag_329\n      jumpi\n        /* \"#utility.yul\":15624:15633   */\n      dup3\n        /* \"#utility.yul\":15619:15622   */\n      dup8\n        /* \"#utility.yul\":15615:15634   */\n      add\n        /* \"#utility.yul\":15609:15635   */\n      mload\n        /* \"#utility.yul\":15600:15635   */\n      swap1\n      pop\n        /* \"#utility.yul\":15572:15649   */\n    tag_329:\n        /* \"#utility.yul\":15675:15742   */\n      tag_330\n        /* \"#utility.yul\":15735:15741   */\n      dup6\n        /* \"#utility.yul\":15728:15733   */\n      dup3\n        /* \"#utility.yul\":15675:15742   */\n      tag_158\n      jump\t// in\n    tag_330:\n        /* \"#utility.yul\":15669:15673   */\n      dup7\n        /* \"#utility.yul\":15662:15743   */\n      sstore\n        /* \"#utility.yul\":15531:15753   */\n      pop\n        /* \"#utility.yul\":14866:15753   */\n      jump(tag_327)\n        /* \"#utility.yul\":14896:15514   */\n    tag_328:\n        /* \"#utility.yul\":14948:14952   */\n      0x1f\n        /* \"#utility.yul\":14944:14953   */\n      not\n        /* \"#utility.yul\":14936:14942   */\n      dup5\n        /* \"#utility.yul\":14932:14954   */\n      and\n        /* \"#utility.yul\":14982:15019   */\n      tag_331\n        /* \"#utility.yul\":15014:15018   */\n      dup7\n        /* \"#utility.yul\":14982:15019   */\n      tag_144\n      jump\t// in\n    tag_331:\n        /* \"#utility.yul\":15041:15042   */\n      0x00\n        /* \"#utility.yul\":15055:15263   */\n    tag_332:\n        /* \"#utility.yul\":15069:15076   */\n      dup3\n        /* \"#utility.yul\":15066:15067   */\n      dup2\n        /* \"#utility.yul\":15063:15077   */\n      lt\n        /* \"#utility.yul\":15055:15263   */\n      iszero\n      tag_334\n      jumpi\n        /* \"#utility.yul\":15148:15157   */\n      dup5\n        /* \"#utility.yul\":15143:15146   */\n      dup10\n        /* \"#utility.yul\":15139:15158   */\n      add\n        /* \"#utility.yul\":15133:15159   */\n      mload\n        /* \"#utility.yul\":15125:15131   */\n      dup3\n        /* \"#utility.yul\":15118:15160   */\n      sstore\n        /* \"#utility.yul\":15199:15200   */\n      0x01\n        /* \"#utility.yul\":15191:15197   */\n      dup3\n        /* \"#utility.yul\":15187:15201   */\n      add\n        /* \"#utility.yul\":15177:15201   */\n      swap2\n      pop\n        /* \"#utility.yul\":15246:15248   */\n      0x20\n        /* \"#utility.yul\":15235:15244   */\n      dup6\n        /* \"#utility.yul\":15231:15249   */\n      add\n        /* \"#utility.yul\":15218:15249   */\n      swap5\n      pop\n        /* \"#utility.yul\":15092:15096   */\n      0x20\n        /* \"#utility.yul\":15089:15090   */\n      dup2\n        /* \"#utility.yul\":15085:15097   */\n      add\n        /* \"#utility.yul\":15080:15097   */\n      swap1\n      pop\n        /* \"#utility.yul\":15055:15263   */\n      jump(tag_332)\n    tag_334:\n        /* \"#utility.yul\":15291:15297   */\n      dup7\n        /* \"#utility.yul\":15282:15289   */\n      dup4\n        /* \"#utility.yul\":15279:15298   */\n      lt\n        /* \"#utility.yul\":15276:15455   */\n      iszero\n      tag_335\n      jumpi\n        /* \"#utility.yul\":15349:15358   */\n      dup5\n        /* \"#utility.yul\":15344:15347   */\n      dup10\n        /* \"#utility.yul\":15340:15359   */\n      add\n        /* \"#utility.yul\":15334:15360   */\n      mload\n        /* \"#utility.yul\":15392:15440   */\n      tag_336\n        /* \"#utility.yul\":15434:15438   */\n      0x1f\n        /* \"#utility.yul\":15426:15432   */\n      dup10\n        /* \"#utility.yul\":15422:15439   */\n      and\n        /* \"#utility.yul\":15411:15420   */\n      dup3\n        /* \"#utility.yul\":15392:15440   */\n      tag_157\n      jump\t// in\n    tag_336:\n        /* \"#utility.yul\":15384:15390   */\n      dup4\n        /* \"#utility.yul\":15377:15441   */\n      sstore\n        /* \"#utility.yul\":15299:15455   */\n      pop\n        /* \"#utility.yul\":15276:15455   */\n    tag_335:\n        /* \"#utility.yul\":15501:15502   */\n      0x01\n        /* \"#utility.yul\":15497:15498   */\n      0x02\n        /* \"#utility.yul\":15489:15495   */\n      dup9\n        /* \"#utility.yul\":15485:15499   */\n      mul\n        /* \"#utility.yul\":15481:15503   */\n      add\n        /* \"#utility.yul\":15475:15479   */\n      dup9\n        /* \"#utility.yul\":15468:15504   */\n      sstore\n        /* \"#utility.yul\":14903:15514   */\n      pop\n      pop\n      pop\n        /* \"#utility.yul\":14866:15753   */\n    tag_327:\n      pop\n        /* \"#utility.yul\":14456:15759   */\n      pop\n      pop\n      pop\n        /* \"#utility.yul\":14364:15759   */\n      pop\n      pop\n      jump\t// out\n        /* \"#utility.yul\":15765:15929   */\n    tag_159:\n        /* \"#utility.yul\":15905:15921   */\n      0x55736572206e6f7420666f756e64000000000000000000000000000000000000\n        /* \"#utility.yul\":15901:15902   */\n      0x00\n        /* \"#utility.yul\":15893:15899   */\n      dup3\n        /* \"#utility.yul\":15889:15903   */\n      add\n        /* \"#utility.yul\":15882:15922   */\n      mstore\n        /* \"#utility.yul\":15765:15929   */\n      pop\n      jump\t// out\n        /* \"#utility.yul\":15935:16301   */\n    tag_160:\n        /* \"#utility.yul\":16077:16080   */\n      0x00\n        /* \"#utility.yul\":16098:16165   */\n      tag_339\n        /* \"#utility.yul\":16162:16164   */\n      0x0e\n        /* \"#utility.yul\":16157:16160   */\n      dup4\n        /* \"#utility.yul\":16098:16165   */\n      tag_134\n      jump\t// in\n    tag_339:\n        /* \"#utility.yul\":16091:16165   */\n      swap2\n      pop\n        /* \"#utility.yul\":16174:16267   */\n      tag_340\n        /* \"#utility.yul\":16263:16266   */\n      dup3\n        /* \"#utility.yul\":16174:16267   */\n      tag_159\n      jump\t// in\n    tag_340:\n        /* \"#utility.yul\":16292:16294   */\n      0x20\n        /* \"#utility.yul\":16287:16290   */\n      dup3\n        /* \"#utility.yul\":16283:16295   */\n      add\n        /* \"#utility.yul\":16276:16295   */\n      swap1\n      pop\n        /* \"#utility.yul\":15935:16301   */\n      swap2\n      swap1\n      pop\n      jump\t// out\n        /* \"#utility.yul\":16307:16726   */\n    tag_95:\n        /* \"#utility.yul\":16473:16477   */\n      0x00\n        /* \"#utility.yul\":16511:16513   */\n      0x20\n        /* \"#utility.yul\":16500:16509   */\n      dup3\n        /* \"#utility.yul\":16496:16514   */\n      add\n        /* \"#utility.yul\":16488:16514   */\n      swap1\n      pop\n        /* \"#utility.yul\":16560:16569   */\n      dup2\n        /* \"#utility.yul\":16554:16558   */\n      dup2\n        /* \"#utility.yul\":16550:16570   */\n      sub\n        /* \"#utility.yul\":16546:16547   */\n      0x00\n        /* \"#utility.yul\":16535:16544   */\n      dup4\n        /* \"#utility.yul\":16531:16548   */\n      add\n        /* \"#utility.yul\":16524:16571   */\n      mstore\n        /* \"#utility.yul\":16588:16719   */\n      tag_342\n        /* \"#utility.yul\":16714:16718   */\n      dup2\n        /* \"#utility.yul\":16588:16719   */\n      tag_160\n      jump\t// in\n    tag_342:\n        /* \"#utility.yul\":16580:16719   */\n      swap1\n      pop\n        /* \"#utility.yul\":16307:16726   */\n      swap2\n      swap1\n      pop\n      jump\t// out\n        /* \"#utility.yul\":16732:16896   */\n    tag_161:\n        /* \"#utility.yul\":16872:16888   */\n      0x4e6f7420617574686f72697a6564000000000000000000000000000000000000\n        /* \"#utility.yul\":16868:16869   */\n      0x00\n        /* \"#utility.yul\":16860:16866   */\n      dup3\n        /* \"#utility.yul\":16856:16870   */\n      add\n        /* \"#utility.yul\":16849:16889   */\n      mstore\n        /* \"#utility.yul\":16732:16896   */\n      pop\n      jump\t// out\n        /* \"#utility.yul\":16902:17268   */\n    tag_162:\n        /* \"#utility.yul\":17044:17047   */\n      0x00\n        /* \"#utility.yul\":17065:17132   */\n      tag_345\n        /* \"#utility.yul\":17129:17131   */\n      0x0e\n        /* \"#utility.yul\":17124:17127   */\n      dup4\n        /* \"#utility.yul\":17065:17132   */\n      tag_134\n      jump\t// in\n    tag_345:\n        /* \"#utility.yul\":17058:17132   */\n      swap2\n      pop\n        /* \"#utility.yul\":17141:17234   */\n      tag_346\n        /* \"#utility.yul\":17230:17233   */\n      dup3\n        /* \"#utility.yul\":17141:17234   */\n      tag_161\n      jump\t// in\n    tag_346:\n        /* \"#utility.yul\":17259:17261   */\n      0x20\n        /* \"#utility.yul\":17254:17257   */\n      dup3\n        /* \"#utility.yul\":17250:17262   */\n      add\n        /* \"#utility.yul\":17243:17262   */\n      swap1\n      pop\n        /* \"#utility.yul\":16902:17268   */\n      swap2\n      swap1\n      pop\n      jump\t// out\n        /* \"#utility.yul\":17274:17693   */\n    tag_104:\n        /* \"#utility.yul\":17440:17444   */\n      0x00\n        /* \"#utility.yul\":17478:17480   */\n      0x20\n        /* \"#utility.yul\":17467:17476   */\n      dup3\n        /* \"#utility.yul\":17463:17481   */\n      add\n        /* \"#utility.yul\":17455:17481   */\n      swap1\n      pop\n        /* \"#utility.yul\":17527:17536   */\n      dup2\n        /* \"#utility.yul\":17521:17525   */\n      dup2\n        /* \"#utility.yul\":17517:17537   */\n      sub\n        /* \"#utility.yul\":17513:17514   */\n      0x00\n        /* \"#utility.yul\":17502:17511   */\n      dup4\n        /* \"#utility.yul\":17498:17515   */\n      add\n        /* \"#utility.yul\":17491:17538   */\n      mstore\n        /* \"#utility.yul\":17555:17686   */\n      tag_348\n        /* \"#utility.yul\":17681:17685   */\n      dup2\n        /* \"#utility.yul\":17555:17686   */\n      tag_162\n      jump\t// in\n    tag_348:\n        /* \"#utility.yul\":17547:17686   */\n      swap1\n      pop\n        /* \"#utility.yul\":17274:17693   */\n      swap2\n      swap1\n      pop\n      jump\t// out\n\n    auxdata: 0xa2646970667358221220c6a1b42de0184fb02c170a81cf2970ab750f76b13cde4e1e26e6da9e6fc4a38a64736f6c634300081c0033\n}\n",
				"bytecode": {
					"linkReferences": {},
					"object": "6080604052348015600e575f5ffd5b506115658061001c5f395ff3fe608060405234801561000f575f5ffd5b5060043610610091575f3560e01c8063a87430ba11610064578063a87430ba14610143578063b9aa11b914610175578063bff1f9e114610191578063c9f107f6146101af578063d0cc47bb146101cb57610091565b8063079eaf341461009557806335debf2d146100b15780636f77926b146100e15780638d50526314610113575b5f5ffd5b6100af60048036038101906100aa9190610d53565b6101e7565b005b6100cb60048036038101906100c69190610e23565b610373565b6040516100d89190610f0e565b60405180910390f35b6100fb60048036038101906100f69190610e23565b610409565b60405161010a93929190610f9d565b60405180910390f35b61012d60048036038101906101289190610e23565b610694565b60405161013a9190610f0e565b60405180910390f35b61015d60048036038101906101589190610e23565b61072a565b60405161016c93929190610f9d565b60405180910390f35b61018f600480360381019061018a919061100a565b61087b565b005b6101996109ae565b6040516101a69190611044565b60405180910390f35b6101c960048036038101906101c4919061100a565b6109b3565b005b6101e560048036038101906101e0919061105d565b610ae6565b005b5f73ffffffffffffffffffffffffffffffffffffffff1660015f3373ffffffffffffffffffffffffffffffffffffffff1673ffffffffffffffffffffffffffffffffffffffff1681526020019081526020015f205f015f9054906101000a900473ffffffffffffffffffffffffffffffffffffffff1673ffffffffffffffffffffffffffffffffffffffff16146102b3576040517f08c379a00000000000000000000000000000000000000000000000000000000081526004016102aa90611101565b60405180910390fd5b5f5f8154809291906102c49061114c565b91905055505f60015f3373ffffffffffffffffffffffffffffffffffffffff1673ffffffffffffffffffffffffffffffffffffffff1681526020019081526020015f20905033815f015f6101000a81548173ffffffffffffffffffffffffffffffffffffffff021916908373ffffffffffffffffffffffffffffffffffffffff1602179055508281600101908161035b9190611390565b508181600201908161036d9190611390565b50505050565b606060015f8373ffffffffffffffffffffffffffffffffffffffff1673ffffffffffffffffffffffffffffffffffffffff1681526020019081526020015f206003018054806020026020016040519081016040528092919081815260200182805480156103fd57602002820191905f5260205f20905b8154815260200190600101908083116103e9575b50505050509050919050565b5f6060805f60015f8673ffffffffffffffffffffffffffffffffffffffff1673ffffffffffffffffffffffffffffffffffffffff1681526020019081526020015f206040518060a00160405290815f82015f9054906101000a900473ffffffffffffffffffffffffffffffffffffffff1673ffffffffffffffffffffffffffffffffffffffff1673ffffffffffffffffffffffffffffffffffffffff1681526020016001820180546104ba906111c0565b80601f01602080910402602001604051908101604052809291908181526020018280546104e6906111c0565b80156105315780601f1061050857610100808354040283529160200191610531565b820191905f5260205f20905b81548152906001019060200180831161051457829003601f168201915b5050505050815260200160028201805461054a906111c0565b80601f0160208091040260200160405190810160405280929190818152602001828054610576906111c0565b80156105c15780601f10610598576101008083540402835291602001916105c1565b820191905f5260205f20905b8154815290600101906020018083116105a457829003601f168201915b505050505081526020016003820180548060200260200160405190810160405280929190818152602001828054801561061757602002820191905f5260205f20905b815481526020019060010190808311610603575b505050505081526020016004820180548060200260200160405190810160405280929190818152602001828054801561066d57602002820191905f5260205f20905b815481526020019060010190808311610659575b5050505050815250509050805f015181602001518260400151935093509350509193909250565b606060015f8373ffffffffffffffffffffffffffffffffffffffff1673ffffffffffffffffffffffffffffffffffffffff1681526020019081526020015f2060040180548060200260200160405190810160405280929190818152602001828054801561071e57602002820191905f5260205f20905b81548152602001906001019080831161070a575b50505050509050919050565b6001602052805f5260405f205f91509050805f015f9054906101000a900473ffffffffffffffffffffffffffffffffffffffff169080600101805461076e906111c0565b80601f016020809104026020016040519081016040528092919081815260200182805461079a906111c0565b80156107e55780601f106107bc576101008083540402835291602001916107e5565b820191905f5260205f20905b8154815290600101906020018083116107c857829003601f168201915b5050505050908060020180546107fa906111c0565b80601f0160208091040260200160405190810160405280929190818152602001828054610826906111c0565b80156108715780601f1061084857610100808354040283529160200191610871565b820191905f5260205f20905b81548152906001019060200180831161085457829003601f168201915b5050505050905083565b5f73ffffffffffffffffffffffffffffffffffffffff1660015f3373ffffffffffffffffffffffffffffffffffffffff1673ffffffffffffffffffffffffffffffffffffffff1681526020019081526020015f205f015f9054906101000a900473ffffffffffffffffffffffffffffffffffffffff1673ffffffffffffffffffffffffffffffffffffffff1603610947576040517f08c379a000000000000000000000000000000000000000000000000000000000815260040161093e906114a9565b60405180910390fd5b60015f3373ffffffffffffffffffffffffffffffffffffffff1673ffffffffffffffffffffffffffffffffffffffff1681526020019081526020015f2060040181908060018154018082558091505060019003905f5260205f20015f909190919091505550565b5f5481565b5f73ffffffffffffffffffffffffffffffffffffffff1660015f3373ffffffffffffffffffffffffffffffffffffffff1673ffffffffffffffffffffffffffffffffffffffff1681526020019081526020015f205f015f9054906101000a900473ffffffffffffffffffffffffffffffffffffffff1673ffffffffffffffffffffffffffffffffffffffff1603610a7f576040517f08c379a0000000000000000000000000000000000000000000000000000000008152600401610a76906114a9565b60405180910390fd5b60015f3373ffffffffffffffffffffffffffffffffffffffff1673ffffffffffffffffffffffffffffffffffffffff1681526020019081526020015f2060030181908060018154018082558091505060019003905f5260205f20015f909190919091505550565b813373ffffffffffffffffffffffffffffffffffffffff1660015f8373ffffffffffffffffffffffffffffffffffffffff1673ffffffffffffffffffffffffffffffffffffffff1681526020019081526020015f205f015f9054906101000a900473ffffffffffffffffffffffffffffffffffffffff1673ffffffffffffffffffffffffffffffffffffffff1614610bb3576040517f08c379a0000000000000000000000000000000000000000000000000000000008152600401610baa90611511565b60405180910390fd5b8160015f8573ffffffffffffffffffffffffffffffffffffffff1673ffffffffffffffffffffffffffffffffffffffff1681526020019081526020015f206001019081610c009190611390565b50505050565b5f604051905090565b5f5ffd5b5f5ffd5b5f5ffd5b5f5ffd5b5f601f19601f8301169050919050565b7f4e487b71000000000000000000000000000000000000000000000000000000005f52604160045260245ffd5b610c6582610c1f565b810181811067ffffffffffffffff82111715610c8457610c83610c2f565b5b80604052505050565b5f610c96610c06565b9050610ca28282610c5c565b919050565b5f67ffffffffffffffff821115610cc157610cc0610c2f565b5b610cca82610c1f565b9050602081019050919050565b828183375f83830152505050565b5f610cf7610cf284610ca7565b610c8d565b905082815260208101848484011115610d1357610d12610c1b565b5b610d1e848285610cd7565b509392505050565b5f82601f830112610d3a57610d39610c17565b5b8135610d4a848260208601610ce5565b91505092915050565b5f5f60408385031215610d6957610d68610c0f565b5b5f83013567ffffffffffffffff811115610d8657610d85610c13565b5b610d9285828601610d26565b925050602083013567ffffffffffffffff811115610db357610db2610c13565b5b610dbf85828601610d26565b9150509250929050565b5f73ffffffffffffffffffffffffffffffffffffffff82169050919050565b5f610df282610dc9565b9050919050565b610e0281610de8565b8114610e0c575f5ffd5b50565b5f81359050610e1d81610df9565b92915050565b5f60208284031215610e3857610e37610c0f565b5b5f610e4584828501610e0f565b91505092915050565b5f81519050919050565b5f82825260208201905092915050565b5f819050602082019050919050565b5f819050919050565b610e8981610e77565b82525050565b5f610e9a8383610e80565b60208301905092915050565b5f602082019050919050565b5f610ebc82610e4e565b610ec68185610e58565b9350610ed183610e68565b805f5b83811015610f01578151610ee88882610e8f565b9750610ef383610ea6565b925050600181019050610ed4565b5085935050505092915050565b5f6020820190508181035f830152610f268184610eb2565b905092915050565b610f3781610de8565b82525050565b5f81519050919050565b5f82825260208201905092915050565b8281835e5f83830152505050565b5f610f6f82610f3d565b610f798185610f47565b9350610f89818560208601610f57565b610f9281610c1f565b840191505092915050565b5f606082019050610fb05f830186610f2e565b8181036020830152610fc28185610f65565b90508181036040830152610fd68184610f65565b9050949350505050565b610fe981610e77565b8114610ff3575f5ffd5b50565b5f8135905061100481610fe0565b92915050565b5f6020828403121561101f5761101e610c0f565b5b5f61102c84828501610ff6565b91505092915050565b61103e81610e77565b82525050565b5f6020820190506110575f830184611035565b92915050565b5f5f6040838503121561107357611072610c0f565b5b5f61108085828601610e0f565b925050602083013567ffffffffffffffff8111156110a1576110a0610c13565b5b6110ad85828601610d26565b9150509250929050565b7f5573657220616c726561647920657869737473000000000000000000000000005f82015250565b5f6110eb601383610f47565b91506110f6826110b7565b602082019050919050565b5f6020820190508181035f830152611118816110df565b9050919050565b7f4e487b71000000000000000000000000000000000000000000000000000000005f52601160045260245ffd5b5f61115682610e77565b91507fffffffffffffffffffffffffffffffffffffffffffffffffffffffffffffffff82036111885761118761111f565b5b600182019050919050565b7f4e487b71000000000000000000000000000000000000000000000000000000005f52602260045260245ffd5b5f60028204905060018216806111d757607f821691505b6020821081036111ea576111e9611193565b5b50919050565b5f819050815f5260205f209050919050565b5f6020601f8301049050919050565b5f82821b905092915050565b5f6008830261124c7fffffffffffffffffffffffffffffffffffffffffffffffffffffffffffffffff82611211565b6112568683611211565b95508019841693508086168417925050509392505050565b5f819050919050565b5f61129161128c61128784610e77565b61126e565b610e77565b9050919050565b5f819050919050565b6112aa83611277565b6112be6112b682611298565b84845461121d565b825550505050565b5f5f905090565b6112d56112c6565b6112e08184846112a1565b505050565b5b81811015611303576112f85f826112cd565b6001810190506112e6565b5050565b601f82111561134857611319816111f0565b61132284611202565b81016020851015611331578190505b61134561133d85611202565b8301826112e5565b50505b505050565b5f82821c905092915050565b5f6113685f198460080261134d565b1980831691505092915050565b5f6113808383611359565b9150826002028217905092915050565b61139982610f3d565b67ffffffffffffffff8111156113b2576113b1610c2f565b5b6113bc82546111c0565b6113c7828285611307565b5f60209050601f8311600181146113f8575f84156113e6578287015190505b6113f08582611375565b865550611457565b601f198416611406866111f0565b5f5b8281101561142d57848901518255600182019150602085019450602081019050611408565b8683101561144a5784890151611446601f891682611359565b8355505b6001600288020188555050505b505050505050565b7f55736572206e6f7420666f756e640000000000000000000000000000000000005f82015250565b5f611493600e83610f47565b915061149e8261145f565b602082019050919050565b5f6020820190508181035f8301526114c081611487565b9050919050565b7f4e6f7420617574686f72697a65640000000000000000000000000000000000005f82015250565b5f6114fb600e83610f47565b9150611506826114c7565b602082019050919050565b5f6020820190508181035f830152611528816114ef565b905091905056fea2646970667358221220c6a1b42de0184fb02c170a81cf2970ab750f76b13cde4e1e26e6da9e6fc4a38a64736f6c634300081c0033",
					"opcodes": "PUSH1 0x80 PUSH1 0x40 MSTORE CALLVALUE DUP1 ISZERO PUSH1 0xE JUMPI PUSH0 PUSH0 REVERT JUMPDEST POP PUSH2 0x1565 DUP1 PUSH2 0x1C PUSH0 CODECOPY PUSH0 RETURN INVALID PUSH1 0x80 PUSH1 0x40 MSTORE CALLVALUE DUP1 ISZERO PUSH2 0xF JUMPI PUSH0 PUSH0 REVERT JUMPDEST POP PUSH1 0x4 CALLDATASIZE LT PUSH2 0x91 JUMPI PUSH0 CALLDATALOAD PUSH1 0xE0 SHR DUP1 PUSH4 0xA87430BA GT PUSH2 0x64 JUMPI DUP1 PUSH4 0xA87430BA EQ PUSH2 0x143 JUMPI DUP1 PUSH4 0xB9AA11B9 EQ PUSH2 0x175 JUMPI DUP1 PUSH4 0xBFF1F9E1 EQ PUSH2 0x191 JUMPI DUP1 PUSH4 0xC9F107F6 EQ PUSH2 0x1AF JUMPI DUP1 PUSH4 0xD0CC47BB EQ PUSH2 0x1CB JUMPI PUSH2 0x91 JUMP JUMPDEST DUP1 PUSH4 0x79EAF34 EQ PUSH2 0x95 JUMPI DUP1 PUSH4 0x35DEBF2D EQ PUSH2 0xB1 JUMPI DUP1 PUSH4 0x6F77926B EQ PUSH2 0xE1 JUMPI DUP1 PUSH4 0x8D505263 EQ PUSH2 0x113 JUMPI JUMPDEST PUSH0 PUSH0 REVERT JUMPDEST PUSH2 0xAF PUSH1 0x4 DUP1 CALLDATASIZE SUB DUP2 ADD SWAP1 PUSH2 0xAA SWAP2 SWAP1 PUSH2 0xD53 JUMP JUMPDEST PUSH2 0x1E7 JUMP JUMPDEST STOP JUMPDEST PUSH2 0xCB PUSH1 0x4 DUP1 CALLDATASIZE SUB DUP2 ADD SWAP1 PUSH2 0xC6 SWAP2 SWAP1 PUSH2 0xE23 JUMP JUMPDEST PUSH2 0x373 JUMP JUMPDEST PUSH1 0x40 MLOAD PUSH2 0xD8 SWAP2 SWAP1 PUSH2 0xF0E JUMP JUMPDEST PUSH1 0x40 MLOAD DUP1 SWAP2 SUB SWAP1 RETURN JUMPDEST PUSH2 0xFB PUSH1 0x4 DUP1 CALLDATASIZE SUB DUP2 ADD SWAP1 PUSH2 0xF6 SWAP2 SWAP1 PUSH2 0xE23 JUMP JUMPDEST PUSH2 0x409 JUMP JUMPDEST PUSH1 0x40 MLOAD PUSH2 0x10A SWAP4 SWAP3 SWAP2 SWAP1 PUSH2 0xF9D JUMP JUMPDEST PUSH1 0x40 MLOAD DUP1 SWAP2 SUB SWAP1 RETURN JUMPDEST PUSH2 0x12D PUSH1 0x4 DUP1 CALLDATASIZE SUB DUP2 ADD SWAP1 PUSH2 0x128 SWAP2 SWAP1 PUSH2 0xE23 JUMP JUMPDEST PUSH2 0x694 JUMP JUMPDEST PUSH1 0x40 MLOAD PUSH2 0x13A SWAP2 SWAP1 PUSH2 0xF0E JUMP JUMPDEST PUSH1 0x40 MLOAD DUP1 SWAP2 SUB SWAP1 RETURN JUMPDEST PUSH2 0x15D PUSH1 0x4 DUP1 CALLDATASIZE SUB DUP2 ADD SWAP1 PUSH2 0x158 SWAP2 SWAP1 PUSH2 0xE23 JUMP JUMPDEST PUSH2 0x72A JUMP JUMPDEST PUSH1 0x40 MLOAD PUSH2 0x16C SWAP4 SWAP3 SWAP2 SWAP1 PUSH2 0xF9D JUMP JUMPDEST PUSH1 0x40 MLOAD DUP1 SWAP2 SUB SWAP1 RETURN JUMPDEST PUSH2 0x18F PUSH1 0x4 DUP1 CALLDATASIZE SUB DUP2 ADD SWAP1 PUSH2 0x18A SWAP2 SWAP1 PUSH2 0x100A JUMP JUMPDEST PUSH2 0x87B JUMP JUMPDEST STOP JUMPDEST PUSH2 0x199 PUSH2 0x9AE JUMP JUMPDEST PUSH1 0x40 MLOAD PUSH2 0x1A6 SWAP2 SWAP1 PUSH2 0x1044 JUMP JUMPDEST PUSH1 0x40 MLOAD DUP1 SWAP2 SUB SWAP1 RETURN JUMPDEST PUSH2 0x1C9 PUSH1 0x4 DUP1 CALLDATASIZE SUB DUP2 ADD SWAP1 PUSH2 0x1C4 SWAP2 SWAP1 PUSH2 0x100A JUMP JUMPDEST PUSH2 0x9B3 JUMP JUMPDEST STOP JUMPDEST PUSH2 0x1E5 PUSH1 0x4 DUP1 CALLDATASIZE SUB DUP2 ADD SWAP1 PUSH2 0x1E0 SWAP2 SWAP1 PUSH2 0x105D JUMP JUMPDEST PUSH2 0xAE6 JUMP JUMPDEST STOP JUMPDEST PUSH0 PUSH20 0xFFFFFFFFFFFFFFFFFFFFFFFFFFFFFFFFFFFFFFFF AND PUSH1 0x1 PUSH0 CALLER PUSH20 0xFFFFFFFFFFFFFFFFFFFFFFFFFFFFFFFFFFFFFFFF AND PUSH20 0xFFFFFFFFFFFFFFFFFFFFFFFFFFFFFFFFFFFFFFFF AND DUP2 MSTORE PUSH1 0x20 ADD SWAP1 DUP2 MSTORE PUSH1 0x20 ADD PUSH0 KECCAK256 PUSH0 ADD PUSH0 SWAP1 SLOAD SWAP1 PUSH2 0x100 EXP SWAP1 DIV PUSH20 0xFFFFFFFFFFFFFFFFFFFFFFFFFFFFFFFFFFFFFFFF AND PUSH20 0xFFFFFFFFFFFFFFFFFFFFFFFFFFFFFFFFFFFFFFFF AND EQ PUSH2 0x2B3 JUMPI PUSH1 0x40 MLOAD PUSH32 0x8C379A000000000000000000000000000000000000000000000000000000000 DUP2 MSTORE PUSH1 0x4 ADD PUSH2 0x2AA SWAP1 PUSH2 0x1101 JUMP JUMPDEST PUSH1 0x40 MLOAD DUP1 SWAP2 SUB SWAP1 REVERT JUMPDEST PUSH0 PUSH0 DUP2 SLOAD DUP1 SWAP3 SWAP2 SWAP1 PUSH2 0x2C4 SWAP1 PUSH2 0x114C JUMP JUMPDEST SWAP2 SWAP1 POP SSTORE POP PUSH0 PUSH1 0x1 PUSH0 CALLER PUSH20 0xFFFFFFFFFFFFFFFFFFFFFFFFFFFFFFFFFFFFFFFF AND PUSH20 0xFFFFFFFFFFFFFFFFFFFFFFFFFFFFFFFFFFFFFFFF AND DUP2 MSTORE PUSH1 0x20 ADD SWAP1 DUP2 MSTORE PUSH1 0x20 ADD PUSH0 KECCAK256 SWAP1 POP CALLER DUP2 PUSH0 ADD PUSH0 PUSH2 0x100 EXP DUP2 SLOAD DUP2 PUSH20 0xFFFFFFFFFFFFFFFFFFFFFFFFFFFFFFFFFFFFFFFF MUL NOT AND SWAP1 DUP4 PUSH20 0xFFFFFFFFFFFFFFFFFFFFFFFFFFFFFFFFFFFFFFFF AND MUL OR SWAP1 SSTORE POP DUP3 DUP2 PUSH1 0x1 ADD SWAP1 DUP2 PUSH2 0x35B SWAP2 SWAP1 PUSH2 0x1390 JUMP JUMPDEST POP DUP2 DUP2 PUSH1 0x2 ADD SWAP1 DUP2 PUSH2 0x36D SWAP2 SWAP1 PUSH2 0x1390 JUMP JUMPDEST POP POP POP POP JUMP JUMPDEST PUSH1 0x60 PUSH1 0x1 PUSH0 DUP4 PUSH20 0xFFFFFFFFFFFFFFFFFFFFFFFFFFFFFFFFFFFFFFFF AND PUSH20 0xFFFFFFFFFFFFFFFFFFFFFFFFFFFFFFFFFFFFFFFF AND DUP2 MSTORE PUSH1 0x20 ADD SWAP1 DUP2 MSTORE PUSH1 0x20 ADD PUSH0 KECCAK256 PUSH1 0x3 ADD DUP1 SLOAD DUP1 PUSH1 0x20 MUL PUSH1 0x20 ADD PUSH1 0x40 MLOAD SWAP1 DUP2 ADD PUSH1 0x40 MSTORE DUP1 SWAP3 SWAP2 SWAP1 DUP2 DUP2 MSTORE PUSH1 0x20 ADD DUP3 DUP1 SLOAD DUP1 ISZERO PUSH2 0x3FD JUMPI PUSH1 0x20 MUL DUP3 ADD SWAP2 SWAP1 PUSH0 MSTORE PUSH1 0x20 PUSH0 KECCAK256 SWAP1 JUMPDEST DUP2 SLOAD DUP2 MSTORE PUSH1 0x20 ADD SWAP1 PUSH1 0x1 ADD SWAP1 DUP1 DUP4 GT PUSH2 0x3E9 JUMPI JUMPDEST POP POP POP POP POP SWAP1 POP SWAP2 SWAP1 POP JUMP JUMPDEST PUSH0 PUSH1 0x60 DUP1 PUSH0 PUSH1 0x1 PUSH0 DUP7 PUSH20 0xFFFFFFFFFFFFFFFFFFFFFFFFFFFFFFFFFFFFFFFF AND PUSH20 0xFFFFFFFFFFFFFFFFFFFFFFFFFFFFFFFFFFFFFFFF AND DUP2 MSTORE PUSH1 0x20 ADD SWAP1 DUP2 MSTORE PUSH1 0x20 ADD PUSH0 KECCAK256 PUSH1 0x40 MLOAD DUP1 PUSH1 0xA0 ADD PUSH1 0x40 MSTORE SWAP1 DUP2 PUSH0 DUP3 ADD PUSH0 SWAP1 SLOAD SWAP1 PUSH2 0x100 EXP SWAP1 DIV PUSH20 0xFFFFFFFFFFFFFFFFFFFFFFFFFFFFFFFFFFFFFFFF AND PUSH20 0xFFFFFFFFFFFFFFFFFFFFFFFFFFFFFFFFFFFFFFFF AND PUSH20 0xFFFFFFFFFFFFFFFFFFFFFFFFFFFFFFFFFFFFFFFF AND DUP2 MSTORE PUSH1 0x20 ADD PUSH1 0x1 DUP3 ADD DUP1 SLOAD PUSH2 0x4BA SWAP1 PUSH2 0x11C0 JUMP JUMPDEST DUP1 PUSH1 0x1F ADD PUSH1 0x20 DUP1 SWAP2 DIV MUL PUSH1 0x20 ADD PUSH1 0x40 MLOAD SWAP1 DUP2 ADD PUSH1 0x40 MSTORE DUP1 SWAP3 SWAP2 SWAP1 DUP2 DUP2 MSTORE PUSH1 0x20 ADD DUP3 DUP1 SLOAD PUSH2 0x4E6 SWAP1 PUSH2 0x11C0 JUMP JUMPDEST DUP1 ISZERO PUSH2 0x531 JUMPI DUP1 PUSH1 0x1F LT PUSH2 0x508 JUMPI PUSH2 0x100 DUP1 DUP4 SLOAD DIV MUL DUP4 MSTORE SWAP2 PUSH1 0x20 ADD SWAP2 PUSH2 0x531 JUMP JUMPDEST DUP3 ADD SWAP2 SWAP1 PUSH0 MSTORE PUSH1 0x20 PUSH0 KECCAK256 SWAP1 JUMPDEST DUP2 SLOAD DUP2 MSTORE SWAP1 PUSH1 0x1 ADD SWAP1 PUSH1 0x20 ADD DUP1 DUP4 GT PUSH2 0x514 JUMPI DUP3 SWAP1 SUB PUSH1 0x1F AND DUP3 ADD SWAP2 JUMPDEST POP POP POP POP POP DUP2 MSTORE PUSH1 0x20 ADD PUSH1 0x2 DUP3 ADD DUP1 SLOAD PUSH2 0x54A SWAP1 PUSH2 0x11C0 JUMP JUMPDEST DUP1 PUSH1 0x1F ADD PUSH1 0x20 DUP1 SWAP2 DIV MUL PUSH1 0x20 ADD PUSH1 0x40 MLOAD SWAP1 DUP2 ADD PUSH1 0x40 MSTORE DUP1 SWAP3 SWAP2 SWAP1 DUP2 DUP2 MSTORE PUSH1 0x20 ADD DUP3 DUP1 SLOAD PUSH2 0x576 SWAP1 PUSH2 0x11C0 JUMP JUMPDEST DUP1 ISZERO PUSH2 0x5C1 JUMPI DUP1 PUSH1 0x1F LT PUSH2 0x598 JUMPI PUSH2 0x100 DUP1 DUP4 SLOAD DIV MUL DUP4 MSTORE SWAP2 PUSH1 0x20 ADD SWAP2 PUSH2 0x5C1 JUMP JUMPDEST DUP3 ADD SWAP2 SWAP1 PUSH0 MSTORE PUSH1 0x20 PUSH0 KECCAK256 SWAP1 JUMPDEST DUP2 SLOAD DUP2 MSTORE SWAP1 PUSH1 0x1 ADD SWAP1 PUSH1 0x20 ADD DUP1 DUP4 GT PUSH2 0x5A4 JUMPI DUP3 SWAP1 SUB PUSH1 0x1F AND DUP3 ADD SWAP2 JUMPDEST POP POP POP POP POP DUP2 MSTORE PUSH1 0x20 ADD PUSH1 0x3 DUP3 ADD DUP1 SLOAD DUP1 PUSH1 0x20 MUL PUSH1 0x20 ADD PUSH1 0x40 MLOAD SWAP1 DUP2 ADD PUSH1 0x40 MSTORE DUP1 SWAP3 SWAP2 SWAP1 DUP2 DUP2 MSTORE PUSH1 0x20 ADD DUP3 DUP1 SLOAD DUP1 ISZERO PUSH2 0x617 JUMPI PUSH1 0x20 MUL DUP3 ADD SWAP2 SWAP1 PUSH0 MSTORE PUSH1 0x20 PUSH0 KECCAK256 SWAP1 JUMPDEST DUP2 SLOAD DUP2 MSTORE PUSH1 0x20 ADD SWAP1 PUSH1 0x1 ADD SWAP1 DUP1 DUP4 GT PUSH2 0x603 JUMPI JUMPDEST POP POP POP POP POP DUP2 MSTORE PUSH1 0x20 ADD PUSH1 0x4 DUP3 ADD DUP1 SLOAD DUP1 PUSH1 0x20 MUL PUSH1 0x20 ADD PUSH1 0x40 MLOAD SWAP1 DUP2 ADD PUSH1 0x40 MSTORE DUP1 SWAP3 SWAP2 SWAP1 DUP2 DUP2 MSTORE PUSH1 0x20 ADD DUP3 DUP1 SLOAD DUP1 ISZERO PUSH2 0x66D JUMPI PUSH1 0x20 MUL DUP3 ADD SWAP2 SWAP1 PUSH0 MSTORE PUSH1 0x20 PUSH0 KECCAK256 SWAP1 JUMPDEST DUP2 SLOAD DUP2 MSTORE PUSH1 0x20 ADD SWAP1 PUSH1 0x1 ADD SWAP1 DUP1 DUP4 GT PUSH2 0x659 JUMPI JUMPDEST POP POP POP POP POP DUP2 MSTORE POP POP SWAP1 POP DUP1 PUSH0 ADD MLOAD DUP2 PUSH1 0x20 ADD MLOAD DUP3 PUSH1 0x40 ADD MLOAD SWAP4 POP SWAP4 POP SWAP4 POP POP SWAP2 SWAP4 SWAP1 SWAP3 POP JUMP JUMPDEST PUSH1 0x60 PUSH1 0x1 PUSH0 DUP4 PUSH20 0xFFFFFFFFFFFFFFFFFFFFFFFFFFFFFFFFFFFFFFFF AND PUSH20 0xFFFFFFFFFFFFFFFFFFFFFFFFFFFFFFFFFFFFFFFF AND DUP2 MSTORE PUSH1 0x20 ADD SWAP1 DUP2 MSTORE PUSH1 0x20 ADD PUSH0 KECCAK256 PUSH1 0x4 ADD DUP1 SLOAD DUP1 PUSH1 0x20 MUL PUSH1 0x20 ADD PUSH1 0x40 MLOAD SWAP1 DUP2 ADD PUSH1 0x40 MSTORE DUP1 SWAP3 SWAP2 SWAP1 DUP2 DUP2 MSTORE PUSH1 0x20 ADD DUP3 DUP1 SLOAD DUP1 ISZERO PUSH2 0x71E JUMPI PUSH1 0x20 MUL DUP3 ADD SWAP2 SWAP1 PUSH0 MSTORE PUSH1 0x20 PUSH0 KECCAK256 SWAP1 JUMPDEST DUP2 SLOAD DUP2 MSTORE PUSH1 0x20 ADD SWAP1 PUSH1 0x1 ADD SWAP1 DUP1 DUP4 GT PUSH2 0x70A JUMPI JUMPDEST POP POP POP POP POP SWAP1 POP SWAP2 SWAP1 POP JUMP JUMPDEST PUSH1 0x1 PUSH1 0x20 MSTORE DUP1 PUSH0 MSTORE PUSH1 0x40 PUSH0 KECCAK256 PUSH0 SWAP2 POP SWAP1 POP DUP1 PUSH0 ADD PUSH0 SWAP1 SLOAD SWAP1 PUSH2 0x100 EXP SWAP1 DIV PUSH20 0xFFFFFFFFFFFFFFFFFFFFFFFFFFFFFFFFFFFFFFFF AND SWAP1 DUP1 PUSH1 0x1 ADD DUP1 SLOAD PUSH2 0x76E SWAP1 PUSH2 0x11C0 JUMP JUMPDEST DUP1 PUSH1 0x1F ADD PUSH1 0x20 DUP1 SWAP2 DIV MUL PUSH1 0x20 ADD PUSH1 0x40 MLOAD SWAP1 DUP2 ADD PUSH1 0x40 MSTORE DUP1 SWAP3 SWAP2 SWAP1 DUP2 DUP2 MSTORE PUSH1 0x20 ADD DUP3 DUP1 SLOAD PUSH2 0x79A SWAP1 PUSH2 0x11C0 JUMP JUMPDEST DUP1 ISZERO PUSH2 0x7E5 JUMPI DUP1 PUSH1 0x1F LT PUSH2 0x7BC JUMPI PUSH2 0x100 DUP1 DUP4 SLOAD DIV MUL DUP4 MSTORE SWAP2 PUSH1 0x20 ADD SWAP2 PUSH2 0x7E5 JUMP JUMPDEST DUP3 ADD SWAP2 SWAP1 PUSH0 MSTORE PUSH1 0x20 PUSH0 KECCAK256 SWAP1 JUMPDEST DUP2 SLOAD DUP2 MSTORE SWAP1 PUSH1 0x1 ADD SWAP1 PUSH1 0x20 ADD DUP1 DUP4 GT PUSH2 0x7C8 JUMPI DUP3 SWAP1 SUB PUSH1 0x1F AND DUP3 ADD SWAP2 JUMPDEST POP POP POP POP POP SWAP1 DUP1 PUSH1 0x2 ADD DUP1 SLOAD PUSH2 0x7FA SWAP1 PUSH2 0x11C0 JUMP JUMPDEST DUP1 PUSH1 0x1F ADD PUSH1 0x20 DUP1 SWAP2 DIV MUL PUSH1 0x20 ADD PUSH1 0x40 MLOAD SWAP1 DUP2 ADD PUSH1 0x40 MSTORE DUP1 SWAP3 SWAP2 SWAP1 DUP2 DUP2 MSTORE PUSH1 0x20 ADD DUP3 DUP1 SLOAD PUSH2 0x826 SWAP1 PUSH2 0x11C0 JUMP JUMPDEST DUP1 ISZERO PUSH2 0x871 JUMPI DUP1 PUSH1 0x1F LT PUSH2 0x848 JUMPI PUSH2 0x100 DUP1 DUP4 SLOAD DIV MUL DUP4 MSTORE SWAP2 PUSH1 0x20 ADD SWAP2 PUSH2 0x871 JUMP JUMPDEST DUP3 ADD SWAP2 SWAP1 PUSH0 MSTORE PUSH1 0x20 PUSH0 KECCAK256 SWAP1 JUMPDEST DUP2 SLOAD DUP2 MSTORE SWAP1 PUSH1 0x1 ADD SWAP1 PUSH1 0x20 ADD DUP1 DUP4 GT PUSH2 0x854 JUMPI DUP3 SWAP1 SUB PUSH1 0x1F AND DUP3 ADD SWAP2 JUMPDEST POP POP POP POP POP SWAP1 POP DUP4 JUMP JUMPDEST PUSH0 PUSH20 0xFFFFFFFFFFFFFFFFFFFFFFFFFFFFFFFFFFFFFFFF AND PUSH1 0x1 PUSH0 CALLER PUSH20 0xFFFFFFFFFFFFFFFFFFFFFFFFFFFFFFFFFFFFFFFF AND PUSH20 0xFFFFFFFFFFFFFFFFFFFFFFFFFFFFFFFFFFFFFFFF AND DUP2 MSTORE PUSH1 0x20 ADD SWAP1 DUP2 MSTORE PUSH1 0x20 ADD PUSH0 KECCAK256 PUSH0 ADD PUSH0 SWAP1 SLOAD SWAP1 PUSH2 0x100 EXP SWAP1 DIV PUSH20 0xFFFFFFFFFFFFFFFFFFFFFFFFFFFFFFFFFFFFFFFF AND PUSH20 0xFFFFFFFFFFFFFFFFFFFFFFFFFFFFFFFFFFFFFFFF AND SUB PUSH2 0x947 JUMPI PUSH1 0x40 MLOAD PUSH32 0x8C379A000000000000000000000000000000000000000000000000000000000 DUP2 MSTORE PUSH1 0x4 ADD PUSH2 0x93E SWAP1 PUSH2 0x14A9 JUMP JUMPDEST PUSH1 0x40 MLOAD DUP1 SWAP2 SUB SWAP1 REVERT JUMPDEST PUSH1 0x1 PUSH0 CALLER PUSH20 0xFFFFFFFFFFFFFFFFFFFFFFFFFFFFFFFFFFFFFFFF AND PUSH20 0xFFFFFFFFFFFFFFFFFFFFFFFFFFFFFFFFFFFFFFFF AND DUP2 MSTORE PUSH1 0x20 ADD SWAP1 DUP2 MSTORE PUSH1 0x20 ADD PUSH0 KECCAK256 PUSH1 0x4 ADD DUP2 SWAP1 DUP1 PUSH1 0x1 DUP2 SLOAD ADD DUP1 DUP3 SSTORE DUP1 SWAP2 POP POP PUSH1 0x1 SWAP1 SUB SWAP1 PUSH0 MSTORE PUSH1 0x20 PUSH0 KECCAK256 ADD PUSH0 SWAP1 SWAP2 SWAP1 SWAP2 SWAP1 SWAP2 POP SSTORE POP JUMP JUMPDEST PUSH0 SLOAD DUP2 JUMP JUMPDEST PUSH0 PUSH20 0xFFFFFFFFFFFFFFFFFFFFFFFFFFFFFFFFFFFFFFFF AND PUSH1 0x1 PUSH0 CALLER PUSH20 0xFFFFFFFFFFFFFFFFFFFFFFFFFFFFFFFFFFFFFFFF AND PUSH20 0xFFFFFFFFFFFFFFFFFFFFFFFFFFFFFFFFFFFFFFFF AND DUP2 MSTORE PUSH1 0x20 ADD SWAP1 DUP2 MSTORE PUSH1 0x20 ADD PUSH0 KECCAK256 PUSH0 ADD PUSH0 SWAP1 SLOAD SWAP1 PUSH2 0x100 EXP SWAP1 DIV PUSH20 0xFFFFFFFFFFFFFFFFFFFFFFFFFFFFFFFFFFFFFFFF AND PUSH20 0xFFFFFFFFFFFFFFFFFFFFFFFFFFFFFFFFFFFFFFFF AND SUB PUSH2 0xA7F JUMPI PUSH1 0x40 MLOAD PUSH32 0x8C379A000000000000000000000000000000000000000000000000000000000 DUP2 MSTORE PUSH1 0x4 ADD PUSH2 0xA76 SWAP1 PUSH2 0x14A9 JUMP JUMPDEST PUSH1 0x40 MLOAD DUP1 SWAP2 SUB SWAP1 REVERT JUMPDEST PUSH1 0x1 PUSH0 CALLER PUSH20 0xFFFFFFFFFFFFFFFFFFFFFFFFFFFFFFFFFFFFFFFF AND PUSH20 0xFFFFFFFFFFFFFFFFFFFFFFFFFFFFFFFFFFFFFFFF AND DUP2 MSTORE PUSH1 0x20 ADD SWAP1 DUP2 MSTORE PUSH1 0x20 ADD PUSH0 KECCAK256 PUSH1 0x3 ADD DUP2 SWAP1 DUP1 PUSH1 0x1 DUP2 SLOAD ADD DUP1 DUP3 SSTORE DUP1 SWAP2 POP POP PUSH1 0x1 SWAP1 SUB SWAP1 PUSH0 MSTORE PUSH1 0x20 PUSH0 KECCAK256 ADD PUSH0 SWAP1 SWAP2 SWAP1 SWAP2 SWAP1 SWAP2 POP SSTORE POP JUMP JUMPDEST DUP2 CALLER PUSH20 0xFFFFFFFFFFFFFFFFFFFFFFFFFFFFFFFFFFFFFFFF AND PUSH1 0x1 PUSH0 DUP4 PUSH20 0xFFFFFFFFFFFFFFFFFFFFFFFFFFFFFFFFFFFFFFFF AND PUSH20 0xFFFFFFFFFFFFFFFFFFFFFFFFFFFFFFFFFFFFFFFF AND DUP2 MSTORE PUSH1 0x20 ADD SWAP1 DUP2 MSTORE PUSH1 0x20 ADD PUSH0 KECCAK256 PUSH0 ADD PUSH0 SWAP1 SLOAD SWAP1 PUSH2 0x100 EXP SWAP1 DIV PUSH20 0xFFFFFFFFFFFFFFFFFFFFFFFFFFFFFFFFFFFFFFFF AND PUSH20 0xFFFFFFFFFFFFFFFFFFFFFFFFFFFFFFFFFFFFFFFF AND EQ PUSH2 0xBB3 JUMPI PUSH1 0x40 MLOAD PUSH32 0x8C379A000000000000000000000000000000000000000000000000000000000 DUP2 MSTORE PUSH1 0x4 ADD PUSH2 0xBAA SWAP1 PUSH2 0x1511 JUMP JUMPDEST PUSH1 0x40 MLOAD DUP1 SWAP2 SUB SWAP1 REVERT JUMPDEST DUP2 PUSH1 0x1 PUSH0 DUP6 PUSH20 0xFFFFFFFFFFFFFFFFFFFFFFFFFFFFFFFFFFFFFFFF AND PUSH20 0xFFFFFFFFFFFFFFFFFFFFFFFFFFFFFFFFFFFFFFFF AND DUP2 MSTORE PUSH1 0x20 ADD SWAP1 DUP2 MSTORE PUSH1 0x20 ADD PUSH0 KECCAK256 PUSH1 0x1 ADD SWAP1 DUP2 PUSH2 0xC00 SWAP2 SWAP1 PUSH2 0x1390 JUMP JUMPDEST POP POP POP POP JUMP JUMPDEST PUSH0 PUSH1 0x40 MLOAD SWAP1 POP SWAP1 JUMP JUMPDEST PUSH0 PUSH0 REVERT JUMPDEST PUSH0 PUSH0 REVERT JUMPDEST PUSH0 PUSH0 REVERT JUMPDEST PUSH0 PUSH0 REVERT JUMPDEST PUSH0 PUSH1 0x1F NOT PUSH1 0x1F DUP4 ADD AND SWAP1 POP SWAP2 SWAP1 POP JUMP JUMPDEST PUSH32 0x4E487B7100000000000000000000000000000000000000000000000000000000 PUSH0 MSTORE PUSH1 0x41 PUSH1 0x4 MSTORE PUSH1 0x24 PUSH0 REVERT JUMPDEST PUSH2 0xC65 DUP3 PUSH2 0xC1F JUMP JUMPDEST DUP2 ADD DUP2 DUP2 LT PUSH8 0xFFFFFFFFFFFFFFFF DUP3 GT OR ISZERO PUSH2 0xC84 JUMPI PUSH2 0xC83 PUSH2 0xC2F JUMP JUMPDEST JUMPDEST DUP1 PUSH1 0x40 MSTORE POP POP POP JUMP JUMPDEST PUSH0 PUSH2 0xC96 PUSH2 0xC06 JUMP JUMPDEST SWAP1 POP PUSH2 0xCA2 DUP3 DUP3 PUSH2 0xC5C JUMP JUMPDEST SWAP2 SWAP1 POP JUMP JUMPDEST PUSH0 PUSH8 0xFFFFFFFFFFFFFFFF DUP3 GT ISZERO PUSH2 0xCC1 JUMPI PUSH2 0xCC0 PUSH2 0xC2F JUMP JUMPDEST JUMPDEST PUSH2 0xCCA DUP3 PUSH2 0xC1F JUMP JUMPDEST SWAP1 POP PUSH1 0x20 DUP2 ADD SWAP1 POP SWAP2 SWAP1 POP JUMP JUMPDEST DUP3 DUP2 DUP4 CALLDATACOPY PUSH0 DUP4 DUP4 ADD MSTORE POP POP POP JUMP JUMPDEST PUSH0 PUSH2 0xCF7 PUSH2 0xCF2 DUP5 PUSH2 0xCA7 JUMP JUMPDEST PUSH2 0xC8D JUMP JUMPDEST SWAP1 POP DUP3 DUP2 MSTORE PUSH1 0x20 DUP2 ADD DUP5 DUP5 DUP5 ADD GT ISZERO PUSH2 0xD13 JUMPI PUSH2 0xD12 PUSH2 0xC1B JUMP JUMPDEST JUMPDEST PUSH2 0xD1E DUP5 DUP3 DUP6 PUSH2 0xCD7 JUMP JUMPDEST POP SWAP4 SWAP3 POP POP POP JUMP JUMPDEST PUSH0 DUP3 PUSH1 0x1F DUP4 ADD SLT PUSH2 0xD3A JUMPI PUSH2 0xD39 PUSH2 0xC17 JUMP JUMPDEST JUMPDEST DUP2 CALLDATALOAD PUSH2 0xD4A DUP5 DUP3 PUSH1 0x20 DUP7 ADD PUSH2 0xCE5 JUMP JUMPDEST SWAP2 POP POP SWAP3 SWAP2 POP POP JUMP JUMPDEST PUSH0 PUSH0 PUSH1 0x40 DUP4 DUP6 SUB SLT ISZERO PUSH2 0xD69 JUMPI PUSH2 0xD68 PUSH2 0xC0F JUMP JUMPDEST JUMPDEST PUSH0 DUP4 ADD CALLDATALOAD PUSH8 0xFFFFFFFFFFFFFFFF DUP2 GT ISZERO PUSH2 0xD86 JUMPI PUSH2 0xD85 PUSH2 0xC13 JUMP JUMPDEST JUMPDEST PUSH2 0xD92 DUP6 DUP3 DUP7 ADD PUSH2 0xD26 JUMP JUMPDEST SWAP3 POP POP PUSH1 0x20 DUP4 ADD CALLDATALOAD PUSH8 0xFFFFFFFFFFFFFFFF DUP2 GT ISZERO PUSH2 0xDB3 JUMPI PUSH2 0xDB2 PUSH2 0xC13 JUMP JUMPDEST JUMPDEST PUSH2 0xDBF DUP6 DUP3 DUP7 ADD PUSH2 0xD26 JUMP JUMPDEST SWAP2 POP POP SWAP3 POP SWAP3 SWAP1 POP JUMP JUMPDEST PUSH0 PUSH20 0xFFFFFFFFFFFFFFFFFFFFFFFFFFFFFFFFFFFFFFFF DUP3 AND SWAP1 POP SWAP2 SWAP1 POP JUMP JUMPDEST PUSH0 PUSH2 0xDF2 DUP3 PUSH2 0xDC9 JUMP JUMPDEST SWAP1 POP SWAP2 SWAP1 POP JUMP JUMPDEST PUSH2 0xE02 DUP2 PUSH2 0xDE8 JUMP JUMPDEST DUP2 EQ PUSH2 0xE0C JUMPI PUSH0 PUSH0 REVERT JUMPDEST POP JUMP JUMPDEST PUSH0 DUP2 CALLDATALOAD SWAP1 POP PUSH2 0xE1D DUP2 PUSH2 0xDF9 JUMP JUMPDEST SWAP3 SWAP2 POP POP JUMP JUMPDEST PUSH0 PUSH1 0x20 DUP3 DUP5 SUB SLT ISZERO PUSH2 0xE38 JUMPI PUSH2 0xE37 PUSH2 0xC0F JUMP JUMPDEST JUMPDEST PUSH0 PUSH2 0xE45 DUP5 DUP3 DUP6 ADD PUSH2 0xE0F JUMP JUMPDEST SWAP2 POP POP SWAP3 SWAP2 POP POP JUMP JUMPDEST PUSH0 DUP2 MLOAD SWAP1 POP SWAP2 SWAP1 POP JUMP JUMPDEST PUSH0 DUP3 DUP3 MSTORE PUSH1 0x20 DUP3 ADD SWAP1 POP SWAP3 SWAP2 POP POP JUMP JUMPDEST PUSH0 DUP2 SWAP1 POP PUSH1 0x20 DUP3 ADD SWAP1 POP SWAP2 SWAP1 POP JUMP JUMPDEST PUSH0 DUP2 SWAP1 POP SWAP2 SWAP1 POP JUMP JUMPDEST PUSH2 0xE89 DUP2 PUSH2 0xE77 JUMP JUMPDEST DUP3 MSTORE POP POP JUMP JUMPDEST PUSH0 PUSH2 0xE9A DUP4 DUP4 PUSH2 0xE80 JUMP JUMPDEST PUSH1 0x20 DUP4 ADD SWAP1 POP SWAP3 SWAP2 POP POP JUMP JUMPDEST PUSH0 PUSH1 0x20 DUP3 ADD SWAP1 POP SWAP2 SWAP1 POP JUMP JUMPDEST PUSH0 PUSH2 0xEBC DUP3 PUSH2 0xE4E JUMP JUMPDEST PUSH2 0xEC6 DUP2 DUP6 PUSH2 0xE58 JUMP JUMPDEST SWAP4 POP PUSH2 0xED1 DUP4 PUSH2 0xE68 JUMP JUMPDEST DUP1 PUSH0 JUMPDEST DUP4 DUP2 LT ISZERO PUSH2 0xF01 JUMPI DUP2 MLOAD PUSH2 0xEE8 DUP9 DUP3 PUSH2 0xE8F JUMP JUMPDEST SWAP8 POP PUSH2 0xEF3 DUP4 PUSH2 0xEA6 JUMP JUMPDEST SWAP3 POP POP PUSH1 0x1 DUP2 ADD SWAP1 POP PUSH2 0xED4 JUMP JUMPDEST POP DUP6 SWAP4 POP POP POP POP SWAP3 SWAP2 POP POP JUMP JUMPDEST PUSH0 PUSH1 0x20 DUP3 ADD SWAP1 POP DUP2 DUP2 SUB PUSH0 DUP4 ADD MSTORE PUSH2 0xF26 DUP2 DUP5 PUSH2 0xEB2 JUMP JUMPDEST SWAP1 POP SWAP3 SWAP2 POP POP JUMP JUMPDEST PUSH2 0xF37 DUP2 PUSH2 0xDE8 JUMP JUMPDEST DUP3 MSTORE POP POP JUMP JUMPDEST PUSH0 DUP2 MLOAD SWAP1 POP SWAP2 SWAP1 POP JUMP JUMPDEST PUSH0 DUP3 DUP3 MSTORE PUSH1 0x20 DUP3 ADD SWAP1 POP SWAP3 SWAP2 POP POP JUMP JUMPDEST DUP3 DUP2 DUP4 MCOPY PUSH0 DUP4 DUP4 ADD MSTORE POP POP POP JUMP JUMPDEST PUSH0 PUSH2 0xF6F DUP3 PUSH2 0xF3D JUMP JUMPDEST PUSH2 0xF79 DUP2 DUP6 PUSH2 0xF47 JUMP JUMPDEST SWAP4 POP PUSH2 0xF89 DUP2 DUP6 PUSH1 0x20 DUP7 ADD PUSH2 0xF57 JUMP JUMPDEST PUSH2 0xF92 DUP2 PUSH2 0xC1F JUMP JUMPDEST DUP5 ADD SWAP2 POP POP SWAP3 SWAP2 POP POP JUMP JUMPDEST PUSH0 PUSH1 0x60 DUP3 ADD SWAP1 POP PUSH2 0xFB0 PUSH0 DUP4 ADD DUP7 PUSH2 0xF2E JUMP JUMPDEST DUP2 DUP2 SUB PUSH1 0x20 DUP4 ADD MSTORE PUSH2 0xFC2 DUP2 DUP6 PUSH2 0xF65 JUMP JUMPDEST SWAP1 POP DUP2 DUP2 SUB PUSH1 0x40 DUP4 ADD MSTORE PUSH2 0xFD6 DUP2 DUP5 PUSH2 0xF65 JUMP JUMPDEST SWAP1 POP SWAP5 SWAP4 POP POP POP POP JUMP JUMPDEST PUSH2 0xFE9 DUP2 PUSH2 0xE77 JUMP JUMPDEST DUP2 EQ PUSH2 0xFF3 JUMPI PUSH0 PUSH0 REVERT JUMPDEST POP JUMP JUMPDEST PUSH0 DUP2 CALLDATALOAD SWAP1 POP PUSH2 0x1004 DUP2 PUSH2 0xFE0 JUMP JUMPDEST SWAP3 SWAP2 POP POP JUMP JUMPDEST PUSH0 PUSH1 0x20 DUP3 DUP5 SUB SLT ISZERO PUSH2 0x101F JUMPI PUSH2 0x101E PUSH2 0xC0F JUMP JUMPDEST JUMPDEST PUSH0 PUSH2 0x102C DUP5 DUP3 DUP6 ADD PUSH2 0xFF6 JUMP JUMPDEST SWAP2 POP POP SWAP3 SWAP2 POP POP JUMP JUMPDEST PUSH2 0x103E DUP2 PUSH2 0xE77 JUMP JUMPDEST DUP3 MSTORE POP POP JUMP JUMPDEST PUSH0 PUSH1 0x20 DUP3 ADD SWAP1 POP PUSH2 0x1057 PUSH0 DUP4 ADD DUP5 PUSH2 0x1035 JUMP JUMPDEST SWAP3 SWAP2 POP POP JUMP JUMPDEST PUSH0 PUSH0 PUSH1 0x40 DUP4 DUP6 SUB SLT ISZERO PUSH2 0x1073 JUMPI PUSH2 0x1072 PUSH2 0xC0F JUMP JUMPDEST JUMPDEST PUSH0 PUSH2 0x1080 DUP6 DUP3 DUP7 ADD PUSH2 0xE0F JUMP JUMPDEST SWAP3 POP POP PUSH1 0x20 DUP4 ADD CALLDATALOAD PUSH8 0xFFFFFFFFFFFFFFFF DUP2 GT ISZERO PUSH2 0x10A1 JUMPI PUSH2 0x10A0 PUSH2 0xC13 JUMP JUMPDEST JUMPDEST PUSH2 0x10AD DUP6 DUP3 DUP7 ADD PUSH2 0xD26 JUMP JUMPDEST SWAP2 POP POP SWAP3 POP SWAP3 SWAP1 POP JUMP JUMPDEST PUSH32 0x5573657220616C72656164792065786973747300000000000000000000000000 PUSH0 DUP3 ADD MSTORE POP JUMP JUMPDEST PUSH0 PUSH2 0x10EB PUSH1 0x13 DUP4 PUSH2 0xF47 JUMP JUMPDEST SWAP2 POP PUSH2 0x10F6 DUP3 PUSH2 0x10B7 JUMP JUMPDEST PUSH1 0x20 DUP3 ADD SWAP1 POP SWAP2 SWAP1 POP JUMP JUMPDEST PUSH0 PUSH1 0x20 DUP3 ADD SWAP1 POP DUP2 DUP2 SUB PUSH0 DUP4 ADD MSTORE PUSH2 0x1118 DUP2 PUSH2 0x10DF JUMP JUMPDEST SWAP1 POP SWAP2 SWAP1 POP JUMP JUMPDEST PUSH32 0x4E487B7100000000000000000000000000000000000000000000000000000000 PUSH0 MSTORE PUSH1 0x11 PUSH1 0x4 MSTORE PUSH1 0x24 PUSH0 REVERT JUMPDEST PUSH0 PUSH2 0x1156 DUP3 PUSH2 0xE77 JUMP JUMPDEST SWAP2 POP PUSH32 0xFFFFFFFFFFFFFFFFFFFFFFFFFFFFFFFFFFFFFFFFFFFFFFFFFFFFFFFFFFFFFFFF DUP3 SUB PUSH2 0x1188 JUMPI PUSH2 0x1187 PUSH2 0x111F JUMP JUMPDEST JUMPDEST PUSH1 0x1 DUP3 ADD SWAP1 POP SWAP2 SWAP1 POP JUMP JUMPDEST PUSH32 0x4E487B7100000000000000000000000000000000000000000000000000000000 PUSH0 MSTORE PUSH1 0x22 PUSH1 0x4 MSTORE PUSH1 0x24 PUSH0 REVERT JUMPDEST PUSH0 PUSH1 0x2 DUP3 DIV SWAP1 POP PUSH1 0x1 DUP3 AND DUP1 PUSH2 0x11D7 JUMPI PUSH1 0x7F DUP3 AND SWAP2 POP JUMPDEST PUSH1 0x20 DUP3 LT DUP2 SUB PUSH2 0x11EA JUMPI PUSH2 0x11E9 PUSH2 0x1193 JUMP JUMPDEST JUMPDEST POP SWAP2 SWAP1 POP JUMP JUMPDEST PUSH0 DUP2 SWAP1 POP DUP2 PUSH0 MSTORE PUSH1 0x20 PUSH0 KECCAK256 SWAP1 POP SWAP2 SWAP1 POP JUMP JUMPDEST PUSH0 PUSH1 0x20 PUSH1 0x1F DUP4 ADD DIV SWAP1 POP SWAP2 SWAP1 POP JUMP JUMPDEST PUSH0 DUP3 DUP3 SHL SWAP1 POP SWAP3 SWAP2 POP POP JUMP JUMPDEST PUSH0 PUSH1 0x8 DUP4 MUL PUSH2 0x124C PUSH32 0xFFFFFFFFFFFFFFFFFFFFFFFFFFFFFFFFFFFFFFFFFFFFFFFFFFFFFFFFFFFFFFFF DUP3 PUSH2 0x1211 JUMP JUMPDEST PUSH2 0x1256 DUP7 DUP4 PUSH2 0x1211 JUMP JUMPDEST SWAP6 POP DUP1 NOT DUP5 AND SWAP4 POP DUP1 DUP7 AND DUP5 OR SWAP3 POP POP POP SWAP4 SWAP3 POP POP POP JUMP JUMPDEST PUSH0 DUP2 SWAP1 POP SWAP2 SWAP1 POP JUMP JUMPDEST PUSH0 PUSH2 0x1291 PUSH2 0x128C PUSH2 0x1287 DUP5 PUSH2 0xE77 JUMP JUMPDEST PUSH2 0x126E JUMP JUMPDEST PUSH2 0xE77 JUMP JUMPDEST SWAP1 POP SWAP2 SWAP1 POP JUMP JUMPDEST PUSH0 DUP2 SWAP1 POP SWAP2 SWAP1 POP JUMP JUMPDEST PUSH2 0x12AA DUP4 PUSH2 0x1277 JUMP JUMPDEST PUSH2 0x12BE PUSH2 0x12B6 DUP3 PUSH2 0x1298 JUMP JUMPDEST DUP5 DUP5 SLOAD PUSH2 0x121D JUMP JUMPDEST DUP3 SSTORE POP POP POP POP JUMP JUMPDEST PUSH0 PUSH0 SWAP1 POP SWAP1 JUMP JUMPDEST PUSH2 0x12D5 PUSH2 0x12C6 JUMP JUMPDEST PUSH2 0x12E0 DUP2 DUP5 DUP5 PUSH2 0x12A1 JUMP JUMPDEST POP POP POP JUMP JUMPDEST JUMPDEST DUP2 DUP2 LT ISZERO PUSH2 0x1303 JUMPI PUSH2 0x12F8 PUSH0 DUP3 PUSH2 0x12CD JUMP JUMPDEST PUSH1 0x1 DUP2 ADD SWAP1 POP PUSH2 0x12E6 JUMP JUMPDEST POP POP JUMP JUMPDEST PUSH1 0x1F DUP3 GT ISZERO PUSH2 0x1348 JUMPI PUSH2 0x1319 DUP2 PUSH2 0x11F0 JUMP JUMPDEST PUSH2 0x1322 DUP5 PUSH2 0x1202 JUMP JUMPDEST DUP2 ADD PUSH1 0x20 DUP6 LT ISZERO PUSH2 0x1331 JUMPI DUP2 SWAP1 POP JUMPDEST PUSH2 0x1345 PUSH2 0x133D DUP6 PUSH2 0x1202 JUMP JUMPDEST DUP4 ADD DUP3 PUSH2 0x12E5 JUMP JUMPDEST POP POP JUMPDEST POP POP POP JUMP JUMPDEST PUSH0 DUP3 DUP3 SHR SWAP1 POP SWAP3 SWAP2 POP POP JUMP JUMPDEST PUSH0 PUSH2 0x1368 PUSH0 NOT DUP5 PUSH1 0x8 MUL PUSH2 0x134D JUMP JUMPDEST NOT DUP1 DUP4 AND SWAP2 POP POP SWAP3 SWAP2 POP POP JUMP JUMPDEST PUSH0 PUSH2 0x1380 DUP4 DUP4 PUSH2 0x1359 JUMP JUMPDEST SWAP2 POP DUP3 PUSH1 0x2 MUL DUP3 OR SWAP1 POP SWAP3 SWAP2 POP POP JUMP JUMPDEST PUSH2 0x1399 DUP3 PUSH2 0xF3D JUMP JUMPDEST PUSH8 0xFFFFFFFFFFFFFFFF DUP2 GT ISZERO PUSH2 0x13B2 JUMPI PUSH2 0x13B1 PUSH2 0xC2F JUMP JUMPDEST JUMPDEST PUSH2 0x13BC DUP3 SLOAD PUSH2 0x11C0 JUMP JUMPDEST PUSH2 0x13C7 DUP3 DUP3 DUP6 PUSH2 0x1307 JUMP JUMPDEST PUSH0 PUSH1 0x20 SWAP1 POP PUSH1 0x1F DUP4 GT PUSH1 0x1 DUP2 EQ PUSH2 0x13F8 JUMPI PUSH0 DUP5 ISZERO PUSH2 0x13E6 JUMPI DUP3 DUP8 ADD MLOAD SWAP1 POP JUMPDEST PUSH2 0x13F0 DUP6 DUP3 PUSH2 0x1375 JUMP JUMPDEST DUP7 SSTORE POP PUSH2 0x1457 JUMP JUMPDEST PUSH1 0x1F NOT DUP5 AND PUSH2 0x1406 DUP7 PUSH2 0x11F0 JUMP JUMPDEST PUSH0 JUMPDEST DUP3 DUP2 LT ISZERO PUSH2 0x142D JUMPI DUP5 DUP10 ADD MLOAD DUP3 SSTORE PUSH1 0x1 DUP3 ADD SWAP2 POP PUSH1 0x20 DUP6 ADD SWAP5 POP PUSH1 0x20 DUP2 ADD SWAP1 POP PUSH2 0x1408 JUMP JUMPDEST DUP7 DUP4 LT ISZERO PUSH2 0x144A JUMPI DUP5 DUP10 ADD MLOAD PUSH2 0x1446 PUSH1 0x1F DUP10 AND DUP3 PUSH2 0x1359 JUMP JUMPDEST DUP4 SSTORE POP JUMPDEST PUSH1 0x1 PUSH1 0x2 DUP9 MUL ADD DUP9 SSTORE POP POP POP JUMPDEST POP POP POP POP POP POP JUMP JUMPDEST PUSH32 0x55736572206E6F7420666F756E64000000000000000000000000000000000000 PUSH0 DUP3 ADD MSTORE POP JUMP JUMPDEST PUSH0 PUSH2 0x1493 PUSH1 0xE DUP4 PUSH2 0xF47 JUMP JUMPDEST SWAP2 POP PUSH2 0x149E DUP3 PUSH2 0x145F JUMP JUMPDEST PUSH1 0x20 DUP3 ADD SWAP1 POP SWAP2 SWAP1 POP JUMP JUMPDEST PUSH0 PUSH1 0x20 DUP3 ADD SWAP1 POP DUP2 DUP2 SUB PUSH0 DUP4 ADD MSTORE PUSH2 0x14C0 DUP2 PUSH2 0x1487 JUMP JUMPDEST SWAP1 POP SWAP2 SWAP1 POP JUMP JUMPDEST PUSH32 0x4E6F7420617574686F72697A6564000000000000000000000000000000000000 PUSH0 DUP3 ADD MSTORE POP JUMP JUMPDEST PUSH0 PUSH2 0x14FB PUSH1 0xE DUP4 PUSH2 0xF47 JUMP JUMPDEST SWAP2 POP PUSH2 0x1506 DUP3 PUSH2 0x14C7 JUMP JUMPDEST PUSH1 0x20 DUP3 ADD SWAP1 POP SWAP2 SWAP1 POP JUMP JUMPDEST PUSH0 PUSH1 0x20 DUP3 ADD SWAP1 POP DUP2 DUP2 SUB PUSH0 DUP4 ADD MSTORE PUSH2 0x1528 DUP2 PUSH2 0x14EF JUMP JUMPDEST SWAP1 POP SWAP2 SWAP1 POP JUMP INVALID LOG2 PUSH5 0x6970667358 0x22 SLT KECCAK256 0xC6 LOG1 0xB4 0x2D 0xE0 XOR 0x4F 0xB0 0x2C OR EXP DUP2 0xCF 0x29 PUSH17 0xAB750F76B13CDE4E1E26E6DA9E6FC4A38A PUSH5 0x736F6C6343 STOP ADDMOD SHR STOP CALLER "
				},
				"gasEstimates": {
					"creation": {
						"codeDepositCost": "1095400",
						"executionCost": "1138",
						"totalCost": "1096538"
					},
					"external": {
						"addInvestedProject(uint256)": "49241",
						"addOwnedProject(uint256)": "49197",
						"addUser(string,string)": "infinite",
						"changeUsername(address,string)": "infinite",
						"getInvestedProjects(address)": "infinite",
						"getOwnedProjects(address)": "infinite",
						"getUser(address)": "infinite",
						"totalUsers()": "2468",
						"users(address)": "infinite"
					}
				},
				"methodIdentifiers": {
					"addInvestedProject(uint256)": "c9f107f6",
					"addOwnedProject(uint256)": "b9aa11b9",
					"addUser(string,string)": "079eaf34",
					"changeUsername(address,string)": "d0cc47bb",
					"getInvestedProjects(address)": "35debf2d",
					"getOwnedProjects(address)": "8d505263",
					"getUser(address)": "6f77926b",
					"totalUsers()": "bff1f9e1",
					"users(address)": "a87430ba"
				}
			},
			"storageLayout": {
				"storage": [
					{
						"astId": 3,
						"contract": "User.sol:User",
						"label": "totalUsers",
						"offset": 0,
						"slot": "0",
						"type": "t_uint256"
					},
					{
						"astId": 21,
						"contract": "User.sol:User",
						"label": "users",
						"offset": 0,
						"slot": "1",
						"type": "t_mapping(t_address,t_struct(UserInfo)16_storage)"
					}
				],
				"types": {
					"t_address": {
						"encoding": "inplace",
						"label": "address",
						"numberOfBytes": "20"
					},
					"t_array(t_uint256)dyn_storage": {
						"base": "t_uint256",
						"encoding": "dynamic_array",
						"label": "uint256[]",
						"numberOfBytes": "32"
					},
					"t_mapping(t_address,t_struct(UserInfo)16_storage)": {
						"encoding": "mapping",
						"key": "t_address",
						"label": "mapping(address => struct User.UserInfo)",
						"numberOfBytes": "32",
						"value": "t_struct(UserInfo)16_storage"
					},
					"t_string_storage": {
						"encoding": "bytes",
						"label": "string",
						"numberOfBytes": "32"
					},
					"t_struct(UserInfo)16_storage": {
						"encoding": "inplace",
						"label": "struct User.UserInfo",
						"members": [
							{
								"astId": 5,
								"contract": "User.sol:User",
								"label": "userWallet",
								"offset": 0,
								"slot": "0",
								"type": "t_address"
							},
							{
								"astId": 7,
								"contract": "User.sol:User",
								"label": "userName",
								"offset": 0,
								"slot": "1",
								"type": "t_string_storage"
							},
							{
								"astId": 9,
								"contract": "User.sol:User",
								"label": "userProfile",
								"offset": 0,
								"slot": "2",
								"type": "t_string_storage"
							},
							{
								"astId": 12,
								"contract": "User.sol:User",
								"label": "investedProjects",
								"offset": 0,
								"slot": "3",
								"type": "t_array(t_uint256)dyn_storage"
							},
							{
								"astId": 15,
								"contract": "User.sol:User",
								"label": "ownedProjects",
								"offset": 0,
								"slot": "4",
								"type": "t_array(t_uint256)dyn_storage"
							}
						],
						"numberOfBytes": "160"
					},
					"t_uint256": {
						"encoding": "inplace",
						"label": "uint256",
						"numberOfBytes": "32"
					}
				}
			},
			"userdoc": {
				"kind": "user",
				"methods": {},
				"version": 1
			}
		}
	}
}