{
	"data": {
		"bytecode": {
			"linkReferences": {},
			"object": "6101406040525f6004555f6005555f60075f6101000a81548160ff021916908315150217905550348015610031575f80fd5b50604051613a7e380380613a7e8339818101604052810190610053919061041d565b855f73ffffffffffffffffffffffffffffffffffffffff168173ffffffffffffffffffffffffffffffffffffffff16036100c4575f6040517f1e4fbdf70000000000000000000000000000000000000000000000000000000081526004016100bb91906104f9565b60405180910390fd5b6100d38161018260201b60201c565b508760018190555086600290816100ea9190610716565b508573ffffffffffffffffffffffffffffffffffffffff1660808173ffffffffffffffffffffffffffffffffffffffff16815250508460c081815250508360e081815250508261010081815250508161012081815250508073ffffffffffffffffffffffffffffffffffffffff1660a08173ffffffffffffffffffffffffffffffffffffffff168152505050505050505050506107e5565b5f805f9054906101000a900473ffffffffffffffffffffffffffffffffffffffff169050815f806101000a81548173ffffffffffffffffffffffffffffffffffffffff021916908373ffffffffffffffffffffffffffffffffffffffff1602179055508173ffffffffffffffffffffffffffffffffffffffff168173ffffffffffffffffffffffffffffffffffffffff167f8be0079c531659141344cd1fd0a4f28419497f9722a3daafe3b4186f6b6457e060405160405180910390a35050565b5f604051905090565b5f80fd5b5f80fd5b5f819050919050565b61026681610254565b8114610270575f80fd5b50565b5f815190506102818161025d565b92915050565b5f80fd5b5f80fd5b5f601f19601f8301169050919050565b7f4e487b71000000000000000000000000000000000000000000000000000000005f52604160045260245ffd5b6102d58261028f565b810181811067ffffffffffffffff821117156102f4576102f361029f565b5b80604052505050565b5f610306610243565b905061031282826102cc565b919050565b5f67ffffffffffffffff8211156103315761033061029f565b5b61033a8261028f565b9050602081019050919050565b8281835e5f83830152505050565b5f61036761036284610317565b6102fd565b9050828152602081018484840111156103835761038261028b565b5b61038e848285610347565b509392505050565b5f82601f8301126103aa576103a9610287565b5b81516103ba848260208601610355565b91505092915050565b5f73ffffffffffffffffffffffffffffffffffffffff82169050919050565b5f6103ec826103c3565b9050919050565b6103fc816103e2565b8114610406575f80fd5b50565b5f81519050610417816103f3565b92915050565b5f805f805f805f80610100898b03121561043a5761043961024c565b5b5f6104478b828c01610273565b985050602089015167ffffffffffffffff81111561046857610467610250565b5b6104748b828c01610396565b97505060406104858b828c01610409565b96505060606104968b828c01610273565b95505060806104a78b828c01610273565b94505060a06104b88b828c01610273565b93505060c06104c98b828c01610273565b92505060e06104da8b828c01610409565b9150509295985092959890939650565b6104f3816103e2565b82525050565b5f60208201905061050c5f8301846104ea565b92915050565b5f81519050919050565b7f4e487b71000000000000000000000000000000000000000000000000000000005f52602260045260245ffd5b5f600282049050600182168061056057607f821691505b6020821081036105735761057261051c565b5b50919050565b5f819050815f5260205f209050919050565b5f6020601f8301049050919050565b5f82821b905092915050565b5f600883026105d57fffffffffffffffffffffffffffffffffffffffffffffffffffffffffffffffff8261059a565b6105df868361059a565b95508019841693508086168417925050509392505050565b5f819050919050565b5f61061a61061561061084610254565b6105f7565b610254565b9050919050565b5f819050919050565b61063383610600565b61064761063f82610621565b8484546105a6565b825550505050565b5f90565b61065b61064f565b61066681848461062a565b505050565b5b818110156106895761067e5f82610653565b60018101905061066c565b5050565b601f8211156106ce5761069f81610579565b6106a88461058b565b810160208510156106b7578190505b6106cb6106c38561058b565b83018261066b565b50505b505050565b5f82821c905092915050565b5f6106ee5f19846008026106d3565b1980831691505092915050565b5f61070683836106df565b9150826002028217905092915050565b61071f82610512565b67ffffffffffffffff8111156107385761073761029f565b5b6107428254610549565b61074d82828561068d565b5f60209050601f83116001811461077e575f841561076c578287015190505b61077685826106fb565b8655506107dd565b601f19841661078c86610579565b5f5b828110156107b35784890151825560018201915060208501945060208101905061078e565b868310156107d057848901516107cc601f8916826106df565b8355505b6001600288020188555050505b505050505050565b60805160a05160c05160e05161010051610120516132286108565f395f8181610d8d015261129c01525f8181610a870152611c6f01525f610ce301525f8181610b310152611de001525f818161120c015261174b01525f8181610e6e015281816112d5015261177001526132285ff3fe60806040526004361061022f575f3560e01c8063893d20e81161012d578063bee5eabe116100aa578063ed01bf291161006e578063ed01bf29146108d1578063f2fde38b146108fb578063f555ffb414610923578063f9d5b5de1461094b578063fc291775146109875761022f565b8063bee5eabe146107b7578063c228995d146107f3578063cc6e4a381461082f578063cd585b371461086b578063e1604b70146108a75761022f565b8063abe70951116100f1578063abe70951146106c3578063af640d0f146106ff578063b56d412514610729578063ba7efcdd14610751578063ba8f07a31461077b5761022f565b8063893d20e8146105c95780638da5cb5b146105f3578063943168291461061d5780639c4ae5e11461065d578063a78d80fc146106995761022f565b80634d853ee5116101bb5780636d8500331161017f5780636d850033146104e95780636e0b5aa914610525578063715018a61461054d57806372524bf3146105635780637c0b8de21461059f5761022f565b80634d853ee5146103d65780635434d3971461040057806356a58ebf1461042a57806356f28b0a146104715780636cd84de7146104ad5761022f565b8063365b98b211610202578063365b98b2146102cb5780633bd8e51e146103075780634142e328146103485780634b7b9fb9146103705780634cc3c7121461039a5761022f565b806306fdde03146102335780630a8b78261461025d5780630fb5a6b41461027957806325ad4ecc146102a3575b5f80fd5b34801561023e575f80fd5b506102476109b1565b6040516102549190612217565b60405180910390f35b61027760048036038101906102729190612374565b610a3d565b005b348015610284575f80fd5b5061028d610ce1565b60405161029a91906123d3565b60405180910390f35b3480156102ae575f80fd5b506102c960048036038101906102c491906123ec565b610d05565b005b3480156102d6575f80fd5b506102f160048036038101906102ec919061248c565b611004565b6040516102fe91906124f6565b60405180910390f35b348015610312575f80fd5b5061032d6004803603810190610328919061248c565b61103f565b60405161033f9695949392919061250f565b60405180910390f35b348015610353575f80fd5b5061036e600480360381019061036991906125ad565b611209565b005b34801561037b575f80fd5b5061038461129a565b60405161039191906123d3565b60405180910390f35b3480156103a5575f80fd5b506103c060048036038101906103bb91906125ad565b6112be565b6040516103cd91906123d3565b60405180910390f35b3480156103e1575f80fd5b506103ea6112d3565b6040516103f791906124f6565b60405180910390f35b34801561040b575f80fd5b506104146112f7565b60405161042191906125f2565b60405180910390f35b348015610435575f80fd5b50610450600480360381019061044b919061248c565b611309565b6040516104689c9b9a9998979695949392919061260b565b60405180910390f35b34801561047c575f80fd5b50610497600480360381019061049291906126d1565b61149c565b6040516104a491906123d3565b60405180910390f35b3480156104b8575f80fd5b506104d360048036038101906104ce91906126d1565b6114c7565b6040516104e091906123d3565b60405180910390f35b3480156104f4575f80fd5b5061050f600480360381019061050a91906126d1565b6114f2565b60405161051c91906123d3565b60405180910390f35b348015610530575f80fd5b5061054b6004803603810190610546919061270f565b61151d565b005b348015610558575f80fd5b50610561611716565b005b34801561056e575f80fd5b50610589600480360381019061058491906126d1565b611729565b60405161059691906123d3565b60405180910390f35b3480156105aa575f80fd5b506105b3611749565b6040516105c091906124f6565b60405180910390f35b3480156105d4575f80fd5b506105dd61176d565b6040516105ea91906124f6565b60405180910390f35b3480156105fe575f80fd5b50610607611794565b60405161061491906124f6565b60405180910390f35b348015610628575f80fd5b50610643600480360381019061063e919061248c565b6117bb565b60405161065495949392919061274d565b60405180910390f35b348015610668575f80fd5b50610683600480360381019061067e91906126d1565b611918565b60405161069091906123d3565b60405180910390f35b3480156106a4575f80fd5b506106ad611938565b6040516106ba91906123d3565b60405180910390f35b3480156106ce575f80fd5b506106e960048036038101906106e491906125ad565b61193e565b6040516106f691906123d3565b60405180910390f35b34801561070a575f80fd5b50610713611953565b60405161072091906123d3565b60405180910390f35b348015610734575f80fd5b5061074f600480360381019061074a91906127d6565b611959565b005b34801561075c575f80fd5b50610765611c6d565b60405161077291906123d3565b60405180910390f35b348015610786575f80fd5b506107a1600480360381019061079c91906126d1565b611c91565b6040516107ae91906123d3565b60405180910390f35b3480156107c2575f80fd5b506107dd60048036038101906107d891906126d1565b611cbc565b6040516107ea91906123d3565b60405180910390f35b3480156107fe575f80fd5b50610819600480360381019061081491906126d1565b611ce7565b60405161082691906123d3565b60405180910390f35b34801561083a575f80fd5b50610855600480360381019061085091906126d1565b611d12565b60405161086291906123d3565b60405180910390f35b348015610876575f80fd5b50610891600480360381019061088c919061248c565b611d3d565b60405161089e9190612217565b60405180910390f35b3480156108b2575f80fd5b506108bb611dd8565b6040516108c891906123d3565b60405180910390f35b3480156108dc575f80fd5b506108e5611dde565b6040516108f291906123d3565b60405180910390f35b348015610906575f80fd5b50610921600480360381019061091c91906125ad565b611e02565b005b34801561092e575f80fd5b50610949600480360381019061094491906128e7565b611e86565b005b348015610956575f80fd5b50610971600480360381019061096c91906126d1565b611f85565b60405161097e91906123d3565b60405180910390f35b348015610992575f80fd5b5061099b611fb0565b6040516109a891906123d3565b60405180910390f35b600280546109be9061296e565b80601f01602080910402602001604051908101604052809291908181526020018280546109ea9061296e565b8015610a355780601f10610a0c57610100808354040283529160200191610a35565b820191905f5260205f20905b815481529060010190602001808311610a1857829003601f168201915b505050505081565b5f3390505f60095f8373ffffffffffffffffffffffffffffffffffffffff1673ffffffffffffffffffffffffffffffffffffffff1681526020019081526020015f205414610b2f577f0000000000000000000000000000000000000000000000000000000000000000341015610ae8576040517f08c379a0000000000000000000000000000000000000000000000000000000008152600401610adf90612a0e565b60405180910390fd5b610af28282611e86565b6005547f1c81d7053f5e6f875e0d7b584d3354071899b7dc927e6d7b48b58caa90cf3de88383604051610b26929190612a2c565b60405180910390a25b7f000000000000000000000000000000000000000000000000000000000000000034600354610b5e9190612a87565b1115610b9f576040517f08c379a0000000000000000000000000000000000000000000000000000000008152600401610b9690612b2a565b60405180910390fd5b3460035f828254610bb09190612a87565b925050819055505f60175f8373ffffffffffffffffffffffffffffffffffffffff1673ffffffffffffffffffffffffffffffffffffffff1681526020019081526020015f205414610c53573460175f8373ffffffffffffffffffffffffffffffffffffffff1673ffffffffffffffffffffffffffffffffffffffff1681526020019081526020015f205f828254610c479190612a87565b92505081905550610c9f565b610c5c81611209565b3460175f8373ffffffffffffffffffffffffffffffffffffffff1673ffffffffffffffffffffffffffffffffffffffff1681526020019081526020015f20819055505b6005547f5909eeae9d21e6fa8ac76ff35662ef4bf97b31cef31b127f4195177e1e2b8a83838334604051610cd593929190612b48565b60405180910390a25050565b7f000000000000000000000000000000000000000000000000000000000000000081565b5f825111610d48576040517f08c379a0000000000000000000000000000000000000000000000000000000008152600401610d3f90612bce565b60405180910390fd5b5f815111610d8b576040517f08c379a0000000000000000000000000000000000000000000000000000000008152600401610d8290612c36565b60405180910390fd5b7f000000000000000000000000000000000000000000000000000000000000000060035411610def576040517f08c379a0000000000000000000000000000000000000000000000000000000008152600401610de690612cc4565b60405180910390fd5b5f151560075f9054906101000a900460ff16151514610e43576040517f08c379a0000000000000000000000000000000000000000000000000000000008152600401610e3a90612d2c565b60405180910390fd5b5f806040518060c00160405280600154815260200185815260200184815260200160055481526020017f000000000000000000000000000000000000000000000000000000000000000073ffffffffffffffffffffffffffffffffffffffff1681526020016006805480602002602001604051908101604052809291908181526020018280548015610f2757602002820191905f5260205f20905b815f9054906101000a900473ffffffffffffffffffffffffffffffffffffffff1673ffffffffffffffffffffffffffffffffffffffff1681526020019060010190808311610ede575b5050505050815250905080600a5f8481526020019081526020015f205f820151815f01556020820151816001019081610f609190612ee7565b506040820151816002019081610f769190612ee7565b50606082015181600301556080820151816004015f6101000a81548173ffffffffffffffffffffffffffffffffffffffff021916908373ffffffffffffffffffffffffffffffffffffffff16021790555060a0820151816005019080519060200190610fe3929190612105565b5090505060055f815480929190610ff990612fb6565b919050555050505050565b60068181548110611013575f80fd5b905f5260205f20015f915054906101000a900473ffffffffffffffffffffffffffffffffffffffff1681565b6015602052805f5260405f205f91509050805f0154908060010180546110649061296e565b80601f01602080910402602001604051908101604052809291908181526020018280546110909061296e565b80156110db5780601f106110b2576101008083540402835291602001916110db565b820191905f5260205f20905b8154815290600101906020018083116110be57829003601f168201915b5050505050908060020180546110f09061296e565b80601f016020809104026020016040519081016040528092919081815260200182805461111c9061296e565b80156111675780601f1061113e57610100808354040283529160200191611167565b820191905f5260205f20905b81548152906001019060200180831161114a57829003601f168201915b50505050509080600301805461117c9061296e565b80601f01602080910402602001604051908101604052809291908181526020018280546111a89061296e565b80156111f35780601f106111ca576101008083540402835291602001916111f3565b820191905f5260205f20905b8154815290600101906020018083116111d657829003601f168201915b5050505050908060040154908060050154905086565b5f7f000000000000000000000000000000000000000000000000000000000000000090508073ffffffffffffffffffffffffffffffffffffffff1663d3fc98648360026040518363ffffffff1660e01b8152600401611269929190613080565b5f604051808303815f87803b158015611280575f80fd5b505af1158015611292573d5f803e3d5ffd5b505050505050565b7f000000000000000000000000000000000000000000000000000000000000000081565b6017602052805f5260405f205f915090505481565b7f000000000000000000000000000000000000000000000000000000000000000081565b60075f9054906101000a900460ff1681565b600b602052805f5260405f205f91509050805f0154908060010154908060020180546113349061296e565b80601f01602080910402602001604051908101604052809291908181526020018280546113609061296e565b80156113ab5780601f10611382576101008083540402835291602001916113ab565b820191905f5260205f20905b81548152906001019060200180831161138e57829003601f168201915b5050505050908060030180546113c09061296e565b80601f01602080910402602001604051908101604052809291908181526020018280546113ec9061296e565b80156114375780601f1061140e57610100808354040283529160200191611437565b820191905f5260205f20905b81548152906001019060200180831161141a57829003601f168201915b505050505090806004015490806005015f9054906101000a900473ffffffffffffffffffffffffffffffffffffffff169080600601549080600701549080600801549080600901549080600a01549080600b015f9054906101000a900460ff1690508c565b6012602052815f5260405f2081815481106114b5575f80fd5b905f5260205f20015f91509150505481565b6011602052815f5260405f2081815481106114e0575f80fd5b905f5260205f20015f91509150505481565b600c602052815f5260405f20818154811061150b575f80fd5b905f5260205f20015f91509150505481565b5f73ffffffffffffffffffffffffffffffffffffffff16600a5f8481526020019081526020015f206004015f9054906101000a900473ffffffffffffffffffffffffffffffffffffffff1673ffffffffffffffffffffffffffffffffffffffff16036115be576040517f08c379a00000000000000000000000000000000000000000000000000000000081526004016115b590613104565b60405180910390fd5b5f60095f8373ffffffffffffffffffffffffffffffffffffffff1673ffffffffffffffffffffffffffffffffffffffff1681526020019081526020015f20541161163d576040517f08c379a00000000000000000000000000000000000000000000000000000000081526004016116349061316c565b60405180910390fd5b5f60095f8373ffffffffffffffffffffffffffffffffffffffff1673ffffffffffffffffffffffffffffffffffffffff1681526020019081526020015f20549050600c5f8481526020019081526020015f2081908060018154018082558091505060019003905f5260205f20015f9091909190915055600a5f8481526020019081526020015f206003015f8154809291906116d790612fb6565b919050555060125f8281526020019081526020015f2083908060018154018082558091505060019003905f5260205f20015f9091909190915055505050565b61171e611fb6565b6117275f61203d565b565b6013602052815f5260405f20602052805f5260405f205f91509150505481565b7f000000000000000000000000000000000000000000000000000000000000000081565b5f7f0000000000000000000000000000000000000000000000000000000000000000905090565b5f805f9054906101000a900473ffffffffffffffffffffffffffffffffffffffff16905090565b600a602052805f5260405f205f91509050805f0154908060010180546117e09061296e565b80601f016020809104026020016040519081016040528092919081815260200182805461180c9061296e565b80156118575780601f1061182e57610100808354040283529160200191611857565b820191905f5260205f20905b81548152906001019060200180831161183a57829003601f168201915b50505050509080600201805461186c9061296e565b80601f01602080910402602001604051908101604052809291908181526020018280546118989061296e565b80156118e35780601f106118ba576101008083540402835291602001916118e3565b820191905f5260205f20905b8154815290600101906020018083116118c657829003601f168201915b505050505090806003015490806004015f9054906101000a900473ffffffffffffffffffffffffffffffffffffffff16905085565b6014602052815f5260405f20602052805f5260405f205f91509150505481565b60045481565b6009602052805f5260405f205f915090505481565b60015481565b611961611fb6565b5f73ffffffffffffffffffffffffffffffffffffffff16600a5f8681526020019081526020015f206004015f9054906101000a900473ffffffffffffffffffffffffffffffffffffffff1673ffffffffffffffffffffffffffffffffffffffff1603611a02576040517f08c379a00000000000000000000000000000000000000000000000000000000081526004016119f990613104565b60405180910390fd5b60045f815480929190611a1490612fb6565b91905055505f60095f3373ffffffffffffffffffffffffffffffffffffffff1673ffffffffffffffffffffffffffffffffffffffff1681526020019081526020015f205490505f60405180610180016040528060045481526020018381526020018d81526020018c81526020018b81526020018a73ffffffffffffffffffffffffffffffffffffffff168152602001898152602001888152602001878152602001868152602001858152602001841515815250905080600b5f60045481526020019081526020015f205f820151815f0155602082015181600101556040820151816002019081611b049190612ee7565b506060820151816003019081611b1a9190612ee7565b506080820151816004015560a0820151816005015f6101000a81548173ffffffffffffffffffffffffffffffffffffffff021916908373ffffffffffffffffffffffffffffffffffffffff16021790555060c0820151816006015560e082015181600701556101008201518160080155610120820151816009015561014082015181600a015561016082015181600b015f6101000a81548160ff021916908315150217905550905050600d5f8781526020019081526020015f20600454908060018154018082558091505060019003905f5260205f20015f90919091909150553373ffffffffffffffffffffffffffffffffffffffff163073ffffffffffffffffffffffffffffffffffffffff167fe669ca381c47a2c25df06ebbe580c111183f1e92460fd3ab51050d2306b3402788604051611c5791906123d3565b60405180910390a3505050505050505050505050565b7f000000000000000000000000000000000000000000000000000000000000000081565b6016602052815f5260405f208181548110611caa575f80fd5b905f5260205f20015f91509150505481565b600d602052815f5260405f208181548110611cd5575f80fd5b905f5260205f20015f91509150505481565b600e602052815f5260405f208181548110611d00575f80fd5b905f5260205f20015f91509150505481565b6010602052815f5260405f208181548110611d2b575f80fd5b905f5260205f20015f91509150505481565b6008602052805f5260405f205f915090508054611d599061296e565b80601f0160208091040260200160405190810160405280929190818152602001828054611d859061296e565b8015611dd05780601f10611da757610100808354040283529160200191611dd0565b820191905f5260205f20905b815481529060010190602001808311611db357829003601f168201915b505050505081565b60055481565b7f000000000000000000000000000000000000000000000000000000000000000081565b611e0a611fb6565b5f73ffffffffffffffffffffffffffffffffffffffff168173ffffffffffffffffffffffffffffffffffffffff1603611e7a575f6040517f1e4fbdf7000000000000000000000000000000000000000000000000000000008152600401611e7191906124f6565b60405180910390fd5b611e838161203d565b50565b5f60095f8373ffffffffffffffffffffffffffffffffffffffff1673ffffffffffffffffffffffffffffffffffffffff1681526020019081526020015f205414611f05576040517f08c379a0000000000000000000000000000000000000000000000000000000008152600401611efc906131d4565b60405180910390fd5b60055f815480929190611f1790612fb6565b91905055508160085f60055481526020019081526020015f209081611f3c9190612ee7565b5060055460095f8373ffffffffffffffffffffffffffffffffffffffff1673ffffffffffffffffffffffffffffffffffffffff1681526020019081526020015f20819055505050565b600f602052815f5260405f208181548110611f9e575f80fd5b905f5260205f20015f91509150505481565b60035481565b611fbe6120fe565b73ffffffffffffffffffffffffffffffffffffffff16611fdc611794565b73ffffffffffffffffffffffffffffffffffffffff161461203b57611fff6120fe565b6040517f118cdaa700000000000000000000000000000000000000000000000000000000815260040161203291906124f6565b60405180910390fd5b565b5f805f9054906101000a900473ffffffffffffffffffffffffffffffffffffffff169050815f806101000a81548173ffffffffffffffffffffffffffffffffffffffff021916908373ffffffffffffffffffffffffffffffffffffffff1602179055508173ffffffffffffffffffffffffffffffffffffffff168173ffffffffffffffffffffffffffffffffffffffff167f8be0079c531659141344cd1fd0a4f28419497f9722a3daafe3b4186f6b6457e060405160405180910390a35050565b5f33905090565b828054828255905f5260205f2090810192821561217b579160200282015b8281111561217a578251825f6101000a81548173ffffffffffffffffffffffffffffffffffffffff021916908373ffffffffffffffffffffffffffffffffffffffff16021790555091602001919060010190612123565b5b509050612188919061218c565b5090565b5b808211156121a3575f815f90555060010161218d565b5090565b5f81519050919050565b5f82825260208201905092915050565b8281835e5f83830152505050565b5f601f19601f8301169050919050565b5f6121e9826121a7565b6121f381856121b1565b93506122038185602086016121c1565b61220c816121cf565b840191505092915050565b5f6020820190508181035f83015261222f81846121df565b905092915050565b5f604051905090565b5f80fd5b5f80fd5b5f80fd5b5f80fd5b7f4e487b71000000000000000000000000000000000000000000000000000000005f52604160045260245ffd5b612286826121cf565b810181811067ffffffffffffffff821117156122a5576122a4612250565b5b80604052505050565b5f6122b7612237565b90506122c3828261227d565b919050565b5f67ffffffffffffffff8211156122e2576122e1612250565b5b6122eb826121cf565b9050602081019050919050565b828183375f83830152505050565b5f612318612313846122c8565b6122ae565b9050828152602081018484840111156123345761233361224c565b5b61233f8482856122f8565b509392505050565b5f82601f83011261235b5761235a612248565b5b813561236b848260208601612306565b91505092915050565b5f6020828403121561238957612388612240565b5b5f82013567ffffffffffffffff8111156123a6576123a5612244565b5b6123b284828501612347565b91505092915050565b5f819050919050565b6123cd816123bb565b82525050565b5f6020820190506123e65f8301846123c4565b92915050565b5f806040838503121561240257612401612240565b5b5f83013567ffffffffffffffff81111561241f5761241e612244565b5b61242b85828601612347565b925050602083013567ffffffffffffffff81111561244c5761244b612244565b5b61245885828601612347565b9150509250929050565b61246b816123bb565b8114612475575f80fd5b50565b5f8135905061248681612462565b92915050565b5f602082840312156124a1576124a0612240565b5b5f6124ae84828501612478565b91505092915050565b5f73ffffffffffffffffffffffffffffffffffffffff82169050919050565b5f6124e0826124b7565b9050919050565b6124f0816124d6565b82525050565b5f6020820190506125095f8301846124e7565b92915050565b5f60c0820190506125225f8301896123c4565b818103602083015261253481886121df565b9050818103604083015261254881876121df565b9050818103606083015261255c81866121df565b905061256b60808301856123c4565b61257860a08301846123c4565b979650505050505050565b61258c816124d6565b8114612596575f80fd5b50565b5f813590506125a781612583565b92915050565b5f602082840312156125c2576125c1612240565b5b5f6125cf84828501612599565b91505092915050565b5f8115159050919050565b6125ec816125d8565b82525050565b5f6020820190506126055f8301846125e3565b92915050565b5f6101808201905061261f5f83018f6123c4565b61262c602083018e6123c4565b818103604083015261263e818d6121df565b90508181036060830152612652818c6121df565b9050612661608083018b6123c4565b61266e60a083018a6124e7565b61267b60c08301896123c4565b61268860e08301886123c4565b6126966101008301876123c4565b6126a46101208301866123c4565b6126b26101408301856123c4565b6126c06101608301846125e3565b9d9c50505050505050505050505050565b5f80604083850312156126e7576126e6612240565b5b5f6126f485828601612478565b925050602061270585828601612478565b9150509250929050565b5f806040838503121561272557612724612240565b5b5f61273285828601612478565b925050602061274385828601612599565b9150509250929050565b5f60a0820190506127605f8301886123c4565b818103602083015261277281876121df565b9050818103604083015261278681866121df565b905061279560608301856123c4565b6127a260808301846124e7565b9695505050505050565b6127b5816125d8565b81146127bf575f80fd5b50565b5f813590506127d0816127ac565b92915050565b5f805f805f805f805f806101408b8d0312156127f5576127f4612240565b5b5f8b013567ffffffffffffffff81111561281257612811612244565b5b61281e8d828e01612347565b9a505060208b013567ffffffffffffffff81111561283f5761283e612244565b5b61284b8d828e01612347565b995050604061285c8d828e01612478565b985050606061286d8d828e01612599565b975050608061287e8d828e01612478565b96505060a061288f8d828e01612478565b95505060c06128a08d828e01612478565b94505060e06128b18d828e01612478565b9350506101006128c38d828e01612478565b9250506101206128d58d828e016127c2565b9150509295989b9194979a5092959850565b5f80604083850312156128fd576128fc612240565b5b5f83013567ffffffffffffffff81111561291a57612919612244565b5b61292685828601612347565b925050602061293785828601612599565b9150509250929050565b7f4e487b71000000000000000000000000000000000000000000000000000000005f52602260045260245ffd5b5f600282049050600182168061298557607f821691505b60208210810361299857612997612941565b5b50919050565b7f496e766573746d656e74206d757374206d65657420746865206d696e696d756d5f8201527f20696e766573746d656e74206c696d6974000000000000000000000000000000602082015250565b5f6129f86031836121b1565b9150612a038261299e565b604082019050919050565b5f6020820190508181035f830152612a25816129ec565b9050919050565b5f6040820190508181035f830152612a4481856121df565b9050612a5360208301846124e7565b9392505050565b7f4e487b71000000000000000000000000000000000000000000000000000000005f52601160045260245ffd5b5f612a91826123bb565b9150612a9c836123bb565b9250828201905080821115612ab457612ab3612a5a565b5b92915050565b7f496e766573746d656e7420657863656564732070726f6a6563742062756467655f8201527f7400000000000000000000000000000000000000000000000000000000000000602082015250565b5f612b146021836121b1565b9150612b1f82612aba565b604082019050919050565b5f6020820190508181035f830152612b4181612b08565b9050919050565b5f6060820190508181035f830152612b6081866121df565b9050612b6f60208301856124e7565b612b7c60408301846123c4565b949350505050565b7f44414f206e616d652063616e6e6f7420626520656d70747900000000000000005f82015250565b5f612bb86018836121b1565b9150612bc382612b84565b602082019050919050565b5f6020820190508181035f830152612be581612bac565b9050919050565b7f44414f206465736372697074696f6e2063616e6e6f7420626520656d707479005f82015250565b5f612c20601f836121b1565b9150612c2b82612bec565b602082019050919050565b5f6020820190508181035f830152612c4d81612c14565b9050919050565b7f44414f2063616e6e6f742062652063726561746564206265666f7265207468655f8201527f2064616f206c696d697400000000000000000000000000000000000000000000602082015250565b5f612cae602a836121b1565b9150612cb982612c54565b604082019050919050565b5f6020820190508181035f830152612cdb81612ca2565b9050919050565b7f44414f2063616e206f6e6c792062652063726561746564206f6e6365000000005f82015250565b5f612d16601c836121b1565b9150612d2182612ce2565b602082019050919050565b5f6020820190508181035f830152612d4381612d0a565b9050919050565b5f819050815f5260205f209050919050565b5f6020601f8301049050919050565b5f82821b905092915050565b5f60088302612da67fffffffffffffffffffffffffffffffffffffffffffffffffffffffffffffffff82612d6b565b612db08683612d6b565b95508019841693508086168417925050509392505050565b5f819050919050565b5f612deb612de6612de1846123bb565b612dc8565b6123bb565b9050919050565b5f819050919050565b612e0483612dd1565b612e18612e1082612df2565b848454612d77565b825550505050565b5f90565b612e2c612e20565b612e37818484612dfb565b505050565b5b81811015612e5a57612e4f5f82612e24565b600181019050612e3d565b5050565b601f821115612e9f57612e7081612d4a565b612e7984612d5c565b81016020851015612e88578190505b612e9c612e9485612d5c565b830182612e3c565b50505b505050565b5f82821c905092915050565b5f612ebf5f1984600802612ea4565b1980831691505092915050565b5f612ed78383612eb0565b9150826002028217905092915050565b612ef0826121a7565b67ffffffffffffffff811115612f0957612f08612250565b5b612f13825461296e565b612f1e828285612e5e565b5f60209050601f831160018114612f4f575f8415612f3d578287015190505b612f478582612ecc565b865550612fae565b601f198416612f5d86612d4a565b5f5b82811015612f8457848901518255600182019150602085019450602081019050612f5f565b86831015612fa15784890151612f9d601f891682612eb0565b8355505b6001600288020188555050505b505050505050565b5f612fc0826123bb565b91507fffffffffffffffffffffffffffffffffffffffffffffffffffffffffffffffff8203612ff257612ff1612a5a565b5b600182019050919050565b5f819050919050565b5f61302061301b61301684612ffd565b612dc8565b6123bb565b9050919050565b61303081613006565b82525050565b7f68656c6c6f0000000000000000000000000000000000000000000000000000005f82015250565b5f61306a6005836121b1565b915061307582613036565b602082019050919050565b5f6060820190506130935f8301856124e7565b6130a06020830184613027565b81810360408301526130b18161305e565b90509392505050565b7f44414f20646f6573206e6f7420657869737400000000000000000000000000005f82015250565b5f6130ee6012836121b1565b91506130f9826130ba565b602082019050919050565b5f6020820190508181035f83015261311b816130e2565b9050919050565b7f5573657220646f6573206e6f74206578697374000000000000000000000000005f82015250565b5f6131566013836121b1565b915061316182613122565b602082019050919050565b5f6020820190508181035f8301526131838161314a565b9050919050565b7f5573657220616c726561647920657869737473000000000000000000000000005f82015250565b5f6131be6013836121b1565b91506131c98261318a565b602082019050919050565b5f6020820190508181035f8301526131eb816131b2565b905091905056fea2646970667358221220c92fac0e03978556a37e2c52e1943c90cdc05d38eba823dfecaf9f4cea53c32964736f6c634300081a0033",
			"opcodes": "PUSH2 0x140 PUSH1 0x40 MSTORE PUSH0 PUSH1 0x4 SSTORE PUSH0 PUSH1 0x5 SSTORE PUSH0 PUSH1 0x7 PUSH0 PUSH2 0x100 EXP DUP2 SLOAD DUP2 PUSH1 0xFF MUL NOT AND SWAP1 DUP4 ISZERO ISZERO MUL OR SWAP1 SSTORE POP CALLVALUE DUP1 ISZERO PUSH2 0x31 JUMPI PUSH0 DUP1 REVERT JUMPDEST POP PUSH1 0x40 MLOAD PUSH2 0x3A7E CODESIZE SUB DUP1 PUSH2 0x3A7E DUP4 CODECOPY DUP2 DUP2 ADD PUSH1 0x40 MSTORE DUP2 ADD SWAP1 PUSH2 0x53 SWAP2 SWAP1 PUSH2 0x41D JUMP JUMPDEST DUP6 PUSH0 PUSH20 0xFFFFFFFFFFFFFFFFFFFFFFFFFFFFFFFFFFFFFFFF AND DUP2 PUSH20 0xFFFFFFFFFFFFFFFFFFFFFFFFFFFFFFFFFFFFFFFF AND SUB PUSH2 0xC4 JUMPI PUSH0 PUSH1 0x40 MLOAD PUSH32 0x1E4FBDF700000000000000000000000000000000000000000000000000000000 DUP2 MSTORE PUSH1 0x4 ADD PUSH2 0xBB SWAP2 SWAP1 PUSH2 0x4F9 JUMP JUMPDEST PUSH1 0x40 MLOAD DUP1 SWAP2 SUB SWAP1 REVERT JUMPDEST PUSH2 0xD3 DUP2 PUSH2 0x182 PUSH1 0x20 SHL PUSH1 0x20 SHR JUMP JUMPDEST POP DUP8 PUSH1 0x1 DUP2 SWAP1 SSTORE POP DUP7 PUSH1 0x2 SWAP1 DUP2 PUSH2 0xEA SWAP2 SWAP1 PUSH2 0x716 JUMP JUMPDEST POP DUP6 PUSH20 0xFFFFFFFFFFFFFFFFFFFFFFFFFFFFFFFFFFFFFFFF AND PUSH1 0x80 DUP2 PUSH20 0xFFFFFFFFFFFFFFFFFFFFFFFFFFFFFFFFFFFFFFFF AND DUP2 MSTORE POP POP DUP5 PUSH1 0xC0 DUP2 DUP2 MSTORE POP POP DUP4 PUSH1 0xE0 DUP2 DUP2 MSTORE POP POP DUP3 PUSH2 0x100 DUP2 DUP2 MSTORE POP POP DUP2 PUSH2 0x120 DUP2 DUP2 MSTORE POP POP DUP1 PUSH20 0xFFFFFFFFFFFFFFFFFFFFFFFFFFFFFFFFFFFFFFFF AND PUSH1 0xA0 DUP2 PUSH20 0xFFFFFFFFFFFFFFFFFFFFFFFFFFFFFFFFFFFFFFFF AND DUP2 MSTORE POP POP POP POP POP POP POP POP POP POP PUSH2 0x7E5 JUMP JUMPDEST PUSH0 DUP1 PUSH0 SWAP1 SLOAD SWAP1 PUSH2 0x100 EXP SWAP1 DIV PUSH20 0xFFFFFFFFFFFFFFFFFFFFFFFFFFFFFFFFFFFFFFFF AND SWAP1 POP DUP2 PUSH0 DUP1 PUSH2 0x100 EXP DUP2 SLOAD DUP2 PUSH20 0xFFFFFFFFFFFFFFFFFFFFFFFFFFFFFFFFFFFFFFFF MUL NOT AND SWAP1 DUP4 PUSH20 0xFFFFFFFFFFFFFFFFFFFFFFFFFFFFFFFFFFFFFFFF AND MUL OR SWAP1 SSTORE POP DUP2 PUSH20 0xFFFFFFFFFFFFFFFFFFFFFFFFFFFFFFFFFFFFFFFF AND DUP2 PUSH20 0xFFFFFFFFFFFFFFFFFFFFFFFFFFFFFFFFFFFFFFFF AND PUSH32 0x8BE0079C531659141344CD1FD0A4F28419497F9722A3DAAFE3B4186F6B6457E0 PUSH1 0x40 MLOAD PUSH1 0x40 MLOAD DUP1 SWAP2 SUB SWAP1 LOG3 POP POP JUMP JUMPDEST PUSH0 PUSH1 0x40 MLOAD SWAP1 POP SWAP1 JUMP JUMPDEST PUSH0 DUP1 REVERT JUMPDEST PUSH0 DUP1 REVERT JUMPDEST PUSH0 DUP2 SWAP1 POP SWAP2 SWAP1 POP JUMP JUMPDEST PUSH2 0x266 DUP2 PUSH2 0x254 JUMP JUMPDEST DUP2 EQ PUSH2 0x270 JUMPI PUSH0 DUP1 REVERT JUMPDEST POP JUMP JUMPDEST PUSH0 DUP2 MLOAD SWAP1 POP PUSH2 0x281 DUP2 PUSH2 0x25D JUMP JUMPDEST SWAP3 SWAP2 POP POP JUMP JUMPDEST PUSH0 DUP1 REVERT JUMPDEST PUSH0 DUP1 REVERT JUMPDEST PUSH0 PUSH1 0x1F NOT PUSH1 0x1F DUP4 ADD AND SWAP1 POP SWAP2 SWAP1 POP JUMP JUMPDEST PUSH32 0x4E487B7100000000000000000000000000000000000000000000000000000000 PUSH0 MSTORE PUSH1 0x41 PUSH1 0x4 MSTORE PUSH1 0x24 PUSH0 REVERT JUMPDEST PUSH2 0x2D5 DUP3 PUSH2 0x28F JUMP JUMPDEST DUP2 ADD DUP2 DUP2 LT PUSH8 0xFFFFFFFFFFFFFFFF DUP3 GT OR ISZERO PUSH2 0x2F4 JUMPI PUSH2 0x2F3 PUSH2 0x29F JUMP JUMPDEST JUMPDEST DUP1 PUSH1 0x40 MSTORE POP POP POP JUMP JUMPDEST PUSH0 PUSH2 0x306 PUSH2 0x243 JUMP JUMPDEST SWAP1 POP PUSH2 0x312 DUP3 DUP3 PUSH2 0x2CC JUMP JUMPDEST SWAP2 SWAP1 POP JUMP JUMPDEST PUSH0 PUSH8 0xFFFFFFFFFFFFFFFF DUP3 GT ISZERO PUSH2 0x331 JUMPI PUSH2 0x330 PUSH2 0x29F JUMP JUMPDEST JUMPDEST PUSH2 0x33A DUP3 PUSH2 0x28F JUMP JUMPDEST SWAP1 POP PUSH1 0x20 DUP2 ADD SWAP1 POP SWAP2 SWAP1 POP JUMP JUMPDEST DUP3 DUP2 DUP4 MCOPY PUSH0 DUP4 DUP4 ADD MSTORE POP POP POP JUMP JUMPDEST PUSH0 PUSH2 0x367 PUSH2 0x362 DUP5 PUSH2 0x317 JUMP JUMPDEST PUSH2 0x2FD JUMP JUMPDEST SWAP1 POP DUP3 DUP2 MSTORE PUSH1 0x20 DUP2 ADD DUP5 DUP5 DUP5 ADD GT ISZERO PUSH2 0x383 JUMPI PUSH2 0x382 PUSH2 0x28B JUMP JUMPDEST JUMPDEST PUSH2 0x38E DUP5 DUP3 DUP6 PUSH2 0x347 JUMP JUMPDEST POP SWAP4 SWAP3 POP POP POP JUMP JUMPDEST PUSH0 DUP3 PUSH1 0x1F DUP4 ADD SLT PUSH2 0x3AA JUMPI PUSH2 0x3A9 PUSH2 0x287 JUMP JUMPDEST JUMPDEST DUP2 MLOAD PUSH2 0x3BA DUP5 DUP3 PUSH1 0x20 DUP7 ADD PUSH2 0x355 JUMP JUMPDEST SWAP2 POP POP SWAP3 SWAP2 POP POP JUMP JUMPDEST PUSH0 PUSH20 0xFFFFFFFFFFFFFFFFFFFFFFFFFFFFFFFFFFFFFFFF DUP3 AND SWAP1 POP SWAP2 SWAP1 POP JUMP JUMPDEST PUSH0 PUSH2 0x3EC DUP3 PUSH2 0x3C3 JUMP JUMPDEST SWAP1 POP SWAP2 SWAP1 POP JUMP JUMPDEST PUSH2 0x3FC DUP2 PUSH2 0x3E2 JUMP JUMPDEST DUP2 EQ PUSH2 0x406 JUMPI PUSH0 DUP1 REVERT JUMPDEST POP JUMP JUMPDEST PUSH0 DUP2 MLOAD SWAP1 POP PUSH2 0x417 DUP2 PUSH2 0x3F3 JUMP JUMPDEST SWAP3 SWAP2 POP POP JUMP JUMPDEST PUSH0 DUP1 PUSH0 DUP1 PUSH0 DUP1 PUSH0 DUP1 PUSH2 0x100 DUP10 DUP12 SUB SLT ISZERO PUSH2 0x43A JUMPI PUSH2 0x439 PUSH2 0x24C JUMP JUMPDEST JUMPDEST PUSH0 PUSH2 0x447 DUP12 DUP3 DUP13 ADD PUSH2 0x273 JUMP JUMPDEST SWAP9 POP POP PUSH1 0x20 DUP10 ADD MLOAD PUSH8 0xFFFFFFFFFFFFFFFF DUP2 GT ISZERO PUSH2 0x468 JUMPI PUSH2 0x467 PUSH2 0x250 JUMP JUMPDEST JUMPDEST PUSH2 0x474 DUP12 DUP3 DUP13 ADD PUSH2 0x396 JUMP JUMPDEST SWAP8 POP POP PUSH1 0x40 PUSH2 0x485 DUP12 DUP3 DUP13 ADD PUSH2 0x409 JUMP JUMPDEST SWAP7 POP POP PUSH1 0x60 PUSH2 0x496 DUP12 DUP3 DUP13 ADD PUSH2 0x273 JUMP JUMPDEST SWAP6 POP POP PUSH1 0x80 PUSH2 0x4A7 DUP12 DUP3 DUP13 ADD PUSH2 0x273 JUMP JUMPDEST SWAP5 POP POP PUSH1 0xA0 PUSH2 0x4B8 DUP12 DUP3 DUP13 ADD PUSH2 0x273 JUMP JUMPDEST SWAP4 POP POP PUSH1 0xC0 PUSH2 0x4C9 DUP12 DUP3 DUP13 ADD PUSH2 0x273 JUMP JUMPDEST SWAP3 POP POP PUSH1 0xE0 PUSH2 0x4DA DUP12 DUP3 DUP13 ADD PUSH2 0x409 JUMP JUMPDEST SWAP2 POP POP SWAP3 SWAP6 SWAP9 POP SWAP3 SWAP6 SWAP9 SWAP1 SWAP4 SWAP7 POP JUMP JUMPDEST PUSH2 0x4F3 DUP2 PUSH2 0x3E2 JUMP JUMPDEST DUP3 MSTORE POP POP JUMP JUMPDEST PUSH0 PUSH1 0x20 DUP3 ADD SWAP1 POP PUSH2 0x50C PUSH0 DUP4 ADD DUP5 PUSH2 0x4EA JUMP JUMPDEST SWAP3 SWAP2 POP POP JUMP JUMPDEST PUSH0 DUP2 MLOAD SWAP1 POP SWAP2 SWAP1 POP JUMP JUMPDEST PUSH32 0x4E487B7100000000000000000000000000000000000000000000000000000000 PUSH0 MSTORE PUSH1 0x22 PUSH1 0x4 MSTORE PUSH1 0x24 PUSH0 REVERT JUMPDEST PUSH0 PUSH1 0x2 DUP3 DIV SWAP1 POP PUSH1 0x1 DUP3 AND DUP1 PUSH2 0x560 JUMPI PUSH1 0x7F DUP3 AND SWAP2 POP JUMPDEST PUSH1 0x20 DUP3 LT DUP2 SUB PUSH2 0x573 JUMPI PUSH2 0x572 PUSH2 0x51C JUMP JUMPDEST JUMPDEST POP SWAP2 SWAP1 POP JUMP JUMPDEST PUSH0 DUP2 SWAP1 POP DUP2 PUSH0 MSTORE PUSH1 0x20 PUSH0 KECCAK256 SWAP1 POP SWAP2 SWAP1 POP JUMP JUMPDEST PUSH0 PUSH1 0x20 PUSH1 0x1F DUP4 ADD DIV SWAP1 POP SWAP2 SWAP1 POP JUMP JUMPDEST PUSH0 DUP3 DUP3 SHL SWAP1 POP SWAP3 SWAP2 POP POP JUMP JUMPDEST PUSH0 PUSH1 0x8 DUP4 MUL PUSH2 0x5D5 PUSH32 0xFFFFFFFFFFFFFFFFFFFFFFFFFFFFFFFFFFFFFFFFFFFFFFFFFFFFFFFFFFFFFFFF DUP3 PUSH2 0x59A JUMP JUMPDEST PUSH2 0x5DF DUP7 DUP4 PUSH2 0x59A JUMP JUMPDEST SWAP6 POP DUP1 NOT DUP5 AND SWAP4 POP DUP1 DUP7 AND DUP5 OR SWAP3 POP POP POP SWAP4 SWAP3 POP POP POP JUMP JUMPDEST PUSH0 DUP2 SWAP1 POP SWAP2 SWAP1 POP JUMP JUMPDEST PUSH0 PUSH2 0x61A PUSH2 0x615 PUSH2 0x610 DUP5 PUSH2 0x254 JUMP JUMPDEST PUSH2 0x5F7 JUMP JUMPDEST PUSH2 0x254 JUMP JUMPDEST SWAP1 POP SWAP2 SWAP1 POP JUMP JUMPDEST PUSH0 DUP2 SWAP1 POP SWAP2 SWAP1 POP JUMP JUMPDEST PUSH2 0x633 DUP4 PUSH2 0x600 JUMP JUMPDEST PUSH2 0x647 PUSH2 0x63F DUP3 PUSH2 0x621 JUMP JUMPDEST DUP5 DUP5 SLOAD PUSH2 0x5A6 JUMP JUMPDEST DUP3 SSTORE POP POP POP POP JUMP JUMPDEST PUSH0 SWAP1 JUMP JUMPDEST PUSH2 0x65B PUSH2 0x64F JUMP JUMPDEST PUSH2 0x666 DUP2 DUP5 DUP5 PUSH2 0x62A JUMP JUMPDEST POP POP POP JUMP JUMPDEST JUMPDEST DUP2 DUP2 LT ISZERO PUSH2 0x689 JUMPI PUSH2 0x67E PUSH0 DUP3 PUSH2 0x653 JUMP JUMPDEST PUSH1 0x1 DUP2 ADD SWAP1 POP PUSH2 0x66C JUMP JUMPDEST POP POP JUMP JUMPDEST PUSH1 0x1F DUP3 GT ISZERO PUSH2 0x6CE JUMPI PUSH2 0x69F DUP2 PUSH2 0x579 JUMP JUMPDEST PUSH2 0x6A8 DUP5 PUSH2 0x58B JUMP JUMPDEST DUP2 ADD PUSH1 0x20 DUP6 LT ISZERO PUSH2 0x6B7 JUMPI DUP2 SWAP1 POP JUMPDEST PUSH2 0x6CB PUSH2 0x6C3 DUP6 PUSH2 0x58B JUMP JUMPDEST DUP4 ADD DUP3 PUSH2 0x66B JUMP JUMPDEST POP POP JUMPDEST POP POP POP JUMP JUMPDEST PUSH0 DUP3 DUP3 SHR SWAP1 POP SWAP3 SWAP2 POP POP JUMP JUMPDEST PUSH0 PUSH2 0x6EE PUSH0 NOT DUP5 PUSH1 0x8 MUL PUSH2 0x6D3 JUMP JUMPDEST NOT DUP1 DUP4 AND SWAP2 POP POP SWAP3 SWAP2 POP POP JUMP JUMPDEST PUSH0 PUSH2 0x706 DUP4 DUP4 PUSH2 0x6DF JUMP JUMPDEST SWAP2 POP DUP3 PUSH1 0x2 MUL DUP3 OR SWAP1 POP SWAP3 SWAP2 POP POP JUMP JUMPDEST PUSH2 0x71F DUP3 PUSH2 0x512 JUMP JUMPDEST PUSH8 0xFFFFFFFFFFFFFFFF DUP2 GT ISZERO PUSH2 0x738 JUMPI PUSH2 0x737 PUSH2 0x29F JUMP JUMPDEST JUMPDEST PUSH2 0x742 DUP3 SLOAD PUSH2 0x549 JUMP JUMPDEST PUSH2 0x74D DUP3 DUP3 DUP6 PUSH2 0x68D JUMP JUMPDEST PUSH0 PUSH1 0x20 SWAP1 POP PUSH1 0x1F DUP4 GT PUSH1 0x1 DUP2 EQ PUSH2 0x77E JUMPI PUSH0 DUP5 ISZERO PUSH2 0x76C JUMPI DUP3 DUP8 ADD MLOAD SWAP1 POP JUMPDEST PUSH2 0x776 DUP6 DUP3 PUSH2 0x6FB JUMP JUMPDEST DUP7 SSTORE POP PUSH2 0x7DD JUMP JUMPDEST PUSH1 0x1F NOT DUP5 AND PUSH2 0x78C DUP7 PUSH2 0x579 JUMP JUMPDEST PUSH0 JUMPDEST DUP3 DUP2 LT ISZERO PUSH2 0x7B3 JUMPI DUP5 DUP10 ADD MLOAD DUP3 SSTORE PUSH1 0x1 DUP3 ADD SWAP2 POP PUSH1 0x20 DUP6 ADD SWAP5 POP PUSH1 0x20 DUP2 ADD SWAP1 POP PUSH2 0x78E JUMP JUMPDEST DUP7 DUP4 LT ISZERO PUSH2 0x7D0 JUMPI DUP5 DUP10 ADD MLOAD PUSH2 0x7CC PUSH1 0x1F DUP10 AND DUP3 PUSH2 0x6DF JUMP JUMPDEST DUP4 SSTORE POP JUMPDEST PUSH1 0x1 PUSH1 0x2 DUP9 MUL ADD DUP9 SSTORE POP POP POP JUMPDEST POP POP POP POP POP POP JUMP JUMPDEST PUSH1 0x80 MLOAD PUSH1 0xA0 MLOAD PUSH1 0xC0 MLOAD PUSH1 0xE0 MLOAD PUSH2 0x100 MLOAD PUSH2 0x120 MLOAD PUSH2 0x3228 PUSH2 0x856 PUSH0 CODECOPY PUSH0 DUP2 DUP2 PUSH2 0xD8D ADD MSTORE PUSH2 0x129C ADD MSTORE PUSH0 DUP2 DUP2 PUSH2 0xA87 ADD MSTORE PUSH2 0x1C6F ADD MSTORE PUSH0 PUSH2 0xCE3 ADD MSTORE PUSH0 DUP2 DUP2 PUSH2 0xB31 ADD MSTORE PUSH2 0x1DE0 ADD MSTORE PUSH0 DUP2 DUP2 PUSH2 0x120C ADD MSTORE PUSH2 0x174B ADD MSTORE PUSH0 DUP2 DUP2 PUSH2 0xE6E ADD MSTORE DUP2 DUP2 PUSH2 0x12D5 ADD MSTORE PUSH2 0x1770 ADD MSTORE PUSH2 0x3228 PUSH0 RETURN INVALID PUSH1 0x80 PUSH1 0x40 MSTORE PUSH1 0x4 CALLDATASIZE LT PUSH2 0x22F JUMPI PUSH0 CALLDATALOAD PUSH1 0xE0 SHR DUP1 PUSH4 0x893D20E8 GT PUSH2 0x12D JUMPI DUP1 PUSH4 0xBEE5EABE GT PUSH2 0xAA JUMPI DUP1 PUSH4 0xED01BF29 GT PUSH2 0x6E JUMPI DUP1 PUSH4 0xED01BF29 EQ PUSH2 0x8D1 JUMPI DUP1 PUSH4 0xF2FDE38B EQ PUSH2 0x8FB JUMPI DUP1 PUSH4 0xF555FFB4 EQ PUSH2 0x923 JUMPI DUP1 PUSH4 0xF9D5B5DE EQ PUSH2 0x94B JUMPI DUP1 PUSH4 0xFC291775 EQ PUSH2 0x987 JUMPI PUSH2 0x22F JUMP JUMPDEST DUP1 PUSH4 0xBEE5EABE EQ PUSH2 0x7B7 JUMPI DUP1 PUSH4 0xC228995D EQ PUSH2 0x7F3 JUMPI DUP1 PUSH4 0xCC6E4A38 EQ PUSH2 0x82F JUMPI DUP1 PUSH4 0xCD585B37 EQ PUSH2 0x86B JUMPI DUP1 PUSH4 0xE1604B70 EQ PUSH2 0x8A7 JUMPI PUSH2 0x22F JUMP JUMPDEST DUP1 PUSH4 0xABE70951 GT PUSH2 0xF1 JUMPI DUP1 PUSH4 0xABE70951 EQ PUSH2 0x6C3 JUMPI DUP1 PUSH4 0xAF640D0F EQ PUSH2 0x6FF JUMPI DUP1 PUSH4 0xB56D4125 EQ PUSH2 0x729 JUMPI DUP1 PUSH4 0xBA7EFCDD EQ PUSH2 0x751 JUMPI DUP1 PUSH4 0xBA8F07A3 EQ PUSH2 0x77B JUMPI PUSH2 0x22F JUMP JUMPDEST DUP1 PUSH4 0x893D20E8 EQ PUSH2 0x5C9 JUMPI DUP1 PUSH4 0x8DA5CB5B EQ PUSH2 0x5F3 JUMPI DUP1 PUSH4 0x94316829 EQ PUSH2 0x61D JUMPI DUP1 PUSH4 0x9C4AE5E1 EQ PUSH2 0x65D JUMPI DUP1 PUSH4 0xA78D80FC EQ PUSH2 0x699 JUMPI PUSH2 0x22F JUMP JUMPDEST DUP1 PUSH4 0x4D853EE5 GT PUSH2 0x1BB JUMPI DUP1 PUSH4 0x6D850033 GT PUSH2 0x17F JUMPI DUP1 PUSH4 0x6D850033 EQ PUSH2 0x4E9 JUMPI DUP1 PUSH4 0x6E0B5AA9 EQ PUSH2 0x525 JUMPI DUP1 PUSH4 0x715018A6 EQ PUSH2 0x54D JUMPI DUP1 PUSH4 0x72524BF3 EQ PUSH2 0x563 JUMPI DUP1 PUSH4 0x7C0B8DE2 EQ PUSH2 0x59F JUMPI PUSH2 0x22F JUMP JUMPDEST DUP1 PUSH4 0x4D853EE5 EQ PUSH2 0x3D6 JUMPI DUP1 PUSH4 0x5434D397 EQ PUSH2 0x400 JUMPI DUP1 PUSH4 0x56A58EBF EQ PUSH2 0x42A JUMPI DUP1 PUSH4 0x56F28B0A EQ PUSH2 0x471 JUMPI DUP1 PUSH4 0x6CD84DE7 EQ PUSH2 0x4AD JUMPI PUSH2 0x22F JUMP JUMPDEST DUP1 PUSH4 0x365B98B2 GT PUSH2 0x202 JUMPI DUP1 PUSH4 0x365B98B2 EQ PUSH2 0x2CB JUMPI DUP1 PUSH4 0x3BD8E51E EQ PUSH2 0x307 JUMPI DUP1 PUSH4 0x4142E328 EQ PUSH2 0x348 JUMPI DUP1 PUSH4 0x4B7B9FB9 EQ PUSH2 0x370 JUMPI DUP1 PUSH4 0x4CC3C712 EQ PUSH2 0x39A JUMPI PUSH2 0x22F JUMP JUMPDEST DUP1 PUSH4 0x6FDDE03 EQ PUSH2 0x233 JUMPI DUP1 PUSH4 0xA8B7826 EQ PUSH2 0x25D JUMPI DUP1 PUSH4 0xFB5A6B4 EQ PUSH2 0x279 JUMPI DUP1 PUSH4 0x25AD4ECC EQ PUSH2 0x2A3 JUMPI JUMPDEST PUSH0 DUP1 REVERT JUMPDEST CALLVALUE DUP1 ISZERO PUSH2 0x23E JUMPI PUSH0 DUP1 REVERT JUMPDEST POP PUSH2 0x247 PUSH2 0x9B1 JUMP JUMPDEST PUSH1 0x40 MLOAD PUSH2 0x254 SWAP2 SWAP1 PUSH2 0x2217 JUMP JUMPDEST PUSH1 0x40 MLOAD DUP1 SWAP2 SUB SWAP1 RETURN JUMPDEST PUSH2 0x277 PUSH1 0x4 DUP1 CALLDATASIZE SUB DUP2 ADD SWAP1 PUSH2 0x272 SWAP2 SWAP1 PUSH2 0x2374 JUMP JUMPDEST PUSH2 0xA3D JUMP JUMPDEST STOP JUMPDEST CALLVALUE DUP1 ISZERO PUSH2 0x284 JUMPI PUSH0 DUP1 REVERT JUMPDEST POP PUSH2 0x28D PUSH2 0xCE1 JUMP JUMPDEST PUSH1 0x40 MLOAD PUSH2 0x29A SWAP2 SWAP1 PUSH2 0x23D3 JUMP JUMPDEST PUSH1 0x40 MLOAD DUP1 SWAP2 SUB SWAP1 RETURN JUMPDEST CALLVALUE DUP1 ISZERO PUSH2 0x2AE JUMPI PUSH0 DUP1 REVERT JUMPDEST POP PUSH2 0x2C9 PUSH1 0x4 DUP1 CALLDATASIZE SUB DUP2 ADD SWAP1 PUSH2 0x2C4 SWAP2 SWAP1 PUSH2 0x23EC JUMP JUMPDEST PUSH2 0xD05 JUMP JUMPDEST STOP JUMPDEST CALLVALUE DUP1 ISZERO PUSH2 0x2D6 JUMPI PUSH0 DUP1 REVERT JUMPDEST POP PUSH2 0x2F1 PUSH1 0x4 DUP1 CALLDATASIZE SUB DUP2 ADD SWAP1 PUSH2 0x2EC SWAP2 SWAP1 PUSH2 0x248C JUMP JUMPDEST PUSH2 0x1004 JUMP JUMPDEST PUSH1 0x40 MLOAD PUSH2 0x2FE SWAP2 SWAP1 PUSH2 0x24F6 JUMP JUMPDEST PUSH1 0x40 MLOAD DUP1 SWAP2 SUB SWAP1 RETURN JUMPDEST CALLVALUE DUP1 ISZERO PUSH2 0x312 JUMPI PUSH0 DUP1 REVERT JUMPDEST POP PUSH2 0x32D PUSH1 0x4 DUP1 CALLDATASIZE SUB DUP2 ADD SWAP1 PUSH2 0x328 SWAP2 SWAP1 PUSH2 0x248C JUMP JUMPDEST PUSH2 0x103F JUMP JUMPDEST PUSH1 0x40 MLOAD PUSH2 0x33F SWAP7 SWAP6 SWAP5 SWAP4 SWAP3 SWAP2 SWAP1 PUSH2 0x250F JUMP JUMPDEST PUSH1 0x40 MLOAD DUP1 SWAP2 SUB SWAP1 RETURN JUMPDEST CALLVALUE DUP1 ISZERO PUSH2 0x353 JUMPI PUSH0 DUP1 REVERT JUMPDEST POP PUSH2 0x36E PUSH1 0x4 DUP1 CALLDATASIZE SUB DUP2 ADD SWAP1 PUSH2 0x369 SWAP2 SWAP1 PUSH2 0x25AD JUMP JUMPDEST PUSH2 0x1209 JUMP JUMPDEST STOP JUMPDEST CALLVALUE DUP1 ISZERO PUSH2 0x37B JUMPI PUSH0 DUP1 REVERT JUMPDEST POP PUSH2 0x384 PUSH2 0x129A JUMP JUMPDEST PUSH1 0x40 MLOAD PUSH2 0x391 SWAP2 SWAP1 PUSH2 0x23D3 JUMP JUMPDEST PUSH1 0x40 MLOAD DUP1 SWAP2 SUB SWAP1 RETURN JUMPDEST CALLVALUE DUP1 ISZERO PUSH2 0x3A5 JUMPI PUSH0 DUP1 REVERT JUMPDEST POP PUSH2 0x3C0 PUSH1 0x4 DUP1 CALLDATASIZE SUB DUP2 ADD SWAP1 PUSH2 0x3BB SWAP2 SWAP1 PUSH2 0x25AD JUMP JUMPDEST PUSH2 0x12BE JUMP JUMPDEST PUSH1 0x40 MLOAD PUSH2 0x3CD SWAP2 SWAP1 PUSH2 0x23D3 JUMP JUMPDEST PUSH1 0x40 MLOAD DUP1 SWAP2 SUB SWAP1 RETURN JUMPDEST CALLVALUE DUP1 ISZERO PUSH2 0x3E1 JUMPI PUSH0 DUP1 REVERT JUMPDEST POP PUSH2 0x3EA PUSH2 0x12D3 JUMP JUMPDEST PUSH1 0x40 MLOAD PUSH2 0x3F7 SWAP2 SWAP1 PUSH2 0x24F6 JUMP JUMPDEST PUSH1 0x40 MLOAD DUP1 SWAP2 SUB SWAP1 RETURN JUMPDEST CALLVALUE DUP1 ISZERO PUSH2 0x40B JUMPI PUSH0 DUP1 REVERT JUMPDEST POP PUSH2 0x414 PUSH2 0x12F7 JUMP JUMPDEST PUSH1 0x40 MLOAD PUSH2 0x421 SWAP2 SWAP1 PUSH2 0x25F2 JUMP JUMPDEST PUSH1 0x40 MLOAD DUP1 SWAP2 SUB SWAP1 RETURN JUMPDEST CALLVALUE DUP1 ISZERO PUSH2 0x435 JUMPI PUSH0 DUP1 REVERT JUMPDEST POP PUSH2 0x450 PUSH1 0x4 DUP1 CALLDATASIZE SUB DUP2 ADD SWAP1 PUSH2 0x44B SWAP2 SWAP1 PUSH2 0x248C JUMP JUMPDEST PUSH2 0x1309 JUMP JUMPDEST PUSH1 0x40 MLOAD PUSH2 0x468 SWAP13 SWAP12 SWAP11 SWAP10 SWAP9 SWAP8 SWAP7 SWAP6 SWAP5 SWAP4 SWAP3 SWAP2 SWAP1 PUSH2 0x260B JUMP JUMPDEST PUSH1 0x40 MLOAD DUP1 SWAP2 SUB SWAP1 RETURN JUMPDEST CALLVALUE DUP1 ISZERO PUSH2 0x47C JUMPI PUSH0 DUP1 REVERT JUMPDEST POP PUSH2 0x497 PUSH1 0x4 DUP1 CALLDATASIZE SUB DUP2 ADD SWAP1 PUSH2 0x492 SWAP2 SWAP1 PUSH2 0x26D1 JUMP JUMPDEST PUSH2 0x149C JUMP JUMPDEST PUSH1 0x40 MLOAD PUSH2 0x4A4 SWAP2 SWAP1 PUSH2 0x23D3 JUMP JUMPDEST PUSH1 0x40 MLOAD DUP1 SWAP2 SUB SWAP1 RETURN JUMPDEST CALLVALUE DUP1 ISZERO PUSH2 0x4B8 JUMPI PUSH0 DUP1 REVERT JUMPDEST POP PUSH2 0x4D3 PUSH1 0x4 DUP1 CALLDATASIZE SUB DUP2 ADD SWAP1 PUSH2 0x4CE SWAP2 SWAP1 PUSH2 0x26D1 JUMP JUMPDEST PUSH2 0x14C7 JUMP JUMPDEST PUSH1 0x40 MLOAD PUSH2 0x4E0 SWAP2 SWAP1 PUSH2 0x23D3 JUMP JUMPDEST PUSH1 0x40 MLOAD DUP1 SWAP2 SUB SWAP1 RETURN JUMPDEST CALLVALUE DUP1 ISZERO PUSH2 0x4F4 JUMPI PUSH0 DUP1 REVERT JUMPDEST POP PUSH2 0x50F PUSH1 0x4 DUP1 CALLDATASIZE SUB DUP2 ADD SWAP1 PUSH2 0x50A SWAP2 SWAP1 PUSH2 0x26D1 JUMP JUMPDEST PUSH2 0x14F2 JUMP JUMPDEST PUSH1 0x40 MLOAD PUSH2 0x51C SWAP2 SWAP1 PUSH2 0x23D3 JUMP JUMPDEST PUSH1 0x40 MLOAD DUP1 SWAP2 SUB SWAP1 RETURN JUMPDEST CALLVALUE DUP1 ISZERO PUSH2 0x530 JUMPI PUSH0 DUP1 REVERT JUMPDEST POP PUSH2 0x54B PUSH1 0x4 DUP1 CALLDATASIZE SUB DUP2 ADD SWAP1 PUSH2 0x546 SWAP2 SWAP1 PUSH2 0x270F JUMP JUMPDEST PUSH2 0x151D JUMP JUMPDEST STOP JUMPDEST CALLVALUE DUP1 ISZERO PUSH2 0x558 JUMPI PUSH0 DUP1 REVERT JUMPDEST POP PUSH2 0x561 PUSH2 0x1716 JUMP JUMPDEST STOP JUMPDEST CALLVALUE DUP1 ISZERO PUSH2 0x56E JUMPI PUSH0 DUP1 REVERT JUMPDEST POP PUSH2 0x589 PUSH1 0x4 DUP1 CALLDATASIZE SUB DUP2 ADD SWAP1 PUSH2 0x584 SWAP2 SWAP1 PUSH2 0x26D1 JUMP JUMPDEST PUSH2 0x1729 JUMP JUMPDEST PUSH1 0x40 MLOAD PUSH2 0x596 SWAP2 SWAP1 PUSH2 0x23D3 JUMP JUMPDEST PUSH1 0x40 MLOAD DUP1 SWAP2 SUB SWAP1 RETURN JUMPDEST CALLVALUE DUP1 ISZERO PUSH2 0x5AA JUMPI PUSH0 DUP1 REVERT JUMPDEST POP PUSH2 0x5B3 PUSH2 0x1749 JUMP JUMPDEST PUSH1 0x40 MLOAD PUSH2 0x5C0 SWAP2 SWAP1 PUSH2 0x24F6 JUMP JUMPDEST PUSH1 0x40 MLOAD DUP1 SWAP2 SUB SWAP1 RETURN JUMPDEST CALLVALUE DUP1 ISZERO PUSH2 0x5D4 JUMPI PUSH0 DUP1 REVERT JUMPDEST POP PUSH2 0x5DD PUSH2 0x176D JUMP JUMPDEST PUSH1 0x40 MLOAD PUSH2 0x5EA SWAP2 SWAP1 PUSH2 0x24F6 JUMP JUMPDEST PUSH1 0x40 MLOAD DUP1 SWAP2 SUB SWAP1 RETURN JUMPDEST CALLVALUE DUP1 ISZERO PUSH2 0x5FE JUMPI PUSH0 DUP1 REVERT JUMPDEST POP PUSH2 0x607 PUSH2 0x1794 JUMP JUMPDEST PUSH1 0x40 MLOAD PUSH2 0x614 SWAP2 SWAP1 PUSH2 0x24F6 JUMP JUMPDEST PUSH1 0x40 MLOAD DUP1 SWAP2 SUB SWAP1 RETURN JUMPDEST CALLVALUE DUP1 ISZERO PUSH2 0x628 JUMPI PUSH0 DUP1 REVERT JUMPDEST POP PUSH2 0x643 PUSH1 0x4 DUP1 CALLDATASIZE SUB DUP2 ADD SWAP1 PUSH2 0x63E SWAP2 SWAP1 PUSH2 0x248C JUMP JUMPDEST PUSH2 0x17BB JUMP JUMPDEST PUSH1 0x40 MLOAD PUSH2 0x654 SWAP6 SWAP5 SWAP4 SWAP3 SWAP2 SWAP1 PUSH2 0x274D JUMP JUMPDEST PUSH1 0x40 MLOAD DUP1 SWAP2 SUB SWAP1 RETURN JUMPDEST CALLVALUE DUP1 ISZERO PUSH2 0x668 JUMPI PUSH0 DUP1 REVERT JUMPDEST POP PUSH2 0x683 PUSH1 0x4 DUP1 CALLDATASIZE SUB DUP2 ADD SWAP1 PUSH2 0x67E SWAP2 SWAP1 PUSH2 0x26D1 JUMP JUMPDEST PUSH2 0x1918 JUMP JUMPDEST PUSH1 0x40 MLOAD PUSH2 0x690 SWAP2 SWAP1 PUSH2 0x23D3 JUMP JUMPDEST PUSH1 0x40 MLOAD DUP1 SWAP2 SUB SWAP1 RETURN JUMPDEST CALLVALUE DUP1 ISZERO PUSH2 0x6A4 JUMPI PUSH0 DUP1 REVERT JUMPDEST POP PUSH2 0x6AD PUSH2 0x1938 JUMP JUMPDEST PUSH1 0x40 MLOAD PUSH2 0x6BA SWAP2 SWAP1 PUSH2 0x23D3 JUMP JUMPDEST PUSH1 0x40 MLOAD DUP1 SWAP2 SUB SWAP1 RETURN JUMPDEST CALLVALUE DUP1 ISZERO PUSH2 0x6CE JUMPI PUSH0 DUP1 REVERT JUMPDEST POP PUSH2 0x6E9 PUSH1 0x4 DUP1 CALLDATASIZE SUB DUP2 ADD SWAP1 PUSH2 0x6E4 SWAP2 SWAP1 PUSH2 0x25AD JUMP JUMPDEST PUSH2 0x193E JUMP JUMPDEST PUSH1 0x40 MLOAD PUSH2 0x6F6 SWAP2 SWAP1 PUSH2 0x23D3 JUMP JUMPDEST PUSH1 0x40 MLOAD DUP1 SWAP2 SUB SWAP1 RETURN JUMPDEST CALLVALUE DUP1 ISZERO PUSH2 0x70A JUMPI PUSH0 DUP1 REVERT JUMPDEST POP PUSH2 0x713 PUSH2 0x1953 JUMP JUMPDEST PUSH1 0x40 MLOAD PUSH2 0x720 SWAP2 SWAP1 PUSH2 0x23D3 JUMP JUMPDEST PUSH1 0x40 MLOAD DUP1 SWAP2 SUB SWAP1 RETURN JUMPDEST CALLVALUE DUP1 ISZERO PUSH2 0x734 JUMPI PUSH0 DUP1 REVERT JUMPDEST POP PUSH2 0x74F PUSH1 0x4 DUP1 CALLDATASIZE SUB DUP2 ADD SWAP1 PUSH2 0x74A SWAP2 SWAP1 PUSH2 0x27D6 JUMP JUMPDEST PUSH2 0x1959 JUMP JUMPDEST STOP JUMPDEST CALLVALUE DUP1 ISZERO PUSH2 0x75C JUMPI PUSH0 DUP1 REVERT JUMPDEST POP PUSH2 0x765 PUSH2 0x1C6D JUMP JUMPDEST PUSH1 0x40 MLOAD PUSH2 0x772 SWAP2 SWAP1 PUSH2 0x23D3 JUMP JUMPDEST PUSH1 0x40 MLOAD DUP1 SWAP2 SUB SWAP1 RETURN JUMPDEST CALLVALUE DUP1 ISZERO PUSH2 0x786 JUMPI PUSH0 DUP1 REVERT JUMPDEST POP PUSH2 0x7A1 PUSH1 0x4 DUP1 CALLDATASIZE SUB DUP2 ADD SWAP1 PUSH2 0x79C SWAP2 SWAP1 PUSH2 0x26D1 JUMP JUMPDEST PUSH2 0x1C91 JUMP JUMPDEST PUSH1 0x40 MLOAD PUSH2 0x7AE SWAP2 SWAP1 PUSH2 0x23D3 JUMP JUMPDEST PUSH1 0x40 MLOAD DUP1 SWAP2 SUB SWAP1 RETURN JUMPDEST CALLVALUE DUP1 ISZERO PUSH2 0x7C2 JUMPI PUSH0 DUP1 REVERT JUMPDEST POP PUSH2 0x7DD PUSH1 0x4 DUP1 CALLDATASIZE SUB DUP2 ADD SWAP1 PUSH2 0x7D8 SWAP2 SWAP1 PUSH2 0x26D1 JUMP JUMPDEST PUSH2 0x1CBC JUMP JUMPDEST PUSH1 0x40 MLOAD PUSH2 0x7EA SWAP2 SWAP1 PUSH2 0x23D3 JUMP JUMPDEST PUSH1 0x40 MLOAD DUP1 SWAP2 SUB SWAP1 RETURN JUMPDEST CALLVALUE DUP1 ISZERO PUSH2 0x7FE JUMPI PUSH0 DUP1 REVERT JUMPDEST POP PUSH2 0x819 PUSH1 0x4 DUP1 CALLDATASIZE SUB DUP2 ADD SWAP1 PUSH2 0x814 SWAP2 SWAP1 PUSH2 0x26D1 JUMP JUMPDEST PUSH2 0x1CE7 JUMP JUMPDEST PUSH1 0x40 MLOAD PUSH2 0x826 SWAP2 SWAP1 PUSH2 0x23D3 JUMP JUMPDEST PUSH1 0x40 MLOAD DUP1 SWAP2 SUB SWAP1 RETURN JUMPDEST CALLVALUE DUP1 ISZERO PUSH2 0x83A JUMPI PUSH0 DUP1 REVERT JUMPDEST POP PUSH2 0x855 PUSH1 0x4 DUP1 CALLDATASIZE SUB DUP2 ADD SWAP1 PUSH2 0x850 SWAP2 SWAP1 PUSH2 0x26D1 JUMP JUMPDEST PUSH2 0x1D12 JUMP JUMPDEST PUSH1 0x40 MLOAD PUSH2 0x862 SWAP2 SWAP1 PUSH2 0x23D3 JUMP JUMPDEST PUSH1 0x40 MLOAD DUP1 SWAP2 SUB SWAP1 RETURN JUMPDEST CALLVALUE DUP1 ISZERO PUSH2 0x876 JUMPI PUSH0 DUP1 REVERT JUMPDEST POP PUSH2 0x891 PUSH1 0x4 DUP1 CALLDATASIZE SUB DUP2 ADD SWAP1 PUSH2 0x88C SWAP2 SWAP1 PUSH2 0x248C JUMP JUMPDEST PUSH2 0x1D3D JUMP JUMPDEST PUSH1 0x40 MLOAD PUSH2 0x89E SWAP2 SWAP1 PUSH2 0x2217 JUMP JUMPDEST PUSH1 0x40 MLOAD DUP1 SWAP2 SUB SWAP1 RETURN JUMPDEST CALLVALUE DUP1 ISZERO PUSH2 0x8B2 JUMPI PUSH0 DUP1 REVERT JUMPDEST POP PUSH2 0x8BB PUSH2 0x1DD8 JUMP JUMPDEST PUSH1 0x40 MLOAD PUSH2 0x8C8 SWAP2 SWAP1 PUSH2 0x23D3 JUMP JUMPDEST PUSH1 0x40 MLOAD DUP1 SWAP2 SUB SWAP1 RETURN JUMPDEST CALLVALUE DUP1 ISZERO PUSH2 0x8DC JUMPI PUSH0 DUP1 REVERT JUMPDEST POP PUSH2 0x8E5 PUSH2 0x1DDE JUMP JUMPDEST PUSH1 0x40 MLOAD PUSH2 0x8F2 SWAP2 SWAP1 PUSH2 0x23D3 JUMP JUMPDEST PUSH1 0x40 MLOAD DUP1 SWAP2 SUB SWAP1 RETURN JUMPDEST CALLVALUE DUP1 ISZERO PUSH2 0x906 JUMPI PUSH0 DUP1 REVERT JUMPDEST POP PUSH2 0x921 PUSH1 0x4 DUP1 CALLDATASIZE SUB DUP2 ADD SWAP1 PUSH2 0x91C SWAP2 SWAP1 PUSH2 0x25AD JUMP JUMPDEST PUSH2 0x1E02 JUMP JUMPDEST STOP JUMPDEST CALLVALUE DUP1 ISZERO PUSH2 0x92E JUMPI PUSH0 DUP1 REVERT JUMPDEST POP PUSH2 0x949 PUSH1 0x4 DUP1 CALLDATASIZE SUB DUP2 ADD SWAP1 PUSH2 0x944 SWAP2 SWAP1 PUSH2 0x28E7 JUMP JUMPDEST PUSH2 0x1E86 JUMP JUMPDEST STOP JUMPDEST CALLVALUE DUP1 ISZERO PUSH2 0x956 JUMPI PUSH0 DUP1 REVERT JUMPDEST POP PUSH2 0x971 PUSH1 0x4 DUP1 CALLDATASIZE SUB DUP2 ADD SWAP1 PUSH2 0x96C SWAP2 SWAP1 PUSH2 0x26D1 JUMP JUMPDEST PUSH2 0x1F85 JUMP JUMPDEST PUSH1 0x40 MLOAD PUSH2 0x97E SWAP2 SWAP1 PUSH2 0x23D3 JUMP JUMPDEST PUSH1 0x40 MLOAD DUP1 SWAP2 SUB SWAP1 RETURN JUMPDEST CALLVALUE DUP1 ISZERO PUSH2 0x992 JUMPI PUSH0 DUP1 REVERT JUMPDEST POP PUSH2 0x99B PUSH2 0x1FB0 JUMP JUMPDEST PUSH1 0x40 MLOAD PUSH2 0x9A8 SWAP2 SWAP1 PUSH2 0x23D3 JUMP JUMPDEST PUSH1 0x40 MLOAD DUP1 SWAP2 SUB SWAP1 RETURN JUMPDEST PUSH1 0x2 DUP1 SLOAD PUSH2 0x9BE SWAP1 PUSH2 0x296E JUMP JUMPDEST DUP1 PUSH1 0x1F ADD PUSH1 0x20 DUP1 SWAP2 DIV MUL PUSH1 0x20 ADD PUSH1 0x40 MLOAD SWAP1 DUP2 ADD PUSH1 0x40 MSTORE DUP1 SWAP3 SWAP2 SWAP1 DUP2 DUP2 MSTORE PUSH1 0x20 ADD DUP3 DUP1 SLOAD PUSH2 0x9EA SWAP1 PUSH2 0x296E JUMP JUMPDEST DUP1 ISZERO PUSH2 0xA35 JUMPI DUP1 PUSH1 0x1F LT PUSH2 0xA0C JUMPI PUSH2 0x100 DUP1 DUP4 SLOAD DIV MUL DUP4 MSTORE SWAP2 PUSH1 0x20 ADD SWAP2 PUSH2 0xA35 JUMP JUMPDEST DUP3 ADD SWAP2 SWAP1 PUSH0 MSTORE PUSH1 0x20 PUSH0 KECCAK256 SWAP1 JUMPDEST DUP2 SLOAD DUP2 MSTORE SWAP1 PUSH1 0x1 ADD SWAP1 PUSH1 0x20 ADD DUP1 DUP4 GT PUSH2 0xA18 JUMPI DUP3 SWAP1 SUB PUSH1 0x1F AND DUP3 ADD SWAP2 JUMPDEST POP POP POP POP POP DUP2 JUMP JUMPDEST PUSH0 CALLER SWAP1 POP PUSH0 PUSH1 0x9 PUSH0 DUP4 PUSH20 0xFFFFFFFFFFFFFFFFFFFFFFFFFFFFFFFFFFFFFFFF AND PUSH20 0xFFFFFFFFFFFFFFFFFFFFFFFFFFFFFFFFFFFFFFFF AND DUP2 MSTORE PUSH1 0x20 ADD SWAP1 DUP2 MSTORE PUSH1 0x20 ADD PUSH0 KECCAK256 SLOAD EQ PUSH2 0xB2F JUMPI PUSH32 0x0 CALLVALUE LT ISZERO PUSH2 0xAE8 JUMPI PUSH1 0x40 MLOAD PUSH32 0x8C379A000000000000000000000000000000000000000000000000000000000 DUP2 MSTORE PUSH1 0x4 ADD PUSH2 0xADF SWAP1 PUSH2 0x2A0E JUMP JUMPDEST PUSH1 0x40 MLOAD DUP1 SWAP2 SUB SWAP1 REVERT JUMPDEST PUSH2 0xAF2 DUP3 DUP3 PUSH2 0x1E86 JUMP JUMPDEST PUSH1 0x5 SLOAD PUSH32 0x1C81D7053F5E6F875E0D7B584D3354071899B7DC927E6D7B48B58CAA90CF3DE8 DUP4 DUP4 PUSH1 0x40 MLOAD PUSH2 0xB26 SWAP3 SWAP2 SWAP1 PUSH2 0x2A2C JUMP JUMPDEST PUSH1 0x40 MLOAD DUP1 SWAP2 SUB SWAP1 LOG2 JUMPDEST PUSH32 0x0 CALLVALUE PUSH1 0x3 SLOAD PUSH2 0xB5E SWAP2 SWAP1 PUSH2 0x2A87 JUMP JUMPDEST GT ISZERO PUSH2 0xB9F JUMPI PUSH1 0x40 MLOAD PUSH32 0x8C379A000000000000000000000000000000000000000000000000000000000 DUP2 MSTORE PUSH1 0x4 ADD PUSH2 0xB96 SWAP1 PUSH2 0x2B2A JUMP JUMPDEST PUSH1 0x40 MLOAD DUP1 SWAP2 SUB SWAP1 REVERT JUMPDEST CALLVALUE PUSH1 0x3 PUSH0 DUP3 DUP3 SLOAD PUSH2 0xBB0 SWAP2 SWAP1 PUSH2 0x2A87 JUMP JUMPDEST SWAP3 POP POP DUP2 SWAP1 SSTORE POP PUSH0 PUSH1 0x17 PUSH0 DUP4 PUSH20 0xFFFFFFFFFFFFFFFFFFFFFFFFFFFFFFFFFFFFFFFF AND PUSH20 0xFFFFFFFFFFFFFFFFFFFFFFFFFFFFFFFFFFFFFFFF AND DUP2 MSTORE PUSH1 0x20 ADD SWAP1 DUP2 MSTORE PUSH1 0x20 ADD PUSH0 KECCAK256 SLOAD EQ PUSH2 0xC53 JUMPI CALLVALUE PUSH1 0x17 PUSH0 DUP4 PUSH20 0xFFFFFFFFFFFFFFFFFFFFFFFFFFFFFFFFFFFFFFFF AND PUSH20 0xFFFFFFFFFFFFFFFFFFFFFFFFFFFFFFFFFFFFFFFF AND DUP2 MSTORE PUSH1 0x20 ADD SWAP1 DUP2 MSTORE PUSH1 0x20 ADD PUSH0 KECCAK256 PUSH0 DUP3 DUP3 SLOAD PUSH2 0xC47 SWAP2 SWAP1 PUSH2 0x2A87 JUMP JUMPDEST SWAP3 POP POP DUP2 SWAP1 SSTORE POP PUSH2 0xC9F JUMP JUMPDEST PUSH2 0xC5C DUP2 PUSH2 0x1209 JUMP JUMPDEST CALLVALUE PUSH1 0x17 PUSH0 DUP4 PUSH20 0xFFFFFFFFFFFFFFFFFFFFFFFFFFFFFFFFFFFFFFFF AND PUSH20 0xFFFFFFFFFFFFFFFFFFFFFFFFFFFFFFFFFFFFFFFF AND DUP2 MSTORE PUSH1 0x20 ADD SWAP1 DUP2 MSTORE PUSH1 0x20 ADD PUSH0 KECCAK256 DUP2 SWAP1 SSTORE POP JUMPDEST PUSH1 0x5 SLOAD PUSH32 0x5909EEAE9D21E6FA8AC76FF35662EF4BF97B31CEF31B127F4195177E1E2B8A83 DUP4 DUP4 CALLVALUE PUSH1 0x40 MLOAD PUSH2 0xCD5 SWAP4 SWAP3 SWAP2 SWAP1 PUSH2 0x2B48 JUMP JUMPDEST PUSH1 0x40 MLOAD DUP1 SWAP2 SUB SWAP1 LOG2 POP POP JUMP JUMPDEST PUSH32 0x0 DUP2 JUMP JUMPDEST PUSH0 DUP3 MLOAD GT PUSH2 0xD48 JUMPI PUSH1 0x40 MLOAD PUSH32 0x8C379A000000000000000000000000000000000000000000000000000000000 DUP2 MSTORE PUSH1 0x4 ADD PUSH2 0xD3F SWAP1 PUSH2 0x2BCE JUMP JUMPDEST PUSH1 0x40 MLOAD DUP1 SWAP2 SUB SWAP1 REVERT JUMPDEST PUSH0 DUP2 MLOAD GT PUSH2 0xD8B JUMPI PUSH1 0x40 MLOAD PUSH32 0x8C379A000000000000000000000000000000000000000000000000000000000 DUP2 MSTORE PUSH1 0x4 ADD PUSH2 0xD82 SWAP1 PUSH2 0x2C36 JUMP JUMPDEST PUSH1 0x40 MLOAD DUP1 SWAP2 SUB SWAP1 REVERT JUMPDEST PUSH32 0x0 PUSH1 0x3 SLOAD GT PUSH2 0xDEF JUMPI PUSH1 0x40 MLOAD PUSH32 0x8C379A000000000000000000000000000000000000000000000000000000000 DUP2 MSTORE PUSH1 0x4 ADD PUSH2 0xDE6 SWAP1 PUSH2 0x2CC4 JUMP JUMPDEST PUSH1 0x40 MLOAD DUP1 SWAP2 SUB SWAP1 REVERT JUMPDEST PUSH0 ISZERO ISZERO PUSH1 0x7 PUSH0 SWAP1 SLOAD SWAP1 PUSH2 0x100 EXP SWAP1 DIV PUSH1 0xFF AND ISZERO ISZERO EQ PUSH2 0xE43 JUMPI PUSH1 0x40 MLOAD PUSH32 0x8C379A000000000000000000000000000000000000000000000000000000000 DUP2 MSTORE PUSH1 0x4 ADD PUSH2 0xE3A SWAP1 PUSH2 0x2D2C JUMP JUMPDEST PUSH1 0x40 MLOAD DUP1 SWAP2 SUB SWAP1 REVERT JUMPDEST PUSH0 DUP1 PUSH1 0x40 MLOAD DUP1 PUSH1 0xC0 ADD PUSH1 0x40 MSTORE DUP1 PUSH1 0x1 SLOAD DUP2 MSTORE PUSH1 0x20 ADD DUP6 DUP2 MSTORE PUSH1 0x20 ADD DUP5 DUP2 MSTORE PUSH1 0x20 ADD PUSH1 0x5 SLOAD DUP2 MSTORE PUSH1 0x20 ADD PUSH32 0x0 PUSH20 0xFFFFFFFFFFFFFFFFFFFFFFFFFFFFFFFFFFFFFFFF AND DUP2 MSTORE PUSH1 0x20 ADD PUSH1 0x6 DUP1 SLOAD DUP1 PUSH1 0x20 MUL PUSH1 0x20 ADD PUSH1 0x40 MLOAD SWAP1 DUP2 ADD PUSH1 0x40 MSTORE DUP1 SWAP3 SWAP2 SWAP1 DUP2 DUP2 MSTORE PUSH1 0x20 ADD DUP3 DUP1 SLOAD DUP1 ISZERO PUSH2 0xF27 JUMPI PUSH1 0x20 MUL DUP3 ADD SWAP2 SWAP1 PUSH0 MSTORE PUSH1 0x20 PUSH0 KECCAK256 SWAP1 JUMPDEST DUP2 PUSH0 SWAP1 SLOAD SWAP1 PUSH2 0x100 EXP SWAP1 DIV PUSH20 0xFFFFFFFFFFFFFFFFFFFFFFFFFFFFFFFFFFFFFFFF AND PUSH20 0xFFFFFFFFFFFFFFFFFFFFFFFFFFFFFFFFFFFFFFFF AND DUP2 MSTORE PUSH1 0x20 ADD SWAP1 PUSH1 0x1 ADD SWAP1 DUP1 DUP4 GT PUSH2 0xEDE JUMPI JUMPDEST POP POP POP POP POP DUP2 MSTORE POP SWAP1 POP DUP1 PUSH1 0xA PUSH0 DUP5 DUP2 MSTORE PUSH1 0x20 ADD SWAP1 DUP2 MSTORE PUSH1 0x20 ADD PUSH0 KECCAK256 PUSH0 DUP3 ADD MLOAD DUP2 PUSH0 ADD SSTORE PUSH1 0x20 DUP3 ADD MLOAD DUP2 PUSH1 0x1 ADD SWAP1 DUP2 PUSH2 0xF60 SWAP2 SWAP1 PUSH2 0x2EE7 JUMP JUMPDEST POP PUSH1 0x40 DUP3 ADD MLOAD DUP2 PUSH1 0x2 ADD SWAP1 DUP2 PUSH2 0xF76 SWAP2 SWAP1 PUSH2 0x2EE7 JUMP JUMPDEST POP PUSH1 0x60 DUP3 ADD MLOAD DUP2 PUSH1 0x3 ADD SSTORE PUSH1 0x80 DUP3 ADD MLOAD DUP2 PUSH1 0x4 ADD PUSH0 PUSH2 0x100 EXP DUP2 SLOAD DUP2 PUSH20 0xFFFFFFFFFFFFFFFFFFFFFFFFFFFFFFFFFFFFFFFF MUL NOT AND SWAP1 DUP4 PUSH20 0xFFFFFFFFFFFFFFFFFFFFFFFFFFFFFFFFFFFFFFFF AND MUL OR SWAP1 SSTORE POP PUSH1 0xA0 DUP3 ADD MLOAD DUP2 PUSH1 0x5 ADD SWAP1 DUP1 MLOAD SWAP1 PUSH1 0x20 ADD SWAP1 PUSH2 0xFE3 SWAP3 SWAP2 SWAP1 PUSH2 0x2105 JUMP JUMPDEST POP SWAP1 POP POP PUSH1 0x5 PUSH0 DUP2 SLOAD DUP1 SWAP3 SWAP2 SWAP1 PUSH2 0xFF9 SWAP1 PUSH2 0x2FB6 JUMP JUMPDEST SWAP2 SWAP1 POP SSTORE POP POP POP POP POP JUMP JUMPDEST PUSH1 0x6 DUP2 DUP2 SLOAD DUP2 LT PUSH2 0x1013 JUMPI PUSH0 DUP1 REVERT JUMPDEST SWAP1 PUSH0 MSTORE PUSH1 0x20 PUSH0 KECCAK256 ADD PUSH0 SWAP2 POP SLOAD SWAP1 PUSH2 0x100 EXP SWAP1 DIV PUSH20 0xFFFFFFFFFFFFFFFFFFFFFFFFFFFFFFFFFFFFFFFF AND DUP2 JUMP JUMPDEST PUSH1 0x15 PUSH1 0x20 MSTORE DUP1 PUSH0 MSTORE PUSH1 0x40 PUSH0 KECCAK256 PUSH0 SWAP2 POP SWAP1 POP DUP1 PUSH0 ADD SLOAD SWAP1 DUP1 PUSH1 0x1 ADD DUP1 SLOAD PUSH2 0x1064 SWAP1 PUSH2 0x296E JUMP JUMPDEST DUP1 PUSH1 0x1F ADD PUSH1 0x20 DUP1 SWAP2 DIV MUL PUSH1 0x20 ADD PUSH1 0x40 MLOAD SWAP1 DUP2 ADD PUSH1 0x40 MSTORE DUP1 SWAP3 SWAP2 SWAP1 DUP2 DUP2 MSTORE PUSH1 0x20 ADD DUP3 DUP1 SLOAD PUSH2 0x1090 SWAP1 PUSH2 0x296E JUMP JUMPDEST DUP1 ISZERO PUSH2 0x10DB JUMPI DUP1 PUSH1 0x1F LT PUSH2 0x10B2 JUMPI PUSH2 0x100 DUP1 DUP4 SLOAD DIV MUL DUP4 MSTORE SWAP2 PUSH1 0x20 ADD SWAP2 PUSH2 0x10DB JUMP JUMPDEST DUP3 ADD SWAP2 SWAP1 PUSH0 MSTORE PUSH1 0x20 PUSH0 KECCAK256 SWAP1 JUMPDEST DUP2 SLOAD DUP2 MSTORE SWAP1 PUSH1 0x1 ADD SWAP1 PUSH1 0x20 ADD DUP1 DUP4 GT PUSH2 0x10BE JUMPI DUP3 SWAP1 SUB PUSH1 0x1F AND DUP3 ADD SWAP2 JUMPDEST POP POP POP POP POP SWAP1 DUP1 PUSH1 0x2 ADD DUP1 SLOAD PUSH2 0x10F0 SWAP1 PUSH2 0x296E JUMP JUMPDEST DUP1 PUSH1 0x1F ADD PUSH1 0x20 DUP1 SWAP2 DIV MUL PUSH1 0x20 ADD PUSH1 0x40 MLOAD SWAP1 DUP2 ADD PUSH1 0x40 MSTORE DUP1 SWAP3 SWAP2 SWAP1 DUP2 DUP2 MSTORE PUSH1 0x20 ADD DUP3 DUP1 SLOAD PUSH2 0x111C SWAP1 PUSH2 0x296E JUMP JUMPDEST DUP1 ISZERO PUSH2 0x1167 JUMPI DUP1 PUSH1 0x1F LT PUSH2 0x113E JUMPI PUSH2 0x100 DUP1 DUP4 SLOAD DIV MUL DUP4 MSTORE SWAP2 PUSH1 0x20 ADD SWAP2 PUSH2 0x1167 JUMP JUMPDEST DUP3 ADD SWAP2 SWAP1 PUSH0 MSTORE PUSH1 0x20 PUSH0 KECCAK256 SWAP1 JUMPDEST DUP2 SLOAD DUP2 MSTORE SWAP1 PUSH1 0x1 ADD SWAP1 PUSH1 0x20 ADD DUP1 DUP4 GT PUSH2 0x114A JUMPI DUP3 SWAP1 SUB PUSH1 0x1F AND DUP3 ADD SWAP2 JUMPDEST POP POP POP POP POP SWAP1 DUP1 PUSH1 0x3 ADD DUP1 SLOAD PUSH2 0x117C SWAP1 PUSH2 0x296E JUMP JUMPDEST DUP1 PUSH1 0x1F ADD PUSH1 0x20 DUP1 SWAP2 DIV MUL PUSH1 0x20 ADD PUSH1 0x40 MLOAD SWAP1 DUP2 ADD PUSH1 0x40 MSTORE DUP1 SWAP3 SWAP2 SWAP1 DUP2 DUP2 MSTORE PUSH1 0x20 ADD DUP3 DUP1 SLOAD PUSH2 0x11A8 SWAP1 PUSH2 0x296E JUMP JUMPDEST DUP1 ISZERO PUSH2 0x11F3 JUMPI DUP1 PUSH1 0x1F LT PUSH2 0x11CA JUMPI PUSH2 0x100 DUP1 DUP4 SLOAD DIV MUL DUP4 MSTORE SWAP2 PUSH1 0x20 ADD SWAP2 PUSH2 0x11F3 JUMP JUMPDEST DUP3 ADD SWAP2 SWAP1 PUSH0 MSTORE PUSH1 0x20 PUSH0 KECCAK256 SWAP1 JUMPDEST DUP2 SLOAD DUP2 MSTORE SWAP1 PUSH1 0x1 ADD SWAP1 PUSH1 0x20 ADD DUP1 DUP4 GT PUSH2 0x11D6 JUMPI DUP3 SWAP1 SUB PUSH1 0x1F AND DUP3 ADD SWAP2 JUMPDEST POP POP POP POP POP SWAP1 DUP1 PUSH1 0x4 ADD SLOAD SWAP1 DUP1 PUSH1 0x5 ADD SLOAD SWAP1 POP DUP7 JUMP JUMPDEST PUSH0 PUSH32 0x0 SWAP1 POP DUP1 PUSH20 0xFFFFFFFFFFFFFFFFFFFFFFFFFFFFFFFFFFFFFFFF AND PUSH4 0xD3FC9864 DUP4 PUSH1 0x2 PUSH1 0x40 MLOAD DUP4 PUSH4 0xFFFFFFFF AND PUSH1 0xE0 SHL DUP2 MSTORE PUSH1 0x4 ADD PUSH2 0x1269 SWAP3 SWAP2 SWAP1 PUSH2 0x3080 JUMP JUMPDEST PUSH0 PUSH1 0x40 MLOAD DUP1 DUP4 SUB DUP2 PUSH0 DUP8 DUP1 EXTCODESIZE ISZERO DUP1 ISZERO PUSH2 0x1280 JUMPI PUSH0 DUP1 REVERT JUMPDEST POP GAS CALL ISZERO DUP1 ISZERO PUSH2 0x1292 JUMPI RETURNDATASIZE PUSH0 DUP1 RETURNDATACOPY RETURNDATASIZE PUSH0 REVERT JUMPDEST POP POP POP POP POP POP JUMP JUMPDEST PUSH32 0x0 DUP2 JUMP JUMPDEST PUSH1 0x17 PUSH1 0x20 MSTORE DUP1 PUSH0 MSTORE PUSH1 0x40 PUSH0 KECCAK256 PUSH0 SWAP2 POP SWAP1 POP SLOAD DUP2 JUMP JUMPDEST PUSH32 0x0 DUP2 JUMP JUMPDEST PUSH1 0x7 PUSH0 SWAP1 SLOAD SWAP1 PUSH2 0x100 EXP SWAP1 DIV PUSH1 0xFF AND DUP2 JUMP JUMPDEST PUSH1 0xB PUSH1 0x20 MSTORE DUP1 PUSH0 MSTORE PUSH1 0x40 PUSH0 KECCAK256 PUSH0 SWAP2 POP SWAP1 POP DUP1 PUSH0 ADD SLOAD SWAP1 DUP1 PUSH1 0x1 ADD SLOAD SWAP1 DUP1 PUSH1 0x2 ADD DUP1 SLOAD PUSH2 0x1334 SWAP1 PUSH2 0x296E JUMP JUMPDEST DUP1 PUSH1 0x1F ADD PUSH1 0x20 DUP1 SWAP2 DIV MUL PUSH1 0x20 ADD PUSH1 0x40 MLOAD SWAP1 DUP2 ADD PUSH1 0x40 MSTORE DUP1 SWAP3 SWAP2 SWAP1 DUP2 DUP2 MSTORE PUSH1 0x20 ADD DUP3 DUP1 SLOAD PUSH2 0x1360 SWAP1 PUSH2 0x296E JUMP JUMPDEST DUP1 ISZERO PUSH2 0x13AB JUMPI DUP1 PUSH1 0x1F LT PUSH2 0x1382 JUMPI PUSH2 0x100 DUP1 DUP4 SLOAD DIV MUL DUP4 MSTORE SWAP2 PUSH1 0x20 ADD SWAP2 PUSH2 0x13AB JUMP JUMPDEST DUP3 ADD SWAP2 SWAP1 PUSH0 MSTORE PUSH1 0x20 PUSH0 KECCAK256 SWAP1 JUMPDEST DUP2 SLOAD DUP2 MSTORE SWAP1 PUSH1 0x1 ADD SWAP1 PUSH1 0x20 ADD DUP1 DUP4 GT PUSH2 0x138E JUMPI DUP3 SWAP1 SUB PUSH1 0x1F AND DUP3 ADD SWAP2 JUMPDEST POP POP POP POP POP SWAP1 DUP1 PUSH1 0x3 ADD DUP1 SLOAD PUSH2 0x13C0 SWAP1 PUSH2 0x296E JUMP JUMPDEST DUP1 PUSH1 0x1F ADD PUSH1 0x20 DUP1 SWAP2 DIV MUL PUSH1 0x20 ADD PUSH1 0x40 MLOAD SWAP1 DUP2 ADD PUSH1 0x40 MSTORE DUP1 SWAP3 SWAP2 SWAP1 DUP2 DUP2 MSTORE PUSH1 0x20 ADD DUP3 DUP1 SLOAD PUSH2 0x13EC SWAP1 PUSH2 0x296E JUMP JUMPDEST DUP1 ISZERO PUSH2 0x1437 JUMPI DUP1 PUSH1 0x1F LT PUSH2 0x140E JUMPI PUSH2 0x100 DUP1 DUP4 SLOAD DIV MUL DUP4 MSTORE SWAP2 PUSH1 0x20 ADD SWAP2 PUSH2 0x1437 JUMP JUMPDEST DUP3 ADD SWAP2 SWAP1 PUSH0 MSTORE PUSH1 0x20 PUSH0 KECCAK256 SWAP1 JUMPDEST DUP2 SLOAD DUP2 MSTORE SWAP1 PUSH1 0x1 ADD SWAP1 PUSH1 0x20 ADD DUP1 DUP4 GT PUSH2 0x141A JUMPI DUP3 SWAP1 SUB PUSH1 0x1F AND DUP3 ADD SWAP2 JUMPDEST POP POP POP POP POP SWAP1 DUP1 PUSH1 0x4 ADD SLOAD SWAP1 DUP1 PUSH1 0x5 ADD PUSH0 SWAP1 SLOAD SWAP1 PUSH2 0x100 EXP SWAP1 DIV PUSH20 0xFFFFFFFFFFFFFFFFFFFFFFFFFFFFFFFFFFFFFFFF AND SWAP1 DUP1 PUSH1 0x6 ADD SLOAD SWAP1 DUP1 PUSH1 0x7 ADD SLOAD SWAP1 DUP1 PUSH1 0x8 ADD SLOAD SWAP1 DUP1 PUSH1 0x9 ADD SLOAD SWAP1 DUP1 PUSH1 0xA ADD SLOAD SWAP1 DUP1 PUSH1 0xB ADD PUSH0 SWAP1 SLOAD SWAP1 PUSH2 0x100 EXP SWAP1 DIV PUSH1 0xFF AND SWAP1 POP DUP13 JUMP JUMPDEST PUSH1 0x12 PUSH1 0x20 MSTORE DUP2 PUSH0 MSTORE PUSH1 0x40 PUSH0 KECCAK256 DUP2 DUP2 SLOAD DUP2 LT PUSH2 0x14B5 JUMPI PUSH0 DUP1 REVERT JUMPDEST SWAP1 PUSH0 MSTORE PUSH1 0x20 PUSH0 KECCAK256 ADD PUSH0 SWAP2 POP SWAP2 POP POP SLOAD DUP2 JUMP JUMPDEST PUSH1 0x11 PUSH1 0x20 MSTORE DUP2 PUSH0 MSTORE PUSH1 0x40 PUSH0 KECCAK256 DUP2 DUP2 SLOAD DUP2 LT PUSH2 0x14E0 JUMPI PUSH0 DUP1 REVERT JUMPDEST SWAP1 PUSH0 MSTORE PUSH1 0x20 PUSH0 KECCAK256 ADD PUSH0 SWAP2 POP SWAP2 POP POP SLOAD DUP2 JUMP JUMPDEST PUSH1 0xC PUSH1 0x20 MSTORE DUP2 PUSH0 MSTORE PUSH1 0x40 PUSH0 KECCAK256 DUP2 DUP2 SLOAD DUP2 LT PUSH2 0x150B JUMPI PUSH0 DUP1 REVERT JUMPDEST SWAP1 PUSH0 MSTORE PUSH1 0x20 PUSH0 KECCAK256 ADD PUSH0 SWAP2 POP SWAP2 POP POP SLOAD DUP2 JUMP JUMPDEST PUSH0 PUSH20 0xFFFFFFFFFFFFFFFFFFFFFFFFFFFFFFFFFFFFFFFF AND PUSH1 0xA PUSH0 DUP5 DUP2 MSTORE PUSH1 0x20 ADD SWAP1 DUP2 MSTORE PUSH1 0x20 ADD PUSH0 KECCAK256 PUSH1 0x4 ADD PUSH0 SWAP1 SLOAD SWAP1 PUSH2 0x100 EXP SWAP1 DIV PUSH20 0xFFFFFFFFFFFFFFFFFFFFFFFFFFFFFFFFFFFFFFFF AND PUSH20 0xFFFFFFFFFFFFFFFFFFFFFFFFFFFFFFFFFFFFFFFF AND SUB PUSH2 0x15BE JUMPI PUSH1 0x40 MLOAD PUSH32 0x8C379A000000000000000000000000000000000000000000000000000000000 DUP2 MSTORE PUSH1 0x4 ADD PUSH2 0x15B5 SWAP1 PUSH2 0x3104 JUMP JUMPDEST PUSH1 0x40 MLOAD DUP1 SWAP2 SUB SWAP1 REVERT JUMPDEST PUSH0 PUSH1 0x9 PUSH0 DUP4 PUSH20 0xFFFFFFFFFFFFFFFFFFFFFFFFFFFFFFFFFFFFFFFF AND PUSH20 0xFFFFFFFFFFFFFFFFFFFFFFFFFFFFFFFFFFFFFFFF AND DUP2 MSTORE PUSH1 0x20 ADD SWAP1 DUP2 MSTORE PUSH1 0x20 ADD PUSH0 KECCAK256 SLOAD GT PUSH2 0x163D JUMPI PUSH1 0x40 MLOAD PUSH32 0x8C379A000000000000000000000000000000000000000000000000000000000 DUP2 MSTORE PUSH1 0x4 ADD PUSH2 0x1634 SWAP1 PUSH2 0x316C JUMP JUMPDEST PUSH1 0x40 MLOAD DUP1 SWAP2 SUB SWAP1 REVERT JUMPDEST PUSH0 PUSH1 0x9 PUSH0 DUP4 PUSH20 0xFFFFFFFFFFFFFFFFFFFFFFFFFFFFFFFFFFFFFFFF AND PUSH20 0xFFFFFFFFFFFFFFFFFFFFFFFFFFFFFFFFFFFFFFFF AND DUP2 MSTORE PUSH1 0x20 ADD SWAP1 DUP2 MSTORE PUSH1 0x20 ADD PUSH0 KECCAK256 SLOAD SWAP1 POP PUSH1 0xC PUSH0 DUP5 DUP2 MSTORE PUSH1 0x20 ADD SWAP1 DUP2 MSTORE PUSH1 0x20 ADD PUSH0 KECCAK256 DUP2 SWAP1 DUP1 PUSH1 0x1 DUP2 SLOAD ADD DUP1 DUP3 SSTORE DUP1 SWAP2 POP POP PUSH1 0x1 SWAP1 SUB SWAP1 PUSH0 MSTORE PUSH1 0x20 PUSH0 KECCAK256 ADD PUSH0 SWAP1 SWAP2 SWAP1 SWAP2 SWAP1 SWAP2 POP SSTORE PUSH1 0xA PUSH0 DUP5 DUP2 MSTORE PUSH1 0x20 ADD SWAP1 DUP2 MSTORE PUSH1 0x20 ADD PUSH0 KECCAK256 PUSH1 0x3 ADD PUSH0 DUP2 SLOAD DUP1 SWAP3 SWAP2 SWAP1 PUSH2 0x16D7 SWAP1 PUSH2 0x2FB6 JUMP JUMPDEST SWAP2 SWAP1 POP SSTORE POP PUSH1 0x12 PUSH0 DUP3 DUP2 MSTORE PUSH1 0x20 ADD SWAP1 DUP2 MSTORE PUSH1 0x20 ADD PUSH0 KECCAK256 DUP4 SWAP1 DUP1 PUSH1 0x1 DUP2 SLOAD ADD DUP1 DUP3 SSTORE DUP1 SWAP2 POP POP PUSH1 0x1 SWAP1 SUB SWAP1 PUSH0 MSTORE PUSH1 0x20 PUSH0 KECCAK256 ADD PUSH0 SWAP1 SWAP2 SWAP1 SWAP2 SWAP1 SWAP2 POP SSTORE POP POP POP JUMP JUMPDEST PUSH2 0x171E PUSH2 0x1FB6 JUMP JUMPDEST PUSH2 0x1727 PUSH0 PUSH2 0x203D JUMP JUMPDEST JUMP JUMPDEST PUSH1 0x13 PUSH1 0x20 MSTORE DUP2 PUSH0 MSTORE PUSH1 0x40 PUSH0 KECCAK256 PUSH1 0x20 MSTORE DUP1 PUSH0 MSTORE PUSH1 0x40 PUSH0 KECCAK256 PUSH0 SWAP2 POP SWAP2 POP POP SLOAD DUP2 JUMP JUMPDEST PUSH32 0x0 DUP2 JUMP JUMPDEST PUSH0 PUSH32 0x0 SWAP1 POP SWAP1 JUMP JUMPDEST PUSH0 DUP1 PUSH0 SWAP1 SLOAD SWAP1 PUSH2 0x100 EXP SWAP1 DIV PUSH20 0xFFFFFFFFFFFFFFFFFFFFFFFFFFFFFFFFFFFFFFFF AND SWAP1 POP SWAP1 JUMP JUMPDEST PUSH1 0xA PUSH1 0x20 MSTORE DUP1 PUSH0 MSTORE PUSH1 0x40 PUSH0 KECCAK256 PUSH0 SWAP2 POP SWAP1 POP DUP1 PUSH0 ADD SLOAD SWAP1 DUP1 PUSH1 0x1 ADD DUP1 SLOAD PUSH2 0x17E0 SWAP1 PUSH2 0x296E JUMP JUMPDEST DUP1 PUSH1 0x1F ADD PUSH1 0x20 DUP1 SWAP2 DIV MUL PUSH1 0x20 ADD PUSH1 0x40 MLOAD SWAP1 DUP2 ADD PUSH1 0x40 MSTORE DUP1 SWAP3 SWAP2 SWAP1 DUP2 DUP2 MSTORE PUSH1 0x20 ADD DUP3 DUP1 SLOAD PUSH2 0x180C SWAP1 PUSH2 0x296E JUMP JUMPDEST DUP1 ISZERO PUSH2 0x1857 JUMPI DUP1 PUSH1 0x1F LT PUSH2 0x182E JUMPI PUSH2 0x100 DUP1 DUP4 SLOAD DIV MUL DUP4 MSTORE SWAP2 PUSH1 0x20 ADD SWAP2 PUSH2 0x1857 JUMP JUMPDEST DUP3 ADD SWAP2 SWAP1 PUSH0 MSTORE PUSH1 0x20 PUSH0 KECCAK256 SWAP1 JUMPDEST DUP2 SLOAD DUP2 MSTORE SWAP1 PUSH1 0x1 ADD SWAP1 PUSH1 0x20 ADD DUP1 DUP4 GT PUSH2 0x183A JUMPI DUP3 SWAP1 SUB PUSH1 0x1F AND DUP3 ADD SWAP2 JUMPDEST POP POP POP POP POP SWAP1 DUP1 PUSH1 0x2 ADD DUP1 SLOAD PUSH2 0x186C SWAP1 PUSH2 0x296E JUMP JUMPDEST DUP1 PUSH1 0x1F ADD PUSH1 0x20 DUP1 SWAP2 DIV MUL PUSH1 0x20 ADD PUSH1 0x40 MLOAD SWAP1 DUP2 ADD PUSH1 0x40 MSTORE DUP1 SWAP3 SWAP2 SWAP1 DUP2 DUP2 MSTORE PUSH1 0x20 ADD DUP3 DUP1 SLOAD PUSH2 0x1898 SWAP1 PUSH2 0x296E JUMP JUMPDEST DUP1 ISZERO PUSH2 0x18E3 JUMPI DUP1 PUSH1 0x1F LT PUSH2 0x18BA JUMPI PUSH2 0x100 DUP1 DUP4 SLOAD DIV MUL DUP4 MSTORE SWAP2 PUSH1 0x20 ADD SWAP2 PUSH2 0x18E3 JUMP JUMPDEST DUP3 ADD SWAP2 SWAP1 PUSH0 MSTORE PUSH1 0x20 PUSH0 KECCAK256 SWAP1 JUMPDEST DUP2 SLOAD DUP2 MSTORE SWAP1 PUSH1 0x1 ADD SWAP1 PUSH1 0x20 ADD DUP1 DUP4 GT PUSH2 0x18C6 JUMPI DUP3 SWAP1 SUB PUSH1 0x1F AND DUP3 ADD SWAP2 JUMPDEST POP POP POP POP POP SWAP1 DUP1 PUSH1 0x3 ADD SLOAD SWAP1 DUP1 PUSH1 0x4 ADD PUSH0 SWAP1 SLOAD SWAP1 PUSH2 0x100 EXP SWAP1 DIV PUSH20 0xFFFFFFFFFFFFFFFFFFFFFFFFFFFFFFFFFFFFFFFF AND SWAP1 POP DUP6 JUMP JUMPDEST PUSH1 0x14 PUSH1 0x20 MSTORE DUP2 PUSH0 MSTORE PUSH1 0x40 PUSH0 KECCAK256 PUSH1 0x20 MSTORE DUP1 PUSH0 MSTORE PUSH1 0x40 PUSH0 KECCAK256 PUSH0 SWAP2 POP SWAP2 POP POP SLOAD DUP2 JUMP JUMPDEST PUSH1 0x4 SLOAD DUP2 JUMP JUMPDEST PUSH1 0x9 PUSH1 0x20 MSTORE DUP1 PUSH0 MSTORE PUSH1 0x40 PUSH0 KECCAK256 PUSH0 SWAP2 POP SWAP1 POP SLOAD DUP2 JUMP JUMPDEST PUSH1 0x1 SLOAD DUP2 JUMP JUMPDEST PUSH2 0x1961 PUSH2 0x1FB6 JUMP JUMPDEST PUSH0 PUSH20 0xFFFFFFFFFFFFFFFFFFFFFFFFFFFFFFFFFFFFFFFF AND PUSH1 0xA PUSH0 DUP7 DUP2 MSTORE PUSH1 0x20 ADD SWAP1 DUP2 MSTORE PUSH1 0x20 ADD PUSH0 KECCAK256 PUSH1 0x4 ADD PUSH0 SWAP1 SLOAD SWAP1 PUSH2 0x100 EXP SWAP1 DIV PUSH20 0xFFFFFFFFFFFFFFFFFFFFFFFFFFFFFFFFFFFFFFFF AND PUSH20 0xFFFFFFFFFFFFFFFFFFFFFFFFFFFFFFFFFFFFFFFF AND SUB PUSH2 0x1A02 JUMPI PUSH1 0x40 MLOAD PUSH32 0x8C379A000000000000000000000000000000000000000000000000000000000 DUP2 MSTORE PUSH1 0x4 ADD PUSH2 0x19F9 SWAP1 PUSH2 0x3104 JUMP JUMPDEST PUSH1 0x40 MLOAD DUP1 SWAP2 SUB SWAP1 REVERT JUMPDEST PUSH1 0x4 PUSH0 DUP2 SLOAD DUP1 SWAP3 SWAP2 SWAP1 PUSH2 0x1A14 SWAP1 PUSH2 0x2FB6 JUMP JUMPDEST SWAP2 SWAP1 POP SSTORE POP PUSH0 PUSH1 0x9 PUSH0 CALLER PUSH20 0xFFFFFFFFFFFFFFFFFFFFFFFFFFFFFFFFFFFFFFFF AND PUSH20 0xFFFFFFFFFFFFFFFFFFFFFFFFFFFFFFFFFFFFFFFF AND DUP2 MSTORE PUSH1 0x20 ADD SWAP1 DUP2 MSTORE PUSH1 0x20 ADD PUSH0 KECCAK256 SLOAD SWAP1 POP PUSH0 PUSH1 0x40 MLOAD DUP1 PUSH2 0x180 ADD PUSH1 0x40 MSTORE DUP1 PUSH1 0x4 SLOAD DUP2 MSTORE PUSH1 0x20 ADD DUP4 DUP2 MSTORE PUSH1 0x20 ADD DUP14 DUP2 MSTORE PUSH1 0x20 ADD DUP13 DUP2 MSTORE PUSH1 0x20 ADD DUP12 DUP2 MSTORE PUSH1 0x20 ADD DUP11 PUSH20 0xFFFFFFFFFFFFFFFFFFFFFFFFFFFFFFFFFFFFFFFF AND DUP2 MSTORE PUSH1 0x20 ADD DUP10 DUP2 MSTORE PUSH1 0x20 ADD DUP9 DUP2 MSTORE PUSH1 0x20 ADD DUP8 DUP2 MSTORE PUSH1 0x20 ADD DUP7 DUP2 MSTORE PUSH1 0x20 ADD DUP6 DUP2 MSTORE PUSH1 0x20 ADD DUP5 ISZERO ISZERO DUP2 MSTORE POP SWAP1 POP DUP1 PUSH1 0xB PUSH0 PUSH1 0x4 SLOAD DUP2 MSTORE PUSH1 0x20 ADD SWAP1 DUP2 MSTORE PUSH1 0x20 ADD PUSH0 KECCAK256 PUSH0 DUP3 ADD MLOAD DUP2 PUSH0 ADD SSTORE PUSH1 0x20 DUP3 ADD MLOAD DUP2 PUSH1 0x1 ADD SSTORE PUSH1 0x40 DUP3 ADD MLOAD DUP2 PUSH1 0x2 ADD SWAP1 DUP2 PUSH2 0x1B04 SWAP2 SWAP1 PUSH2 0x2EE7 JUMP JUMPDEST POP PUSH1 0x60 DUP3 ADD MLOAD DUP2 PUSH1 0x3 ADD SWAP1 DUP2 PUSH2 0x1B1A SWAP2 SWAP1 PUSH2 0x2EE7 JUMP JUMPDEST POP PUSH1 0x80 DUP3 ADD MLOAD DUP2 PUSH1 0x4 ADD SSTORE PUSH1 0xA0 DUP3 ADD MLOAD DUP2 PUSH1 0x5 ADD PUSH0 PUSH2 0x100 EXP DUP2 SLOAD DUP2 PUSH20 0xFFFFFFFFFFFFFFFFFFFFFFFFFFFFFFFFFFFFFFFF MUL NOT AND SWAP1 DUP4 PUSH20 0xFFFFFFFFFFFFFFFFFFFFFFFFFFFFFFFFFFFFFFFF AND MUL OR SWAP1 SSTORE POP PUSH1 0xC0 DUP3 ADD MLOAD DUP2 PUSH1 0x6 ADD SSTORE PUSH1 0xE0 DUP3 ADD MLOAD DUP2 PUSH1 0x7 ADD SSTORE PUSH2 0x100 DUP3 ADD MLOAD DUP2 PUSH1 0x8 ADD SSTORE PUSH2 0x120 DUP3 ADD MLOAD DUP2 PUSH1 0x9 ADD SSTORE PUSH2 0x140 DUP3 ADD MLOAD DUP2 PUSH1 0xA ADD SSTORE PUSH2 0x160 DUP3 ADD MLOAD DUP2 PUSH1 0xB ADD PUSH0 PUSH2 0x100 EXP DUP2 SLOAD DUP2 PUSH1 0xFF MUL NOT AND SWAP1 DUP4 ISZERO ISZERO MUL OR SWAP1 SSTORE POP SWAP1 POP POP PUSH1 0xD PUSH0 DUP8 DUP2 MSTORE PUSH1 0x20 ADD SWAP1 DUP2 MSTORE PUSH1 0x20 ADD PUSH0 KECCAK256 PUSH1 0x4 SLOAD SWAP1 DUP1 PUSH1 0x1 DUP2 SLOAD ADD DUP1 DUP3 SSTORE DUP1 SWAP2 POP POP PUSH1 0x1 SWAP1 SUB SWAP1 PUSH0 MSTORE PUSH1 0x20 PUSH0 KECCAK256 ADD PUSH0 SWAP1 SWAP2 SWAP1 SWAP2 SWAP1 SWAP2 POP SSTORE CALLER PUSH20 0xFFFFFFFFFFFFFFFFFFFFFFFFFFFFFFFFFFFFFFFF AND ADDRESS PUSH20 0xFFFFFFFFFFFFFFFFFFFFFFFFFFFFFFFFFFFFFFFF AND PUSH32 0xE669CA381C47A2C25DF06EBBE580C111183F1E92460FD3AB51050D2306B34027 DUP9 PUSH1 0x40 MLOAD PUSH2 0x1C57 SWAP2 SWAP1 PUSH2 0x23D3 JUMP JUMPDEST PUSH1 0x40 MLOAD DUP1 SWAP2 SUB SWAP1 LOG3 POP POP POP POP POP POP POP POP POP POP POP POP JUMP JUMPDEST PUSH32 0x0 DUP2 JUMP JUMPDEST PUSH1 0x16 PUSH1 0x20 MSTORE DUP2 PUSH0 MSTORE PUSH1 0x40 PUSH0 KECCAK256 DUP2 DUP2 SLOAD DUP2 LT PUSH2 0x1CAA JUMPI PUSH0 DUP1 REVERT JUMPDEST SWAP1 PUSH0 MSTORE PUSH1 0x20 PUSH0 KECCAK256 ADD PUSH0 SWAP2 POP SWAP2 POP POP SLOAD DUP2 JUMP JUMPDEST PUSH1 0xD PUSH1 0x20 MSTORE DUP2 PUSH0 MSTORE PUSH1 0x40 PUSH0 KECCAK256 DUP2 DUP2 SLOAD DUP2 LT PUSH2 0x1CD5 JUMPI PUSH0 DUP1 REVERT JUMPDEST SWAP1 PUSH0 MSTORE PUSH1 0x20 PUSH0 KECCAK256 ADD PUSH0 SWAP2 POP SWAP2 POP POP SLOAD DUP2 JUMP JUMPDEST PUSH1 0xE PUSH1 0x20 MSTORE DUP2 PUSH0 MSTORE PUSH1 0x40 PUSH0 KECCAK256 DUP2 DUP2 SLOAD DUP2 LT PUSH2 0x1D00 JUMPI PUSH0 DUP1 REVERT JUMPDEST SWAP1 PUSH0 MSTORE PUSH1 0x20 PUSH0 KECCAK256 ADD PUSH0 SWAP2 POP SWAP2 POP POP SLOAD DUP2 JUMP JUMPDEST PUSH1 0x10 PUSH1 0x20 MSTORE DUP2 PUSH0 MSTORE PUSH1 0x40 PUSH0 KECCAK256 DUP2 DUP2 SLOAD DUP2 LT PUSH2 0x1D2B JUMPI PUSH0 DUP1 REVERT JUMPDEST SWAP1 PUSH0 MSTORE PUSH1 0x20 PUSH0 KECCAK256 ADD PUSH0 SWAP2 POP SWAP2 POP POP SLOAD DUP2 JUMP JUMPDEST PUSH1 0x8 PUSH1 0x20 MSTORE DUP1 PUSH0 MSTORE PUSH1 0x40 PUSH0 KECCAK256 PUSH0 SWAP2 POP SWAP1 POP DUP1 SLOAD PUSH2 0x1D59 SWAP1 PUSH2 0x296E JUMP JUMPDEST DUP1 PUSH1 0x1F ADD PUSH1 0x20 DUP1 SWAP2 DIV MUL PUSH1 0x20 ADD PUSH1 0x40 MLOAD SWAP1 DUP2 ADD PUSH1 0x40 MSTORE DUP1 SWAP3 SWAP2 SWAP1 DUP2 DUP2 MSTORE PUSH1 0x20 ADD DUP3 DUP1 SLOAD PUSH2 0x1D85 SWAP1 PUSH2 0x296E JUMP JUMPDEST DUP1 ISZERO PUSH2 0x1DD0 JUMPI DUP1 PUSH1 0x1F LT PUSH2 0x1DA7 JUMPI PUSH2 0x100 DUP1 DUP4 SLOAD DIV MUL DUP4 MSTORE SWAP2 PUSH1 0x20 ADD SWAP2 PUSH2 0x1DD0 JUMP JUMPDEST DUP3 ADD SWAP2 SWAP1 PUSH0 MSTORE PUSH1 0x20 PUSH0 KECCAK256 SWAP1 JUMPDEST DUP2 SLOAD DUP2 MSTORE SWAP1 PUSH1 0x1 ADD SWAP1 PUSH1 0x20 ADD DUP1 DUP4 GT PUSH2 0x1DB3 JUMPI DUP3 SWAP1 SUB PUSH1 0x1F AND DUP3 ADD SWAP2 JUMPDEST POP POP POP POP POP DUP2 JUMP JUMPDEST PUSH1 0x5 SLOAD DUP2 JUMP JUMPDEST PUSH32 0x0 DUP2 JUMP JUMPDEST PUSH2 0x1E0A PUSH2 0x1FB6 JUMP JUMPDEST PUSH0 PUSH20 0xFFFFFFFFFFFFFFFFFFFFFFFFFFFFFFFFFFFFFFFF AND DUP2 PUSH20 0xFFFFFFFFFFFFFFFFFFFFFFFFFFFFFFFFFFFFFFFF AND SUB PUSH2 0x1E7A JUMPI PUSH0 PUSH1 0x40 MLOAD PUSH32 0x1E4FBDF700000000000000000000000000000000000000000000000000000000 DUP2 MSTORE PUSH1 0x4 ADD PUSH2 0x1E71 SWAP2 SWAP1 PUSH2 0x24F6 JUMP JUMPDEST PUSH1 0x40 MLOAD DUP1 SWAP2 SUB SWAP1 REVERT JUMPDEST PUSH2 0x1E83 DUP2 PUSH2 0x203D JUMP JUMPDEST POP JUMP JUMPDEST PUSH0 PUSH1 0x9 PUSH0 DUP4 PUSH20 0xFFFFFFFFFFFFFFFFFFFFFFFFFFFFFFFFFFFFFFFF AND PUSH20 0xFFFFFFFFFFFFFFFFFFFFFFFFFFFFFFFFFFFFFFFF AND DUP2 MSTORE PUSH1 0x20 ADD SWAP1 DUP2 MSTORE PUSH1 0x20 ADD PUSH0 KECCAK256 SLOAD EQ PUSH2 0x1F05 JUMPI PUSH1 0x40 MLOAD PUSH32 0x8C379A000000000000000000000000000000000000000000000000000000000 DUP2 MSTORE PUSH1 0x4 ADD PUSH2 0x1EFC SWAP1 PUSH2 0x31D4 JUMP JUMPDEST PUSH1 0x40 MLOAD DUP1 SWAP2 SUB SWAP1 REVERT JUMPDEST PUSH1 0x5 PUSH0 DUP2 SLOAD DUP1 SWAP3 SWAP2 SWAP1 PUSH2 0x1F17 SWAP1 PUSH2 0x2FB6 JUMP JUMPDEST SWAP2 SWAP1 POP SSTORE POP DUP2 PUSH1 0x8 PUSH0 PUSH1 0x5 SLOAD DUP2 MSTORE PUSH1 0x20 ADD SWAP1 DUP2 MSTORE PUSH1 0x20 ADD PUSH0 KECCAK256 SWAP1 DUP2 PUSH2 0x1F3C SWAP2 SWAP1 PUSH2 0x2EE7 JUMP JUMPDEST POP PUSH1 0x5 SLOAD PUSH1 0x9 PUSH0 DUP4 PUSH20 0xFFFFFFFFFFFFFFFFFFFFFFFFFFFFFFFFFFFFFFFF AND PUSH20 0xFFFFFFFFFFFFFFFFFFFFFFFFFFFFFFFFFFFFFFFF AND DUP2 MSTORE PUSH1 0x20 ADD SWAP1 DUP2 MSTORE PUSH1 0x20 ADD PUSH0 KECCAK256 DUP2 SWAP1 SSTORE POP POP POP JUMP JUMPDEST PUSH1 0xF PUSH1 0x20 MSTORE DUP2 PUSH0 MSTORE PUSH1 0x40 PUSH0 KECCAK256 DUP2 DUP2 SLOAD DUP2 LT PUSH2 0x1F9E JUMPI PUSH0 DUP1 REVERT JUMPDEST SWAP1 PUSH0 MSTORE PUSH1 0x20 PUSH0 KECCAK256 ADD PUSH0 SWAP2 POP SWAP2 POP POP SLOAD DUP2 JUMP JUMPDEST PUSH1 0x3 SLOAD DUP2 JUMP JUMPDEST PUSH2 0x1FBE PUSH2 0x20FE JUMP JUMPDEST PUSH20 0xFFFFFFFFFFFFFFFFFFFFFFFFFFFFFFFFFFFFFFFF AND PUSH2 0x1FDC PUSH2 0x1794 JUMP JUMPDEST PUSH20 0xFFFFFFFFFFFFFFFFFFFFFFFFFFFFFFFFFFFFFFFF AND EQ PUSH2 0x203B JUMPI PUSH2 0x1FFF PUSH2 0x20FE JUMP JUMPDEST PUSH1 0x40 MLOAD PUSH32 0x118CDAA700000000000000000000000000000000000000000000000000000000 DUP2 MSTORE PUSH1 0x4 ADD PUSH2 0x2032 SWAP2 SWAP1 PUSH2 0x24F6 JUMP JUMPDEST PUSH1 0x40 MLOAD DUP1 SWAP2 SUB SWAP1 REVERT JUMPDEST JUMP JUMPDEST PUSH0 DUP1 PUSH0 SWAP1 SLOAD SWAP1 PUSH2 0x100 EXP SWAP1 DIV PUSH20 0xFFFFFFFFFFFFFFFFFFFFFFFFFFFFFFFFFFFFFFFF AND SWAP1 POP DUP2 PUSH0 DUP1 PUSH2 0x100 EXP DUP2 SLOAD DUP2 PUSH20 0xFFFFFFFFFFFFFFFFFFFFFFFFFFFFFFFFFFFFFFFF MUL NOT AND SWAP1 DUP4 PUSH20 0xFFFFFFFFFFFFFFFFFFFFFFFFFFFFFFFFFFFFFFFF AND MUL OR SWAP1 SSTORE POP DUP2 PUSH20 0xFFFFFFFFFFFFFFFFFFFFFFFFFFFFFFFFFFFFFFFF AND DUP2 PUSH20 0xFFFFFFFFFFFFFFFFFFFFFFFFFFFFFFFFFFFFFFFF AND PUSH32 0x8BE0079C531659141344CD1FD0A4F28419497F9722A3DAAFE3B4186F6B6457E0 PUSH1 0x40 MLOAD PUSH1 0x40 MLOAD DUP1 SWAP2 SUB SWAP1 LOG3 POP POP JUMP JUMPDEST PUSH0 CALLER SWAP1 POP SWAP1 JUMP JUMPDEST DUP3 DUP1 SLOAD DUP3 DUP3 SSTORE SWAP1 PUSH0 MSTORE PUSH1 0x20 PUSH0 KECCAK256 SWAP1 DUP2 ADD SWAP3 DUP3 ISZERO PUSH2 0x217B JUMPI SWAP2 PUSH1 0x20 MUL DUP3 ADD JUMPDEST DUP3 DUP2 GT ISZERO PUSH2 0x217A JUMPI DUP3 MLOAD DUP3 PUSH0 PUSH2 0x100 EXP DUP2 SLOAD DUP2 PUSH20 0xFFFFFFFFFFFFFFFFFFFFFFFFFFFFFFFFFFFFFFFF MUL NOT AND SWAP1 DUP4 PUSH20 0xFFFFFFFFFFFFFFFFFFFFFFFFFFFFFFFFFFFFFFFF AND MUL OR SWAP1 SSTORE POP SWAP2 PUSH1 0x20 ADD SWAP2 SWAP1 PUSH1 0x1 ADD SWAP1 PUSH2 0x2123 JUMP JUMPDEST JUMPDEST POP SWAP1 POP PUSH2 0x2188 SWAP2 SWAP1 PUSH2 0x218C JUMP JUMPDEST POP SWAP1 JUMP JUMPDEST JUMPDEST DUP1 DUP3 GT ISZERO PUSH2 0x21A3 JUMPI PUSH0 DUP2 PUSH0 SWAP1 SSTORE POP PUSH1 0x1 ADD PUSH2 0x218D JUMP JUMPDEST POP SWAP1 JUMP JUMPDEST PUSH0 DUP2 MLOAD SWAP1 POP SWAP2 SWAP1 POP JUMP JUMPDEST PUSH0 DUP3 DUP3 MSTORE PUSH1 0x20 DUP3 ADD SWAP1 POP SWAP3 SWAP2 POP POP JUMP JUMPDEST DUP3 DUP2 DUP4 MCOPY PUSH0 DUP4 DUP4 ADD MSTORE POP POP POP JUMP JUMPDEST PUSH0 PUSH1 0x1F NOT PUSH1 0x1F DUP4 ADD AND SWAP1 POP SWAP2 SWAP1 POP JUMP JUMPDEST PUSH0 PUSH2 0x21E9 DUP3 PUSH2 0x21A7 JUMP JUMPDEST PUSH2 0x21F3 DUP2 DUP6 PUSH2 0x21B1 JUMP JUMPDEST SWAP4 POP PUSH2 0x2203 DUP2 DUP6 PUSH1 0x20 DUP7 ADD PUSH2 0x21C1 JUMP JUMPDEST PUSH2 0x220C DUP2 PUSH2 0x21CF JUMP JUMPDEST DUP5 ADD SWAP2 POP POP SWAP3 SWAP2 POP POP JUMP JUMPDEST PUSH0 PUSH1 0x20 DUP3 ADD SWAP1 POP DUP2 DUP2 SUB PUSH0 DUP4 ADD MSTORE PUSH2 0x222F DUP2 DUP5 PUSH2 0x21DF JUMP JUMPDEST SWAP1 POP SWAP3 SWAP2 POP POP JUMP JUMPDEST PUSH0 PUSH1 0x40 MLOAD SWAP1 POP SWAP1 JUMP JUMPDEST PUSH0 DUP1 REVERT JUMPDEST PUSH0 DUP1 REVERT JUMPDEST PUSH0 DUP1 REVERT JUMPDEST PUSH0 DUP1 REVERT JUMPDEST PUSH32 0x4E487B7100000000000000000000000000000000000000000000000000000000 PUSH0 MSTORE PUSH1 0x41 PUSH1 0x4 MSTORE PUSH1 0x24 PUSH0 REVERT JUMPDEST PUSH2 0x2286 DUP3 PUSH2 0x21CF JUMP JUMPDEST DUP2 ADD DUP2 DUP2 LT PUSH8 0xFFFFFFFFFFFFFFFF DUP3 GT OR ISZERO PUSH2 0x22A5 JUMPI PUSH2 0x22A4 PUSH2 0x2250 JUMP JUMPDEST JUMPDEST DUP1 PUSH1 0x40 MSTORE POP POP POP JUMP JUMPDEST PUSH0 PUSH2 0x22B7 PUSH2 0x2237 JUMP JUMPDEST SWAP1 POP PUSH2 0x22C3 DUP3 DUP3 PUSH2 0x227D JUMP JUMPDEST SWAP2 SWAP1 POP JUMP JUMPDEST PUSH0 PUSH8 0xFFFFFFFFFFFFFFFF DUP3 GT ISZERO PUSH2 0x22E2 JUMPI PUSH2 0x22E1 PUSH2 0x2250 JUMP JUMPDEST JUMPDEST PUSH2 0x22EB DUP3 PUSH2 0x21CF JUMP JUMPDEST SWAP1 POP PUSH1 0x20 DUP2 ADD SWAP1 POP SWAP2 SWAP1 POP JUMP JUMPDEST DUP3 DUP2 DUP4 CALLDATACOPY PUSH0 DUP4 DUP4 ADD MSTORE POP POP POP JUMP JUMPDEST PUSH0 PUSH2 0x2318 PUSH2 0x2313 DUP5 PUSH2 0x22C8 JUMP JUMPDEST PUSH2 0x22AE JUMP JUMPDEST SWAP1 POP DUP3 DUP2 MSTORE PUSH1 0x20 DUP2 ADD DUP5 DUP5 DUP5 ADD GT ISZERO PUSH2 0x2334 JUMPI PUSH2 0x2333 PUSH2 0x224C JUMP JUMPDEST JUMPDEST PUSH2 0x233F DUP5 DUP3 DUP6 PUSH2 0x22F8 JUMP JUMPDEST POP SWAP4 SWAP3 POP POP POP JUMP JUMPDEST PUSH0 DUP3 PUSH1 0x1F DUP4 ADD SLT PUSH2 0x235B JUMPI PUSH2 0x235A PUSH2 0x2248 JUMP JUMPDEST JUMPDEST DUP2 CALLDATALOAD PUSH2 0x236B DUP5 DUP3 PUSH1 0x20 DUP7 ADD PUSH2 0x2306 JUMP JUMPDEST SWAP2 POP POP SWAP3 SWAP2 POP POP JUMP JUMPDEST PUSH0 PUSH1 0x20 DUP3 DUP5 SUB SLT ISZERO PUSH2 0x2389 JUMPI PUSH2 0x2388 PUSH2 0x2240 JUMP JUMPDEST JUMPDEST PUSH0 DUP3 ADD CALLDATALOAD PUSH8 0xFFFFFFFFFFFFFFFF DUP2 GT ISZERO PUSH2 0x23A6 JUMPI PUSH2 0x23A5 PUSH2 0x2244 JUMP JUMPDEST JUMPDEST PUSH2 0x23B2 DUP5 DUP3 DUP6 ADD PUSH2 0x2347 JUMP JUMPDEST SWAP2 POP POP SWAP3 SWAP2 POP POP JUMP JUMPDEST PUSH0 DUP2 SWAP1 POP SWAP2 SWAP1 POP JUMP JUMPDEST PUSH2 0x23CD DUP2 PUSH2 0x23BB JUMP JUMPDEST DUP3 MSTORE POP POP JUMP JUMPDEST PUSH0 PUSH1 0x20 DUP3 ADD SWAP1 POP PUSH2 0x23E6 PUSH0 DUP4 ADD DUP5 PUSH2 0x23C4 JUMP JUMPDEST SWAP3 SWAP2 POP POP JUMP JUMPDEST PUSH0 DUP1 PUSH1 0x40 DUP4 DUP6 SUB SLT ISZERO PUSH2 0x2402 JUMPI PUSH2 0x2401 PUSH2 0x2240 JUMP JUMPDEST JUMPDEST PUSH0 DUP4 ADD CALLDATALOAD PUSH8 0xFFFFFFFFFFFFFFFF DUP2 GT ISZERO PUSH2 0x241F JUMPI PUSH2 0x241E PUSH2 0x2244 JUMP JUMPDEST JUMPDEST PUSH2 0x242B DUP6 DUP3 DUP7 ADD PUSH2 0x2347 JUMP JUMPDEST SWAP3 POP POP PUSH1 0x20 DUP4 ADD CALLDATALOAD PUSH8 0xFFFFFFFFFFFFFFFF DUP2 GT ISZERO PUSH2 0x244C JUMPI PUSH2 0x244B PUSH2 0x2244 JUMP JUMPDEST JUMPDEST PUSH2 0x2458 DUP6 DUP3 DUP7 ADD PUSH2 0x2347 JUMP JUMPDEST SWAP2 POP POP SWAP3 POP SWAP3 SWAP1 POP JUMP JUMPDEST PUSH2 0x246B DUP2 PUSH2 0x23BB JUMP JUMPDEST DUP2 EQ PUSH2 0x2475 JUMPI PUSH0 DUP1 REVERT JUMPDEST POP JUMP JUMPDEST PUSH0 DUP2 CALLDATALOAD SWAP1 POP PUSH2 0x2486 DUP2 PUSH2 0x2462 JUMP JUMPDEST SWAP3 SWAP2 POP POP JUMP JUMPDEST PUSH0 PUSH1 0x20 DUP3 DUP5 SUB SLT ISZERO PUSH2 0x24A1 JUMPI PUSH2 0x24A0 PUSH2 0x2240 JUMP JUMPDEST JUMPDEST PUSH0 PUSH2 0x24AE DUP5 DUP3 DUP6 ADD PUSH2 0x2478 JUMP JUMPDEST SWAP2 POP POP SWAP3 SWAP2 POP POP JUMP JUMPDEST PUSH0 PUSH20 0xFFFFFFFFFFFFFFFFFFFFFFFFFFFFFFFFFFFFFFFF DUP3 AND SWAP1 POP SWAP2 SWAP1 POP JUMP JUMPDEST PUSH0 PUSH2 0x24E0 DUP3 PUSH2 0x24B7 JUMP JUMPDEST SWAP1 POP SWAP2 SWAP1 POP JUMP JUMPDEST PUSH2 0x24F0 DUP2 PUSH2 0x24D6 JUMP JUMPDEST DUP3 MSTORE POP POP JUMP JUMPDEST PUSH0 PUSH1 0x20 DUP3 ADD SWAP1 POP PUSH2 0x2509 PUSH0 DUP4 ADD DUP5 PUSH2 0x24E7 JUMP JUMPDEST SWAP3 SWAP2 POP POP JUMP JUMPDEST PUSH0 PUSH1 0xC0 DUP3 ADD SWAP1 POP PUSH2 0x2522 PUSH0 DUP4 ADD DUP10 PUSH2 0x23C4 JUMP JUMPDEST DUP2 DUP2 SUB PUSH1 0x20 DUP4 ADD MSTORE PUSH2 0x2534 DUP2 DUP9 PUSH2 0x21DF JUMP JUMPDEST SWAP1 POP DUP2 DUP2 SUB PUSH1 0x40 DUP4 ADD MSTORE PUSH2 0x2548 DUP2 DUP8 PUSH2 0x21DF JUMP JUMPDEST SWAP1 POP DUP2 DUP2 SUB PUSH1 0x60 DUP4 ADD MSTORE PUSH2 0x255C DUP2 DUP7 PUSH2 0x21DF JUMP JUMPDEST SWAP1 POP PUSH2 0x256B PUSH1 0x80 DUP4 ADD DUP6 PUSH2 0x23C4 JUMP JUMPDEST PUSH2 0x2578 PUSH1 0xA0 DUP4 ADD DUP5 PUSH2 0x23C4 JUMP JUMPDEST SWAP8 SWAP7 POP POP POP POP POP POP POP JUMP JUMPDEST PUSH2 0x258C DUP2 PUSH2 0x24D6 JUMP JUMPDEST DUP2 EQ PUSH2 0x2596 JUMPI PUSH0 DUP1 REVERT JUMPDEST POP JUMP JUMPDEST PUSH0 DUP2 CALLDATALOAD SWAP1 POP PUSH2 0x25A7 DUP2 PUSH2 0x2583 JUMP JUMPDEST SWAP3 SWAP2 POP POP JUMP JUMPDEST PUSH0 PUSH1 0x20 DUP3 DUP5 SUB SLT ISZERO PUSH2 0x25C2 JUMPI PUSH2 0x25C1 PUSH2 0x2240 JUMP JUMPDEST JUMPDEST PUSH0 PUSH2 0x25CF DUP5 DUP3 DUP6 ADD PUSH2 0x2599 JUMP JUMPDEST SWAP2 POP POP SWAP3 SWAP2 POP POP JUMP JUMPDEST PUSH0 DUP2 ISZERO ISZERO SWAP1 POP SWAP2 SWAP1 POP JUMP JUMPDEST PUSH2 0x25EC DUP2 PUSH2 0x25D8 JUMP JUMPDEST DUP3 MSTORE POP POP JUMP JUMPDEST PUSH0 PUSH1 0x20 DUP3 ADD SWAP1 POP PUSH2 0x2605 PUSH0 DUP4 ADD DUP5 PUSH2 0x25E3 JUMP JUMPDEST SWAP3 SWAP2 POP POP JUMP JUMPDEST PUSH0 PUSH2 0x180 DUP3 ADD SWAP1 POP PUSH2 0x261F PUSH0 DUP4 ADD DUP16 PUSH2 0x23C4 JUMP JUMPDEST PUSH2 0x262C PUSH1 0x20 DUP4 ADD DUP15 PUSH2 0x23C4 JUMP JUMPDEST DUP2 DUP2 SUB PUSH1 0x40 DUP4 ADD MSTORE PUSH2 0x263E DUP2 DUP14 PUSH2 0x21DF JUMP JUMPDEST SWAP1 POP DUP2 DUP2 SUB PUSH1 0x60 DUP4 ADD MSTORE PUSH2 0x2652 DUP2 DUP13 PUSH2 0x21DF JUMP JUMPDEST SWAP1 POP PUSH2 0x2661 PUSH1 0x80 DUP4 ADD DUP12 PUSH2 0x23C4 JUMP JUMPDEST PUSH2 0x266E PUSH1 0xA0 DUP4 ADD DUP11 PUSH2 0x24E7 JUMP JUMPDEST PUSH2 0x267B PUSH1 0xC0 DUP4 ADD DUP10 PUSH2 0x23C4 JUMP JUMPDEST PUSH2 0x2688 PUSH1 0xE0 DUP4 ADD DUP9 PUSH2 0x23C4 JUMP JUMPDEST PUSH2 0x2696 PUSH2 0x100 DUP4 ADD DUP8 PUSH2 0x23C4 JUMP JUMPDEST PUSH2 0x26A4 PUSH2 0x120 DUP4 ADD DUP7 PUSH2 0x23C4 JUMP JUMPDEST PUSH2 0x26B2 PUSH2 0x140 DUP4 ADD DUP6 PUSH2 0x23C4 JUMP JUMPDEST PUSH2 0x26C0 PUSH2 0x160 DUP4 ADD DUP5 PUSH2 0x25E3 JUMP JUMPDEST SWAP14 SWAP13 POP POP POP POP POP POP POP POP POP POP POP POP POP JUMP JUMPDEST PUSH0 DUP1 PUSH1 0x40 DUP4 DUP6 SUB SLT ISZERO PUSH2 0x26E7 JUMPI PUSH2 0x26E6 PUSH2 0x2240 JUMP JUMPDEST JUMPDEST PUSH0 PUSH2 0x26F4 DUP6 DUP3 DUP7 ADD PUSH2 0x2478 JUMP JUMPDEST SWAP3 POP POP PUSH1 0x20 PUSH2 0x2705 DUP6 DUP3 DUP7 ADD PUSH2 0x2478 JUMP JUMPDEST SWAP2 POP POP SWAP3 POP SWAP3 SWAP1 POP JUMP JUMPDEST PUSH0 DUP1 PUSH1 0x40 DUP4 DUP6 SUB SLT ISZERO PUSH2 0x2725 JUMPI PUSH2 0x2724 PUSH2 0x2240 JUMP JUMPDEST JUMPDEST PUSH0 PUSH2 0x2732 DUP6 DUP3 DUP7 ADD PUSH2 0x2478 JUMP JUMPDEST SWAP3 POP POP PUSH1 0x20 PUSH2 0x2743 DUP6 DUP3 DUP7 ADD PUSH2 0x2599 JUMP JUMPDEST SWAP2 POP POP SWAP3 POP SWAP3 SWAP1 POP JUMP JUMPDEST PUSH0 PUSH1 0xA0 DUP3 ADD SWAP1 POP PUSH2 0x2760 PUSH0 DUP4 ADD DUP9 PUSH2 0x23C4 JUMP JUMPDEST DUP2 DUP2 SUB PUSH1 0x20 DUP4 ADD MSTORE PUSH2 0x2772 DUP2 DUP8 PUSH2 0x21DF JUMP JUMPDEST SWAP1 POP DUP2 DUP2 SUB PUSH1 0x40 DUP4 ADD MSTORE PUSH2 0x2786 DUP2 DUP7 PUSH2 0x21DF JUMP JUMPDEST SWAP1 POP PUSH2 0x2795 PUSH1 0x60 DUP4 ADD DUP6 PUSH2 0x23C4 JUMP JUMPDEST PUSH2 0x27A2 PUSH1 0x80 DUP4 ADD DUP5 PUSH2 0x24E7 JUMP JUMPDEST SWAP7 SWAP6 POP POP POP POP POP POP JUMP JUMPDEST PUSH2 0x27B5 DUP2 PUSH2 0x25D8 JUMP JUMPDEST DUP2 EQ PUSH2 0x27BF JUMPI PUSH0 DUP1 REVERT JUMPDEST POP JUMP JUMPDEST PUSH0 DUP2 CALLDATALOAD SWAP1 POP PUSH2 0x27D0 DUP2 PUSH2 0x27AC JUMP JUMPDEST SWAP3 SWAP2 POP POP JUMP JUMPDEST PUSH0 DUP1 PUSH0 DUP1 PUSH0 DUP1 PUSH0 DUP1 PUSH0 DUP1 PUSH2 0x140 DUP12 DUP14 SUB SLT ISZERO PUSH2 0x27F5 JUMPI PUSH2 0x27F4 PUSH2 0x2240 JUMP JUMPDEST JUMPDEST PUSH0 DUP12 ADD CALLDATALOAD PUSH8 0xFFFFFFFFFFFFFFFF DUP2 GT ISZERO PUSH2 0x2812 JUMPI PUSH2 0x2811 PUSH2 0x2244 JUMP JUMPDEST JUMPDEST PUSH2 0x281E DUP14 DUP3 DUP15 ADD PUSH2 0x2347 JUMP JUMPDEST SWAP11 POP POP PUSH1 0x20 DUP12 ADD CALLDATALOAD PUSH8 0xFFFFFFFFFFFFFFFF DUP2 GT ISZERO PUSH2 0x283F JUMPI PUSH2 0x283E PUSH2 0x2244 JUMP JUMPDEST JUMPDEST PUSH2 0x284B DUP14 DUP3 DUP15 ADD PUSH2 0x2347 JUMP JUMPDEST SWAP10 POP POP PUSH1 0x40 PUSH2 0x285C DUP14 DUP3 DUP15 ADD PUSH2 0x2478 JUMP JUMPDEST SWAP9 POP POP PUSH1 0x60 PUSH2 0x286D DUP14 DUP3 DUP15 ADD PUSH2 0x2599 JUMP JUMPDEST SWAP8 POP POP PUSH1 0x80 PUSH2 0x287E DUP14 DUP3 DUP15 ADD PUSH2 0x2478 JUMP JUMPDEST SWAP7 POP POP PUSH1 0xA0 PUSH2 0x288F DUP14 DUP3 DUP15 ADD PUSH2 0x2478 JUMP JUMPDEST SWAP6 POP POP PUSH1 0xC0 PUSH2 0x28A0 DUP14 DUP3 DUP15 ADD PUSH2 0x2478 JUMP JUMPDEST SWAP5 POP POP PUSH1 0xE0 PUSH2 0x28B1 DUP14 DUP3 DUP15 ADD PUSH2 0x2478 JUMP JUMPDEST SWAP4 POP POP PUSH2 0x100 PUSH2 0x28C3 DUP14 DUP3 DUP15 ADD PUSH2 0x2478 JUMP JUMPDEST SWAP3 POP POP PUSH2 0x120 PUSH2 0x28D5 DUP14 DUP3 DUP15 ADD PUSH2 0x27C2 JUMP JUMPDEST SWAP2 POP POP SWAP3 SWAP6 SWAP9 SWAP12 SWAP2 SWAP5 SWAP8 SWAP11 POP SWAP3 SWAP6 SWAP9 POP JUMP JUMPDEST PUSH0 DUP1 PUSH1 0x40 DUP4 DUP6 SUB SLT ISZERO PUSH2 0x28FD JUMPI PUSH2 0x28FC PUSH2 0x2240 JUMP JUMPDEST JUMPDEST PUSH0 DUP4 ADD CALLDATALOAD PUSH8 0xFFFFFFFFFFFFFFFF DUP2 GT ISZERO PUSH2 0x291A JUMPI PUSH2 0x2919 PUSH2 0x2244 JUMP JUMPDEST JUMPDEST PUSH2 0x2926 DUP6 DUP3 DUP7 ADD PUSH2 0x2347 JUMP JUMPDEST SWAP3 POP POP PUSH1 0x20 PUSH2 0x2937 DUP6 DUP3 DUP7 ADD PUSH2 0x2599 JUMP JUMPDEST SWAP2 POP POP SWAP3 POP SWAP3 SWAP1 POP JUMP JUMPDEST PUSH32 0x4E487B7100000000000000000000000000000000000000000000000000000000 PUSH0 MSTORE PUSH1 0x22 PUSH1 0x4 MSTORE PUSH1 0x24 PUSH0 REVERT JUMPDEST PUSH0 PUSH1 0x2 DUP3 DIV SWAP1 POP PUSH1 0x1 DUP3 AND DUP1 PUSH2 0x2985 JUMPI PUSH1 0x7F DUP3 AND SWAP2 POP JUMPDEST PUSH1 0x20 DUP3 LT DUP2 SUB PUSH2 0x2998 JUMPI PUSH2 0x2997 PUSH2 0x2941 JUMP JUMPDEST JUMPDEST POP SWAP2 SWAP1 POP JUMP JUMPDEST PUSH32 0x496E766573746D656E74206D757374206D65657420746865206D696E696D756D PUSH0 DUP3 ADD MSTORE PUSH32 0x20696E766573746D656E74206C696D6974000000000000000000000000000000 PUSH1 0x20 DUP3 ADD MSTORE POP JUMP JUMPDEST PUSH0 PUSH2 0x29F8 PUSH1 0x31 DUP4 PUSH2 0x21B1 JUMP JUMPDEST SWAP2 POP PUSH2 0x2A03 DUP3 PUSH2 0x299E JUMP JUMPDEST PUSH1 0x40 DUP3 ADD SWAP1 POP SWAP2 SWAP1 POP JUMP JUMPDEST PUSH0 PUSH1 0x20 DUP3 ADD SWAP1 POP DUP2 DUP2 SUB PUSH0 DUP4 ADD MSTORE PUSH2 0x2A25 DUP2 PUSH2 0x29EC JUMP JUMPDEST SWAP1 POP SWAP2 SWAP1 POP JUMP JUMPDEST PUSH0 PUSH1 0x40 DUP3 ADD SWAP1 POP DUP2 DUP2 SUB PUSH0 DUP4 ADD MSTORE PUSH2 0x2A44 DUP2 DUP6 PUSH2 0x21DF JUMP JUMPDEST SWAP1 POP PUSH2 0x2A53 PUSH1 0x20 DUP4 ADD DUP5 PUSH2 0x24E7 JUMP JUMPDEST SWAP4 SWAP3 POP POP POP JUMP JUMPDEST PUSH32 0x4E487B7100000000000000000000000000000000000000000000000000000000 PUSH0 MSTORE PUSH1 0x11 PUSH1 0x4 MSTORE PUSH1 0x24 PUSH0 REVERT JUMPDEST PUSH0 PUSH2 0x2A91 DUP3 PUSH2 0x23BB JUMP JUMPDEST SWAP2 POP PUSH2 0x2A9C DUP4 PUSH2 0x23BB JUMP JUMPDEST SWAP3 POP DUP3 DUP3 ADD SWAP1 POP DUP1 DUP3 GT ISZERO PUSH2 0x2AB4 JUMPI PUSH2 0x2AB3 PUSH2 0x2A5A JUMP JUMPDEST JUMPDEST SWAP3 SWAP2 POP POP JUMP JUMPDEST PUSH32 0x496E766573746D656E7420657863656564732070726F6A656374206275646765 PUSH0 DUP3 ADD MSTORE PUSH32 0x7400000000000000000000000000000000000000000000000000000000000000 PUSH1 0x20 DUP3 ADD MSTORE POP JUMP JUMPDEST PUSH0 PUSH2 0x2B14 PUSH1 0x21 DUP4 PUSH2 0x21B1 JUMP JUMPDEST SWAP2 POP PUSH2 0x2B1F DUP3 PUSH2 0x2ABA JUMP JUMPDEST PUSH1 0x40 DUP3 ADD SWAP1 POP SWAP2 SWAP1 POP JUMP JUMPDEST PUSH0 PUSH1 0x20 DUP3 ADD SWAP1 POP DUP2 DUP2 SUB PUSH0 DUP4 ADD MSTORE PUSH2 0x2B41 DUP2 PUSH2 0x2B08 JUMP JUMPDEST SWAP1 POP SWAP2 SWAP1 POP JUMP JUMPDEST PUSH0 PUSH1 0x60 DUP3 ADD SWAP1 POP DUP2 DUP2 SUB PUSH0 DUP4 ADD MSTORE PUSH2 0x2B60 DUP2 DUP7 PUSH2 0x21DF JUMP JUMPDEST SWAP1 POP PUSH2 0x2B6F PUSH1 0x20 DUP4 ADD DUP6 PUSH2 0x24E7 JUMP JUMPDEST PUSH2 0x2B7C PUSH1 0x40 DUP4 ADD DUP5 PUSH2 0x23C4 JUMP JUMPDEST SWAP5 SWAP4 POP POP POP POP JUMP JUMPDEST PUSH32 0x44414F206E616D652063616E6E6F7420626520656D7074790000000000000000 PUSH0 DUP3 ADD MSTORE POP JUMP JUMPDEST PUSH0 PUSH2 0x2BB8 PUSH1 0x18 DUP4 PUSH2 0x21B1 JUMP JUMPDEST SWAP2 POP PUSH2 0x2BC3 DUP3 PUSH2 0x2B84 JUMP JUMPDEST PUSH1 0x20 DUP3 ADD SWAP1 POP SWAP2 SWAP1 POP JUMP JUMPDEST PUSH0 PUSH1 0x20 DUP3 ADD SWAP1 POP DUP2 DUP2 SUB PUSH0 DUP4 ADD MSTORE PUSH2 0x2BE5 DUP2 PUSH2 0x2BAC JUMP JUMPDEST SWAP1 POP SWAP2 SWAP1 POP JUMP JUMPDEST PUSH32 0x44414F206465736372697074696F6E2063616E6E6F7420626520656D70747900 PUSH0 DUP3 ADD MSTORE POP JUMP JUMPDEST PUSH0 PUSH2 0x2C20 PUSH1 0x1F DUP4 PUSH2 0x21B1 JUMP JUMPDEST SWAP2 POP PUSH2 0x2C2B DUP3 PUSH2 0x2BEC JUMP JUMPDEST PUSH1 0x20 DUP3 ADD SWAP1 POP SWAP2 SWAP1 POP JUMP JUMPDEST PUSH0 PUSH1 0x20 DUP3 ADD SWAP1 POP DUP2 DUP2 SUB PUSH0 DUP4 ADD MSTORE PUSH2 0x2C4D DUP2 PUSH2 0x2C14 JUMP JUMPDEST SWAP1 POP SWAP2 SWAP1 POP JUMP JUMPDEST PUSH32 0x44414F2063616E6E6F742062652063726561746564206265666F726520746865 PUSH0 DUP3 ADD MSTORE PUSH32 0x2064616F206C696D697400000000000000000000000000000000000000000000 PUSH1 0x20 DUP3 ADD MSTORE POP JUMP JUMPDEST PUSH0 PUSH2 0x2CAE PUSH1 0x2A DUP4 PUSH2 0x21B1 JUMP JUMPDEST SWAP2 POP PUSH2 0x2CB9 DUP3 PUSH2 0x2C54 JUMP JUMPDEST PUSH1 0x40 DUP3 ADD SWAP1 POP SWAP2 SWAP1 POP JUMP JUMPDEST PUSH0 PUSH1 0x20 DUP3 ADD SWAP1 POP DUP2 DUP2 SUB PUSH0 DUP4 ADD MSTORE PUSH2 0x2CDB DUP2 PUSH2 0x2CA2 JUMP JUMPDEST SWAP1 POP SWAP2 SWAP1 POP JUMP JUMPDEST PUSH32 0x44414F2063616E206F6E6C792062652063726561746564206F6E636500000000 PUSH0 DUP3 ADD MSTORE POP JUMP JUMPDEST PUSH0 PUSH2 0x2D16 PUSH1 0x1C DUP4 PUSH2 0x21B1 JUMP JUMPDEST SWAP2 POP PUSH2 0x2D21 DUP3 PUSH2 0x2CE2 JUMP JUMPDEST PUSH1 0x20 DUP3 ADD SWAP1 POP SWAP2 SWAP1 POP JUMP JUMPDEST PUSH0 PUSH1 0x20 DUP3 ADD SWAP1 POP DUP2 DUP2 SUB PUSH0 DUP4 ADD MSTORE PUSH2 0x2D43 DUP2 PUSH2 0x2D0A JUMP JUMPDEST SWAP1 POP SWAP2 SWAP1 POP JUMP JUMPDEST PUSH0 DUP2 SWAP1 POP DUP2 PUSH0 MSTORE PUSH1 0x20 PUSH0 KECCAK256 SWAP1 POP SWAP2 SWAP1 POP JUMP JUMPDEST PUSH0 PUSH1 0x20 PUSH1 0x1F DUP4 ADD DIV SWAP1 POP SWAP2 SWAP1 POP JUMP JUMPDEST PUSH0 DUP3 DUP3 SHL SWAP1 POP SWAP3 SWAP2 POP POP JUMP JUMPDEST PUSH0 PUSH1 0x8 DUP4 MUL PUSH2 0x2DA6 PUSH32 0xFFFFFFFFFFFFFFFFFFFFFFFFFFFFFFFFFFFFFFFFFFFFFFFFFFFFFFFFFFFFFFFF DUP3 PUSH2 0x2D6B JUMP JUMPDEST PUSH2 0x2DB0 DUP7 DUP4 PUSH2 0x2D6B JUMP JUMPDEST SWAP6 POP DUP1 NOT DUP5 AND SWAP4 POP DUP1 DUP7 AND DUP5 OR SWAP3 POP POP POP SWAP4 SWAP3 POP POP POP JUMP JUMPDEST PUSH0 DUP2 SWAP1 POP SWAP2 SWAP1 POP JUMP JUMPDEST PUSH0 PUSH2 0x2DEB PUSH2 0x2DE6 PUSH2 0x2DE1 DUP5 PUSH2 0x23BB JUMP JUMPDEST PUSH2 0x2DC8 JUMP JUMPDEST PUSH2 0x23BB JUMP JUMPDEST SWAP1 POP SWAP2 SWAP1 POP JUMP JUMPDEST PUSH0 DUP2 SWAP1 POP SWAP2 SWAP1 POP JUMP JUMPDEST PUSH2 0x2E04 DUP4 PUSH2 0x2DD1 JUMP JUMPDEST PUSH2 0x2E18 PUSH2 0x2E10 DUP3 PUSH2 0x2DF2 JUMP JUMPDEST DUP5 DUP5 SLOAD PUSH2 0x2D77 JUMP JUMPDEST DUP3 SSTORE POP POP POP POP JUMP JUMPDEST PUSH0 SWAP1 JUMP JUMPDEST PUSH2 0x2E2C PUSH2 0x2E20 JUMP JUMPDEST PUSH2 0x2E37 DUP2 DUP5 DUP5 PUSH2 0x2DFB JUMP JUMPDEST POP POP POP JUMP JUMPDEST JUMPDEST DUP2 DUP2 LT ISZERO PUSH2 0x2E5A JUMPI PUSH2 0x2E4F PUSH0 DUP3 PUSH2 0x2E24 JUMP JUMPDEST PUSH1 0x1 DUP2 ADD SWAP1 POP PUSH2 0x2E3D JUMP JUMPDEST POP POP JUMP JUMPDEST PUSH1 0x1F DUP3 GT ISZERO PUSH2 0x2E9F JUMPI PUSH2 0x2E70 DUP2 PUSH2 0x2D4A JUMP JUMPDEST PUSH2 0x2E79 DUP5 PUSH2 0x2D5C JUMP JUMPDEST DUP2 ADD PUSH1 0x20 DUP6 LT ISZERO PUSH2 0x2E88 JUMPI DUP2 SWAP1 POP JUMPDEST PUSH2 0x2E9C PUSH2 0x2E94 DUP6 PUSH2 0x2D5C JUMP JUMPDEST DUP4 ADD DUP3 PUSH2 0x2E3C JUMP JUMPDEST POP POP JUMPDEST POP POP POP JUMP JUMPDEST PUSH0 DUP3 DUP3 SHR SWAP1 POP SWAP3 SWAP2 POP POP JUMP JUMPDEST PUSH0 PUSH2 0x2EBF PUSH0 NOT DUP5 PUSH1 0x8 MUL PUSH2 0x2EA4 JUMP JUMPDEST NOT DUP1 DUP4 AND SWAP2 POP POP SWAP3 SWAP2 POP POP JUMP JUMPDEST PUSH0 PUSH2 0x2ED7 DUP4 DUP4 PUSH2 0x2EB0 JUMP JUMPDEST SWAP2 POP DUP3 PUSH1 0x2 MUL DUP3 OR SWAP1 POP SWAP3 SWAP2 POP POP JUMP JUMPDEST PUSH2 0x2EF0 DUP3 PUSH2 0x21A7 JUMP JUMPDEST PUSH8 0xFFFFFFFFFFFFFFFF DUP2 GT ISZERO PUSH2 0x2F09 JUMPI PUSH2 0x2F08 PUSH2 0x2250 JUMP JUMPDEST JUMPDEST PUSH2 0x2F13 DUP3 SLOAD PUSH2 0x296E JUMP JUMPDEST PUSH2 0x2F1E DUP3 DUP3 DUP6 PUSH2 0x2E5E JUMP JUMPDEST PUSH0 PUSH1 0x20 SWAP1 POP PUSH1 0x1F DUP4 GT PUSH1 0x1 DUP2 EQ PUSH2 0x2F4F JUMPI PUSH0 DUP5 ISZERO PUSH2 0x2F3D JUMPI DUP3 DUP8 ADD MLOAD SWAP1 POP JUMPDEST PUSH2 0x2F47 DUP6 DUP3 PUSH2 0x2ECC JUMP JUMPDEST DUP7 SSTORE POP PUSH2 0x2FAE JUMP JUMPDEST PUSH1 0x1F NOT DUP5 AND PUSH2 0x2F5D DUP7 PUSH2 0x2D4A JUMP JUMPDEST PUSH0 JUMPDEST DUP3 DUP2 LT ISZERO PUSH2 0x2F84 JUMPI DUP5 DUP10 ADD MLOAD DUP3 SSTORE PUSH1 0x1 DUP3 ADD SWAP2 POP PUSH1 0x20 DUP6 ADD SWAP5 POP PUSH1 0x20 DUP2 ADD SWAP1 POP PUSH2 0x2F5F JUMP JUMPDEST DUP7 DUP4 LT ISZERO PUSH2 0x2FA1 JUMPI DUP5 DUP10 ADD MLOAD PUSH2 0x2F9D PUSH1 0x1F DUP10 AND DUP3 PUSH2 0x2EB0 JUMP JUMPDEST DUP4 SSTORE POP JUMPDEST PUSH1 0x1 PUSH1 0x2 DUP9 MUL ADD DUP9 SSTORE POP POP POP JUMPDEST POP POP POP POP POP POP JUMP JUMPDEST PUSH0 PUSH2 0x2FC0 DUP3 PUSH2 0x23BB JUMP JUMPDEST SWAP2 POP PUSH32 0xFFFFFFFFFFFFFFFFFFFFFFFFFFFFFFFFFFFFFFFFFFFFFFFFFFFFFFFFFFFFFFFF DUP3 SUB PUSH2 0x2FF2 JUMPI PUSH2 0x2FF1 PUSH2 0x2A5A JUMP JUMPDEST JUMPDEST PUSH1 0x1 DUP3 ADD SWAP1 POP SWAP2 SWAP1 POP JUMP JUMPDEST PUSH0 DUP2 SWAP1 POP SWAP2 SWAP1 POP JUMP JUMPDEST PUSH0 PUSH2 0x3020 PUSH2 0x301B PUSH2 0x3016 DUP5 PUSH2 0x2FFD JUMP JUMPDEST PUSH2 0x2DC8 JUMP JUMPDEST PUSH2 0x23BB JUMP JUMPDEST SWAP1 POP SWAP2 SWAP1 POP JUMP JUMPDEST PUSH2 0x3030 DUP2 PUSH2 0x3006 JUMP JUMPDEST DUP3 MSTORE POP POP JUMP JUMPDEST PUSH32 0x68656C6C6F000000000000000000000000000000000000000000000000000000 PUSH0 DUP3 ADD MSTORE POP JUMP JUMPDEST PUSH0 PUSH2 0x306A PUSH1 0x5 DUP4 PUSH2 0x21B1 JUMP JUMPDEST SWAP2 POP PUSH2 0x3075 DUP3 PUSH2 0x3036 JUMP JUMPDEST PUSH1 0x20 DUP3 ADD SWAP1 POP SWAP2 SWAP1 POP JUMP JUMPDEST PUSH0 PUSH1 0x60 DUP3 ADD SWAP1 POP PUSH2 0x3093 PUSH0 DUP4 ADD DUP6 PUSH2 0x24E7 JUMP JUMPDEST PUSH2 0x30A0 PUSH1 0x20 DUP4 ADD DUP5 PUSH2 0x3027 JUMP JUMPDEST DUP2 DUP2 SUB PUSH1 0x40 DUP4 ADD MSTORE PUSH2 0x30B1 DUP2 PUSH2 0x305E JUMP JUMPDEST SWAP1 POP SWAP4 SWAP3 POP POP POP JUMP JUMPDEST PUSH32 0x44414F20646F6573206E6F742065786973740000000000000000000000000000 PUSH0 DUP3 ADD MSTORE POP JUMP JUMPDEST PUSH0 PUSH2 0x30EE PUSH1 0x12 DUP4 PUSH2 0x21B1 JUMP JUMPDEST SWAP2 POP PUSH2 0x30F9 DUP3 PUSH2 0x30BA JUMP JUMPDEST PUSH1 0x20 DUP3 ADD SWAP1 POP SWAP2 SWAP1 POP JUMP JUMPDEST PUSH0 PUSH1 0x20 DUP3 ADD SWAP1 POP DUP2 DUP2 SUB PUSH0 DUP4 ADD MSTORE PUSH2 0x311B DUP2 PUSH2 0x30E2 JUMP JUMPDEST SWAP1 POP SWAP2 SWAP1 POP JUMP JUMPDEST PUSH32 0x5573657220646F6573206E6F7420657869737400000000000000000000000000 PUSH0 DUP3 ADD MSTORE POP JUMP JUMPDEST PUSH0 PUSH2 0x3156 PUSH1 0x13 DUP4 PUSH2 0x21B1 JUMP JUMPDEST SWAP2 POP PUSH2 0x3161 DUP3 PUSH2 0x3122 JUMP JUMPDEST PUSH1 0x20 DUP3 ADD SWAP1 POP SWAP2 SWAP1 POP JUMP JUMPDEST PUSH0 PUSH1 0x20 DUP3 ADD SWAP1 POP DUP2 DUP2 SUB PUSH0 DUP4 ADD MSTORE PUSH2 0x3183 DUP2 PUSH2 0x314A JUMP JUMPDEST SWAP1 POP SWAP2 SWAP1 POP JUMP JUMPDEST PUSH32 0x5573657220616C72656164792065786973747300000000000000000000000000 PUSH0 DUP3 ADD MSTORE POP JUMP JUMPDEST PUSH0 PUSH2 0x31BE PUSH1 0x13 DUP4 PUSH2 0x21B1 JUMP JUMPDEST SWAP2 POP PUSH2 0x31C9 DUP3 PUSH2 0x318A JUMP JUMPDEST PUSH1 0x20 DUP3 ADD SWAP1 POP SWAP2 SWAP1 POP JUMP JUMPDEST PUSH0 PUSH1 0x20 DUP3 ADD SWAP1 POP DUP2 DUP2 SUB PUSH0 DUP4 ADD MSTORE PUSH2 0x31EB DUP2 PUSH2 0x31B2 JUMP JUMPDEST SWAP1 POP SWAP2 SWAP1 POP JUMP INVALID LOG2 PUSH5 0x6970667358 0x22 SLT KECCAK256 0xC9 0x2F 0xAC 0xE SUB SWAP8 DUP6 JUMP LOG3 PUSH31 0x2C52E1943C90CDC05D38EBA823DFECAF9F4CEA53C32964736F6C634300081A STOP CALLER "
		},
		"gasEstimates": {
			"creation": {
				"codeDepositCost": "2568000",
				"executionCost": "infinite",
				"totalCost": "infinite"
			},
			"external": {
				"NFT()": "infinite",
				"addUsertoDao(uint256,address)": "infinite",
				"budget()": "infinite",
				"createDao(string,string)": "infinite",
				"createProposal(string,string,uint256,address,uint256,uint256,uint256,uint256,uint256,bool)": "infinite",
				"createUser(string,address)": "infinite",
				"currentInvestedAmount()": "2557",
				"daoIdtoDao(uint256)": "infinite",
				"daoIdtoDocuments(uint256,uint256)": "infinite",
				"daoIdtoMembers(uint256,uint256)": "infinite",
				"daoIdtoProposals(uint256,uint256)": "infinite",
				"daoLimit()": "infinite",
				"documentIdtoDocument(uint256)": "infinite",
				"duration()": "infinite",
				"founder()": "infinite",
				"getOwner()": "infinite",
				"id()": "2492",
				"invest(string)": "infinite",
				"investmentLimit()": "infinite",
				"isDaoCreated()": "2534",
				"name()": "infinite",
				"owner()": "2583",
				"proposalIdtoAbstainVoters(uint256,uint256)": "infinite",
				"proposalIdtoNoVoters(uint256,uint256)": "infinite",
				"proposalIdtoProposal(uint256)": "infinite",
				"proposalIdtoVoters(uint256,uint256)": "infinite",
				"proposalIdtoYesVoters(uint256,uint256)": "infinite",
				"quadraticNoMappings(uint256,uint256)": "infinite",
				"quadraticYesMappings(uint256,uint256)": "infinite",
				"renounceOwnership()": "infinite",
				"sendNFT(address)": "infinite",
				"totalProposals()": "2559",
				"totalUser()": "2558",
				"transferOwnership(address)": "infinite",
				"userIdtoDaos(uint256,uint256)": "infinite",
				"userIdtoUser(uint256)": "infinite",
				"userWallettoAmtInvested(address)": "2936",
				"userWallettoUserId(address)": "2847",
				"users(uint256)": "4990"
			}
		},
		"methodIdentifiers": {
			"NFT()": "7c0b8de2",
			"addUsertoDao(uint256,address)": "6e0b5aa9",
			"budget()": "ed01bf29",
			"createDao(string,string)": "25ad4ecc",
			"createProposal(string,string,uint256,address,uint256,uint256,uint256,uint256,uint256,bool)": "b56d4125",
			"createUser(string,address)": "f555ffb4",
			"currentInvestedAmount()": "fc291775",
			"daoIdtoDao(uint256)": "94316829",
			"daoIdtoDocuments(uint256,uint256)": "ba8f07a3",
			"daoIdtoMembers(uint256,uint256)": "6d850033",
			"daoIdtoProposals(uint256,uint256)": "bee5eabe",
			"daoLimit()": "4b7b9fb9",
			"documentIdtoDocument(uint256)": "3bd8e51e",
			"duration()": "0fb5a6b4",
			"founder()": "4d853ee5",
			"getOwner()": "893d20e8",
			"id()": "af640d0f",
			"invest(string)": "0a8b7826",
			"investmentLimit()": "ba7efcdd",
			"isDaoCreated()": "5434d397",
			"name()": "06fdde03",
			"owner()": "8da5cb5b",
			"proposalIdtoAbstainVoters(uint256,uint256)": "6cd84de7",
			"proposalIdtoNoVoters(uint256,uint256)": "cc6e4a38",
			"proposalIdtoProposal(uint256)": "56a58ebf",
			"proposalIdtoVoters(uint256,uint256)": "c228995d",
			"proposalIdtoYesVoters(uint256,uint256)": "f9d5b5de",
			"quadraticNoMappings(uint256,uint256)": "9c4ae5e1",
			"quadraticYesMappings(uint256,uint256)": "72524bf3",
			"renounceOwnership()": "715018a6",
			"sendNFT(address)": "4142e328",
			"totalProposals()": "a78d80fc",
			"totalUser()": "e1604b70",
			"transferOwnership(address)": "f2fde38b",
			"userIdtoDaos(uint256,uint256)": "56f28b0a",
			"userIdtoUser(uint256)": "cd585b37",
			"userWallettoAmtInvested(address)": "4cc3c712",
			"userWallettoUserId(address)": "abe70951",
			"users(uint256)": "365b98b2"
		}
	},
	"abi": [
		{
			"inputs": [
				{
					"internalType": "uint256",
					"name": "_id",
					"type": "uint256"
				},
				{
					"internalType": "string",
					"name": "_name",
					"type": "string"
				},
				{
					"internalType": "address",
					"name": "_founder",
					"type": "address"
				},
				{
					"internalType": "uint256",
					"name": "_budget",
					"type": "uint256"
				},
				{
					"internalType": "uint256",
					"name": "_duration",
					"type": "uint256"
				},
				{
					"internalType": "uint256",
					"name": "_investmentLimit",
					"type": "uint256"
				},
				{
					"internalType": "uint256",
					"name": "_daoLimit",
					"type": "uint256"
				},
				{
					"internalType": "address",
					"name": "_NFT",
					"type": "address"
				}
			],
			"stateMutability": "nonpayable",
			"type": "constructor"
		},
		{
			"inputs": [
				{
					"internalType": "address",
					"name": "owner",
					"type": "address"
				}
			],
			"name": "OwnableInvalidOwner",
			"type": "error"
		},
		{
			"inputs": [
				{
					"internalType": "address",
					"name": "account",
					"type": "address"
				}
			],
			"name": "OwnableUnauthorizedAccount",
			"type": "error"
		},
		{
			"anonymous": false,
			"inputs": [
				{
					"indexed": true,
					"internalType": "uint256",
					"name": "daoId",
					"type": "uint256"
				},
				{
					"indexed": false,
					"internalType": "string",
					"name": "daoName",
					"type": "string"
				},
				{
					"indexed": false,
					"internalType": "address",
					"name": "creatorWallet",
					"type": "address"
				}
			],
			"name": "DAOCreated",
			"type": "event"
		},
		{
			"anonymous": false,
			"inputs": [
				{
					"indexed": true,
					"internalType": "uint256",
					"name": "documentId",
					"type": "uint256"
				},
				{
					"indexed": false,
					"internalType": "uint256",
					"name": "daoId",
					"type": "uint256"
				},
				{
					"indexed": false,
					"internalType": "address",
					"name": "uploaderWallet",
					"type": "address"
				}
			],
			"name": "DocumentUploaded",
			"type": "event"
		},
		{
			"anonymous": false,
			"inputs": [
				{
					"indexed": true,
					"internalType": "uint256",
					"name": "daoId",
					"type": "uint256"
				},
				{
					"indexed": false,
					"internalType": "uint256",
					"name": "userId",
					"type": "uint256"
				},
				{
					"indexed": false,
					"internalType": "address",
					"name": "userWallet",
					"type": "address"
				}
			],
			"name": "MemberAddedToDAO",
			"type": "event"
		},
		{
			"anonymous": false,
			"inputs": [
				{
					"indexed": true,
					"internalType": "address",
					"name": "previousOwner",
					"type": "address"
				},
				{
					"indexed": true,
					"internalType": "address",
					"name": "newOwner",
					"type": "address"
				}
			],
			"name": "OwnershipTransferred",
			"type": "event"
		},
		{
			"anonymous": false,
			"inputs": [
				{
					"indexed": true,
					"internalType": "uint256",
					"name": "proposalId",
					"type": "uint256"
				},
				{
					"indexed": false,
					"internalType": "uint256",
					"name": "daoId",
					"type": "uint256"
				},
				{
					"indexed": false,
					"internalType": "address",
					"name": "proposerWallet",
					"type": "address"
				}
			],
			"name": "ProposalCreated",
			"type": "event"
		},
		{
			"anonymous": false,
			"inputs": [
				{
					"indexed": true,
					"internalType": "address",
					"name": "ProjectAddress",
					"type": "address"
				},
				{
					"indexed": false,
					"internalType": "uint256",
					"name": "daoId",
					"type": "uint256"
				},
				{
					"indexed": true,
					"internalType": "address",
					"name": "investor",
					"type": "address"
				}
			],
			"name": "ProposalCreated",
			"type": "event"
		},
		{
			"anonymous": false,
			"inputs": [
				{
					"indexed": true,
					"internalType": "uint256",
					"name": "proposalId",
					"type": "uint256"
				},
				{
					"indexed": false,
					"internalType": "uint256",
					"name": "userId",
					"type": "uint256"
				},
				{
					"indexed": false,
					"internalType": "uint256",
					"name": "numTokens",
					"type": "uint256"
				},
				{
					"indexed": false,
					"internalType": "uint256",
					"name": "voteChoice",
					"type": "uint256"
				}
			],
			"name": "QVVoteCast",
			"type": "event"
		},
		{
			"anonymous": false,
			"inputs": [
				{
					"indexed": true,
					"internalType": "uint256",
					"name": "userId",
					"type": "uint256"
				},
				{
					"indexed": false,
					"internalType": "string",
					"name": "userName",
					"type": "string"
				},
				{
					"indexed": false,
					"internalType": "address",
					"name": "userWallet",
					"type": "address"
				}
			],
			"name": "UserCreated",
			"type": "event"
		},
		{
			"anonymous": false,
			"inputs": [
				{
					"indexed": true,
					"internalType": "uint256",
					"name": "daoId",
					"type": "uint256"
				},
				{
					"indexed": false,
					"internalType": "uint256",
					"name": "userId",
					"type": "uint256"
				},
				{
					"indexed": false,
					"internalType": "address",
					"name": "userWallet",
					"type": "address"
				}
			],
			"name": "UserJoinedDAO",
			"type": "event"
		},
		{
			"anonymous": false,
			"inputs": [
				{
					"indexed": true,
					"internalType": "uint256",
					"name": "proposalId",
					"type": "uint256"
				},
				{
					"indexed": false,
					"internalType": "uint256",
					"name": "userId",
					"type": "uint256"
				},
				{
					"indexed": false,
					"internalType": "uint256",
					"name": "voteChoice",
					"type": "uint256"
				}
			],
			"name": "VoteCast",
			"type": "event"
		},
		{
			"anonymous": false,
			"inputs": [
				{
					"indexed": true,
					"internalType": "uint256",
					"name": "userId",
					"type": "uint256"
				},
				{
					"indexed": false,
					"internalType": "string",
					"name": "userName",
					"type": "string"
				},
				{
					"indexed": false,
					"internalType": "address",
					"name": "userWallet",
					"type": "address"
				},
				{
					"indexed": false,
					"internalType": "uint256",
					"name": "investedAmount",
					"type": "uint256"
				}
			],
			"name": "investmentMade",
			"type": "event"
		},
		{
			"inputs": [],
			"name": "NFT",
			"outputs": [
				{
					"internalType": "address",
					"name": "",
					"type": "address"
				}
			],
			"stateMutability": "view",
			"type": "function"
		},
		{
			"inputs": [
				{
					"internalType": "uint256",
					"name": "daoId",
					"type": "uint256"
				},
				{
					"internalType": "address",
					"name": "userWallet",
					"type": "address"
				}
			],
			"name": "addUsertoDao",
			"outputs": [],
			"stateMutability": "nonpayable",
			"type": "function"
		},
		{
			"inputs": [],
			"name": "budget",
			"outputs": [
				{
					"internalType": "uint256",
					"name": "",
					"type": "uint256"
				}
			],
			"stateMutability": "view",
			"type": "function"
		},
		{
			"inputs": [
				{
					"internalType": "string",
					"name": "daoName",
					"type": "string"
				},
				{
					"internalType": "string",
					"name": "daoDescription",
					"type": "string"
				}
			],
			"name": "createDao",
			"outputs": [],
			"stateMutability": "nonpayable",
			"type": "function"
		},
		{
			"inputs": [
				{
					"internalType": "string",
					"name": "proposalTitleAndDesc",
					"type": "string"
				},
				{
					"internalType": "string",
					"name": "proposalTpfsHash",
					"type": "string"
				},
				{
					"internalType": "uint256",
					"name": "votingThreshold",
					"type": "uint256"
				},
				{
					"internalType": "address",
					"name": "votingTokenAddress",
					"type": "address"
				},
				{
					"internalType": "uint256",
					"name": "fundsNeeded",
					"type": "uint256"
				},
				{
					"internalType": "uint256",
					"name": "beginningTime",
					"type": "uint256"
				},
				{
					"internalType": "uint256",
					"name": "daoId",
					"type": "uint256"
				},
				{
					"internalType": "uint256",
					"name": "endingTime",
					"type": "uint256"
				},
				{
					"internalType": "uint256",
					"name": "passingThreshold",
					"type": "uint256"
				},
				{
					"internalType": "bool",
					"name": "voteOnce",
					"type": "bool"
				}
			],
			"name": "createProposal",
			"outputs": [],
			"stateMutability": "nonpayable",
			"type": "function"
		},
		{
			"inputs": [
				{
					"internalType": "string",
					"name": "_name",
					"type": "string"
				},
				{
					"internalType": "address",
					"name": "userWallet",
					"type": "address"
				}
			],
			"name": "createUser",
			"outputs": [],
			"stateMutability": "nonpayable",
			"type": "function"
		},
		{
			"inputs": [],
			"name": "currentInvestedAmount",
			"outputs": [
				{
					"internalType": "uint256",
					"name": "",
					"type": "uint256"
				}
			],
			"stateMutability": "view",
			"type": "function"
		},
		{
			"inputs": [
				{
					"internalType": "uint256",
					"name": "",
					"type": "uint256"
				}
			],
			"name": "daoIdtoDao",
			"outputs": [
				{
					"internalType": "uint256",
					"name": "project_id",
					"type": "uint256"
				},
				{
					"internalType": "string",
					"name": "daoName",
					"type": "string"
				},
				{
					"internalType": "string",
					"name": "daoDescription",
					"type": "string"
				},
				{
					"internalType": "uint256",
					"name": "MembersCount",
					"type": "uint256"
				},
				{
					"internalType": "address",
					"name": "creator",
					"type": "address"
				}
			],
			"stateMutability": "view",
			"type": "function"
		},
		{
			"inputs": [
				{
					"internalType": "uint256",
					"name": "",
					"type": "uint256"
				},
				{
					"internalType": "uint256",
					"name": "",
					"type": "uint256"
				}
			],
			"name": "daoIdtoDocuments",
			"outputs": [
				{
					"internalType": "uint256",
					"name": "",
					"type": "uint256"
				}
			],
			"stateMutability": "view",
			"type": "function"
		},
		{
			"inputs": [
				{
					"internalType": "uint256",
					"name": "",
					"type": "uint256"
				},
				{
					"internalType": "uint256",
					"name": "",
					"type": "uint256"
				}
			],
			"name": "daoIdtoMembers",
			"outputs": [
				{
					"internalType": "uint256",
					"name": "",
					"type": "uint256"
				}
			],
			"stateMutability": "view",
			"type": "function"
		},
		{
			"inputs": [
				{
					"internalType": "uint256",
					"name": "",
					"type": "uint256"
				},
				{
					"internalType": "uint256",
					"name": "",
					"type": "uint256"
				}
			],
			"name": "daoIdtoProposals",
			"outputs": [
				{
					"internalType": "uint256",
					"name": "",
					"type": "uint256"
				}
			],
			"stateMutability": "view",
			"type": "function"
		},
		{
			"inputs": [],
			"name": "daoLimit",
			"outputs": [
				{
					"internalType": "uint256",
					"name": "",
					"type": "uint256"
				}
			],
			"stateMutability": "view",
			"type": "function"
		},
		{
			"inputs": [
				{
					"internalType": "uint256",
					"name": "",
					"type": "uint256"
				}
			],
			"name": "documentIdtoDocument",
			"outputs": [
				{
					"internalType": "uint256",
					"name": "documentId",
					"type": "uint256"
				},
				{
					"internalType": "string",
					"name": "documentTitle",
					"type": "string"
				},
				{
					"internalType": "string",
					"name": "documentDescription",
					"type": "string"
				},
				{
					"internalType": "string",
					"name": "ipfsHash",
					"type": "string"
				},
				{
					"internalType": "uint256",
					"name": "uploaderId",
					"type": "uint256"
				},
				{
					"internalType": "uint256",
					"name": "daoId",
					"type": "uint256"
				}
			],
			"stateMutability": "view",
			"type": "function"
		},
		{
			"inputs": [],
			"name": "duration",
			"outputs": [
				{
					"internalType": "uint256",
					"name": "",
					"type": "uint256"
				}
			],
			"stateMutability": "view",
			"type": "function"
		},
		{
			"inputs": [],
			"name": "founder",
			"outputs": [
				{
					"internalType": "address",
					"name": "",
					"type": "address"
				}
			],
			"stateMutability": "view",
			"type": "function"
		},
		{
			"inputs": [],
			"name": "getOwner",
			"outputs": [
				{
					"internalType": "address",
					"name": "",
					"type": "address"
				}
			],
			"stateMutability": "view",
			"type": "function"
		},
		{
			"inputs": [],
			"name": "id",
			"outputs": [
				{
					"internalType": "uint256",
					"name": "",
					"type": "uint256"
				}
			],
			"stateMutability": "view",
			"type": "function"
		},
		{
			"inputs": [
				{
					"internalType": "string",
					"name": "userName",
					"type": "string"
				}
			],
			"name": "invest",
			"outputs": [],
			"stateMutability": "payable",
			"type": "function"
		},
		{
			"inputs": [],
			"name": "investmentLimit",
			"outputs": [
				{
					"internalType": "uint256",
					"name": "",
					"type": "uint256"
				}
			],
			"stateMutability": "view",
			"type": "function"
		},
		{
			"inputs": [],
			"name": "isDaoCreated",
			"outputs": [
				{
					"internalType": "bool",
					"name": "",
					"type": "bool"
				}
			],
			"stateMutability": "view",
			"type": "function"
		},
		{
			"inputs": [],
			"name": "name",
			"outputs": [
				{
					"internalType": "string",
					"name": "",
					"type": "string"
				}
			],
			"stateMutability": "view",
			"type": "function"
		},
		{
			"inputs": [],
			"name": "owner",
			"outputs": [
				{
					"internalType": "address",
					"name": "",
					"type": "address"
				}
			],
			"stateMutability": "view",
			"type": "function"
		},
		{
			"inputs": [
				{
					"internalType": "uint256",
					"name": "",
					"type": "uint256"
				},
				{
					"internalType": "uint256",
					"name": "",
					"type": "uint256"
				}
			],
			"name": "proposalIdtoAbstainVoters",
			"outputs": [
				{
					"internalType": "uint256",
					"name": "",
					"type": "uint256"
				}
			],
			"stateMutability": "view",
			"type": "function"
		},
		{
			"inputs": [
				{
					"internalType": "uint256",
					"name": "",
					"type": "uint256"
				},
				{
					"internalType": "uint256",
					"name": "",
					"type": "uint256"
				}
			],
			"name": "proposalIdtoNoVoters",
			"outputs": [
				{
					"internalType": "uint256",
					"name": "",
					"type": "uint256"
				}
			],
			"stateMutability": "view",
			"type": "function"
		},
		{
			"inputs": [
				{
					"internalType": "uint256",
					"name": "",
					"type": "uint256"
				}
			],
			"name": "proposalIdtoProposal",
			"outputs": [
				{
					"internalType": "uint256",
					"name": "proposalId",
					"type": "uint256"
				},
				{
					"internalType": "uint256",
					"name": "proposerId",
					"type": "uint256"
				},
				{
					"internalType": "string",
					"name": "proposalTitleAndDesc",
					"type": "string"
				},
				{
					"internalType": "string",
					"name": "proposalTpfsHash",
					"type": "string"
				},
				{
					"internalType": "uint256",
					"name": "votingThreshold",
					"type": "uint256"
				},
				{
					"internalType": "address",
					"name": "votingTokenAddress",
					"type": "address"
				},
				{
					"internalType": "uint256",
					"name": "fundsNeeded",
					"type": "uint256"
				},
				{
					"internalType": "uint256",
					"name": "beginningTime",
					"type": "uint256"
				},
				{
					"internalType": "uint256",
					"name": "daoId",
					"type": "uint256"
				},
				{
					"internalType": "uint256",
					"name": "endingTime",
					"type": "uint256"
				},
				{
					"internalType": "uint256",
					"name": "passingThreshold",
					"type": "uint256"
				},
				{
					"internalType": "bool",
					"name": "voteOnce",
					"type": "bool"
				}
			],
			"stateMutability": "view",
			"type": "function"
		},
		{
			"inputs": [
				{
					"internalType": "uint256",
					"name": "",
					"type": "uint256"
				},
				{
					"internalType": "uint256",
					"name": "",
					"type": "uint256"
				}
			],
			"name": "proposalIdtoVoters",
			"outputs": [
				{
					"internalType": "uint256",
					"name": "",
					"type": "uint256"
				}
			],
			"stateMutability": "view",
			"type": "function"
		},
		{
			"inputs": [
				{
					"internalType": "uint256",
					"name": "",
					"type": "uint256"
				},
				{
					"internalType": "uint256",
					"name": "",
					"type": "uint256"
				}
			],
			"name": "proposalIdtoYesVoters",
			"outputs": [
				{
					"internalType": "uint256",
					"name": "",
					"type": "uint256"
				}
			],
			"stateMutability": "view",
			"type": "function"
		},
		{
			"inputs": [
				{
					"internalType": "uint256",
					"name": "",
					"type": "uint256"
				},
				{
					"internalType": "uint256",
					"name": "",
					"type": "uint256"
				}
			],
			"name": "quadraticNoMappings",
			"outputs": [
				{
					"internalType": "uint256",
					"name": "",
					"type": "uint256"
				}
			],
			"stateMutability": "view",
			"type": "function"
		},
		{
			"inputs": [
				{
					"internalType": "uint256",
					"name": "",
					"type": "uint256"
				},
				{
					"internalType": "uint256",
					"name": "",
					"type": "uint256"
				}
			],
			"name": "quadraticYesMappings",
			"outputs": [
				{
					"internalType": "uint256",
					"name": "",
					"type": "uint256"
				}
			],
			"stateMutability": "view",
			"type": "function"
		},
		{
			"inputs": [],
			"name": "renounceOwnership",
			"outputs": [],
			"stateMutability": "nonpayable",
			"type": "function"
		},
		{
			"inputs": [
				{
					"internalType": "address",
					"name": "userWallet",
					"type": "address"
				}
			],
			"name": "sendNFT",
			"outputs": [],
			"stateMutability": "nonpayable",
			"type": "function"
		},
		{
			"inputs": [],
			"name": "totalProposals",
			"outputs": [
				{
					"internalType": "uint256",
					"name": "",
					"type": "uint256"
				}
			],
			"stateMutability": "view",
			"type": "function"
		},
		{
			"inputs": [],
			"name": "totalUser",
			"outputs": [
				{
					"internalType": "uint256",
					"name": "",
					"type": "uint256"
				}
			],
			"stateMutability": "view",
			"type": "function"
		},
		{
			"inputs": [
				{
					"internalType": "address",
					"name": "newOwner",
					"type": "address"
				}
			],
			"name": "transferOwnership",
			"outputs": [],
			"stateMutability": "nonpayable",
			"type": "function"
		},
		{
			"inputs": [
				{
					"internalType": "uint256",
					"name": "",
					"type": "uint256"
				},
				{
					"internalType": "uint256",
					"name": "",
					"type": "uint256"
				}
			],
			"name": "userIdtoDaos",
			"outputs": [
				{
					"internalType": "uint256",
					"name": "",
					"type": "uint256"
				}
			],
			"stateMutability": "view",
			"type": "function"
		},
		{
			"inputs": [
				{
					"internalType": "uint256",
					"name": "",
					"type": "uint256"
				}
			],
			"name": "userIdtoUser",
			"outputs": [
				{
					"internalType": "string",
					"name": "",
					"type": "string"
				}
			],
			"stateMutability": "view",
			"type": "function"
		},
		{
			"inputs": [
				{
					"internalType": "address",
					"name": "",
					"type": "address"
				}
			],
			"name": "userWallettoAmtInvested",
			"outputs": [
				{
					"internalType": "uint256",
					"name": "",
					"type": "uint256"
				}
			],
			"stateMutability": "view",
			"type": "function"
		},
		{
			"inputs": [
				{
					"internalType": "address",
					"name": "",
					"type": "address"
				}
			],
			"name": "userWallettoUserId",
			"outputs": [
				{
					"internalType": "uint256",
					"name": "",
					"type": "uint256"
				}
			],
			"stateMutability": "view",
			"type": "function"
		},
		{
			"inputs": [
				{
					"internalType": "uint256",
					"name": "",
					"type": "uint256"
				}
			],
			"name": "users",
			"outputs": [
				{
					"internalType": "address",
					"name": "",
					"type": "address"
				}
			],
			"stateMutability": "view",
			"type": "function"
		}
	]
}