{
	"data": {
		"bytecode": {
			"linkReferences": {},
			"object": "60806040525f80553480156011575f80fd5b50615ebf8061001f5f395ff3fe608060405234801561000f575f80fd5b506004361061004a575f3560e01c806304c956bf1461004e57806319ba0b631461006a5780632ad968d714610088578063303199db146100b8575b5f80fd5b610068600480360381019061006391906104a2565b6100e8565b005b6100726102b0565b60405161007f9190610572565b60405180910390f35b6100a2600480360381019061009d919061058b565b6102b8565b6040516100af9190610572565b60405180910390f35b6100d260048036038101906100cd91906105d2565b6102e5565b6040516100df919061063c565b60405180910390f35b5f6002876040516100f991906106a7565b90815260200160405180910390205414610148576040517f08c379a000000000000000000000000000000000000000000000000000000000815260040161013f90610717565b60405180910390fd5b838110801561015657508382105b610195576040517f08c379a000000000000000000000000000000000000000000000000000000000815260040161018c9061077f565b60405180910390fd5b5f808154809291906101a6906107ca565b91905055505f8054878733888888886040516101c190610315565b6101d2989796959493929190610849565b604051809103905ff0801580156101eb573d5f803e3d5ffd5b5090503373ffffffffffffffffffffffffffffffffffffffff165f547f63c92f9505d420bff631cb9df33be952bdc11e2118da36a850b43e6bcc4ce4de60405160405180910390a35f5460028860405161024591906106a7565b9081526020016040518091039020819055508060015f805481526020019081526020015f205f6101000a81548173ffffffffffffffffffffffffffffffffffffffff021916908373ffffffffffffffffffffffffffffffffffffffff16021790555050505050505050565b5f8054905090565b6002818051602081018201805184825260208301602085012081835280955050505050505f915090505481565b6001602052805f5260405f205f915054906101000a900473ffffffffffffffffffffffffffffffffffffffff1681565b6155b6806108d483390190565b5f604051905090565b5f80fd5b5f80fd5b5f80fd5b5f80fd5b5f601f19601f8301169050919050565b7f4e487b71000000000000000000000000000000000000000000000000000000005f52604160045260245ffd5b6103818261033b565b810181811067ffffffffffffffff821117156103a05761039f61034b565b5b80604052505050565b5f6103b2610322565b90506103be8282610378565b919050565b5f67ffffffffffffffff8211156103dd576103dc61034b565b5b6103e68261033b565b9050602081019050919050565b828183375f83830152505050565b5f61041361040e846103c3565b6103a9565b90508281526020810184848401111561042f5761042e610337565b5b61043a8482856103f3565b509392505050565b5f82601f83011261045657610455610333565b5b8135610466848260208601610401565b91505092915050565b5f819050919050565b6104818161046f565b811461048b575f80fd5b50565b5f8135905061049c81610478565b92915050565b5f805f805f8060c087890312156104bc576104bb61032b565b5b5f87013567ffffffffffffffff8111156104d9576104d861032f565b5b6104e589828a01610442565b965050602087013567ffffffffffffffff8111156105065761050561032f565b5b61051289828a01610442565b955050604061052389828a0161048e565b945050606061053489828a0161048e565b935050608061054589828a0161048e565b92505060a061055689828a0161048e565b9150509295509295509295565b61056c8161046f565b82525050565b5f6020820190506105855f830184610563565b92915050565b5f602082840312156105a05761059f61032b565b5b5f82013567ffffffffffffffff8111156105bd576105bc61032f565b5b6105c984828501610442565b91505092915050565b5f602082840312156105e7576105e661032b565b5b5f6105f48482850161048e565b91505092915050565b5f73ffffffffffffffffffffffffffffffffffffffff82169050919050565b5f610626826105fd565b9050919050565b6106368161061c565b82525050565b5f60208201905061064f5f83018461062d565b92915050565b5f81519050919050565b5f81905092915050565b8281835e5f83830152505050565b5f61068182610655565b61068b818561065f565b935061069b818560208601610669565b80840191505092915050565b5f6106b28284610677565b915081905092915050565b5f82825260208201905092915050565b7f50726f6a65637420776974682074686973206e616d65206578697374730000005f82015250565b5f610701601d836106bd565b915061070c826106cd565b602082019050919050565b5f6020820190508181035f83015261072e816106f5565b9050919050565b7f4c696d69747320657863656564207468652070726f6a656374206275646765745f82015250565b5f6107696020836106bd565b915061077482610735565b602082019050919050565b5f6020820190508181035f8301526107968161075d565b9050919050565b7f4e487b71000000000000000000000000000000000000000000000000000000005f52601160045260245ffd5b5f6107d48261046f565b91507fffffffffffffffffffffffffffffffffffffffffffffffffffffffffffffffff82036108065761080561079d565b5b600182019050919050565b5f61081b82610655565b61082581856106bd565b9350610835818560208601610669565b61083e8161033b565b840191505092915050565b5f6101008201905061085d5f83018b610563565b818103602083015261086f818a610811565b905081810360408301526108838189610811565b9050610892606083018861062d565b61089f6080830187610563565b6108ac60a0830186610563565b6108b960c0830185610563565b6108c660e0830184610563565b999850505050505050505056fe6101406040525f6008555f6009555f600a555f600b555f600c5f6101000a81548160ff0219169083151502179055505f600d556001600e5f6101000a81548160ff021916908315150217905550348015610057575f80fd5b506040516155b63803806155b683398181016040528101906100799190610427565b845f73ffffffffffffffffffffffffffffffffffffffff168173ffffffffffffffffffffffffffffffffffffffff16036100ea575f6040517f1e4fbdf70000000000000000000000000000000000000000000000000000000081526004016100e1919061051f565b60405180910390fd5b6100f98161018c60201b60201c565b5087608081815250508660019081610111919061073c565b508560029081610121919061073c565b508473ffffffffffffffffffffffffffffffffffffffff1660a08173ffffffffffffffffffffffffffffffffffffffff16815250508360c081815250508161010081815250508060e0818152505082610120818152505042600d81905550505050505050505061080b565b5f805f9054906101000a900473ffffffffffffffffffffffffffffffffffffffff169050815f806101000a81548173ffffffffffffffffffffffffffffffffffffffff021916908373ffffffffffffffffffffffffffffffffffffffff1602179055508173ffffffffffffffffffffffffffffffffffffffff168173ffffffffffffffffffffffffffffffffffffffff167f8be0079c531659141344cd1fd0a4f28419497f9722a3daafe3b4186f6b6457e060405160405180910390a35050565b5f604051905090565b5f80fd5b5f80fd5b5f819050919050565b6102708161025e565b811461027a575f80fd5b50565b5f8151905061028b81610267565b92915050565b5f80fd5b5f80fd5b5f601f19601f8301169050919050565b7f4e487b71000000000000000000000000000000000000000000000000000000005f52604160045260245ffd5b6102df82610299565b810181811067ffffffffffffffff821117156102fe576102fd6102a9565b5b80604052505050565b5f61031061024d565b905061031c82826102d6565b919050565b5f67ffffffffffffffff82111561033b5761033a6102a9565b5b61034482610299565b9050602081019050919050565b8281835e5f83830152505050565b5f61037161036c84610321565b610307565b90508281526020810184848401111561038d5761038c610295565b5b610398848285610351565b509392505050565b5f82601f8301126103b4576103b3610291565b5b81516103c484826020860161035f565b91505092915050565b5f73ffffffffffffffffffffffffffffffffffffffff82169050919050565b5f6103f6826103cd565b9050919050565b610406816103ec565b8114610410575f80fd5b50565b5f81519050610421816103fd565b92915050565b5f805f805f805f80610100898b03121561044457610443610256565b5b5f6104518b828c0161027d565b985050602089015167ffffffffffffffff8111156104725761047161025a565b5b61047e8b828c016103a0565b975050604089015167ffffffffffffffff81111561049f5761049e61025a565b5b6104ab8b828c016103a0565b96505060606104bc8b828c01610413565b95505060806104cd8b828c0161027d565b94505060a06104de8b828c0161027d565b93505060c06104ef8b828c0161027d565b92505060e06105008b828c0161027d565b9150509295985092959890939650565b610519816103ec565b82525050565b5f6020820190506105325f830184610510565b92915050565b5f81519050919050565b7f4e487b71000000000000000000000000000000000000000000000000000000005f52602260045260245ffd5b5f600282049050600182168061058657607f821691505b60208210810361059957610598610542565b5b50919050565b5f819050815f5260205f209050919050565b5f6020601f8301049050919050565b5f82821b905092915050565b5f600883026105fb7fffffffffffffffffffffffffffffffffffffffffffffffffffffffffffffffff826105c0565b61060586836105c0565b95508019841693508086168417925050509392505050565b5f819050919050565b5f61064061063b6106368461025e565b61061d565b61025e565b9050919050565b5f819050919050565b61065983610626565b61066d61066582610647565b8484546105cc565b825550505050565b5f90565b610681610675565b61068c818484610650565b505050565b5b818110156106af576106a45f82610679565b600181019050610692565b5050565b601f8211156106f4576106c58161059f565b6106ce846105b1565b810160208510156106dd578190505b6106f16106e9856105b1565b830182610691565b50505b505050565b5f82821c905092915050565b5f6107145f19846008026106f9565b1980831691505092915050565b5f61072c8383610705565b9150826002028217905092915050565b61074582610538565b67ffffffffffffffff81111561075e5761075d6102a9565b5b610768825461056f565b6107738282856106b3565b5f60209050601f8311600181146107a4575f8415610792578287015190505b61079c8582610721565b865550610803565b601f1984166107b28661059f565b5f5b828110156107d9578489015182556001820191506020850194506020810190506107b4565b868310156107f657848901516107f2601f891682610705565b8355505b6001600288020188555050505b505050505050565b60805160a05160c05160e0516101005161012051614d416108755f395f610c5001525f8181610c970152610ce001525f8181610aa6015261135701525f8181610d29015261149401525f81816110b90152611a9d01525f818161133301526121290152614d415ff3fe60806040526004361061022f575f3560e01c80638da5cb5b1161012d578063e1604b70116100aa578063f264c5ab1161006e578063f264c5ab14610859578063f2fde38b14610881578063f9000ba8146108a9578063fb627a9a146108d1578063fc2917751461090d5761022f565b8063e1604b701461079d578063ec8a3cff146107c7578063ed01bf29146107dd578063ef430aa614610807578063f0c53996146108315761022f565b8063ba7efcdd116100f1578063ba7efcdd14610683578063c228995d146106ad578063ca7fad05146106e9578063cd585b3714610725578063cf44b2ef146107615761022f565b80638da5cb5b1461058d57806397281f6a146105b7578063a78d80fc146105f3578063abe709511461061d578063af640d0f146106595761022f565b80634cc3c712116101bb57806364390ff11161017f57806364390ff1146104bd5780636a29150e146104f9578063715018a6146105235780637284e4161461053957806378e97925146105635761022f565b80634cc3c712146103c35780634d2b1978146103ff5780634d853ee514610427578063553181ec1461045157806356a58ebf1461047b5761022f565b80631976f4a7116102025780631976f4a7146102cd5780632202ab691461030957806324e8ff4b146103335780633626bc611461035d5780633bd8e51e146103855761022f565b806304b43ca61461023357806306fdde031461025d5780630a8b7826146102875780630fb5a6b4146102a3575b5f80fd5b34801561023e575f80fd5b50610247610937565b60405161025491906123f8565b60405180910390f35b348015610268575f80fd5b506102716109c3565b60405161027e91906123f8565b60405180910390f35b6102a1600480360381019061029c9190612555565b610a4f565b005b3480156102ae575f80fd5b506102b7610c4e565b6040516102c491906125b4565b60405180910390f35b3480156102d8575f80fd5b506102f360048036038101906102ee91906125f7565b610c72565b604051610300919061263c565b60405180910390f35b348015610314575f80fd5b5061031d610c8f565b60405161032a91906125b4565b60405180910390f35b34801561033e575f80fd5b50610347610c95565b60405161035491906125b4565b60405180910390f35b348015610368575f80fd5b50610383600480360381019061037e919061267f565b610cb9565b005b348015610390575f80fd5b506103ab60048036038101906103a691906125f7565b610ee1565b6040516103ba93929190612724565b60405180910390f35b3480156103ce575f80fd5b506103e960048036038101906103e491906127c1565b611013565b6040516103f691906125b4565b60405180910390f35b34801561040a575f80fd5b50610425600480360381019061042091906127ec565b611028565b005b348015610432575f80fd5b5061043b6110b7565b6040516104489190612871565b60405180910390f35b34801561045c575f80fd5b506104656110db565b60405161047291906125b4565b60405180910390f35b348015610486575f80fd5b506104a1600480360381019061049c91906125f7565b6110e1565b6040516104b4979695949392919061288a565b60405180910390f35b3480156104c8575f80fd5b506104e360048036038101906104de91906128fe565b6111b1565b6040516104f0919061263c565b60405180910390f35b348015610504575f80fd5b5061050d611227565b60405161051a91906125b4565b60405180910390f35b34801561052e575f80fd5b5061053761122d565b005b348015610544575f80fd5b5061054d611240565b60405161055a91906123f8565b60405180910390f35b34801561056e575f80fd5b506105776112cc565b60405161058491906125b4565b60405180910390f35b348015610598575f80fd5b506105a16112d2565b6040516105ae9190612871565b60405180910390f35b3480156105c2575f80fd5b506105dd60048036038101906105d891906125f7565b6112f9565b6040516105ea919061263c565b60405180910390f35b3480156105fe575f80fd5b50610607611316565b60405161061491906125b4565b60405180910390f35b348015610628575f80fd5b50610643600480360381019061063e91906127c1565b61131c565b60405161065091906125b4565b60405180910390f35b348015610664575f80fd5b5061066d611331565b60405161067a91906125b4565b60405180910390f35b34801561068e575f80fd5b50610697611355565b6040516106a491906125b4565b60405180910390f35b3480156106b8575f80fd5b506106d360048036038101906106ce91906128fe565b611379565b6040516106e091906125b4565b60405180910390f35b3480156106f4575f80fd5b5061070f600480360381019061070a91906125f7565b6113a4565b60405161071c91906125b4565b60405180910390f35b348015610730575f80fd5b5061074b600480360381019061074691906125f7565b6113b9565b60405161075891906123f8565b60405180910390f35b34801561076c575f80fd5b50610787600480360381019061078291906125f7565b611454565b60405161079491906125b4565b60405180910390f35b3480156107a8575f80fd5b506107b1611469565b6040516107be91906125b4565b60405180910390f35b3480156107d2575f80fd5b506107db61146f565b005b3480156107e8575f80fd5b506107f1611492565b6040516107fe91906125b4565b60405180910390f35b348015610812575f80fd5b5061081b6114b6565b60405161082891906123f8565b60405180910390f35b34801561083c575f80fd5b50610857600480360381019061085291906125f7565b611542565b005b348015610864575f80fd5b5061087f600480360381019061087a919061293c565b6118fc565b005b34801561088c575f80fd5b506108a760048036038101906108a291906127c1565b611ac9565b005b3480156108b4575f80fd5b506108cf60048036038101906108ca9190612a23565b611b4d565b005b3480156108dc575f80fd5b506108f760048036038101906108f291906127c1565b611f79565b60405161090491906125b4565b60405180910390f35b348015610918575f80fd5b5061092161201a565b60405161092e91906125b4565b60405180910390f35b6002805461094490612aa0565b80601f016020809104026020016040519081016040528092919081815260200182805461097090612aa0565b80156109bb5780601f10610992576101008083540402835291602001916109bb565b820191905f5260205f20905b81548152906001019060200180831161099e57829003601f168201915b505050505081565b600180546109d090612aa0565b80601f01602080910402602001604051908101604052809291908181526020018280546109fc90612aa0565b8015610a475780601f10610a1e57610100808354040283529160200191610a47565b820191905f5260205f20905b815481529060010190602001808311610a2a57829003601f168201915b505050505081565b60011515600c5f9054906101000a900460ff16151514610aa4576040517f08c379a0000000000000000000000000000000000000000000000000000000008152600401610a9b90612b1a565b60405180910390fd5b7f0000000000000000000000000000000000000000000000000000000000000000341015610b07576040517f08c379a0000000000000000000000000000000000000000000000000000000008152600401610afe90612b82565b60405180910390fd5b5f3390505f60155f8373ffffffffffffffffffffffffffffffffffffffff1673ffffffffffffffffffffffffffffffffffffffff1681526020019081526020015f205414610ba7573460155f8373ffffffffffffffffffffffffffffffffffffffff1673ffffffffffffffffffffffffffffffffffffffff1681526020019081526020015f205f828254610b9b9190612bcd565b92505081905550610bf4565b610bb18282612020565b3460155f8373ffffffffffffffffffffffffffffffffffffffff1673ffffffffffffffffffffffffffffffffffffffff1681526020019081526020015f20819055505b3460035f828254610c059190612bcd565b925050819055506009547f5909eeae9d21e6fa8ac76ff35662ef4bf97b31cef31b127f4195177e1e2b8a83838334604051610c4293929190612c00565b60405180910390a25050565b7f000000000000000000000000000000000000000000000000000000000000000081565b6016602052805f5260405f205f915054906101000a900460ff1681565b60055481565b7f000000000000000000000000000000000000000000000000000000000000000081565b610cc1612187565b60011515600c5f9054906101000a900460ff161515148015610d0557507f000000000000000000000000000000000000000000000000000000000000000060035410155b8015610d20575083600b54600354610d1d9190612c3c565b10155b8015610d4c57507f00000000000000000000000000000000000000000000000000000000000000008411155b610d8b576040517f08c379a0000000000000000000000000000000000000000000000000000000008152600401610d8290612cb9565b60405180910390fd5b60085f815480929190610d9d90612cd7565b91905055505f6040518060e0016040528060085481526020018881526020018781526020018681526020014286610dd49190612bcd565b81526020014285610de59190612bcd565b815260200183151581525090508060115f60085481526020019081526020015f205f820151815f01556020820151816001019081610e239190612ebb565b5060408201518160020155606082015181600301556080820151816004015560a0820151816005015560c0820151816006015f6101000a81548160ff0219169083151502179055509050503373ffffffffffffffffffffffffffffffffffffffff163073ffffffffffffffffffffffffffffffffffffffff166008547f36ef39b15ae87208645c010139b1c8b7b25a358bb68989fefcc82b1e0754bcbd8a89604051610ed0929190612f8a565b60405180910390a450505050505050565b6018602052805f5260405f205f91509050805f015490806001018054610f0690612aa0565b80601f0160208091040260200160405190810160405280929190818152602001828054610f3290612aa0565b8015610f7d5780601f10610f5457610100808354040283529160200191610f7d565b820191905f5260205f20905b815481529060010190602001808311610f6057829003601f168201915b505050505090806002018054610f9290612aa0565b80601f0160208091040260200160405190810160405280929190818152602001828054610fbe90612aa0565b80156110095780601f10610fe057610100808354040283529160200191611009565b820191905f5260205f20905b815481529060010190602001808311610fec57829003601f168201915b5050505050905083565b6015602052805f5260405f205f915090505481565b611030612187565b600a5f81548092919061104290612cd7565b91905055505f6040518060600160405280600a5481526020018481526020018381525090508060185f600a5481526020019081526020015f205f820151815f015560208201518160010190816110989190612ebb565b5060408201518160020190816110ae9190612ebb565b50905050505050565b7f000000000000000000000000000000000000000000000000000000000000000081565b600a5481565b6011602052805f5260405f205f91509050805f01549080600101805461110690612aa0565b80601f016020809104026020016040519081016040528092919081815260200182805461113290612aa0565b801561117d5780601f106111545761010080835404028352916020019161117d565b820191905f5260205f20905b81548152906001019060200180831161116057829003601f168201915b505050505090806002015490806003015490806004015490806005015490806006015f9054906101000a900460ff16905087565b5f805f90505b60125f8481526020019081526020015f208054905081101561121c5760125f8481526020019081526020015f2081815481106111f6576111f5612fb8565b5b905f5260205f200154840361120f576001915050611221565b80806001019150506111b7565b505f90505b92915050565b600b5481565b611235612187565b61123e5f61220e565b565b6006805461124d90612aa0565b80601f016020809104026020016040519081016040528092919081815260200182805461127990612aa0565b80156112c45780601f1061129b576101008083540402835291602001916112c4565b820191905f5260205f20905b8154815290600101906020018083116112a757829003601f168201915b505050505081565b600d5481565b5f805f9054906101000a900473ffffffffffffffffffffffffffffffffffffffff16905090565b6017602052805f5260405f205f915054906101000a900460ff1681565b60085481565b6010602052805f5260405f205f915090505481565b7f000000000000000000000000000000000000000000000000000000000000000081565b7f000000000000000000000000000000000000000000000000000000000000000081565b6012602052815f5260405f208181548110611392575f80fd5b905f5260205f20015f91509150505481565b6014602052805f5260405f205f915090505481565b600f602052805f5260405f205f9150905080546113d590612aa0565b80601f016020809104026020016040519081016040528092919081815260200182805461140190612aa0565b801561144c5780601f106114235761010080835404028352916020019161144c565b820191905f5260205f20905b81548152906001019060200180831161142f57829003601f168201915b505050505081565b6013602052805f5260405f205f915090505481565b60095481565b611477612187565b5f600e5f6101000a81548160ff021916908315150217905550565b7f000000000000000000000000000000000000000000000000000000000000000081565b600780546114c390612aa0565b80601f01602080910402602001604051908101604052809291908181526020018280546114ef90612aa0565b801561153a5780601f106115115761010080835404028352916020019161153a565b820191905f5260205f20905b81548152906001019060200180831161151d57829003601f168201915b505050505081565b61154a612187565b60115f8281526020019081526020015f206005015442116115a0576040517f08c379a00000000000000000000000000000000000000000000000000000000081526004016115979061302f565b60405180910390fd5b60175f8281526020019081526020015f205f9054906101000a900460ff16156115fe576040517f08c379a00000000000000000000000000000000000000000000000000000000081526004016115f590613097565b60405180910390fd5b5f60135f8381526020019081526020015f205490505f60145f8481526020019081526020015f205490505f8183111561166357600160165f8681526020019081526020015f205f6101000a81548160ff0219169083151502179055506001905061168f565b5f60165f8681526020019081526020015f205f6101000a81548160ff0219169083151502179055505f90505b600160175f8681526020019081526020015f205f6101000a81548160ff021916908315150217905550837f238e6e88ec0ed597892e27040eff9b1bfc596838b3dc2d2c016e2b3a9c4bf658826040516116e8919061263c565b60405180910390a260011515811515036118f6575f60115f8681526020019081526020015f206040518060e00160405290815f820154815260200160018201805461173290612aa0565b80601f016020809104026020016040519081016040528092919081815260200182805461175e90612aa0565b80156117a95780601f10611780576101008083540402835291602001916117a9565b820191905f5260205f20905b81548152906001019060200180831161178c57829003601f168201915b5050505050815260200160028201548152602001600382015481526020016004820154815260200160058201548152602001600682015f9054906101000a900460ff1615151515815250509050478160600151111561183d576040517f08c379a000000000000000000000000000000000000000000000000000000000815260040161183490613125565b60405180910390fd5b3373ffffffffffffffffffffffffffffffffffffffff166108fc826060015190811502906040515f60405180830381858888f19350505050158015611884573d5f803e3d5ffd5b508060600151600b5f82825461189a9190612bcd565b925050819055503373ffffffffffffffffffffffffffffffffffffffff16857ff3b5906e5672f3e524854103bcafbbdba80dbdfeca2c35e116127b1060a6831883606001516040516118ec91906125b4565b60405180910390a3505b50505050565b611904612187565b5f1515600c5f9054906101000a900460ff16151514611958576040517f08c379a000000000000000000000000000000000000000000000000000000000815260040161194f9061318d565b60405180910390fd5b80600790816119679190612ebb565b5081600690816119779190612ebb565b506001600c5f6101000a81548160ff0219169083151502179055505f85856040516119a19061237b565b6119ac9291906131ab565b604051809103905ff0801580156119c5573d5f803e3d5ffd5b509050836005819055508060045f6101000a81548173ffffffffffffffffffffffffffffffffffffffff021916908373ffffffffffffffffffffffffffffffffffffffff160217905550611ac160028054611a1f90612aa0565b80601f0160208091040260200160405190810160405280929190818152602001828054611a4b90612aa0565b8015611a965780601f10611a6d57610100808354040283529160200191611a96565b820191905f5260205f20905b815481529060010190602001808311611a7957829003601f168201915b50505050507f0000000000000000000000000000000000000000000000000000000000000000612020565b505050505050565b611ad1612187565b5f73ffffffffffffffffffffffffffffffffffffffff168173ffffffffffffffffffffffffffffffffffffffff1603611b41575f6040517f1e4fbdf7000000000000000000000000000000000000000000000000000000008152600401611b389190612871565b60405180910390fd5b611b4a8161220e565b50565b5f339050611b5a816122cf565b611b99576040517f08c379a0000000000000000000000000000000000000000000000000000000008152600401611b909061322a565b60405180910390fd5b5f60105f8373ffffffffffffffffffffffffffffffffffffffff1673ffffffffffffffffffffffffffffffffffffffff1681526020019081526020015f2054905060115f8681526020019081526020015f206006015f9054906101000a900460ff1615611c5c57611c0a81866111b1565b158015611c1c5750611c1b826122cf565b5b611c5b576040517f08c379a0000000000000000000000000000000000000000000000000000000008152600401611c5290613292565b60405180910390fd5b5b5f60045f9054906101000a900473ffffffffffffffffffffffffffffffffffffffff169050848173ffffffffffffffffffffffffffffffffffffffff166370a08231856040518263ffffffff1660e01b8152600401611cbb9190612871565b602060405180830381865afa158015611cd6573d5f803e3d5ffd5b505050506040513d601f19601f82011682018060405250810190611cfa91906132c4565b1015611d3b576040517f08c379a0000000000000000000000000000000000000000000000000000000008152600401611d3290613339565b60405180910390fd5b60115f8781526020019081526020015f2060020154851115611d92576040517f08c379a0000000000000000000000000000000000000000000000000000000008152600401611d89906133a1565b60405180910390fd5b60115f8781526020019081526020015f20600401544210158015611dc9575060115f8781526020019081526020015f206005015442105b611e08576040517f08c379a0000000000000000000000000000000000000000000000000000000008152600401611dff90613409565b60405180910390fd5b5f611e1286612318565b90508173ffffffffffffffffffffffffffffffffffffffff166323b872dd3330670de0b6b3a76400008a611e469190613427565b6040518463ffffffff1660e01b8152600401611e6493929190613468565b6020604051808303815f875af1158015611e80573d5f803e3d5ffd5b505050506040513d601f19601f82011682018060405250810190611ea491906134b1565b508415611ed7578060135f8981526020019081526020015f205f828254611ecb9190612bcd565b92505081905550611eff565b8060145f8981526020019081526020015f205f828254611ef79190612bcd565b925050819055505b867f9e57ad86afa392f77963ff69647d8172f5b28565bf3c7520591acfc8ea579118848388604051611f33939291906134dc565b60405180910390a260125f8881526020019081526020015f2083908060018154018082558091505060019003905f5260205f20015f909190919091505550505050505050565b5f60045f9054906101000a900473ffffffffffffffffffffffffffffffffffffffff1673ffffffffffffffffffffffffffffffffffffffff166370a08231836040518263ffffffff1660e01b8152600401611fd49190612871565b602060405180830381865afa158015611fef573d5f803e3d5ffd5b505050506040513d601f19601f8201168201806040525081019061201391906132c4565b9050919050565b60035481565b60095f81548092919061203290612cd7565b919050555081600f5f60095481526020019081526020015f2090816120579190612ebb565b5060095460105f8373ffffffffffffffffffffffffffffffffffffffff1673ffffffffffffffffffffffffffffffffffffffff1681526020019081526020015f208190555060045f9054906101000a900473ffffffffffffffffffffffffffffffffffffffff1673ffffffffffffffffffffffffffffffffffffffff1663bec3fa17826005546040518363ffffffff1660e01b81526004016120fa929190613511565b5f604051808303815f87803b158015612111575f80fd5b505af1158015612123573d5f803e3d5ffd5b505050507f00000000000000000000000000000000000000000000000000000000000000007f91d8f88e2103e9fbf7b05234db8db9719fbb001942620d75ccb0fe36cc3d4e7e6009548360405161217b929190613538565b60405180910390a25050565b61218f612374565b73ffffffffffffffffffffffffffffffffffffffff166121ad6112d2565b73ffffffffffffffffffffffffffffffffffffffff161461220c576121d0612374565b6040517f118cdaa70000000000000000000000000000000000000000000000000000000081526004016122039190612871565b60405180910390fd5b565b5f805f9054906101000a900473ffffffffffffffffffffffffffffffffffffffff169050815f806101000a81548173ffffffffffffffffffffffffffffffffffffffff021916908373ffffffffffffffffffffffffffffffffffffffff1602179055508173ffffffffffffffffffffffffffffffffffffffff168173ffffffffffffffffffffffffffffffffffffffff167f8be0079c531659141344cd1fd0a4f28419497f9722a3daafe3b4186f6b6457e060405160405180910390a35050565b5f8060105f8473ffffffffffffffffffffffffffffffffffffffff1673ffffffffffffffffffffffffffffffffffffffff1681526020019081526020015f205414159050919050565b5f8060026001846123299190612bcd565b612333919061358c565b90508291505b8181101561236e578091506002818285612353919061358c565b61235d9190612bcd565b612367919061358c565b9050612339565b50919050565b5f33905090565b61174f806135bd83390190565b5f81519050919050565b5f82825260208201905092915050565b8281835e5f83830152505050565b5f601f19601f8301169050919050565b5f6123ca82612388565b6123d48185612392565b93506123e48185602086016123a2565b6123ed816123b0565b840191505092915050565b5f6020820190508181035f83015261241081846123c0565b905092915050565b5f604051905090565b5f80fd5b5f80fd5b5f80fd5b5f80fd5b7f4e487b71000000000000000000000000000000000000000000000000000000005f52604160045260245ffd5b612467826123b0565b810181811067ffffffffffffffff8211171561248657612485612431565b5b80604052505050565b5f612498612418565b90506124a4828261245e565b919050565b5f67ffffffffffffffff8211156124c3576124c2612431565b5b6124cc826123b0565b9050602081019050919050565b828183375f83830152505050565b5f6124f96124f4846124a9565b61248f565b9050828152602081018484840111156125155761251461242d565b5b6125208482856124d9565b509392505050565b5f82601f83011261253c5761253b612429565b5b813561254c8482602086016124e7565b91505092915050565b5f6020828403121561256a57612569612421565b5b5f82013567ffffffffffffffff81111561258757612586612425565b5b61259384828501612528565b91505092915050565b5f819050919050565b6125ae8161259c565b82525050565b5f6020820190506125c75f8301846125a5565b92915050565b6125d68161259c565b81146125e0575f80fd5b50565b5f813590506125f1816125cd565b92915050565b5f6020828403121561260c5761260b612421565b5b5f612619848285016125e3565b91505092915050565b5f8115159050919050565b61263681612622565b82525050565b5f60208201905061264f5f83018461262d565b92915050565b61265e81612622565b8114612668575f80fd5b50565b5f8135905061267981612655565b92915050565b5f805f805f8060c0878903121561269957612698612421565b5b5f87013567ffffffffffffffff8111156126b6576126b5612425565b5b6126c289828a01612528565b96505060206126d389828a016125e3565b95505060406126e489828a016125e3565b94505060606126f589828a016125e3565b935050608061270689828a016125e3565b92505060a061271789828a0161266b565b9150509295509295509295565b5f6060820190506127375f8301866125a5565b818103602083015261274981856123c0565b9050818103604083015261275d81846123c0565b9050949350505050565b5f73ffffffffffffffffffffffffffffffffffffffff82169050919050565b5f61279082612767565b9050919050565b6127a081612786565b81146127aa575f80fd5b50565b5f813590506127bb81612797565b92915050565b5f602082840312156127d6576127d5612421565b5b5f6127e3848285016127ad565b91505092915050565b5f806040838503121561280257612801612421565b5b5f83013567ffffffffffffffff81111561281f5761281e612425565b5b61282b85828601612528565b925050602083013567ffffffffffffffff81111561284c5761284b612425565b5b61285885828601612528565b9150509250929050565b61286b81612786565b82525050565b5f6020820190506128845f830184612862565b92915050565b5f60e08201905061289d5f83018a6125a5565b81810360208301526128af81896123c0565b90506128be60408301886125a5565b6128cb60608301876125a5565b6128d860808301866125a5565b6128e560a08301856125a5565b6128f260c083018461262d565b98975050505050505050565b5f806040838503121561291457612913612421565b5b5f612921858286016125e3565b9250506020612932858286016125e3565b9150509250929050565b5f805f805f60a0868803121561295557612954612421565b5b5f86013567ffffffffffffffff81111561297257612971612425565b5b61297e88828901612528565b955050602086013567ffffffffffffffff81111561299f5761299e612425565b5b6129ab88828901612528565b94505060406129bc888289016125e3565b935050606086013567ffffffffffffffff8111156129dd576129dc612425565b5b6129e988828901612528565b925050608086013567ffffffffffffffff811115612a0a57612a09612425565b5b612a1688828901612528565b9150509295509295909350565b5f805f60608486031215612a3a57612a39612421565b5b5f612a47868287016125e3565b9350506020612a58868287016125e3565b9250506040612a698682870161266b565b9150509250925092565b7f4e487b71000000000000000000000000000000000000000000000000000000005f52602260045260245ffd5b5f6002820490506001821680612ab757607f821691505b602082108103612aca57612ac9612a73565b5b50919050565b7f44616f206e6f74206372656174656400000000000000000000000000000000005f82015250565b5f612b04600f83612392565b9150612b0f82612ad0565b602082019050919050565b5f6020820190508181035f830152612b3181612af8565b9050919050565b7f4d6565742074686520696e766573746d656e74206c696d6974000000000000005f82015250565b5f612b6c601983612392565b9150612b7782612b38565b602082019050919050565b5f6020820190508181035f830152612b9981612b60565b9050919050565b7f4e487b71000000000000000000000000000000000000000000000000000000005f52601160045260245ffd5b5f612bd78261259c565b9150612be28361259c565b9250828201905080821115612bfa57612bf9612ba0565b5b92915050565b5f6060820190508181035f830152612c1881866123c0565b9050612c276020830185612862565b612c3460408301846125a5565b949350505050565b5f612c468261259c565b9150612c518361259c565b9250828203905081811115612c6957612c68612ba0565b5b92915050565b7f52656163682050726f706f73616c20436f6e646974696f6e00000000000000005f82015250565b5f612ca3601883612392565b9150612cae82612c6f565b602082019050919050565b5f6020820190508181035f830152612cd081612c97565b9050919050565b5f612ce18261259c565b91507fffffffffffffffffffffffffffffffffffffffffffffffffffffffffffffffff8203612d1357612d12612ba0565b5b600182019050919050565b5f819050815f5260205f209050919050565b5f6020601f8301049050919050565b5f82821b905092915050565b5f60088302612d7a7fffffffffffffffffffffffffffffffffffffffffffffffffffffffffffffffff82612d3f565b612d848683612d3f565b95508019841693508086168417925050509392505050565b5f819050919050565b5f612dbf612dba612db58461259c565b612d9c565b61259c565b9050919050565b5f819050919050565b612dd883612da5565b612dec612de482612dc6565b848454612d4b565b825550505050565b5f90565b612e00612df4565b612e0b818484612dcf565b505050565b5b81811015612e2e57612e235f82612df8565b600181019050612e11565b5050565b601f821115612e7357612e4481612d1e565b612e4d84612d30565b81016020851015612e5c578190505b612e70612e6885612d30565b830182612e10565b50505b505050565b5f82821c905092915050565b5f612e935f1984600802612e78565b1980831691505092915050565b5f612eab8383612e84565b9150826002028217905092915050565b612ec482612388565b67ffffffffffffffff811115612edd57612edc612431565b5b612ee78254612aa0565b612ef2828285612e32565b5f60209050601f831160018114612f23575f8415612f11578287015190505b612f1b8582612ea0565b865550612f82565b601f198416612f3186612d1e565b5f5b82811015612f5857848901518255600182019150602085019450602081019050612f33565b86831015612f755784890151612f71601f891682612e84565b8355505b6001600288020188555050505b505050505050565b5f6040820190508181035f830152612fa281856123c0565b9050612fb160208301846125a5565b9392505050565b7f4e487b71000000000000000000000000000000000000000000000000000000005f52603260045260245ffd5b7f566f74696e67206e6f7420656e646564000000000000000000000000000000005f82015250565b5f613019601083612392565b915061302482612fe5565b602082019050919050565b5f6020820190508181035f8301526130468161300d565b9050919050565b7f526573756c7420616c72656164792063616c63756c61746564000000000000005f82015250565b5f613081601983612392565b915061308c8261304d565b602082019050919050565b5f6020820190508181035f8301526130ae81613075565b9050919050565b7f50726f706f73616c206661696c6564206f7220696e73756666696369656e74205f8201527f62616c616e636500000000000000000000000000000000000000000000000000602082015250565b5f61310f602783612392565b915061311a826130b5565b604082019050919050565b5f6020820190508181035f83015261313c81613103565b9050919050565b7f44414f20616c72656164792063726561746564000000000000000000000000005f82015250565b5f613177601383612392565b915061318282613143565b602082019050919050565b5f6020820190508181035f8301526131a48161316b565b9050919050565b5f6040820190508181035f8301526131c381856123c0565b905081810360208301526131d781846123c0565b90509392505050565b7f4e6f7420612044414f206d656d626572000000000000000000000000000000005f82015250565b5f613214601083612392565b915061321f826131e0565b602082019050919050565b5f6020820190508181035f83015261324181613208565b9050919050565b7f416c726561647920766f746564000000000000000000000000000000000000005f82015250565b5f61327c600d83612392565b915061328782613248565b602082019050919050565b5f6020820190508181035f8301526132a981613270565b9050919050565b5f815190506132be816125cd565b92915050565b5f602082840312156132d9576132d8612421565b5b5f6132e6848285016132b0565b91505092915050565b7f496e73756666696369656e7420746f6b656e73000000000000000000000000005f82015250565b5f613323601383612392565b915061332e826132ef565b602082019050919050565b5f6020820190508181035f83015261335081613317565b9050919050565b7f45786365737320746f6b656e73000000000000000000000000000000000000005f82015250565b5f61338b600d83612392565b915061339682613357565b602082019050919050565b5f6020820190508181035f8301526133b88161337f565b9050919050565b7f566f74696e6720756e617661696c61626c6500000000000000000000000000005f82015250565b5f6133f3601283612392565b91506133fe826133bf565b602082019050919050565b5f6020820190508181035f830152613420816133e7565b9050919050565b5f6134318261259c565b915061343c8361259c565b925082820261344a8161259c565b9150828204841483151761346157613460612ba0565b5b5092915050565b5f60608201905061347b5f830186612862565b6134886020830185612862565b61349560408301846125a5565b949350505050565b5f815190506134ab81612655565b92915050565b5f602082840312156134c6576134c5612421565b5b5f6134d38482850161349d565b91505092915050565b5f6060820190506134ef5f8301866125a5565b6134fc60208301856125a5565b613509604083018461262d565b949350505050565b5f6040820190506135245f830185612862565b61353160208301846125a5565b9392505050565b5f60408201905061354b5f8301856125a5565b6135586020830184612862565b9392505050565b7f4e487b71000000000000000000000000000000000000000000000000000000005f52601260045260245ffd5b5f6135968261259c565b91506135a18361259c565b9250826135b1576135b061355f565b5b82820490509291505056fe60a060405234801561000f575f80fd5b5060405161174f38038061174f833981810160405281019061003191906101dd565b818181600390816100429190610460565b5080600490816100529190610460565b5050503373ffffffffffffffffffffffffffffffffffffffff1660808173ffffffffffffffffffffffffffffffffffffffff1681525050505061052f565b5f604051905090565b5f80fd5b5f80fd5b5f80fd5b5f80fd5b5f601f19601f8301169050919050565b7f4e487b71000000000000000000000000000000000000000000000000000000005f52604160045260245ffd5b6100ef826100a9565b810181811067ffffffffffffffff8211171561010e5761010d6100b9565b5b80604052505050565b5f610120610090565b905061012c82826100e6565b919050565b5f67ffffffffffffffff82111561014b5761014a6100b9565b5b610154826100a9565b9050602081019050919050565b8281835e5f83830152505050565b5f61018161017c84610131565b610117565b90508281526020810184848401111561019d5761019c6100a5565b5b6101a8848285610161565b509392505050565b5f82601f8301126101c4576101c36100a1565b5b81516101d484826020860161016f565b91505092915050565b5f80604083850312156101f3576101f2610099565b5b5f83015167ffffffffffffffff8111156102105761020f61009d565b5b61021c858286016101b0565b925050602083015167ffffffffffffffff81111561023d5761023c61009d565b5b610249858286016101b0565b9150509250929050565b5f81519050919050565b7f4e487b71000000000000000000000000000000000000000000000000000000005f52602260045260245ffd5b5f60028204905060018216806102a157607f821691505b6020821081036102b4576102b361025d565b5b50919050565b5f819050815f5260205f209050919050565b5f6020601f8301049050919050565b5f82821b905092915050565b5f600883026103167fffffffffffffffffffffffffffffffffffffffffffffffffffffffffffffffff826102db565b61032086836102db565b95508019841693508086168417925050509392505050565b5f819050919050565b5f819050919050565b5f61036461035f61035a84610338565b610341565b610338565b9050919050565b5f819050919050565b61037d8361034a565b6103916103898261036b565b8484546102e7565b825550505050565b5f90565b6103a5610399565b6103b0818484610374565b505050565b5b818110156103d3576103c85f8261039d565b6001810190506103b6565b5050565b601f821115610418576103e9816102ba565b6103f2846102cc565b81016020851015610401578190505b61041561040d856102cc565b8301826103b5565b50505b505050565b5f82821c905092915050565b5f6104385f198460080261041d565b1980831691505092915050565b5f6104508383610429565b9150826002028217905092915050565b61046982610253565b67ffffffffffffffff811115610482576104816100b9565b5b61048c825461028a565b6104978282856103d7565b5f60209050601f8311600181146104c8575f84156104b6578287015190505b6104c08582610445565b865550610527565b601f1984166104d6866102ba565b5f5b828110156104fd578489015182556001820191506020850194506020810190506104d8565b8683101561051a5784890151610516601f891682610429565b8355505b6001600288020188555050505b505050505050565b6080516111fa6105555f395f81816103400152818161045b01526104ed01526111fa5ff3fe608060405234801561000f575f80fd5b50600436106100a7575f3560e01c80633cf96af11161006f5780633cf96af11461016557806370a082311461018357806395d89b41146101b3578063a9059cbb146101d1578063bec3fa1714610201578063dd62ed3e1461021d576100a7565b806306fdde03146100ab578063095ea7b3146100c957806318160ddd146100f957806323b872dd14610117578063313ce56714610147575b5f80fd5b6100b361024d565b6040516100c09190610c51565b60405180910390f35b6100e360048036038101906100de9190610d02565b6102dd565b6040516100f09190610d5a565b60405180910390f35b6101016102ff565b60405161010e9190610d82565b60405180910390f35b610131600480360381019061012c9190610d9b565b610308565b60405161013e9190610d5a565b60405180910390f35b61014f610336565b60405161015c9190610e06565b60405180910390f35b61016d61033e565b60405161017a9190610e2e565b60405180910390f35b61019d60048036038101906101989190610e47565b610362565b6040516101aa9190610d82565b60405180910390f35b6101bb6103a7565b6040516101c89190610c51565b60405180910390f35b6101eb60048036038101906101e69190610d02565b610437565b6040516101f89190610d5a565b60405180910390f35b61021b60048036038101906102169190610d02565b610459565b005b61023760048036038101906102329190610e72565b61055c565b6040516102449190610d82565b60405180910390f35b60606003805461025c90610edd565b80601f016020809104026020016040519081016040528092919081815260200182805461028890610edd565b80156102d35780601f106102aa576101008083540402835291602001916102d3565b820191905f5260205f20905b8154815290600101906020018083116102b657829003601f168201915b5050505050905090565b5f806102e76105de565b90506102f48185856105e5565b600191505092915050565b5f600254905090565b5f806103126105de565b905061031f8582856105f7565b61032a85858561068a565b60019150509392505050565b5f6012905090565b7f000000000000000000000000000000000000000000000000000000000000000081565b5f805f8373ffffffffffffffffffffffffffffffffffffffff1673ffffffffffffffffffffffffffffffffffffffff1681526020019081526020015f20549050919050565b6060600480546103b690610edd565b80601f01602080910402602001604051908101604052809291908181526020018280546103e290610edd565b801561042d5780601f106104045761010080835404028352916020019161042d565b820191905f5260205f20905b81548152906001019060200180831161041057829003601f168201915b5050505050905090565b5f806104416105de565b905061044e81858561068a565b600191505092915050565b7f000000000000000000000000000000000000000000000000000000000000000073ffffffffffffffffffffffffffffffffffffffff163373ffffffffffffffffffffffffffffffffffffffff16146104e7576040517f08c379a00000000000000000000000000000000000000000000000000000000081526004016104de90610f57565b60405180910390fd5b610530827f0000000000000000000000000000000000000000000000000000000000000000610514610336565b600a61052091906110d1565b8461052b919061111b565b6105e5565b6105588261053c610336565b600a61054891906110d1565b83610553919061111b565b61077a565b5050565b5f60015f8473ffffffffffffffffffffffffffffffffffffffff1673ffffffffffffffffffffffffffffffffffffffff1681526020019081526020015f205f8373ffffffffffffffffffffffffffffffffffffffff1673ffffffffffffffffffffffffffffffffffffffff1681526020019081526020015f2054905092915050565b5f33905090565b6105f283838360016107f9565b505050565b5f610602848461055c565b90507fffffffffffffffffffffffffffffffffffffffffffffffffffffffffffffffff8110156106845781811015610675578281836040517ffb8f41b200000000000000000000000000000000000000000000000000000000815260040161066c9392919061115c565b60405180910390fd5b61068384848484035f6107f9565b5b50505050565b5f73ffffffffffffffffffffffffffffffffffffffff168373ffffffffffffffffffffffffffffffffffffffff16036106fa575f6040517f96c6fd1e0000000000000000000000000000000000000000000000000000000081526004016106f19190610e2e565b60405180910390fd5b5f73ffffffffffffffffffffffffffffffffffffffff168273ffffffffffffffffffffffffffffffffffffffff160361076a575f6040517fec442f050000000000000000000000000000000000000000000000000000000081526004016107619190610e2e565b60405180910390fd5b6107758383836109c8565b505050565b5f73ffffffffffffffffffffffffffffffffffffffff168273ffffffffffffffffffffffffffffffffffffffff16036107ea575f6040517fec442f050000000000000000000000000000000000000000000000000000000081526004016107e19190610e2e565b60405180910390fd5b6107f55f83836109c8565b5050565b5f73ffffffffffffffffffffffffffffffffffffffff168473ffffffffffffffffffffffffffffffffffffffff1603610869575f6040517fe602df050000000000000000000000000000000000000000000000000000000081526004016108609190610e2e565b60405180910390fd5b5f73ffffffffffffffffffffffffffffffffffffffff168373ffffffffffffffffffffffffffffffffffffffff16036108d9575f6040517f94280d620000000000000000000000000000000000000000000000000000000081526004016108d09190610e2e565b60405180910390fd5b8160015f8673ffffffffffffffffffffffffffffffffffffffff1673ffffffffffffffffffffffffffffffffffffffff1681526020019081526020015f205f8573ffffffffffffffffffffffffffffffffffffffff1673ffffffffffffffffffffffffffffffffffffffff1681526020019081526020015f208190555080156109c2578273ffffffffffffffffffffffffffffffffffffffff168473ffffffffffffffffffffffffffffffffffffffff167f8c5be1e5ebec7d5bd14f71427d1e84f3dd0314c0f7b2291e5b200ac8c7c3b925846040516109b99190610d82565b60405180910390a35b50505050565b5f73ffffffffffffffffffffffffffffffffffffffff168373ffffffffffffffffffffffffffffffffffffffff1603610a18578060025f828254610a0c9190611191565b92505081905550610ae6565b5f805f8573ffffffffffffffffffffffffffffffffffffffff1673ffffffffffffffffffffffffffffffffffffffff1681526020019081526020015f2054905081811015610aa1578381836040517fe450d38c000000000000000000000000000000000000000000000000000000008152600401610a989392919061115c565b60405180910390fd5b8181035f808673ffffffffffffffffffffffffffffffffffffffff1673ffffffffffffffffffffffffffffffffffffffff1681526020019081526020015f2081905550505b5f73ffffffffffffffffffffffffffffffffffffffff168273ffffffffffffffffffffffffffffffffffffffff1603610b2d578060025f8282540392505081905550610b77565b805f808473ffffffffffffffffffffffffffffffffffffffff1673ffffffffffffffffffffffffffffffffffffffff1681526020019081526020015f205f82825401925050819055505b8173ffffffffffffffffffffffffffffffffffffffff168373ffffffffffffffffffffffffffffffffffffffff167fddf252ad1be2c89b69c2b068fc378daa952ba7f163c4a11628f55a4df523b3ef83604051610bd49190610d82565b60405180910390a3505050565b5f81519050919050565b5f82825260208201905092915050565b8281835e5f83830152505050565b5f601f19601f8301169050919050565b5f610c2382610be1565b610c2d8185610beb565b9350610c3d818560208601610bfb565b610c4681610c09565b840191505092915050565b5f6020820190508181035f830152610c698184610c19565b905092915050565b5f80fd5b5f73ffffffffffffffffffffffffffffffffffffffff82169050919050565b5f610c9e82610c75565b9050919050565b610cae81610c94565b8114610cb8575f80fd5b50565b5f81359050610cc981610ca5565b92915050565b5f819050919050565b610ce181610ccf565b8114610ceb575f80fd5b50565b5f81359050610cfc81610cd8565b92915050565b5f8060408385031215610d1857610d17610c71565b5b5f610d2585828601610cbb565b9250506020610d3685828601610cee565b9150509250929050565b5f8115159050919050565b610d5481610d40565b82525050565b5f602082019050610d6d5f830184610d4b565b92915050565b610d7c81610ccf565b82525050565b5f602082019050610d955f830184610d73565b92915050565b5f805f60608486031215610db257610db1610c71565b5b5f610dbf86828701610cbb565b9350506020610dd086828701610cbb565b9250506040610de186828701610cee565b9150509250925092565b5f60ff82169050919050565b610e0081610deb565b82525050565b5f602082019050610e195f830184610df7565b92915050565b610e2881610c94565b82525050565b5f602082019050610e415f830184610e1f565b92915050565b5f60208284031215610e5c57610e5b610c71565b5b5f610e6984828501610cbb565b91505092915050565b5f8060408385031215610e8857610e87610c71565b5b5f610e9585828601610cbb565b9250506020610ea685828601610cbb565b9150509250929050565b7f4e487b71000000000000000000000000000000000000000000000000000000005f52602260045260245ffd5b5f6002820490506001821680610ef457607f821691505b602082108103610f0757610f06610eb0565b5b50919050565b7f6f6e6c792070726f6a65637400000000000000000000000000000000000000005f82015250565b5f610f41600c83610beb565b9150610f4c82610f0d565b602082019050919050565b5f6020820190508181035f830152610f6e81610f35565b9050919050565b7f4e487b71000000000000000000000000000000000000000000000000000000005f52601160045260245ffd5b5f8160011c9050919050565b5f808291508390505b6001851115610ff757808604811115610fd357610fd2610f75565b5b6001851615610fe25780820291505b8081029050610ff085610fa2565b9450610fb7565b94509492505050565b5f8261100f57600190506110ca565b8161101c575f90506110ca565b8160018114611032576002811461103c5761106b565b60019150506110ca565b60ff84111561104e5761104d610f75565b5b8360020a91508482111561106557611064610f75565b5b506110ca565b5060208310610133831016604e8410600b84101617156110a05782820a90508381111561109b5761109a610f75565b5b6110ca565b6110ad8484846001610fae565b925090508184048111156110c4576110c3610f75565b5b81810290505b9392505050565b5f6110db82610ccf565b91506110e683610deb565b92506111137fffffffffffffffffffffffffffffffffffffffffffffffffffffffffffffffff8484611000565b905092915050565b5f61112582610ccf565b915061113083610ccf565b925082820261113e81610ccf565b9150828204841483151761115557611154610f75565b5b5092915050565b5f60608201905061116f5f830186610e1f565b61117c6020830185610d73565b6111896040830184610d73565b949350505050565b5f61119b82610ccf565b91506111a683610ccf565b92508282019050808211156111be576111bd610f75565b5b9291505056fea26469706673582212209d84a90a154689f1da7d40288999c31f212d8bc323d1f29fdef7260bfc669d3564736f6c634300081a0033a26469706673582212204b5c51288a17bcd98636851e1c66c9f351917330bd21c91333581a0d674f563364736f6c634300081a0033a26469706673582212201fe350462f59d0db5c9267782a23f3fa767759b164464ea14136e5b6fda50e8a64736f6c634300081a0033",
			"opcodes": "PUSH1 0x80 PUSH1 0x40 MSTORE PUSH0 DUP1 SSTORE CALLVALUE DUP1 ISZERO PUSH1 0x11 JUMPI PUSH0 DUP1 REVERT JUMPDEST POP PUSH2 0x5EBF DUP1 PUSH2 0x1F PUSH0 CODECOPY PUSH0 RETURN INVALID PUSH1 0x80 PUSH1 0x40 MSTORE CALLVALUE DUP1 ISZERO PUSH2 0xF JUMPI PUSH0 DUP1 REVERT JUMPDEST POP PUSH1 0x4 CALLDATASIZE LT PUSH2 0x4A JUMPI PUSH0 CALLDATALOAD PUSH1 0xE0 SHR DUP1 PUSH4 0x4C956BF EQ PUSH2 0x4E JUMPI DUP1 PUSH4 0x19BA0B63 EQ PUSH2 0x6A JUMPI DUP1 PUSH4 0x2AD968D7 EQ PUSH2 0x88 JUMPI DUP1 PUSH4 0x303199DB EQ PUSH2 0xB8 JUMPI JUMPDEST PUSH0 DUP1 REVERT JUMPDEST PUSH2 0x68 PUSH1 0x4 DUP1 CALLDATASIZE SUB DUP2 ADD SWAP1 PUSH2 0x63 SWAP2 SWAP1 PUSH2 0x4A2 JUMP JUMPDEST PUSH2 0xE8 JUMP JUMPDEST STOP JUMPDEST PUSH2 0x72 PUSH2 0x2B0 JUMP JUMPDEST PUSH1 0x40 MLOAD PUSH2 0x7F SWAP2 SWAP1 PUSH2 0x572 JUMP JUMPDEST PUSH1 0x40 MLOAD DUP1 SWAP2 SUB SWAP1 RETURN JUMPDEST PUSH2 0xA2 PUSH1 0x4 DUP1 CALLDATASIZE SUB DUP2 ADD SWAP1 PUSH2 0x9D SWAP2 SWAP1 PUSH2 0x58B JUMP JUMPDEST PUSH2 0x2B8 JUMP JUMPDEST PUSH1 0x40 MLOAD PUSH2 0xAF SWAP2 SWAP1 PUSH2 0x572 JUMP JUMPDEST PUSH1 0x40 MLOAD DUP1 SWAP2 SUB SWAP1 RETURN JUMPDEST PUSH2 0xD2 PUSH1 0x4 DUP1 CALLDATASIZE SUB DUP2 ADD SWAP1 PUSH2 0xCD SWAP2 SWAP1 PUSH2 0x5D2 JUMP JUMPDEST PUSH2 0x2E5 JUMP JUMPDEST PUSH1 0x40 MLOAD PUSH2 0xDF SWAP2 SWAP1 PUSH2 0x63C JUMP JUMPDEST PUSH1 0x40 MLOAD DUP1 SWAP2 SUB SWAP1 RETURN JUMPDEST PUSH0 PUSH1 0x2 DUP8 PUSH1 0x40 MLOAD PUSH2 0xF9 SWAP2 SWAP1 PUSH2 0x6A7 JUMP JUMPDEST SWAP1 DUP2 MSTORE PUSH1 0x20 ADD PUSH1 0x40 MLOAD DUP1 SWAP2 SUB SWAP1 KECCAK256 SLOAD EQ PUSH2 0x148 JUMPI PUSH1 0x40 MLOAD PUSH32 0x8C379A000000000000000000000000000000000000000000000000000000000 DUP2 MSTORE PUSH1 0x4 ADD PUSH2 0x13F SWAP1 PUSH2 0x717 JUMP JUMPDEST PUSH1 0x40 MLOAD DUP1 SWAP2 SUB SWAP1 REVERT JUMPDEST DUP4 DUP2 LT DUP1 ISZERO PUSH2 0x156 JUMPI POP DUP4 DUP3 LT JUMPDEST PUSH2 0x195 JUMPI PUSH1 0x40 MLOAD PUSH32 0x8C379A000000000000000000000000000000000000000000000000000000000 DUP2 MSTORE PUSH1 0x4 ADD PUSH2 0x18C SWAP1 PUSH2 0x77F JUMP JUMPDEST PUSH1 0x40 MLOAD DUP1 SWAP2 SUB SWAP1 REVERT JUMPDEST PUSH0 DUP1 DUP2 SLOAD DUP1 SWAP3 SWAP2 SWAP1 PUSH2 0x1A6 SWAP1 PUSH2 0x7CA JUMP JUMPDEST SWAP2 SWAP1 POP SSTORE POP PUSH0 DUP1 SLOAD DUP8 DUP8 CALLER DUP9 DUP9 DUP9 DUP9 PUSH1 0x40 MLOAD PUSH2 0x1C1 SWAP1 PUSH2 0x315 JUMP JUMPDEST PUSH2 0x1D2 SWAP9 SWAP8 SWAP7 SWAP6 SWAP5 SWAP4 SWAP3 SWAP2 SWAP1 PUSH2 0x849 JUMP JUMPDEST PUSH1 0x40 MLOAD DUP1 SWAP2 SUB SWAP1 PUSH0 CREATE DUP1 ISZERO DUP1 ISZERO PUSH2 0x1EB JUMPI RETURNDATASIZE PUSH0 DUP1 RETURNDATACOPY RETURNDATASIZE PUSH0 REVERT JUMPDEST POP SWAP1 POP CALLER PUSH20 0xFFFFFFFFFFFFFFFFFFFFFFFFFFFFFFFFFFFFFFFF AND PUSH0 SLOAD PUSH32 0x63C92F9505D420BFF631CB9DF33BE952BDC11E2118DA36A850B43E6BCC4CE4DE PUSH1 0x40 MLOAD PUSH1 0x40 MLOAD DUP1 SWAP2 SUB SWAP1 LOG3 PUSH0 SLOAD PUSH1 0x2 DUP9 PUSH1 0x40 MLOAD PUSH2 0x245 SWAP2 SWAP1 PUSH2 0x6A7 JUMP JUMPDEST SWAP1 DUP2 MSTORE PUSH1 0x20 ADD PUSH1 0x40 MLOAD DUP1 SWAP2 SUB SWAP1 KECCAK256 DUP2 SWAP1 SSTORE POP DUP1 PUSH1 0x1 PUSH0 DUP1 SLOAD DUP2 MSTORE PUSH1 0x20 ADD SWAP1 DUP2 MSTORE PUSH1 0x20 ADD PUSH0 KECCAK256 PUSH0 PUSH2 0x100 EXP DUP2 SLOAD DUP2 PUSH20 0xFFFFFFFFFFFFFFFFFFFFFFFFFFFFFFFFFFFFFFFF MUL NOT AND SWAP1 DUP4 PUSH20 0xFFFFFFFFFFFFFFFFFFFFFFFFFFFFFFFFFFFFFFFF AND MUL OR SWAP1 SSTORE POP POP POP POP POP POP POP POP JUMP JUMPDEST PUSH0 DUP1 SLOAD SWAP1 POP SWAP1 JUMP JUMPDEST PUSH1 0x2 DUP2 DUP1 MLOAD PUSH1 0x20 DUP2 ADD DUP3 ADD DUP1 MLOAD DUP5 DUP3 MSTORE PUSH1 0x20 DUP4 ADD PUSH1 0x20 DUP6 ADD KECCAK256 DUP2 DUP4 MSTORE DUP1 SWAP6 POP POP POP POP POP POP PUSH0 SWAP2 POP SWAP1 POP SLOAD DUP2 JUMP JUMPDEST PUSH1 0x1 PUSH1 0x20 MSTORE DUP1 PUSH0 MSTORE PUSH1 0x40 PUSH0 KECCAK256 PUSH0 SWAP2 POP SLOAD SWAP1 PUSH2 0x100 EXP SWAP1 DIV PUSH20 0xFFFFFFFFFFFFFFFFFFFFFFFFFFFFFFFFFFFFFFFF AND DUP2 JUMP JUMPDEST PUSH2 0x55B6 DUP1 PUSH2 0x8D4 DUP4 CODECOPY ADD SWAP1 JUMP JUMPDEST PUSH0 PUSH1 0x40 MLOAD SWAP1 POP SWAP1 JUMP JUMPDEST PUSH0 DUP1 REVERT JUMPDEST PUSH0 DUP1 REVERT JUMPDEST PUSH0 DUP1 REVERT JUMPDEST PUSH0 DUP1 REVERT JUMPDEST PUSH0 PUSH1 0x1F NOT PUSH1 0x1F DUP4 ADD AND SWAP1 POP SWAP2 SWAP1 POP JUMP JUMPDEST PUSH32 0x4E487B7100000000000000000000000000000000000000000000000000000000 PUSH0 MSTORE PUSH1 0x41 PUSH1 0x4 MSTORE PUSH1 0x24 PUSH0 REVERT JUMPDEST PUSH2 0x381 DUP3 PUSH2 0x33B JUMP JUMPDEST DUP2 ADD DUP2 DUP2 LT PUSH8 0xFFFFFFFFFFFFFFFF DUP3 GT OR ISZERO PUSH2 0x3A0 JUMPI PUSH2 0x39F PUSH2 0x34B JUMP JUMPDEST JUMPDEST DUP1 PUSH1 0x40 MSTORE POP POP POP JUMP JUMPDEST PUSH0 PUSH2 0x3B2 PUSH2 0x322 JUMP JUMPDEST SWAP1 POP PUSH2 0x3BE DUP3 DUP3 PUSH2 0x378 JUMP JUMPDEST SWAP2 SWAP1 POP JUMP JUMPDEST PUSH0 PUSH8 0xFFFFFFFFFFFFFFFF DUP3 GT ISZERO PUSH2 0x3DD JUMPI PUSH2 0x3DC PUSH2 0x34B JUMP JUMPDEST JUMPDEST PUSH2 0x3E6 DUP3 PUSH2 0x33B JUMP JUMPDEST SWAP1 POP PUSH1 0x20 DUP2 ADD SWAP1 POP SWAP2 SWAP1 POP JUMP JUMPDEST DUP3 DUP2 DUP4 CALLDATACOPY PUSH0 DUP4 DUP4 ADD MSTORE POP POP POP JUMP JUMPDEST PUSH0 PUSH2 0x413 PUSH2 0x40E DUP5 PUSH2 0x3C3 JUMP JUMPDEST PUSH2 0x3A9 JUMP JUMPDEST SWAP1 POP DUP3 DUP2 MSTORE PUSH1 0x20 DUP2 ADD DUP5 DUP5 DUP5 ADD GT ISZERO PUSH2 0x42F JUMPI PUSH2 0x42E PUSH2 0x337 JUMP JUMPDEST JUMPDEST PUSH2 0x43A DUP5 DUP3 DUP6 PUSH2 0x3F3 JUMP JUMPDEST POP SWAP4 SWAP3 POP POP POP JUMP JUMPDEST PUSH0 DUP3 PUSH1 0x1F DUP4 ADD SLT PUSH2 0x456 JUMPI PUSH2 0x455 PUSH2 0x333 JUMP JUMPDEST JUMPDEST DUP2 CALLDATALOAD PUSH2 0x466 DUP5 DUP3 PUSH1 0x20 DUP7 ADD PUSH2 0x401 JUMP JUMPDEST SWAP2 POP POP SWAP3 SWAP2 POP POP JUMP JUMPDEST PUSH0 DUP2 SWAP1 POP SWAP2 SWAP1 POP JUMP JUMPDEST PUSH2 0x481 DUP2 PUSH2 0x46F JUMP JUMPDEST DUP2 EQ PUSH2 0x48B JUMPI PUSH0 DUP1 REVERT JUMPDEST POP JUMP JUMPDEST PUSH0 DUP2 CALLDATALOAD SWAP1 POP PUSH2 0x49C DUP2 PUSH2 0x478 JUMP JUMPDEST SWAP3 SWAP2 POP POP JUMP JUMPDEST PUSH0 DUP1 PUSH0 DUP1 PUSH0 DUP1 PUSH1 0xC0 DUP8 DUP10 SUB SLT ISZERO PUSH2 0x4BC JUMPI PUSH2 0x4BB PUSH2 0x32B JUMP JUMPDEST JUMPDEST PUSH0 DUP8 ADD CALLDATALOAD PUSH8 0xFFFFFFFFFFFFFFFF DUP2 GT ISZERO PUSH2 0x4D9 JUMPI PUSH2 0x4D8 PUSH2 0x32F JUMP JUMPDEST JUMPDEST PUSH2 0x4E5 DUP10 DUP3 DUP11 ADD PUSH2 0x442 JUMP JUMPDEST SWAP7 POP POP PUSH1 0x20 DUP8 ADD CALLDATALOAD PUSH8 0xFFFFFFFFFFFFFFFF DUP2 GT ISZERO PUSH2 0x506 JUMPI PUSH2 0x505 PUSH2 0x32F JUMP JUMPDEST JUMPDEST PUSH2 0x512 DUP10 DUP3 DUP11 ADD PUSH2 0x442 JUMP JUMPDEST SWAP6 POP POP PUSH1 0x40 PUSH2 0x523 DUP10 DUP3 DUP11 ADD PUSH2 0x48E JUMP JUMPDEST SWAP5 POP POP PUSH1 0x60 PUSH2 0x534 DUP10 DUP3 DUP11 ADD PUSH2 0x48E JUMP JUMPDEST SWAP4 POP POP PUSH1 0x80 PUSH2 0x545 DUP10 DUP3 DUP11 ADD PUSH2 0x48E JUMP JUMPDEST SWAP3 POP POP PUSH1 0xA0 PUSH2 0x556 DUP10 DUP3 DUP11 ADD PUSH2 0x48E JUMP JUMPDEST SWAP2 POP POP SWAP3 SWAP6 POP SWAP3 SWAP6 POP SWAP3 SWAP6 JUMP JUMPDEST PUSH2 0x56C DUP2 PUSH2 0x46F JUMP JUMPDEST DUP3 MSTORE POP POP JUMP JUMPDEST PUSH0 PUSH1 0x20 DUP3 ADD SWAP1 POP PUSH2 0x585 PUSH0 DUP4 ADD DUP5 PUSH2 0x563 JUMP JUMPDEST SWAP3 SWAP2 POP POP JUMP JUMPDEST PUSH0 PUSH1 0x20 DUP3 DUP5 SUB SLT ISZERO PUSH2 0x5A0 JUMPI PUSH2 0x59F PUSH2 0x32B JUMP JUMPDEST JUMPDEST PUSH0 DUP3 ADD CALLDATALOAD PUSH8 0xFFFFFFFFFFFFFFFF DUP2 GT ISZERO PUSH2 0x5BD JUMPI PUSH2 0x5BC PUSH2 0x32F JUMP JUMPDEST JUMPDEST PUSH2 0x5C9 DUP5 DUP3 DUP6 ADD PUSH2 0x442 JUMP JUMPDEST SWAP2 POP POP SWAP3 SWAP2 POP POP JUMP JUMPDEST PUSH0 PUSH1 0x20 DUP3 DUP5 SUB SLT ISZERO PUSH2 0x5E7 JUMPI PUSH2 0x5E6 PUSH2 0x32B JUMP JUMPDEST JUMPDEST PUSH0 PUSH2 0x5F4 DUP5 DUP3 DUP6 ADD PUSH2 0x48E JUMP JUMPDEST SWAP2 POP POP SWAP3 SWAP2 POP POP JUMP JUMPDEST PUSH0 PUSH20 0xFFFFFFFFFFFFFFFFFFFFFFFFFFFFFFFFFFFFFFFF DUP3 AND SWAP1 POP SWAP2 SWAP1 POP JUMP JUMPDEST PUSH0 PUSH2 0x626 DUP3 PUSH2 0x5FD JUMP JUMPDEST SWAP1 POP SWAP2 SWAP1 POP JUMP JUMPDEST PUSH2 0x636 DUP2 PUSH2 0x61C JUMP JUMPDEST DUP3 MSTORE POP POP JUMP JUMPDEST PUSH0 PUSH1 0x20 DUP3 ADD SWAP1 POP PUSH2 0x64F PUSH0 DUP4 ADD DUP5 PUSH2 0x62D JUMP JUMPDEST SWAP3 SWAP2 POP POP JUMP JUMPDEST PUSH0 DUP2 MLOAD SWAP1 POP SWAP2 SWAP1 POP JUMP JUMPDEST PUSH0 DUP2 SWAP1 POP SWAP3 SWAP2 POP POP JUMP JUMPDEST DUP3 DUP2 DUP4 MCOPY PUSH0 DUP4 DUP4 ADD MSTORE POP POP POP JUMP JUMPDEST PUSH0 PUSH2 0x681 DUP3 PUSH2 0x655 JUMP JUMPDEST PUSH2 0x68B DUP2 DUP6 PUSH2 0x65F JUMP JUMPDEST SWAP4 POP PUSH2 0x69B DUP2 DUP6 PUSH1 0x20 DUP7 ADD PUSH2 0x669 JUMP JUMPDEST DUP1 DUP5 ADD SWAP2 POP POP SWAP3 SWAP2 POP POP JUMP JUMPDEST PUSH0 PUSH2 0x6B2 DUP3 DUP5 PUSH2 0x677 JUMP JUMPDEST SWAP2 POP DUP2 SWAP1 POP SWAP3 SWAP2 POP POP JUMP JUMPDEST PUSH0 DUP3 DUP3 MSTORE PUSH1 0x20 DUP3 ADD SWAP1 POP SWAP3 SWAP2 POP POP JUMP JUMPDEST PUSH32 0x50726F6A65637420776974682074686973206E616D6520657869737473000000 PUSH0 DUP3 ADD MSTORE POP JUMP JUMPDEST PUSH0 PUSH2 0x701 PUSH1 0x1D DUP4 PUSH2 0x6BD JUMP JUMPDEST SWAP2 POP PUSH2 0x70C DUP3 PUSH2 0x6CD JUMP JUMPDEST PUSH1 0x20 DUP3 ADD SWAP1 POP SWAP2 SWAP1 POP JUMP JUMPDEST PUSH0 PUSH1 0x20 DUP3 ADD SWAP1 POP DUP2 DUP2 SUB PUSH0 DUP4 ADD MSTORE PUSH2 0x72E DUP2 PUSH2 0x6F5 JUMP JUMPDEST SWAP1 POP SWAP2 SWAP1 POP JUMP JUMPDEST PUSH32 0x4C696D69747320657863656564207468652070726F6A65637420627564676574 PUSH0 DUP3 ADD MSTORE POP JUMP JUMPDEST PUSH0 PUSH2 0x769 PUSH1 0x20 DUP4 PUSH2 0x6BD JUMP JUMPDEST SWAP2 POP PUSH2 0x774 DUP3 PUSH2 0x735 JUMP JUMPDEST PUSH1 0x20 DUP3 ADD SWAP1 POP SWAP2 SWAP1 POP JUMP JUMPDEST PUSH0 PUSH1 0x20 DUP3 ADD SWAP1 POP DUP2 DUP2 SUB PUSH0 DUP4 ADD MSTORE PUSH2 0x796 DUP2 PUSH2 0x75D JUMP JUMPDEST SWAP1 POP SWAP2 SWAP1 POP JUMP JUMPDEST PUSH32 0x4E487B7100000000000000000000000000000000000000000000000000000000 PUSH0 MSTORE PUSH1 0x11 PUSH1 0x4 MSTORE PUSH1 0x24 PUSH0 REVERT JUMPDEST PUSH0 PUSH2 0x7D4 DUP3 PUSH2 0x46F JUMP JUMPDEST SWAP2 POP PUSH32 0xFFFFFFFFFFFFFFFFFFFFFFFFFFFFFFFFFFFFFFFFFFFFFFFFFFFFFFFFFFFFFFFF DUP3 SUB PUSH2 0x806 JUMPI PUSH2 0x805 PUSH2 0x79D JUMP JUMPDEST JUMPDEST PUSH1 0x1 DUP3 ADD SWAP1 POP SWAP2 SWAP1 POP JUMP JUMPDEST PUSH0 PUSH2 0x81B DUP3 PUSH2 0x655 JUMP JUMPDEST PUSH2 0x825 DUP2 DUP6 PUSH2 0x6BD JUMP JUMPDEST SWAP4 POP PUSH2 0x835 DUP2 DUP6 PUSH1 0x20 DUP7 ADD PUSH2 0x669 JUMP JUMPDEST PUSH2 0x83E DUP2 PUSH2 0x33B JUMP JUMPDEST DUP5 ADD SWAP2 POP POP SWAP3 SWAP2 POP POP JUMP JUMPDEST PUSH0 PUSH2 0x100 DUP3 ADD SWAP1 POP PUSH2 0x85D PUSH0 DUP4 ADD DUP12 PUSH2 0x563 JUMP JUMPDEST DUP2 DUP2 SUB PUSH1 0x20 DUP4 ADD MSTORE PUSH2 0x86F DUP2 DUP11 PUSH2 0x811 JUMP JUMPDEST SWAP1 POP DUP2 DUP2 SUB PUSH1 0x40 DUP4 ADD MSTORE PUSH2 0x883 DUP2 DUP10 PUSH2 0x811 JUMP JUMPDEST SWAP1 POP PUSH2 0x892 PUSH1 0x60 DUP4 ADD DUP9 PUSH2 0x62D JUMP JUMPDEST PUSH2 0x89F PUSH1 0x80 DUP4 ADD DUP8 PUSH2 0x563 JUMP JUMPDEST PUSH2 0x8AC PUSH1 0xA0 DUP4 ADD DUP7 PUSH2 0x563 JUMP JUMPDEST PUSH2 0x8B9 PUSH1 0xC0 DUP4 ADD DUP6 PUSH2 0x563 JUMP JUMPDEST PUSH2 0x8C6 PUSH1 0xE0 DUP4 ADD DUP5 PUSH2 0x563 JUMP JUMPDEST SWAP10 SWAP9 POP POP POP POP POP POP POP POP POP JUMP INVALID PUSH2 0x140 PUSH1 0x40 MSTORE PUSH0 PUSH1 0x8 SSTORE PUSH0 PUSH1 0x9 SSTORE PUSH0 PUSH1 0xA SSTORE PUSH0 PUSH1 0xB SSTORE PUSH0 PUSH1 0xC PUSH0 PUSH2 0x100 EXP DUP2 SLOAD DUP2 PUSH1 0xFF MUL NOT AND SWAP1 DUP4 ISZERO ISZERO MUL OR SWAP1 SSTORE POP PUSH0 PUSH1 0xD SSTORE PUSH1 0x1 PUSH1 0xE PUSH0 PUSH2 0x100 EXP DUP2 SLOAD DUP2 PUSH1 0xFF MUL NOT AND SWAP1 DUP4 ISZERO ISZERO MUL OR SWAP1 SSTORE POP CALLVALUE DUP1 ISZERO PUSH2 0x57 JUMPI PUSH0 DUP1 REVERT JUMPDEST POP PUSH1 0x40 MLOAD PUSH2 0x55B6 CODESIZE SUB DUP1 PUSH2 0x55B6 DUP4 CODECOPY DUP2 DUP2 ADD PUSH1 0x40 MSTORE DUP2 ADD SWAP1 PUSH2 0x79 SWAP2 SWAP1 PUSH2 0x427 JUMP JUMPDEST DUP5 PUSH0 PUSH20 0xFFFFFFFFFFFFFFFFFFFFFFFFFFFFFFFFFFFFFFFF AND DUP2 PUSH20 0xFFFFFFFFFFFFFFFFFFFFFFFFFFFFFFFFFFFFFFFF AND SUB PUSH2 0xEA JUMPI PUSH0 PUSH1 0x40 MLOAD PUSH32 0x1E4FBDF700000000000000000000000000000000000000000000000000000000 DUP2 MSTORE PUSH1 0x4 ADD PUSH2 0xE1 SWAP2 SWAP1 PUSH2 0x51F JUMP JUMPDEST PUSH1 0x40 MLOAD DUP1 SWAP2 SUB SWAP1 REVERT JUMPDEST PUSH2 0xF9 DUP2 PUSH2 0x18C PUSH1 0x20 SHL PUSH1 0x20 SHR JUMP JUMPDEST POP DUP8 PUSH1 0x80 DUP2 DUP2 MSTORE POP POP DUP7 PUSH1 0x1 SWAP1 DUP2 PUSH2 0x111 SWAP2 SWAP1 PUSH2 0x73C JUMP JUMPDEST POP DUP6 PUSH1 0x2 SWAP1 DUP2 PUSH2 0x121 SWAP2 SWAP1 PUSH2 0x73C JUMP JUMPDEST POP DUP5 PUSH20 0xFFFFFFFFFFFFFFFFFFFFFFFFFFFFFFFFFFFFFFFF AND PUSH1 0xA0 DUP2 PUSH20 0xFFFFFFFFFFFFFFFFFFFFFFFFFFFFFFFFFFFFFFFF AND DUP2 MSTORE POP POP DUP4 PUSH1 0xC0 DUP2 DUP2 MSTORE POP POP DUP2 PUSH2 0x100 DUP2 DUP2 MSTORE POP POP DUP1 PUSH1 0xE0 DUP2 DUP2 MSTORE POP POP DUP3 PUSH2 0x120 DUP2 DUP2 MSTORE POP POP TIMESTAMP PUSH1 0xD DUP2 SWAP1 SSTORE POP POP POP POP POP POP POP POP POP PUSH2 0x80B JUMP JUMPDEST PUSH0 DUP1 PUSH0 SWAP1 SLOAD SWAP1 PUSH2 0x100 EXP SWAP1 DIV PUSH20 0xFFFFFFFFFFFFFFFFFFFFFFFFFFFFFFFFFFFFFFFF AND SWAP1 POP DUP2 PUSH0 DUP1 PUSH2 0x100 EXP DUP2 SLOAD DUP2 PUSH20 0xFFFFFFFFFFFFFFFFFFFFFFFFFFFFFFFFFFFFFFFF MUL NOT AND SWAP1 DUP4 PUSH20 0xFFFFFFFFFFFFFFFFFFFFFFFFFFFFFFFFFFFFFFFF AND MUL OR SWAP1 SSTORE POP DUP2 PUSH20 0xFFFFFFFFFFFFFFFFFFFFFFFFFFFFFFFFFFFFFFFF AND DUP2 PUSH20 0xFFFFFFFFFFFFFFFFFFFFFFFFFFFFFFFFFFFFFFFF AND PUSH32 0x8BE0079C531659141344CD1FD0A4F28419497F9722A3DAAFE3B4186F6B6457E0 PUSH1 0x40 MLOAD PUSH1 0x40 MLOAD DUP1 SWAP2 SUB SWAP1 LOG3 POP POP JUMP JUMPDEST PUSH0 PUSH1 0x40 MLOAD SWAP1 POP SWAP1 JUMP JUMPDEST PUSH0 DUP1 REVERT JUMPDEST PUSH0 DUP1 REVERT JUMPDEST PUSH0 DUP2 SWAP1 POP SWAP2 SWAP1 POP JUMP JUMPDEST PUSH2 0x270 DUP2 PUSH2 0x25E JUMP JUMPDEST DUP2 EQ PUSH2 0x27A JUMPI PUSH0 DUP1 REVERT JUMPDEST POP JUMP JUMPDEST PUSH0 DUP2 MLOAD SWAP1 POP PUSH2 0x28B DUP2 PUSH2 0x267 JUMP JUMPDEST SWAP3 SWAP2 POP POP JUMP JUMPDEST PUSH0 DUP1 REVERT JUMPDEST PUSH0 DUP1 REVERT JUMPDEST PUSH0 PUSH1 0x1F NOT PUSH1 0x1F DUP4 ADD AND SWAP1 POP SWAP2 SWAP1 POP JUMP JUMPDEST PUSH32 0x4E487B7100000000000000000000000000000000000000000000000000000000 PUSH0 MSTORE PUSH1 0x41 PUSH1 0x4 MSTORE PUSH1 0x24 PUSH0 REVERT JUMPDEST PUSH2 0x2DF DUP3 PUSH2 0x299 JUMP JUMPDEST DUP2 ADD DUP2 DUP2 LT PUSH8 0xFFFFFFFFFFFFFFFF DUP3 GT OR ISZERO PUSH2 0x2FE JUMPI PUSH2 0x2FD PUSH2 0x2A9 JUMP JUMPDEST JUMPDEST DUP1 PUSH1 0x40 MSTORE POP POP POP JUMP JUMPDEST PUSH0 PUSH2 0x310 PUSH2 0x24D JUMP JUMPDEST SWAP1 POP PUSH2 0x31C DUP3 DUP3 PUSH2 0x2D6 JUMP JUMPDEST SWAP2 SWAP1 POP JUMP JUMPDEST PUSH0 PUSH8 0xFFFFFFFFFFFFFFFF DUP3 GT ISZERO PUSH2 0x33B JUMPI PUSH2 0x33A PUSH2 0x2A9 JUMP JUMPDEST JUMPDEST PUSH2 0x344 DUP3 PUSH2 0x299 JUMP JUMPDEST SWAP1 POP PUSH1 0x20 DUP2 ADD SWAP1 POP SWAP2 SWAP1 POP JUMP JUMPDEST DUP3 DUP2 DUP4 MCOPY PUSH0 DUP4 DUP4 ADD MSTORE POP POP POP JUMP JUMPDEST PUSH0 PUSH2 0x371 PUSH2 0x36C DUP5 PUSH2 0x321 JUMP JUMPDEST PUSH2 0x307 JUMP JUMPDEST SWAP1 POP DUP3 DUP2 MSTORE PUSH1 0x20 DUP2 ADD DUP5 DUP5 DUP5 ADD GT ISZERO PUSH2 0x38D JUMPI PUSH2 0x38C PUSH2 0x295 JUMP JUMPDEST JUMPDEST PUSH2 0x398 DUP5 DUP3 DUP6 PUSH2 0x351 JUMP JUMPDEST POP SWAP4 SWAP3 POP POP POP JUMP JUMPDEST PUSH0 DUP3 PUSH1 0x1F DUP4 ADD SLT PUSH2 0x3B4 JUMPI PUSH2 0x3B3 PUSH2 0x291 JUMP JUMPDEST JUMPDEST DUP2 MLOAD PUSH2 0x3C4 DUP5 DUP3 PUSH1 0x20 DUP7 ADD PUSH2 0x35F JUMP JUMPDEST SWAP2 POP POP SWAP3 SWAP2 POP POP JUMP JUMPDEST PUSH0 PUSH20 0xFFFFFFFFFFFFFFFFFFFFFFFFFFFFFFFFFFFFFFFF DUP3 AND SWAP1 POP SWAP2 SWAP1 POP JUMP JUMPDEST PUSH0 PUSH2 0x3F6 DUP3 PUSH2 0x3CD JUMP JUMPDEST SWAP1 POP SWAP2 SWAP1 POP JUMP JUMPDEST PUSH2 0x406 DUP2 PUSH2 0x3EC JUMP JUMPDEST DUP2 EQ PUSH2 0x410 JUMPI PUSH0 DUP1 REVERT JUMPDEST POP JUMP JUMPDEST PUSH0 DUP2 MLOAD SWAP1 POP PUSH2 0x421 DUP2 PUSH2 0x3FD JUMP JUMPDEST SWAP3 SWAP2 POP POP JUMP JUMPDEST PUSH0 DUP1 PUSH0 DUP1 PUSH0 DUP1 PUSH0 DUP1 PUSH2 0x100 DUP10 DUP12 SUB SLT ISZERO PUSH2 0x444 JUMPI PUSH2 0x443 PUSH2 0x256 JUMP JUMPDEST JUMPDEST PUSH0 PUSH2 0x451 DUP12 DUP3 DUP13 ADD PUSH2 0x27D JUMP JUMPDEST SWAP9 POP POP PUSH1 0x20 DUP10 ADD MLOAD PUSH8 0xFFFFFFFFFFFFFFFF DUP2 GT ISZERO PUSH2 0x472 JUMPI PUSH2 0x471 PUSH2 0x25A JUMP JUMPDEST JUMPDEST PUSH2 0x47E DUP12 DUP3 DUP13 ADD PUSH2 0x3A0 JUMP JUMPDEST SWAP8 POP POP PUSH1 0x40 DUP10 ADD MLOAD PUSH8 0xFFFFFFFFFFFFFFFF DUP2 GT ISZERO PUSH2 0x49F JUMPI PUSH2 0x49E PUSH2 0x25A JUMP JUMPDEST JUMPDEST PUSH2 0x4AB DUP12 DUP3 DUP13 ADD PUSH2 0x3A0 JUMP JUMPDEST SWAP7 POP POP PUSH1 0x60 PUSH2 0x4BC DUP12 DUP3 DUP13 ADD PUSH2 0x413 JUMP JUMPDEST SWAP6 POP POP PUSH1 0x80 PUSH2 0x4CD DUP12 DUP3 DUP13 ADD PUSH2 0x27D JUMP JUMPDEST SWAP5 POP POP PUSH1 0xA0 PUSH2 0x4DE DUP12 DUP3 DUP13 ADD PUSH2 0x27D JUMP JUMPDEST SWAP4 POP POP PUSH1 0xC0 PUSH2 0x4EF DUP12 DUP3 DUP13 ADD PUSH2 0x27D JUMP JUMPDEST SWAP3 POP POP PUSH1 0xE0 PUSH2 0x500 DUP12 DUP3 DUP13 ADD PUSH2 0x27D JUMP JUMPDEST SWAP2 POP POP SWAP3 SWAP6 SWAP9 POP SWAP3 SWAP6 SWAP9 SWAP1 SWAP4 SWAP7 POP JUMP JUMPDEST PUSH2 0x519 DUP2 PUSH2 0x3EC JUMP JUMPDEST DUP3 MSTORE POP POP JUMP JUMPDEST PUSH0 PUSH1 0x20 DUP3 ADD SWAP1 POP PUSH2 0x532 PUSH0 DUP4 ADD DUP5 PUSH2 0x510 JUMP JUMPDEST SWAP3 SWAP2 POP POP JUMP JUMPDEST PUSH0 DUP2 MLOAD SWAP1 POP SWAP2 SWAP1 POP JUMP JUMPDEST PUSH32 0x4E487B7100000000000000000000000000000000000000000000000000000000 PUSH0 MSTORE PUSH1 0x22 PUSH1 0x4 MSTORE PUSH1 0x24 PUSH0 REVERT JUMPDEST PUSH0 PUSH1 0x2 DUP3 DIV SWAP1 POP PUSH1 0x1 DUP3 AND DUP1 PUSH2 0x586 JUMPI PUSH1 0x7F DUP3 AND SWAP2 POP JUMPDEST PUSH1 0x20 DUP3 LT DUP2 SUB PUSH2 0x599 JUMPI PUSH2 0x598 PUSH2 0x542 JUMP JUMPDEST JUMPDEST POP SWAP2 SWAP1 POP JUMP JUMPDEST PUSH0 DUP2 SWAP1 POP DUP2 PUSH0 MSTORE PUSH1 0x20 PUSH0 KECCAK256 SWAP1 POP SWAP2 SWAP1 POP JUMP JUMPDEST PUSH0 PUSH1 0x20 PUSH1 0x1F DUP4 ADD DIV SWAP1 POP SWAP2 SWAP1 POP JUMP JUMPDEST PUSH0 DUP3 DUP3 SHL SWAP1 POP SWAP3 SWAP2 POP POP JUMP JUMPDEST PUSH0 PUSH1 0x8 DUP4 MUL PUSH2 0x5FB PUSH32 0xFFFFFFFFFFFFFFFFFFFFFFFFFFFFFFFFFFFFFFFFFFFFFFFFFFFFFFFFFFFFFFFF DUP3 PUSH2 0x5C0 JUMP JUMPDEST PUSH2 0x605 DUP7 DUP4 PUSH2 0x5C0 JUMP JUMPDEST SWAP6 POP DUP1 NOT DUP5 AND SWAP4 POP DUP1 DUP7 AND DUP5 OR SWAP3 POP POP POP SWAP4 SWAP3 POP POP POP JUMP JUMPDEST PUSH0 DUP2 SWAP1 POP SWAP2 SWAP1 POP JUMP JUMPDEST PUSH0 PUSH2 0x640 PUSH2 0x63B PUSH2 0x636 DUP5 PUSH2 0x25E JUMP JUMPDEST PUSH2 0x61D JUMP JUMPDEST PUSH2 0x25E JUMP JUMPDEST SWAP1 POP SWAP2 SWAP1 POP JUMP JUMPDEST PUSH0 DUP2 SWAP1 POP SWAP2 SWAP1 POP JUMP JUMPDEST PUSH2 0x659 DUP4 PUSH2 0x626 JUMP JUMPDEST PUSH2 0x66D PUSH2 0x665 DUP3 PUSH2 0x647 JUMP JUMPDEST DUP5 DUP5 SLOAD PUSH2 0x5CC JUMP JUMPDEST DUP3 SSTORE POP POP POP POP JUMP JUMPDEST PUSH0 SWAP1 JUMP JUMPDEST PUSH2 0x681 PUSH2 0x675 JUMP JUMPDEST PUSH2 0x68C DUP2 DUP5 DUP5 PUSH2 0x650 JUMP JUMPDEST POP POP POP JUMP JUMPDEST JUMPDEST DUP2 DUP2 LT ISZERO PUSH2 0x6AF JUMPI PUSH2 0x6A4 PUSH0 DUP3 PUSH2 0x679 JUMP JUMPDEST PUSH1 0x1 DUP2 ADD SWAP1 POP PUSH2 0x692 JUMP JUMPDEST POP POP JUMP JUMPDEST PUSH1 0x1F DUP3 GT ISZERO PUSH2 0x6F4 JUMPI PUSH2 0x6C5 DUP2 PUSH2 0x59F JUMP JUMPDEST PUSH2 0x6CE DUP5 PUSH2 0x5B1 JUMP JUMPDEST DUP2 ADD PUSH1 0x20 DUP6 LT ISZERO PUSH2 0x6DD JUMPI DUP2 SWAP1 POP JUMPDEST PUSH2 0x6F1 PUSH2 0x6E9 DUP6 PUSH2 0x5B1 JUMP JUMPDEST DUP4 ADD DUP3 PUSH2 0x691 JUMP JUMPDEST POP POP JUMPDEST POP POP POP JUMP JUMPDEST PUSH0 DUP3 DUP3 SHR SWAP1 POP SWAP3 SWAP2 POP POP JUMP JUMPDEST PUSH0 PUSH2 0x714 PUSH0 NOT DUP5 PUSH1 0x8 MUL PUSH2 0x6F9 JUMP JUMPDEST NOT DUP1 DUP4 AND SWAP2 POP POP SWAP3 SWAP2 POP POP JUMP JUMPDEST PUSH0 PUSH2 0x72C DUP4 DUP4 PUSH2 0x705 JUMP JUMPDEST SWAP2 POP DUP3 PUSH1 0x2 MUL DUP3 OR SWAP1 POP SWAP3 SWAP2 POP POP JUMP JUMPDEST PUSH2 0x745 DUP3 PUSH2 0x538 JUMP JUMPDEST PUSH8 0xFFFFFFFFFFFFFFFF DUP2 GT ISZERO PUSH2 0x75E JUMPI PUSH2 0x75D PUSH2 0x2A9 JUMP JUMPDEST JUMPDEST PUSH2 0x768 DUP3 SLOAD PUSH2 0x56F JUMP JUMPDEST PUSH2 0x773 DUP3 DUP3 DUP6 PUSH2 0x6B3 JUMP JUMPDEST PUSH0 PUSH1 0x20 SWAP1 POP PUSH1 0x1F DUP4 GT PUSH1 0x1 DUP2 EQ PUSH2 0x7A4 JUMPI PUSH0 DUP5 ISZERO PUSH2 0x792 JUMPI DUP3 DUP8 ADD MLOAD SWAP1 POP JUMPDEST PUSH2 0x79C DUP6 DUP3 PUSH2 0x721 JUMP JUMPDEST DUP7 SSTORE POP PUSH2 0x803 JUMP JUMPDEST PUSH1 0x1F NOT DUP5 AND PUSH2 0x7B2 DUP7 PUSH2 0x59F JUMP JUMPDEST PUSH0 JUMPDEST DUP3 DUP2 LT ISZERO PUSH2 0x7D9 JUMPI DUP5 DUP10 ADD MLOAD DUP3 SSTORE PUSH1 0x1 DUP3 ADD SWAP2 POP PUSH1 0x20 DUP6 ADD SWAP5 POP PUSH1 0x20 DUP2 ADD SWAP1 POP PUSH2 0x7B4 JUMP JUMPDEST DUP7 DUP4 LT ISZERO PUSH2 0x7F6 JUMPI DUP5 DUP10 ADD MLOAD PUSH2 0x7F2 PUSH1 0x1F DUP10 AND DUP3 PUSH2 0x705 JUMP JUMPDEST DUP4 SSTORE POP JUMPDEST PUSH1 0x1 PUSH1 0x2 DUP9 MUL ADD DUP9 SSTORE POP POP POP JUMPDEST POP POP POP POP POP POP JUMP JUMPDEST PUSH1 0x80 MLOAD PUSH1 0xA0 MLOAD PUSH1 0xC0 MLOAD PUSH1 0xE0 MLOAD PUSH2 0x100 MLOAD PUSH2 0x120 MLOAD PUSH2 0x4D41 PUSH2 0x875 PUSH0 CODECOPY PUSH0 PUSH2 0xC50 ADD MSTORE PUSH0 DUP2 DUP2 PUSH2 0xC97 ADD MSTORE PUSH2 0xCE0 ADD MSTORE PUSH0 DUP2 DUP2 PUSH2 0xAA6 ADD MSTORE PUSH2 0x1357 ADD MSTORE PUSH0 DUP2 DUP2 PUSH2 0xD29 ADD MSTORE PUSH2 0x1494 ADD MSTORE PUSH0 DUP2 DUP2 PUSH2 0x10B9 ADD MSTORE PUSH2 0x1A9D ADD MSTORE PUSH0 DUP2 DUP2 PUSH2 0x1333 ADD MSTORE PUSH2 0x2129 ADD MSTORE PUSH2 0x4D41 PUSH0 RETURN INVALID PUSH1 0x80 PUSH1 0x40 MSTORE PUSH1 0x4 CALLDATASIZE LT PUSH2 0x22F JUMPI PUSH0 CALLDATALOAD PUSH1 0xE0 SHR DUP1 PUSH4 0x8DA5CB5B GT PUSH2 0x12D JUMPI DUP1 PUSH4 0xE1604B70 GT PUSH2 0xAA JUMPI DUP1 PUSH4 0xF264C5AB GT PUSH2 0x6E JUMPI DUP1 PUSH4 0xF264C5AB EQ PUSH2 0x859 JUMPI DUP1 PUSH4 0xF2FDE38B EQ PUSH2 0x881 JUMPI DUP1 PUSH4 0xF9000BA8 EQ PUSH2 0x8A9 JUMPI DUP1 PUSH4 0xFB627A9A EQ PUSH2 0x8D1 JUMPI DUP1 PUSH4 0xFC291775 EQ PUSH2 0x90D JUMPI PUSH2 0x22F JUMP JUMPDEST DUP1 PUSH4 0xE1604B70 EQ PUSH2 0x79D JUMPI DUP1 PUSH4 0xEC8A3CFF EQ PUSH2 0x7C7 JUMPI DUP1 PUSH4 0xED01BF29 EQ PUSH2 0x7DD JUMPI DUP1 PUSH4 0xEF430AA6 EQ PUSH2 0x807 JUMPI DUP1 PUSH4 0xF0C53996 EQ PUSH2 0x831 JUMPI PUSH2 0x22F JUMP JUMPDEST DUP1 PUSH4 0xBA7EFCDD GT PUSH2 0xF1 JUMPI DUP1 PUSH4 0xBA7EFCDD EQ PUSH2 0x683 JUMPI DUP1 PUSH4 0xC228995D EQ PUSH2 0x6AD JUMPI DUP1 PUSH4 0xCA7FAD05 EQ PUSH2 0x6E9 JUMPI DUP1 PUSH4 0xCD585B37 EQ PUSH2 0x725 JUMPI DUP1 PUSH4 0xCF44B2EF EQ PUSH2 0x761 JUMPI PUSH2 0x22F JUMP JUMPDEST DUP1 PUSH4 0x8DA5CB5B EQ PUSH2 0x58D JUMPI DUP1 PUSH4 0x97281F6A EQ PUSH2 0x5B7 JUMPI DUP1 PUSH4 0xA78D80FC EQ PUSH2 0x5F3 JUMPI DUP1 PUSH4 0xABE70951 EQ PUSH2 0x61D JUMPI DUP1 PUSH4 0xAF640D0F EQ PUSH2 0x659 JUMPI PUSH2 0x22F JUMP JUMPDEST DUP1 PUSH4 0x4CC3C712 GT PUSH2 0x1BB JUMPI DUP1 PUSH4 0x64390FF1 GT PUSH2 0x17F JUMPI DUP1 PUSH4 0x64390FF1 EQ PUSH2 0x4BD JUMPI DUP1 PUSH4 0x6A29150E EQ PUSH2 0x4F9 JUMPI DUP1 PUSH4 0x715018A6 EQ PUSH2 0x523 JUMPI DUP1 PUSH4 0x7284E416 EQ PUSH2 0x539 JUMPI DUP1 PUSH4 0x78E97925 EQ PUSH2 0x563 JUMPI PUSH2 0x22F JUMP JUMPDEST DUP1 PUSH4 0x4CC3C712 EQ PUSH2 0x3C3 JUMPI DUP1 PUSH4 0x4D2B1978 EQ PUSH2 0x3FF JUMPI DUP1 PUSH4 0x4D853EE5 EQ PUSH2 0x427 JUMPI DUP1 PUSH4 0x553181EC EQ PUSH2 0x451 JUMPI DUP1 PUSH4 0x56A58EBF EQ PUSH2 0x47B JUMPI PUSH2 0x22F JUMP JUMPDEST DUP1 PUSH4 0x1976F4A7 GT PUSH2 0x202 JUMPI DUP1 PUSH4 0x1976F4A7 EQ PUSH2 0x2CD JUMPI DUP1 PUSH4 0x2202AB69 EQ PUSH2 0x309 JUMPI DUP1 PUSH4 0x24E8FF4B EQ PUSH2 0x333 JUMPI DUP1 PUSH4 0x3626BC61 EQ PUSH2 0x35D JUMPI DUP1 PUSH4 0x3BD8E51E EQ PUSH2 0x385 JUMPI PUSH2 0x22F JUMP JUMPDEST DUP1 PUSH4 0x4B43CA6 EQ PUSH2 0x233 JUMPI DUP1 PUSH4 0x6FDDE03 EQ PUSH2 0x25D JUMPI DUP1 PUSH4 0xA8B7826 EQ PUSH2 0x287 JUMPI DUP1 PUSH4 0xFB5A6B4 EQ PUSH2 0x2A3 JUMPI JUMPDEST PUSH0 DUP1 REVERT JUMPDEST CALLVALUE DUP1 ISZERO PUSH2 0x23E JUMPI PUSH0 DUP1 REVERT JUMPDEST POP PUSH2 0x247 PUSH2 0x937 JUMP JUMPDEST PUSH1 0x40 MLOAD PUSH2 0x254 SWAP2 SWAP1 PUSH2 0x23F8 JUMP JUMPDEST PUSH1 0x40 MLOAD DUP1 SWAP2 SUB SWAP1 RETURN JUMPDEST CALLVALUE DUP1 ISZERO PUSH2 0x268 JUMPI PUSH0 DUP1 REVERT JUMPDEST POP PUSH2 0x271 PUSH2 0x9C3 JUMP JUMPDEST PUSH1 0x40 MLOAD PUSH2 0x27E SWAP2 SWAP1 PUSH2 0x23F8 JUMP JUMPDEST PUSH1 0x40 MLOAD DUP1 SWAP2 SUB SWAP1 RETURN JUMPDEST PUSH2 0x2A1 PUSH1 0x4 DUP1 CALLDATASIZE SUB DUP2 ADD SWAP1 PUSH2 0x29C SWAP2 SWAP1 PUSH2 0x2555 JUMP JUMPDEST PUSH2 0xA4F JUMP JUMPDEST STOP JUMPDEST CALLVALUE DUP1 ISZERO PUSH2 0x2AE JUMPI PUSH0 DUP1 REVERT JUMPDEST POP PUSH2 0x2B7 PUSH2 0xC4E JUMP JUMPDEST PUSH1 0x40 MLOAD PUSH2 0x2C4 SWAP2 SWAP1 PUSH2 0x25B4 JUMP JUMPDEST PUSH1 0x40 MLOAD DUP1 SWAP2 SUB SWAP1 RETURN JUMPDEST CALLVALUE DUP1 ISZERO PUSH2 0x2D8 JUMPI PUSH0 DUP1 REVERT JUMPDEST POP PUSH2 0x2F3 PUSH1 0x4 DUP1 CALLDATASIZE SUB DUP2 ADD SWAP1 PUSH2 0x2EE SWAP2 SWAP1 PUSH2 0x25F7 JUMP JUMPDEST PUSH2 0xC72 JUMP JUMPDEST PUSH1 0x40 MLOAD PUSH2 0x300 SWAP2 SWAP1 PUSH2 0x263C JUMP JUMPDEST PUSH1 0x40 MLOAD DUP1 SWAP2 SUB SWAP1 RETURN JUMPDEST CALLVALUE DUP1 ISZERO PUSH2 0x314 JUMPI PUSH0 DUP1 REVERT JUMPDEST POP PUSH2 0x31D PUSH2 0xC8F JUMP JUMPDEST PUSH1 0x40 MLOAD PUSH2 0x32A SWAP2 SWAP1 PUSH2 0x25B4 JUMP JUMPDEST PUSH1 0x40 MLOAD DUP1 SWAP2 SUB SWAP1 RETURN JUMPDEST CALLVALUE DUP1 ISZERO PUSH2 0x33E JUMPI PUSH0 DUP1 REVERT JUMPDEST POP PUSH2 0x347 PUSH2 0xC95 JUMP JUMPDEST PUSH1 0x40 MLOAD PUSH2 0x354 SWAP2 SWAP1 PUSH2 0x25B4 JUMP JUMPDEST PUSH1 0x40 MLOAD DUP1 SWAP2 SUB SWAP1 RETURN JUMPDEST CALLVALUE DUP1 ISZERO PUSH2 0x368 JUMPI PUSH0 DUP1 REVERT JUMPDEST POP PUSH2 0x383 PUSH1 0x4 DUP1 CALLDATASIZE SUB DUP2 ADD SWAP1 PUSH2 0x37E SWAP2 SWAP1 PUSH2 0x267F JUMP JUMPDEST PUSH2 0xCB9 JUMP JUMPDEST STOP JUMPDEST CALLVALUE DUP1 ISZERO PUSH2 0x390 JUMPI PUSH0 DUP1 REVERT JUMPDEST POP PUSH2 0x3AB PUSH1 0x4 DUP1 CALLDATASIZE SUB DUP2 ADD SWAP1 PUSH2 0x3A6 SWAP2 SWAP1 PUSH2 0x25F7 JUMP JUMPDEST PUSH2 0xEE1 JUMP JUMPDEST PUSH1 0x40 MLOAD PUSH2 0x3BA SWAP4 SWAP3 SWAP2 SWAP1 PUSH2 0x2724 JUMP JUMPDEST PUSH1 0x40 MLOAD DUP1 SWAP2 SUB SWAP1 RETURN JUMPDEST CALLVALUE DUP1 ISZERO PUSH2 0x3CE JUMPI PUSH0 DUP1 REVERT JUMPDEST POP PUSH2 0x3E9 PUSH1 0x4 DUP1 CALLDATASIZE SUB DUP2 ADD SWAP1 PUSH2 0x3E4 SWAP2 SWAP1 PUSH2 0x27C1 JUMP JUMPDEST PUSH2 0x1013 JUMP JUMPDEST PUSH1 0x40 MLOAD PUSH2 0x3F6 SWAP2 SWAP1 PUSH2 0x25B4 JUMP JUMPDEST PUSH1 0x40 MLOAD DUP1 SWAP2 SUB SWAP1 RETURN JUMPDEST CALLVALUE DUP1 ISZERO PUSH2 0x40A JUMPI PUSH0 DUP1 REVERT JUMPDEST POP PUSH2 0x425 PUSH1 0x4 DUP1 CALLDATASIZE SUB DUP2 ADD SWAP1 PUSH2 0x420 SWAP2 SWAP1 PUSH2 0x27EC JUMP JUMPDEST PUSH2 0x1028 JUMP JUMPDEST STOP JUMPDEST CALLVALUE DUP1 ISZERO PUSH2 0x432 JUMPI PUSH0 DUP1 REVERT JUMPDEST POP PUSH2 0x43B PUSH2 0x10B7 JUMP JUMPDEST PUSH1 0x40 MLOAD PUSH2 0x448 SWAP2 SWAP1 PUSH2 0x2871 JUMP JUMPDEST PUSH1 0x40 MLOAD DUP1 SWAP2 SUB SWAP1 RETURN JUMPDEST CALLVALUE DUP1 ISZERO PUSH2 0x45C JUMPI PUSH0 DUP1 REVERT JUMPDEST POP PUSH2 0x465 PUSH2 0x10DB JUMP JUMPDEST PUSH1 0x40 MLOAD PUSH2 0x472 SWAP2 SWAP1 PUSH2 0x25B4 JUMP JUMPDEST PUSH1 0x40 MLOAD DUP1 SWAP2 SUB SWAP1 RETURN JUMPDEST CALLVALUE DUP1 ISZERO PUSH2 0x486 JUMPI PUSH0 DUP1 REVERT JUMPDEST POP PUSH2 0x4A1 PUSH1 0x4 DUP1 CALLDATASIZE SUB DUP2 ADD SWAP1 PUSH2 0x49C SWAP2 SWAP1 PUSH2 0x25F7 JUMP JUMPDEST PUSH2 0x10E1 JUMP JUMPDEST PUSH1 0x40 MLOAD PUSH2 0x4B4 SWAP8 SWAP7 SWAP6 SWAP5 SWAP4 SWAP3 SWAP2 SWAP1 PUSH2 0x288A JUMP JUMPDEST PUSH1 0x40 MLOAD DUP1 SWAP2 SUB SWAP1 RETURN JUMPDEST CALLVALUE DUP1 ISZERO PUSH2 0x4C8 JUMPI PUSH0 DUP1 REVERT JUMPDEST POP PUSH2 0x4E3 PUSH1 0x4 DUP1 CALLDATASIZE SUB DUP2 ADD SWAP1 PUSH2 0x4DE SWAP2 SWAP1 PUSH2 0x28FE JUMP JUMPDEST PUSH2 0x11B1 JUMP JUMPDEST PUSH1 0x40 MLOAD PUSH2 0x4F0 SWAP2 SWAP1 PUSH2 0x263C JUMP JUMPDEST PUSH1 0x40 MLOAD DUP1 SWAP2 SUB SWAP1 RETURN JUMPDEST CALLVALUE DUP1 ISZERO PUSH2 0x504 JUMPI PUSH0 DUP1 REVERT JUMPDEST POP PUSH2 0x50D PUSH2 0x1227 JUMP JUMPDEST PUSH1 0x40 MLOAD PUSH2 0x51A SWAP2 SWAP1 PUSH2 0x25B4 JUMP JUMPDEST PUSH1 0x40 MLOAD DUP1 SWAP2 SUB SWAP1 RETURN JUMPDEST CALLVALUE DUP1 ISZERO PUSH2 0x52E JUMPI PUSH0 DUP1 REVERT JUMPDEST POP PUSH2 0x537 PUSH2 0x122D JUMP JUMPDEST STOP JUMPDEST CALLVALUE DUP1 ISZERO PUSH2 0x544 JUMPI PUSH0 DUP1 REVERT JUMPDEST POP PUSH2 0x54D PUSH2 0x1240 JUMP JUMPDEST PUSH1 0x40 MLOAD PUSH2 0x55A SWAP2 SWAP1 PUSH2 0x23F8 JUMP JUMPDEST PUSH1 0x40 MLOAD DUP1 SWAP2 SUB SWAP1 RETURN JUMPDEST CALLVALUE DUP1 ISZERO PUSH2 0x56E JUMPI PUSH0 DUP1 REVERT JUMPDEST POP PUSH2 0x577 PUSH2 0x12CC JUMP JUMPDEST PUSH1 0x40 MLOAD PUSH2 0x584 SWAP2 SWAP1 PUSH2 0x25B4 JUMP JUMPDEST PUSH1 0x40 MLOAD DUP1 SWAP2 SUB SWAP1 RETURN JUMPDEST CALLVALUE DUP1 ISZERO PUSH2 0x598 JUMPI PUSH0 DUP1 REVERT JUMPDEST POP PUSH2 0x5A1 PUSH2 0x12D2 JUMP JUMPDEST PUSH1 0x40 MLOAD PUSH2 0x5AE SWAP2 SWAP1 PUSH2 0x2871 JUMP JUMPDEST PUSH1 0x40 MLOAD DUP1 SWAP2 SUB SWAP1 RETURN JUMPDEST CALLVALUE DUP1 ISZERO PUSH2 0x5C2 JUMPI PUSH0 DUP1 REVERT JUMPDEST POP PUSH2 0x5DD PUSH1 0x4 DUP1 CALLDATASIZE SUB DUP2 ADD SWAP1 PUSH2 0x5D8 SWAP2 SWAP1 PUSH2 0x25F7 JUMP JUMPDEST PUSH2 0x12F9 JUMP JUMPDEST PUSH1 0x40 MLOAD PUSH2 0x5EA SWAP2 SWAP1 PUSH2 0x263C JUMP JUMPDEST PUSH1 0x40 MLOAD DUP1 SWAP2 SUB SWAP1 RETURN JUMPDEST CALLVALUE DUP1 ISZERO PUSH2 0x5FE JUMPI PUSH0 DUP1 REVERT JUMPDEST POP PUSH2 0x607 PUSH2 0x1316 JUMP JUMPDEST PUSH1 0x40 MLOAD PUSH2 0x614 SWAP2 SWAP1 PUSH2 0x25B4 JUMP JUMPDEST PUSH1 0x40 MLOAD DUP1 SWAP2 SUB SWAP1 RETURN JUMPDEST CALLVALUE DUP1 ISZERO PUSH2 0x628 JUMPI PUSH0 DUP1 REVERT JUMPDEST POP PUSH2 0x643 PUSH1 0x4 DUP1 CALLDATASIZE SUB DUP2 ADD SWAP1 PUSH2 0x63E SWAP2 SWAP1 PUSH2 0x27C1 JUMP JUMPDEST PUSH2 0x131C JUMP JUMPDEST PUSH1 0x40 MLOAD PUSH2 0x650 SWAP2 SWAP1 PUSH2 0x25B4 JUMP JUMPDEST PUSH1 0x40 MLOAD DUP1 SWAP2 SUB SWAP1 RETURN JUMPDEST CALLVALUE DUP1 ISZERO PUSH2 0x664 JUMPI PUSH0 DUP1 REVERT JUMPDEST POP PUSH2 0x66D PUSH2 0x1331 JUMP JUMPDEST PUSH1 0x40 MLOAD PUSH2 0x67A SWAP2 SWAP1 PUSH2 0x25B4 JUMP JUMPDEST PUSH1 0x40 MLOAD DUP1 SWAP2 SUB SWAP1 RETURN JUMPDEST CALLVALUE DUP1 ISZERO PUSH2 0x68E JUMPI PUSH0 DUP1 REVERT JUMPDEST POP PUSH2 0x697 PUSH2 0x1355 JUMP JUMPDEST PUSH1 0x40 MLOAD PUSH2 0x6A4 SWAP2 SWAP1 PUSH2 0x25B4 JUMP JUMPDEST PUSH1 0x40 MLOAD DUP1 SWAP2 SUB SWAP1 RETURN JUMPDEST CALLVALUE DUP1 ISZERO PUSH2 0x6B8 JUMPI PUSH0 DUP1 REVERT JUMPDEST POP PUSH2 0x6D3 PUSH1 0x4 DUP1 CALLDATASIZE SUB DUP2 ADD SWAP1 PUSH2 0x6CE SWAP2 SWAP1 PUSH2 0x28FE JUMP JUMPDEST PUSH2 0x1379 JUMP JUMPDEST PUSH1 0x40 MLOAD PUSH2 0x6E0 SWAP2 SWAP1 PUSH2 0x25B4 JUMP JUMPDEST PUSH1 0x40 MLOAD DUP1 SWAP2 SUB SWAP1 RETURN JUMPDEST CALLVALUE DUP1 ISZERO PUSH2 0x6F4 JUMPI PUSH0 DUP1 REVERT JUMPDEST POP PUSH2 0x70F PUSH1 0x4 DUP1 CALLDATASIZE SUB DUP2 ADD SWAP1 PUSH2 0x70A SWAP2 SWAP1 PUSH2 0x25F7 JUMP JUMPDEST PUSH2 0x13A4 JUMP JUMPDEST PUSH1 0x40 MLOAD PUSH2 0x71C SWAP2 SWAP1 PUSH2 0x25B4 JUMP JUMPDEST PUSH1 0x40 MLOAD DUP1 SWAP2 SUB SWAP1 RETURN JUMPDEST CALLVALUE DUP1 ISZERO PUSH2 0x730 JUMPI PUSH0 DUP1 REVERT JUMPDEST POP PUSH2 0x74B PUSH1 0x4 DUP1 CALLDATASIZE SUB DUP2 ADD SWAP1 PUSH2 0x746 SWAP2 SWAP1 PUSH2 0x25F7 JUMP JUMPDEST PUSH2 0x13B9 JUMP JUMPDEST PUSH1 0x40 MLOAD PUSH2 0x758 SWAP2 SWAP1 PUSH2 0x23F8 JUMP JUMPDEST PUSH1 0x40 MLOAD DUP1 SWAP2 SUB SWAP1 RETURN JUMPDEST CALLVALUE DUP1 ISZERO PUSH2 0x76C JUMPI PUSH0 DUP1 REVERT JUMPDEST POP PUSH2 0x787 PUSH1 0x4 DUP1 CALLDATASIZE SUB DUP2 ADD SWAP1 PUSH2 0x782 SWAP2 SWAP1 PUSH2 0x25F7 JUMP JUMPDEST PUSH2 0x1454 JUMP JUMPDEST PUSH1 0x40 MLOAD PUSH2 0x794 SWAP2 SWAP1 PUSH2 0x25B4 JUMP JUMPDEST PUSH1 0x40 MLOAD DUP1 SWAP2 SUB SWAP1 RETURN JUMPDEST CALLVALUE DUP1 ISZERO PUSH2 0x7A8 JUMPI PUSH0 DUP1 REVERT JUMPDEST POP PUSH2 0x7B1 PUSH2 0x1469 JUMP JUMPDEST PUSH1 0x40 MLOAD PUSH2 0x7BE SWAP2 SWAP1 PUSH2 0x25B4 JUMP JUMPDEST PUSH1 0x40 MLOAD DUP1 SWAP2 SUB SWAP1 RETURN JUMPDEST CALLVALUE DUP1 ISZERO PUSH2 0x7D2 JUMPI PUSH0 DUP1 REVERT JUMPDEST POP PUSH2 0x7DB PUSH2 0x146F JUMP JUMPDEST STOP JUMPDEST CALLVALUE DUP1 ISZERO PUSH2 0x7E8 JUMPI PUSH0 DUP1 REVERT JUMPDEST POP PUSH2 0x7F1 PUSH2 0x1492 JUMP JUMPDEST PUSH1 0x40 MLOAD PUSH2 0x7FE SWAP2 SWAP1 PUSH2 0x25B4 JUMP JUMPDEST PUSH1 0x40 MLOAD DUP1 SWAP2 SUB SWAP1 RETURN JUMPDEST CALLVALUE DUP1 ISZERO PUSH2 0x812 JUMPI PUSH0 DUP1 REVERT JUMPDEST POP PUSH2 0x81B PUSH2 0x14B6 JUMP JUMPDEST PUSH1 0x40 MLOAD PUSH2 0x828 SWAP2 SWAP1 PUSH2 0x23F8 JUMP JUMPDEST PUSH1 0x40 MLOAD DUP1 SWAP2 SUB SWAP1 RETURN JUMPDEST CALLVALUE DUP1 ISZERO PUSH2 0x83C JUMPI PUSH0 DUP1 REVERT JUMPDEST POP PUSH2 0x857 PUSH1 0x4 DUP1 CALLDATASIZE SUB DUP2 ADD SWAP1 PUSH2 0x852 SWAP2 SWAP1 PUSH2 0x25F7 JUMP JUMPDEST PUSH2 0x1542 JUMP JUMPDEST STOP JUMPDEST CALLVALUE DUP1 ISZERO PUSH2 0x864 JUMPI PUSH0 DUP1 REVERT JUMPDEST POP PUSH2 0x87F PUSH1 0x4 DUP1 CALLDATASIZE SUB DUP2 ADD SWAP1 PUSH2 0x87A SWAP2 SWAP1 PUSH2 0x293C JUMP JUMPDEST PUSH2 0x18FC JUMP JUMPDEST STOP JUMPDEST CALLVALUE DUP1 ISZERO PUSH2 0x88C JUMPI PUSH0 DUP1 REVERT JUMPDEST POP PUSH2 0x8A7 PUSH1 0x4 DUP1 CALLDATASIZE SUB DUP2 ADD SWAP1 PUSH2 0x8A2 SWAP2 SWAP1 PUSH2 0x27C1 JUMP JUMPDEST PUSH2 0x1AC9 JUMP JUMPDEST STOP JUMPDEST CALLVALUE DUP1 ISZERO PUSH2 0x8B4 JUMPI PUSH0 DUP1 REVERT JUMPDEST POP PUSH2 0x8CF PUSH1 0x4 DUP1 CALLDATASIZE SUB DUP2 ADD SWAP1 PUSH2 0x8CA SWAP2 SWAP1 PUSH2 0x2A23 JUMP JUMPDEST PUSH2 0x1B4D JUMP JUMPDEST STOP JUMPDEST CALLVALUE DUP1 ISZERO PUSH2 0x8DC JUMPI PUSH0 DUP1 REVERT JUMPDEST POP PUSH2 0x8F7 PUSH1 0x4 DUP1 CALLDATASIZE SUB DUP2 ADD SWAP1 PUSH2 0x8F2 SWAP2 SWAP1 PUSH2 0x27C1 JUMP JUMPDEST PUSH2 0x1F79 JUMP JUMPDEST PUSH1 0x40 MLOAD PUSH2 0x904 SWAP2 SWAP1 PUSH2 0x25B4 JUMP JUMPDEST PUSH1 0x40 MLOAD DUP1 SWAP2 SUB SWAP1 RETURN JUMPDEST CALLVALUE DUP1 ISZERO PUSH2 0x918 JUMPI PUSH0 DUP1 REVERT JUMPDEST POP PUSH2 0x921 PUSH2 0x201A JUMP JUMPDEST PUSH1 0x40 MLOAD PUSH2 0x92E SWAP2 SWAP1 PUSH2 0x25B4 JUMP JUMPDEST PUSH1 0x40 MLOAD DUP1 SWAP2 SUB SWAP1 RETURN JUMPDEST PUSH1 0x2 DUP1 SLOAD PUSH2 0x944 SWAP1 PUSH2 0x2AA0 JUMP JUMPDEST DUP1 PUSH1 0x1F ADD PUSH1 0x20 DUP1 SWAP2 DIV MUL PUSH1 0x20 ADD PUSH1 0x40 MLOAD SWAP1 DUP2 ADD PUSH1 0x40 MSTORE DUP1 SWAP3 SWAP2 SWAP1 DUP2 DUP2 MSTORE PUSH1 0x20 ADD DUP3 DUP1 SLOAD PUSH2 0x970 SWAP1 PUSH2 0x2AA0 JUMP JUMPDEST DUP1 ISZERO PUSH2 0x9BB JUMPI DUP1 PUSH1 0x1F LT PUSH2 0x992 JUMPI PUSH2 0x100 DUP1 DUP4 SLOAD DIV MUL DUP4 MSTORE SWAP2 PUSH1 0x20 ADD SWAP2 PUSH2 0x9BB JUMP JUMPDEST DUP3 ADD SWAP2 SWAP1 PUSH0 MSTORE PUSH1 0x20 PUSH0 KECCAK256 SWAP1 JUMPDEST DUP2 SLOAD DUP2 MSTORE SWAP1 PUSH1 0x1 ADD SWAP1 PUSH1 0x20 ADD DUP1 DUP4 GT PUSH2 0x99E JUMPI DUP3 SWAP1 SUB PUSH1 0x1F AND DUP3 ADD SWAP2 JUMPDEST POP POP POP POP POP DUP2 JUMP JUMPDEST PUSH1 0x1 DUP1 SLOAD PUSH2 0x9D0 SWAP1 PUSH2 0x2AA0 JUMP JUMPDEST DUP1 PUSH1 0x1F ADD PUSH1 0x20 DUP1 SWAP2 DIV MUL PUSH1 0x20 ADD PUSH1 0x40 MLOAD SWAP1 DUP2 ADD PUSH1 0x40 MSTORE DUP1 SWAP3 SWAP2 SWAP1 DUP2 DUP2 MSTORE PUSH1 0x20 ADD DUP3 DUP1 SLOAD PUSH2 0x9FC SWAP1 PUSH2 0x2AA0 JUMP JUMPDEST DUP1 ISZERO PUSH2 0xA47 JUMPI DUP1 PUSH1 0x1F LT PUSH2 0xA1E JUMPI PUSH2 0x100 DUP1 DUP4 SLOAD DIV MUL DUP4 MSTORE SWAP2 PUSH1 0x20 ADD SWAP2 PUSH2 0xA47 JUMP JUMPDEST DUP3 ADD SWAP2 SWAP1 PUSH0 MSTORE PUSH1 0x20 PUSH0 KECCAK256 SWAP1 JUMPDEST DUP2 SLOAD DUP2 MSTORE SWAP1 PUSH1 0x1 ADD SWAP1 PUSH1 0x20 ADD DUP1 DUP4 GT PUSH2 0xA2A JUMPI DUP3 SWAP1 SUB PUSH1 0x1F AND DUP3 ADD SWAP2 JUMPDEST POP POP POP POP POP DUP2 JUMP JUMPDEST PUSH1 0x1 ISZERO ISZERO PUSH1 0xC PUSH0 SWAP1 SLOAD SWAP1 PUSH2 0x100 EXP SWAP1 DIV PUSH1 0xFF AND ISZERO ISZERO EQ PUSH2 0xAA4 JUMPI PUSH1 0x40 MLOAD PUSH32 0x8C379A000000000000000000000000000000000000000000000000000000000 DUP2 MSTORE PUSH1 0x4 ADD PUSH2 0xA9B SWAP1 PUSH2 0x2B1A JUMP JUMPDEST PUSH1 0x40 MLOAD DUP1 SWAP2 SUB SWAP1 REVERT JUMPDEST PUSH32 0x0 CALLVALUE LT ISZERO PUSH2 0xB07 JUMPI PUSH1 0x40 MLOAD PUSH32 0x8C379A000000000000000000000000000000000000000000000000000000000 DUP2 MSTORE PUSH1 0x4 ADD PUSH2 0xAFE SWAP1 PUSH2 0x2B82 JUMP JUMPDEST PUSH1 0x40 MLOAD DUP1 SWAP2 SUB SWAP1 REVERT JUMPDEST PUSH0 CALLER SWAP1 POP PUSH0 PUSH1 0x15 PUSH0 DUP4 PUSH20 0xFFFFFFFFFFFFFFFFFFFFFFFFFFFFFFFFFFFFFFFF AND PUSH20 0xFFFFFFFFFFFFFFFFFFFFFFFFFFFFFFFFFFFFFFFF AND DUP2 MSTORE PUSH1 0x20 ADD SWAP1 DUP2 MSTORE PUSH1 0x20 ADD PUSH0 KECCAK256 SLOAD EQ PUSH2 0xBA7 JUMPI CALLVALUE PUSH1 0x15 PUSH0 DUP4 PUSH20 0xFFFFFFFFFFFFFFFFFFFFFFFFFFFFFFFFFFFFFFFF AND PUSH20 0xFFFFFFFFFFFFFFFFFFFFFFFFFFFFFFFFFFFFFFFF AND DUP2 MSTORE PUSH1 0x20 ADD SWAP1 DUP2 MSTORE PUSH1 0x20 ADD PUSH0 KECCAK256 PUSH0 DUP3 DUP3 SLOAD PUSH2 0xB9B SWAP2 SWAP1 PUSH2 0x2BCD JUMP JUMPDEST SWAP3 POP POP DUP2 SWAP1 SSTORE POP PUSH2 0xBF4 JUMP JUMPDEST PUSH2 0xBB1 DUP3 DUP3 PUSH2 0x2020 JUMP JUMPDEST CALLVALUE PUSH1 0x15 PUSH0 DUP4 PUSH20 0xFFFFFFFFFFFFFFFFFFFFFFFFFFFFFFFFFFFFFFFF AND PUSH20 0xFFFFFFFFFFFFFFFFFFFFFFFFFFFFFFFFFFFFFFFF AND DUP2 MSTORE PUSH1 0x20 ADD SWAP1 DUP2 MSTORE PUSH1 0x20 ADD PUSH0 KECCAK256 DUP2 SWAP1 SSTORE POP JUMPDEST CALLVALUE PUSH1 0x3 PUSH0 DUP3 DUP3 SLOAD PUSH2 0xC05 SWAP2 SWAP1 PUSH2 0x2BCD JUMP JUMPDEST SWAP3 POP POP DUP2 SWAP1 SSTORE POP PUSH1 0x9 SLOAD PUSH32 0x5909EEAE9D21E6FA8AC76FF35662EF4BF97B31CEF31B127F4195177E1E2B8A83 DUP4 DUP4 CALLVALUE PUSH1 0x40 MLOAD PUSH2 0xC42 SWAP4 SWAP3 SWAP2 SWAP1 PUSH2 0x2C00 JUMP JUMPDEST PUSH1 0x40 MLOAD DUP1 SWAP2 SUB SWAP1 LOG2 POP POP JUMP JUMPDEST PUSH32 0x0 DUP2 JUMP JUMPDEST PUSH1 0x16 PUSH1 0x20 MSTORE DUP1 PUSH0 MSTORE PUSH1 0x40 PUSH0 KECCAK256 PUSH0 SWAP2 POP SLOAD SWAP1 PUSH2 0x100 EXP SWAP1 DIV PUSH1 0xFF AND DUP2 JUMP JUMPDEST PUSH1 0x5 SLOAD DUP2 JUMP JUMPDEST PUSH32 0x0 DUP2 JUMP JUMPDEST PUSH2 0xCC1 PUSH2 0x2187 JUMP JUMPDEST PUSH1 0x1 ISZERO ISZERO PUSH1 0xC PUSH0 SWAP1 SLOAD SWAP1 PUSH2 0x100 EXP SWAP1 DIV PUSH1 0xFF AND ISZERO ISZERO EQ DUP1 ISZERO PUSH2 0xD05 JUMPI POP PUSH32 0x0 PUSH1 0x3 SLOAD LT ISZERO JUMPDEST DUP1 ISZERO PUSH2 0xD20 JUMPI POP DUP4 PUSH1 0xB SLOAD PUSH1 0x3 SLOAD PUSH2 0xD1D SWAP2 SWAP1 PUSH2 0x2C3C JUMP JUMPDEST LT ISZERO JUMPDEST DUP1 ISZERO PUSH2 0xD4C JUMPI POP PUSH32 0x0 DUP5 GT ISZERO JUMPDEST PUSH2 0xD8B JUMPI PUSH1 0x40 MLOAD PUSH32 0x8C379A000000000000000000000000000000000000000000000000000000000 DUP2 MSTORE PUSH1 0x4 ADD PUSH2 0xD82 SWAP1 PUSH2 0x2CB9 JUMP JUMPDEST PUSH1 0x40 MLOAD DUP1 SWAP2 SUB SWAP1 REVERT JUMPDEST PUSH1 0x8 PUSH0 DUP2 SLOAD DUP1 SWAP3 SWAP2 SWAP1 PUSH2 0xD9D SWAP1 PUSH2 0x2CD7 JUMP JUMPDEST SWAP2 SWAP1 POP SSTORE POP PUSH0 PUSH1 0x40 MLOAD DUP1 PUSH1 0xE0 ADD PUSH1 0x40 MSTORE DUP1 PUSH1 0x8 SLOAD DUP2 MSTORE PUSH1 0x20 ADD DUP9 DUP2 MSTORE PUSH1 0x20 ADD DUP8 DUP2 MSTORE PUSH1 0x20 ADD DUP7 DUP2 MSTORE PUSH1 0x20 ADD TIMESTAMP DUP7 PUSH2 0xDD4 SWAP2 SWAP1 PUSH2 0x2BCD JUMP JUMPDEST DUP2 MSTORE PUSH1 0x20 ADD TIMESTAMP DUP6 PUSH2 0xDE5 SWAP2 SWAP1 PUSH2 0x2BCD JUMP JUMPDEST DUP2 MSTORE PUSH1 0x20 ADD DUP4 ISZERO ISZERO DUP2 MSTORE POP SWAP1 POP DUP1 PUSH1 0x11 PUSH0 PUSH1 0x8 SLOAD DUP2 MSTORE PUSH1 0x20 ADD SWAP1 DUP2 MSTORE PUSH1 0x20 ADD PUSH0 KECCAK256 PUSH0 DUP3 ADD MLOAD DUP2 PUSH0 ADD SSTORE PUSH1 0x20 DUP3 ADD MLOAD DUP2 PUSH1 0x1 ADD SWAP1 DUP2 PUSH2 0xE23 SWAP2 SWAP1 PUSH2 0x2EBB JUMP JUMPDEST POP PUSH1 0x40 DUP3 ADD MLOAD DUP2 PUSH1 0x2 ADD SSTORE PUSH1 0x60 DUP3 ADD MLOAD DUP2 PUSH1 0x3 ADD SSTORE PUSH1 0x80 DUP3 ADD MLOAD DUP2 PUSH1 0x4 ADD SSTORE PUSH1 0xA0 DUP3 ADD MLOAD DUP2 PUSH1 0x5 ADD SSTORE PUSH1 0xC0 DUP3 ADD MLOAD DUP2 PUSH1 0x6 ADD PUSH0 PUSH2 0x100 EXP DUP2 SLOAD DUP2 PUSH1 0xFF MUL NOT AND SWAP1 DUP4 ISZERO ISZERO MUL OR SWAP1 SSTORE POP SWAP1 POP POP CALLER PUSH20 0xFFFFFFFFFFFFFFFFFFFFFFFFFFFFFFFFFFFFFFFF AND ADDRESS PUSH20 0xFFFFFFFFFFFFFFFFFFFFFFFFFFFFFFFFFFFFFFFF AND PUSH1 0x8 SLOAD PUSH32 0x36EF39B15AE87208645C010139B1C8B7B25A358BB68989FEFCC82B1E0754BCBD DUP11 DUP10 PUSH1 0x40 MLOAD PUSH2 0xED0 SWAP3 SWAP2 SWAP1 PUSH2 0x2F8A JUMP JUMPDEST PUSH1 0x40 MLOAD DUP1 SWAP2 SUB SWAP1 LOG4 POP POP POP POP POP POP POP JUMP JUMPDEST PUSH1 0x18 PUSH1 0x20 MSTORE DUP1 PUSH0 MSTORE PUSH1 0x40 PUSH0 KECCAK256 PUSH0 SWAP2 POP SWAP1 POP DUP1 PUSH0 ADD SLOAD SWAP1 DUP1 PUSH1 0x1 ADD DUP1 SLOAD PUSH2 0xF06 SWAP1 PUSH2 0x2AA0 JUMP JUMPDEST DUP1 PUSH1 0x1F ADD PUSH1 0x20 DUP1 SWAP2 DIV MUL PUSH1 0x20 ADD PUSH1 0x40 MLOAD SWAP1 DUP2 ADD PUSH1 0x40 MSTORE DUP1 SWAP3 SWAP2 SWAP1 DUP2 DUP2 MSTORE PUSH1 0x20 ADD DUP3 DUP1 SLOAD PUSH2 0xF32 SWAP1 PUSH2 0x2AA0 JUMP JUMPDEST DUP1 ISZERO PUSH2 0xF7D JUMPI DUP1 PUSH1 0x1F LT PUSH2 0xF54 JUMPI PUSH2 0x100 DUP1 DUP4 SLOAD DIV MUL DUP4 MSTORE SWAP2 PUSH1 0x20 ADD SWAP2 PUSH2 0xF7D JUMP JUMPDEST DUP3 ADD SWAP2 SWAP1 PUSH0 MSTORE PUSH1 0x20 PUSH0 KECCAK256 SWAP1 JUMPDEST DUP2 SLOAD DUP2 MSTORE SWAP1 PUSH1 0x1 ADD SWAP1 PUSH1 0x20 ADD DUP1 DUP4 GT PUSH2 0xF60 JUMPI DUP3 SWAP1 SUB PUSH1 0x1F AND DUP3 ADD SWAP2 JUMPDEST POP POP POP POP POP SWAP1 DUP1 PUSH1 0x2 ADD DUP1 SLOAD PUSH2 0xF92 SWAP1 PUSH2 0x2AA0 JUMP JUMPDEST DUP1 PUSH1 0x1F ADD PUSH1 0x20 DUP1 SWAP2 DIV MUL PUSH1 0x20 ADD PUSH1 0x40 MLOAD SWAP1 DUP2 ADD PUSH1 0x40 MSTORE DUP1 SWAP3 SWAP2 SWAP1 DUP2 DUP2 MSTORE PUSH1 0x20 ADD DUP3 DUP1 SLOAD PUSH2 0xFBE SWAP1 PUSH2 0x2AA0 JUMP JUMPDEST DUP1 ISZERO PUSH2 0x1009 JUMPI DUP1 PUSH1 0x1F LT PUSH2 0xFE0 JUMPI PUSH2 0x100 DUP1 DUP4 SLOAD DIV MUL DUP4 MSTORE SWAP2 PUSH1 0x20 ADD SWAP2 PUSH2 0x1009 JUMP JUMPDEST DUP3 ADD SWAP2 SWAP1 PUSH0 MSTORE PUSH1 0x20 PUSH0 KECCAK256 SWAP1 JUMPDEST DUP2 SLOAD DUP2 MSTORE SWAP1 PUSH1 0x1 ADD SWAP1 PUSH1 0x20 ADD DUP1 DUP4 GT PUSH2 0xFEC JUMPI DUP3 SWAP1 SUB PUSH1 0x1F AND DUP3 ADD SWAP2 JUMPDEST POP POP POP POP POP SWAP1 POP DUP4 JUMP JUMPDEST PUSH1 0x15 PUSH1 0x20 MSTORE DUP1 PUSH0 MSTORE PUSH1 0x40 PUSH0 KECCAK256 PUSH0 SWAP2 POP SWAP1 POP SLOAD DUP2 JUMP JUMPDEST PUSH2 0x1030 PUSH2 0x2187 JUMP JUMPDEST PUSH1 0xA PUSH0 DUP2 SLOAD DUP1 SWAP3 SWAP2 SWAP1 PUSH2 0x1042 SWAP1 PUSH2 0x2CD7 JUMP JUMPDEST SWAP2 SWAP1 POP SSTORE POP PUSH0 PUSH1 0x40 MLOAD DUP1 PUSH1 0x60 ADD PUSH1 0x40 MSTORE DUP1 PUSH1 0xA SLOAD DUP2 MSTORE PUSH1 0x20 ADD DUP5 DUP2 MSTORE PUSH1 0x20 ADD DUP4 DUP2 MSTORE POP SWAP1 POP DUP1 PUSH1 0x18 PUSH0 PUSH1 0xA SLOAD DUP2 MSTORE PUSH1 0x20 ADD SWAP1 DUP2 MSTORE PUSH1 0x20 ADD PUSH0 KECCAK256 PUSH0 DUP3 ADD MLOAD DUP2 PUSH0 ADD SSTORE PUSH1 0x20 DUP3 ADD MLOAD DUP2 PUSH1 0x1 ADD SWAP1 DUP2 PUSH2 0x1098 SWAP2 SWAP1 PUSH2 0x2EBB JUMP JUMPDEST POP PUSH1 0x40 DUP3 ADD MLOAD DUP2 PUSH1 0x2 ADD SWAP1 DUP2 PUSH2 0x10AE SWAP2 SWAP1 PUSH2 0x2EBB JUMP JUMPDEST POP SWAP1 POP POP POP POP POP JUMP JUMPDEST PUSH32 0x0 DUP2 JUMP JUMPDEST PUSH1 0xA SLOAD DUP2 JUMP JUMPDEST PUSH1 0x11 PUSH1 0x20 MSTORE DUP1 PUSH0 MSTORE PUSH1 0x40 PUSH0 KECCAK256 PUSH0 SWAP2 POP SWAP1 POP DUP1 PUSH0 ADD SLOAD SWAP1 DUP1 PUSH1 0x1 ADD DUP1 SLOAD PUSH2 0x1106 SWAP1 PUSH2 0x2AA0 JUMP JUMPDEST DUP1 PUSH1 0x1F ADD PUSH1 0x20 DUP1 SWAP2 DIV MUL PUSH1 0x20 ADD PUSH1 0x40 MLOAD SWAP1 DUP2 ADD PUSH1 0x40 MSTORE DUP1 SWAP3 SWAP2 SWAP1 DUP2 DUP2 MSTORE PUSH1 0x20 ADD DUP3 DUP1 SLOAD PUSH2 0x1132 SWAP1 PUSH2 0x2AA0 JUMP JUMPDEST DUP1 ISZERO PUSH2 0x117D JUMPI DUP1 PUSH1 0x1F LT PUSH2 0x1154 JUMPI PUSH2 0x100 DUP1 DUP4 SLOAD DIV MUL DUP4 MSTORE SWAP2 PUSH1 0x20 ADD SWAP2 PUSH2 0x117D JUMP JUMPDEST DUP3 ADD SWAP2 SWAP1 PUSH0 MSTORE PUSH1 0x20 PUSH0 KECCAK256 SWAP1 JUMPDEST DUP2 SLOAD DUP2 MSTORE SWAP1 PUSH1 0x1 ADD SWAP1 PUSH1 0x20 ADD DUP1 DUP4 GT PUSH2 0x1160 JUMPI DUP3 SWAP1 SUB PUSH1 0x1F AND DUP3 ADD SWAP2 JUMPDEST POP POP POP POP POP SWAP1 DUP1 PUSH1 0x2 ADD SLOAD SWAP1 DUP1 PUSH1 0x3 ADD SLOAD SWAP1 DUP1 PUSH1 0x4 ADD SLOAD SWAP1 DUP1 PUSH1 0x5 ADD SLOAD SWAP1 DUP1 PUSH1 0x6 ADD PUSH0 SWAP1 SLOAD SWAP1 PUSH2 0x100 EXP SWAP1 DIV PUSH1 0xFF AND SWAP1 POP DUP8 JUMP JUMPDEST PUSH0 DUP1 PUSH0 SWAP1 POP JUMPDEST PUSH1 0x12 PUSH0 DUP5 DUP2 MSTORE PUSH1 0x20 ADD SWAP1 DUP2 MSTORE PUSH1 0x20 ADD PUSH0 KECCAK256 DUP1 SLOAD SWAP1 POP DUP2 LT ISZERO PUSH2 0x121C JUMPI PUSH1 0x12 PUSH0 DUP5 DUP2 MSTORE PUSH1 0x20 ADD SWAP1 DUP2 MSTORE PUSH1 0x20 ADD PUSH0 KECCAK256 DUP2 DUP2 SLOAD DUP2 LT PUSH2 0x11F6 JUMPI PUSH2 0x11F5 PUSH2 0x2FB8 JUMP JUMPDEST JUMPDEST SWAP1 PUSH0 MSTORE PUSH1 0x20 PUSH0 KECCAK256 ADD SLOAD DUP5 SUB PUSH2 0x120F JUMPI PUSH1 0x1 SWAP2 POP POP PUSH2 0x1221 JUMP JUMPDEST DUP1 DUP1 PUSH1 0x1 ADD SWAP2 POP POP PUSH2 0x11B7 JUMP JUMPDEST POP PUSH0 SWAP1 POP JUMPDEST SWAP3 SWAP2 POP POP JUMP JUMPDEST PUSH1 0xB SLOAD DUP2 JUMP JUMPDEST PUSH2 0x1235 PUSH2 0x2187 JUMP JUMPDEST PUSH2 0x123E PUSH0 PUSH2 0x220E JUMP JUMPDEST JUMP JUMPDEST PUSH1 0x6 DUP1 SLOAD PUSH2 0x124D SWAP1 PUSH2 0x2AA0 JUMP JUMPDEST DUP1 PUSH1 0x1F ADD PUSH1 0x20 DUP1 SWAP2 DIV MUL PUSH1 0x20 ADD PUSH1 0x40 MLOAD SWAP1 DUP2 ADD PUSH1 0x40 MSTORE DUP1 SWAP3 SWAP2 SWAP1 DUP2 DUP2 MSTORE PUSH1 0x20 ADD DUP3 DUP1 SLOAD PUSH2 0x1279 SWAP1 PUSH2 0x2AA0 JUMP JUMPDEST DUP1 ISZERO PUSH2 0x12C4 JUMPI DUP1 PUSH1 0x1F LT PUSH2 0x129B JUMPI PUSH2 0x100 DUP1 DUP4 SLOAD DIV MUL DUP4 MSTORE SWAP2 PUSH1 0x20 ADD SWAP2 PUSH2 0x12C4 JUMP JUMPDEST DUP3 ADD SWAP2 SWAP1 PUSH0 MSTORE PUSH1 0x20 PUSH0 KECCAK256 SWAP1 JUMPDEST DUP2 SLOAD DUP2 MSTORE SWAP1 PUSH1 0x1 ADD SWAP1 PUSH1 0x20 ADD DUP1 DUP4 GT PUSH2 0x12A7 JUMPI DUP3 SWAP1 SUB PUSH1 0x1F AND DUP3 ADD SWAP2 JUMPDEST POP POP POP POP POP DUP2 JUMP JUMPDEST PUSH1 0xD SLOAD DUP2 JUMP JUMPDEST PUSH0 DUP1 PUSH0 SWAP1 SLOAD SWAP1 PUSH2 0x100 EXP SWAP1 DIV PUSH20 0xFFFFFFFFFFFFFFFFFFFFFFFFFFFFFFFFFFFFFFFF AND SWAP1 POP SWAP1 JUMP JUMPDEST PUSH1 0x17 PUSH1 0x20 MSTORE DUP1 PUSH0 MSTORE PUSH1 0x40 PUSH0 KECCAK256 PUSH0 SWAP2 POP SLOAD SWAP1 PUSH2 0x100 EXP SWAP1 DIV PUSH1 0xFF AND DUP2 JUMP JUMPDEST PUSH1 0x8 SLOAD DUP2 JUMP JUMPDEST PUSH1 0x10 PUSH1 0x20 MSTORE DUP1 PUSH0 MSTORE PUSH1 0x40 PUSH0 KECCAK256 PUSH0 SWAP2 POP SWAP1 POP SLOAD DUP2 JUMP JUMPDEST PUSH32 0x0 DUP2 JUMP JUMPDEST PUSH32 0x0 DUP2 JUMP JUMPDEST PUSH1 0x12 PUSH1 0x20 MSTORE DUP2 PUSH0 MSTORE PUSH1 0x40 PUSH0 KECCAK256 DUP2 DUP2 SLOAD DUP2 LT PUSH2 0x1392 JUMPI PUSH0 DUP1 REVERT JUMPDEST SWAP1 PUSH0 MSTORE PUSH1 0x20 PUSH0 KECCAK256 ADD PUSH0 SWAP2 POP SWAP2 POP POP SLOAD DUP2 JUMP JUMPDEST PUSH1 0x14 PUSH1 0x20 MSTORE DUP1 PUSH0 MSTORE PUSH1 0x40 PUSH0 KECCAK256 PUSH0 SWAP2 POP SWAP1 POP SLOAD DUP2 JUMP JUMPDEST PUSH1 0xF PUSH1 0x20 MSTORE DUP1 PUSH0 MSTORE PUSH1 0x40 PUSH0 KECCAK256 PUSH0 SWAP2 POP SWAP1 POP DUP1 SLOAD PUSH2 0x13D5 SWAP1 PUSH2 0x2AA0 JUMP JUMPDEST DUP1 PUSH1 0x1F ADD PUSH1 0x20 DUP1 SWAP2 DIV MUL PUSH1 0x20 ADD PUSH1 0x40 MLOAD SWAP1 DUP2 ADD PUSH1 0x40 MSTORE DUP1 SWAP3 SWAP2 SWAP1 DUP2 DUP2 MSTORE PUSH1 0x20 ADD DUP3 DUP1 SLOAD PUSH2 0x1401 SWAP1 PUSH2 0x2AA0 JUMP JUMPDEST DUP1 ISZERO PUSH2 0x144C JUMPI DUP1 PUSH1 0x1F LT PUSH2 0x1423 JUMPI PUSH2 0x100 DUP1 DUP4 SLOAD DIV MUL DUP4 MSTORE SWAP2 PUSH1 0x20 ADD SWAP2 PUSH2 0x144C JUMP JUMPDEST DUP3 ADD SWAP2 SWAP1 PUSH0 MSTORE PUSH1 0x20 PUSH0 KECCAK256 SWAP1 JUMPDEST DUP2 SLOAD DUP2 MSTORE SWAP1 PUSH1 0x1 ADD SWAP1 PUSH1 0x20 ADD DUP1 DUP4 GT PUSH2 0x142F JUMPI DUP3 SWAP1 SUB PUSH1 0x1F AND DUP3 ADD SWAP2 JUMPDEST POP POP POP POP POP DUP2 JUMP JUMPDEST PUSH1 0x13 PUSH1 0x20 MSTORE DUP1 PUSH0 MSTORE PUSH1 0x40 PUSH0 KECCAK256 PUSH0 SWAP2 POP SWAP1 POP SLOAD DUP2 JUMP JUMPDEST PUSH1 0x9 SLOAD DUP2 JUMP JUMPDEST PUSH2 0x1477 PUSH2 0x2187 JUMP JUMPDEST PUSH0 PUSH1 0xE PUSH0 PUSH2 0x100 EXP DUP2 SLOAD DUP2 PUSH1 0xFF MUL NOT AND SWAP1 DUP4 ISZERO ISZERO MUL OR SWAP1 SSTORE POP JUMP JUMPDEST PUSH32 0x0 DUP2 JUMP JUMPDEST PUSH1 0x7 DUP1 SLOAD PUSH2 0x14C3 SWAP1 PUSH2 0x2AA0 JUMP JUMPDEST DUP1 PUSH1 0x1F ADD PUSH1 0x20 DUP1 SWAP2 DIV MUL PUSH1 0x20 ADD PUSH1 0x40 MLOAD SWAP1 DUP2 ADD PUSH1 0x40 MSTORE DUP1 SWAP3 SWAP2 SWAP1 DUP2 DUP2 MSTORE PUSH1 0x20 ADD DUP3 DUP1 SLOAD PUSH2 0x14EF SWAP1 PUSH2 0x2AA0 JUMP JUMPDEST DUP1 ISZERO PUSH2 0x153A JUMPI DUP1 PUSH1 0x1F LT PUSH2 0x1511 JUMPI PUSH2 0x100 DUP1 DUP4 SLOAD DIV MUL DUP4 MSTORE SWAP2 PUSH1 0x20 ADD SWAP2 PUSH2 0x153A JUMP JUMPDEST DUP3 ADD SWAP2 SWAP1 PUSH0 MSTORE PUSH1 0x20 PUSH0 KECCAK256 SWAP1 JUMPDEST DUP2 SLOAD DUP2 MSTORE SWAP1 PUSH1 0x1 ADD SWAP1 PUSH1 0x20 ADD DUP1 DUP4 GT PUSH2 0x151D JUMPI DUP3 SWAP1 SUB PUSH1 0x1F AND DUP3 ADD SWAP2 JUMPDEST POP POP POP POP POP DUP2 JUMP JUMPDEST PUSH2 0x154A PUSH2 0x2187 JUMP JUMPDEST PUSH1 0x11 PUSH0 DUP3 DUP2 MSTORE PUSH1 0x20 ADD SWAP1 DUP2 MSTORE PUSH1 0x20 ADD PUSH0 KECCAK256 PUSH1 0x5 ADD SLOAD TIMESTAMP GT PUSH2 0x15A0 JUMPI PUSH1 0x40 MLOAD PUSH32 0x8C379A000000000000000000000000000000000000000000000000000000000 DUP2 MSTORE PUSH1 0x4 ADD PUSH2 0x1597 SWAP1 PUSH2 0x302F JUMP JUMPDEST PUSH1 0x40 MLOAD DUP1 SWAP2 SUB SWAP1 REVERT JUMPDEST PUSH1 0x17 PUSH0 DUP3 DUP2 MSTORE PUSH1 0x20 ADD SWAP1 DUP2 MSTORE PUSH1 0x20 ADD PUSH0 KECCAK256 PUSH0 SWAP1 SLOAD SWAP1 PUSH2 0x100 EXP SWAP1 DIV PUSH1 0xFF AND ISZERO PUSH2 0x15FE JUMPI PUSH1 0x40 MLOAD PUSH32 0x8C379A000000000000000000000000000000000000000000000000000000000 DUP2 MSTORE PUSH1 0x4 ADD PUSH2 0x15F5 SWAP1 PUSH2 0x3097 JUMP JUMPDEST PUSH1 0x40 MLOAD DUP1 SWAP2 SUB SWAP1 REVERT JUMPDEST PUSH0 PUSH1 0x13 PUSH0 DUP4 DUP2 MSTORE PUSH1 0x20 ADD SWAP1 DUP2 MSTORE PUSH1 0x20 ADD PUSH0 KECCAK256 SLOAD SWAP1 POP PUSH0 PUSH1 0x14 PUSH0 DUP5 DUP2 MSTORE PUSH1 0x20 ADD SWAP1 DUP2 MSTORE PUSH1 0x20 ADD PUSH0 KECCAK256 SLOAD SWAP1 POP PUSH0 DUP2 DUP4 GT ISZERO PUSH2 0x1663 JUMPI PUSH1 0x1 PUSH1 0x16 PUSH0 DUP7 DUP2 MSTORE PUSH1 0x20 ADD SWAP1 DUP2 MSTORE PUSH1 0x20 ADD PUSH0 KECCAK256 PUSH0 PUSH2 0x100 EXP DUP2 SLOAD DUP2 PUSH1 0xFF MUL NOT AND SWAP1 DUP4 ISZERO ISZERO MUL OR SWAP1 SSTORE POP PUSH1 0x1 SWAP1 POP PUSH2 0x168F JUMP JUMPDEST PUSH0 PUSH1 0x16 PUSH0 DUP7 DUP2 MSTORE PUSH1 0x20 ADD SWAP1 DUP2 MSTORE PUSH1 0x20 ADD PUSH0 KECCAK256 PUSH0 PUSH2 0x100 EXP DUP2 SLOAD DUP2 PUSH1 0xFF MUL NOT AND SWAP1 DUP4 ISZERO ISZERO MUL OR SWAP1 SSTORE POP PUSH0 SWAP1 POP JUMPDEST PUSH1 0x1 PUSH1 0x17 PUSH0 DUP7 DUP2 MSTORE PUSH1 0x20 ADD SWAP1 DUP2 MSTORE PUSH1 0x20 ADD PUSH0 KECCAK256 PUSH0 PUSH2 0x100 EXP DUP2 SLOAD DUP2 PUSH1 0xFF MUL NOT AND SWAP1 DUP4 ISZERO ISZERO MUL OR SWAP1 SSTORE POP DUP4 PUSH32 0x238E6E88EC0ED597892E27040EFF9B1BFC596838B3DC2D2C016E2B3A9C4BF658 DUP3 PUSH1 0x40 MLOAD PUSH2 0x16E8 SWAP2 SWAP1 PUSH2 0x263C JUMP JUMPDEST PUSH1 0x40 MLOAD DUP1 SWAP2 SUB SWAP1 LOG2 PUSH1 0x1 ISZERO ISZERO DUP2 ISZERO ISZERO SUB PUSH2 0x18F6 JUMPI PUSH0 PUSH1 0x11 PUSH0 DUP7 DUP2 MSTORE PUSH1 0x20 ADD SWAP1 DUP2 MSTORE PUSH1 0x20 ADD PUSH0 KECCAK256 PUSH1 0x40 MLOAD DUP1 PUSH1 0xE0 ADD PUSH1 0x40 MSTORE SWAP1 DUP2 PUSH0 DUP3 ADD SLOAD DUP2 MSTORE PUSH1 0x20 ADD PUSH1 0x1 DUP3 ADD DUP1 SLOAD PUSH2 0x1732 SWAP1 PUSH2 0x2AA0 JUMP JUMPDEST DUP1 PUSH1 0x1F ADD PUSH1 0x20 DUP1 SWAP2 DIV MUL PUSH1 0x20 ADD PUSH1 0x40 MLOAD SWAP1 DUP2 ADD PUSH1 0x40 MSTORE DUP1 SWAP3 SWAP2 SWAP1 DUP2 DUP2 MSTORE PUSH1 0x20 ADD DUP3 DUP1 SLOAD PUSH2 0x175E SWAP1 PUSH2 0x2AA0 JUMP JUMPDEST DUP1 ISZERO PUSH2 0x17A9 JUMPI DUP1 PUSH1 0x1F LT PUSH2 0x1780 JUMPI PUSH2 0x100 DUP1 DUP4 SLOAD DIV MUL DUP4 MSTORE SWAP2 PUSH1 0x20 ADD SWAP2 PUSH2 0x17A9 JUMP JUMPDEST DUP3 ADD SWAP2 SWAP1 PUSH0 MSTORE PUSH1 0x20 PUSH0 KECCAK256 SWAP1 JUMPDEST DUP2 SLOAD DUP2 MSTORE SWAP1 PUSH1 0x1 ADD SWAP1 PUSH1 0x20 ADD DUP1 DUP4 GT PUSH2 0x178C JUMPI DUP3 SWAP1 SUB PUSH1 0x1F AND DUP3 ADD SWAP2 JUMPDEST POP POP POP POP POP DUP2 MSTORE PUSH1 0x20 ADD PUSH1 0x2 DUP3 ADD SLOAD DUP2 MSTORE PUSH1 0x20 ADD PUSH1 0x3 DUP3 ADD SLOAD DUP2 MSTORE PUSH1 0x20 ADD PUSH1 0x4 DUP3 ADD SLOAD DUP2 MSTORE PUSH1 0x20 ADD PUSH1 0x5 DUP3 ADD SLOAD DUP2 MSTORE PUSH1 0x20 ADD PUSH1 0x6 DUP3 ADD PUSH0 SWAP1 SLOAD SWAP1 PUSH2 0x100 EXP SWAP1 DIV PUSH1 0xFF AND ISZERO ISZERO ISZERO ISZERO DUP2 MSTORE POP POP SWAP1 POP SELFBALANCE DUP2 PUSH1 0x60 ADD MLOAD GT ISZERO PUSH2 0x183D JUMPI PUSH1 0x40 MLOAD PUSH32 0x8C379A000000000000000000000000000000000000000000000000000000000 DUP2 MSTORE PUSH1 0x4 ADD PUSH2 0x1834 SWAP1 PUSH2 0x3125 JUMP JUMPDEST PUSH1 0x40 MLOAD DUP1 SWAP2 SUB SWAP1 REVERT JUMPDEST CALLER PUSH20 0xFFFFFFFFFFFFFFFFFFFFFFFFFFFFFFFFFFFFFFFF AND PUSH2 0x8FC DUP3 PUSH1 0x60 ADD MLOAD SWAP1 DUP2 ISZERO MUL SWAP1 PUSH1 0x40 MLOAD PUSH0 PUSH1 0x40 MLOAD DUP1 DUP4 SUB DUP2 DUP6 DUP9 DUP9 CALL SWAP4 POP POP POP POP ISZERO DUP1 ISZERO PUSH2 0x1884 JUMPI RETURNDATASIZE PUSH0 DUP1 RETURNDATACOPY RETURNDATASIZE PUSH0 REVERT JUMPDEST POP DUP1 PUSH1 0x60 ADD MLOAD PUSH1 0xB PUSH0 DUP3 DUP3 SLOAD PUSH2 0x189A SWAP2 SWAP1 PUSH2 0x2BCD JUMP JUMPDEST SWAP3 POP POP DUP2 SWAP1 SSTORE POP CALLER PUSH20 0xFFFFFFFFFFFFFFFFFFFFFFFFFFFFFFFFFFFFFFFF AND DUP6 PUSH32 0xF3B5906E5672F3E524854103BCAFBBDBA80DBDFECA2C35E116127B1060A68318 DUP4 PUSH1 0x60 ADD MLOAD PUSH1 0x40 MLOAD PUSH2 0x18EC SWAP2 SWAP1 PUSH2 0x25B4 JUMP JUMPDEST PUSH1 0x40 MLOAD DUP1 SWAP2 SUB SWAP1 LOG3 POP JUMPDEST POP POP POP POP JUMP JUMPDEST PUSH2 0x1904 PUSH2 0x2187 JUMP JUMPDEST PUSH0 ISZERO ISZERO PUSH1 0xC PUSH0 SWAP1 SLOAD SWAP1 PUSH2 0x100 EXP SWAP1 DIV PUSH1 0xFF AND ISZERO ISZERO EQ PUSH2 0x1958 JUMPI PUSH1 0x40 MLOAD PUSH32 0x8C379A000000000000000000000000000000000000000000000000000000000 DUP2 MSTORE PUSH1 0x4 ADD PUSH2 0x194F SWAP1 PUSH2 0x318D JUMP JUMPDEST PUSH1 0x40 MLOAD DUP1 SWAP2 SUB SWAP1 REVERT JUMPDEST DUP1 PUSH1 0x7 SWAP1 DUP2 PUSH2 0x1967 SWAP2 SWAP1 PUSH2 0x2EBB JUMP JUMPDEST POP DUP2 PUSH1 0x6 SWAP1 DUP2 PUSH2 0x1977 SWAP2 SWAP1 PUSH2 0x2EBB JUMP JUMPDEST POP PUSH1 0x1 PUSH1 0xC PUSH0 PUSH2 0x100 EXP DUP2 SLOAD DUP2 PUSH1 0xFF MUL NOT AND SWAP1 DUP4 ISZERO ISZERO MUL OR SWAP1 SSTORE POP PUSH0 DUP6 DUP6 PUSH1 0x40 MLOAD PUSH2 0x19A1 SWAP1 PUSH2 0x237B JUMP JUMPDEST PUSH2 0x19AC SWAP3 SWAP2 SWAP1 PUSH2 0x31AB JUMP JUMPDEST PUSH1 0x40 MLOAD DUP1 SWAP2 SUB SWAP1 PUSH0 CREATE DUP1 ISZERO DUP1 ISZERO PUSH2 0x19C5 JUMPI RETURNDATASIZE PUSH0 DUP1 RETURNDATACOPY RETURNDATASIZE PUSH0 REVERT JUMPDEST POP SWAP1 POP DUP4 PUSH1 0x5 DUP2 SWAP1 SSTORE POP DUP1 PUSH1 0x4 PUSH0 PUSH2 0x100 EXP DUP2 SLOAD DUP2 PUSH20 0xFFFFFFFFFFFFFFFFFFFFFFFFFFFFFFFFFFFFFFFF MUL NOT AND SWAP1 DUP4 PUSH20 0xFFFFFFFFFFFFFFFFFFFFFFFFFFFFFFFFFFFFFFFF AND MUL OR SWAP1 SSTORE POP PUSH2 0x1AC1 PUSH1 0x2 DUP1 SLOAD PUSH2 0x1A1F SWAP1 PUSH2 0x2AA0 JUMP JUMPDEST DUP1 PUSH1 0x1F ADD PUSH1 0x20 DUP1 SWAP2 DIV MUL PUSH1 0x20 ADD PUSH1 0x40 MLOAD SWAP1 DUP2 ADD PUSH1 0x40 MSTORE DUP1 SWAP3 SWAP2 SWAP1 DUP2 DUP2 MSTORE PUSH1 0x20 ADD DUP3 DUP1 SLOAD PUSH2 0x1A4B SWAP1 PUSH2 0x2AA0 JUMP JUMPDEST DUP1 ISZERO PUSH2 0x1A96 JUMPI DUP1 PUSH1 0x1F LT PUSH2 0x1A6D JUMPI PUSH2 0x100 DUP1 DUP4 SLOAD DIV MUL DUP4 MSTORE SWAP2 PUSH1 0x20 ADD SWAP2 PUSH2 0x1A96 JUMP JUMPDEST DUP3 ADD SWAP2 SWAP1 PUSH0 MSTORE PUSH1 0x20 PUSH0 KECCAK256 SWAP1 JUMPDEST DUP2 SLOAD DUP2 MSTORE SWAP1 PUSH1 0x1 ADD SWAP1 PUSH1 0x20 ADD DUP1 DUP4 GT PUSH2 0x1A79 JUMPI DUP3 SWAP1 SUB PUSH1 0x1F AND DUP3 ADD SWAP2 JUMPDEST POP POP POP POP POP PUSH32 0x0 PUSH2 0x2020 JUMP JUMPDEST POP POP POP POP POP POP JUMP JUMPDEST PUSH2 0x1AD1 PUSH2 0x2187 JUMP JUMPDEST PUSH0 PUSH20 0xFFFFFFFFFFFFFFFFFFFFFFFFFFFFFFFFFFFFFFFF AND DUP2 PUSH20 0xFFFFFFFFFFFFFFFFFFFFFFFFFFFFFFFFFFFFFFFF AND SUB PUSH2 0x1B41 JUMPI PUSH0 PUSH1 0x40 MLOAD PUSH32 0x1E4FBDF700000000000000000000000000000000000000000000000000000000 DUP2 MSTORE PUSH1 0x4 ADD PUSH2 0x1B38 SWAP2 SWAP1 PUSH2 0x2871 JUMP JUMPDEST PUSH1 0x40 MLOAD DUP1 SWAP2 SUB SWAP1 REVERT JUMPDEST PUSH2 0x1B4A DUP2 PUSH2 0x220E JUMP JUMPDEST POP JUMP JUMPDEST PUSH0 CALLER SWAP1 POP PUSH2 0x1B5A DUP2 PUSH2 0x22CF JUMP JUMPDEST PUSH2 0x1B99 JUMPI PUSH1 0x40 MLOAD PUSH32 0x8C379A000000000000000000000000000000000000000000000000000000000 DUP2 MSTORE PUSH1 0x4 ADD PUSH2 0x1B90 SWAP1 PUSH2 0x322A JUMP JUMPDEST PUSH1 0x40 MLOAD DUP1 SWAP2 SUB SWAP1 REVERT JUMPDEST PUSH0 PUSH1 0x10 PUSH0 DUP4 PUSH20 0xFFFFFFFFFFFFFFFFFFFFFFFFFFFFFFFFFFFFFFFF AND PUSH20 0xFFFFFFFFFFFFFFFFFFFFFFFFFFFFFFFFFFFFFFFF AND DUP2 MSTORE PUSH1 0x20 ADD SWAP1 DUP2 MSTORE PUSH1 0x20 ADD PUSH0 KECCAK256 SLOAD SWAP1 POP PUSH1 0x11 PUSH0 DUP7 DUP2 MSTORE PUSH1 0x20 ADD SWAP1 DUP2 MSTORE PUSH1 0x20 ADD PUSH0 KECCAK256 PUSH1 0x6 ADD PUSH0 SWAP1 SLOAD SWAP1 PUSH2 0x100 EXP SWAP1 DIV PUSH1 0xFF AND ISZERO PUSH2 0x1C5C JUMPI PUSH2 0x1C0A DUP2 DUP7 PUSH2 0x11B1 JUMP JUMPDEST ISZERO DUP1 ISZERO PUSH2 0x1C1C JUMPI POP PUSH2 0x1C1B DUP3 PUSH2 0x22CF JUMP JUMPDEST JUMPDEST PUSH2 0x1C5B JUMPI PUSH1 0x40 MLOAD PUSH32 0x8C379A000000000000000000000000000000000000000000000000000000000 DUP2 MSTORE PUSH1 0x4 ADD PUSH2 0x1C52 SWAP1 PUSH2 0x3292 JUMP JUMPDEST PUSH1 0x40 MLOAD DUP1 SWAP2 SUB SWAP1 REVERT JUMPDEST JUMPDEST PUSH0 PUSH1 0x4 PUSH0 SWAP1 SLOAD SWAP1 PUSH2 0x100 EXP SWAP1 DIV PUSH20 0xFFFFFFFFFFFFFFFFFFFFFFFFFFFFFFFFFFFFFFFF AND SWAP1 POP DUP5 DUP2 PUSH20 0xFFFFFFFFFFFFFFFFFFFFFFFFFFFFFFFFFFFFFFFF AND PUSH4 0x70A08231 DUP6 PUSH1 0x40 MLOAD DUP3 PUSH4 0xFFFFFFFF AND PUSH1 0xE0 SHL DUP2 MSTORE PUSH1 0x4 ADD PUSH2 0x1CBB SWAP2 SWAP1 PUSH2 0x2871 JUMP JUMPDEST PUSH1 0x20 PUSH1 0x40 MLOAD DUP1 DUP4 SUB DUP2 DUP7 GAS STATICCALL ISZERO DUP1 ISZERO PUSH2 0x1CD6 JUMPI RETURNDATASIZE PUSH0 DUP1 RETURNDATACOPY RETURNDATASIZE PUSH0 REVERT JUMPDEST POP POP POP POP PUSH1 0x40 MLOAD RETURNDATASIZE PUSH1 0x1F NOT PUSH1 0x1F DUP3 ADD AND DUP3 ADD DUP1 PUSH1 0x40 MSTORE POP DUP2 ADD SWAP1 PUSH2 0x1CFA SWAP2 SWAP1 PUSH2 0x32C4 JUMP JUMPDEST LT ISZERO PUSH2 0x1D3B JUMPI PUSH1 0x40 MLOAD PUSH32 0x8C379A000000000000000000000000000000000000000000000000000000000 DUP2 MSTORE PUSH1 0x4 ADD PUSH2 0x1D32 SWAP1 PUSH2 0x3339 JUMP JUMPDEST PUSH1 0x40 MLOAD DUP1 SWAP2 SUB SWAP1 REVERT JUMPDEST PUSH1 0x11 PUSH0 DUP8 DUP2 MSTORE PUSH1 0x20 ADD SWAP1 DUP2 MSTORE PUSH1 0x20 ADD PUSH0 KECCAK256 PUSH1 0x2 ADD SLOAD DUP6 GT ISZERO PUSH2 0x1D92 JUMPI PUSH1 0x40 MLOAD PUSH32 0x8C379A000000000000000000000000000000000000000000000000000000000 DUP2 MSTORE PUSH1 0x4 ADD PUSH2 0x1D89 SWAP1 PUSH2 0x33A1 JUMP JUMPDEST PUSH1 0x40 MLOAD DUP1 SWAP2 SUB SWAP1 REVERT JUMPDEST PUSH1 0x11 PUSH0 DUP8 DUP2 MSTORE PUSH1 0x20 ADD SWAP1 DUP2 MSTORE PUSH1 0x20 ADD PUSH0 KECCAK256 PUSH1 0x4 ADD SLOAD TIMESTAMP LT ISZERO DUP1 ISZERO PUSH2 0x1DC9 JUMPI POP PUSH1 0x11 PUSH0 DUP8 DUP2 MSTORE PUSH1 0x20 ADD SWAP1 DUP2 MSTORE PUSH1 0x20 ADD PUSH0 KECCAK256 PUSH1 0x5 ADD SLOAD TIMESTAMP LT JUMPDEST PUSH2 0x1E08 JUMPI PUSH1 0x40 MLOAD PUSH32 0x8C379A000000000000000000000000000000000000000000000000000000000 DUP2 MSTORE PUSH1 0x4 ADD PUSH2 0x1DFF SWAP1 PUSH2 0x3409 JUMP JUMPDEST PUSH1 0x40 MLOAD DUP1 SWAP2 SUB SWAP1 REVERT JUMPDEST PUSH0 PUSH2 0x1E12 DUP7 PUSH2 0x2318 JUMP JUMPDEST SWAP1 POP DUP2 PUSH20 0xFFFFFFFFFFFFFFFFFFFFFFFFFFFFFFFFFFFFFFFF AND PUSH4 0x23B872DD CALLER ADDRESS PUSH8 0xDE0B6B3A7640000 DUP11 PUSH2 0x1E46 SWAP2 SWAP1 PUSH2 0x3427 JUMP JUMPDEST PUSH1 0x40 MLOAD DUP5 PUSH4 0xFFFFFFFF AND PUSH1 0xE0 SHL DUP2 MSTORE PUSH1 0x4 ADD PUSH2 0x1E64 SWAP4 SWAP3 SWAP2 SWAP1 PUSH2 0x3468 JUMP JUMPDEST PUSH1 0x20 PUSH1 0x40 MLOAD DUP1 DUP4 SUB DUP2 PUSH0 DUP8 GAS CALL ISZERO DUP1 ISZERO PUSH2 0x1E80 JUMPI RETURNDATASIZE PUSH0 DUP1 RETURNDATACOPY RETURNDATASIZE PUSH0 REVERT JUMPDEST POP POP POP POP PUSH1 0x40 MLOAD RETURNDATASIZE PUSH1 0x1F NOT PUSH1 0x1F DUP3 ADD AND DUP3 ADD DUP1 PUSH1 0x40 MSTORE POP DUP2 ADD SWAP1 PUSH2 0x1EA4 SWAP2 SWAP1 PUSH2 0x34B1 JUMP JUMPDEST POP DUP5 ISZERO PUSH2 0x1ED7 JUMPI DUP1 PUSH1 0x13 PUSH0 DUP10 DUP2 MSTORE PUSH1 0x20 ADD SWAP1 DUP2 MSTORE PUSH1 0x20 ADD PUSH0 KECCAK256 PUSH0 DUP3 DUP3 SLOAD PUSH2 0x1ECB SWAP2 SWAP1 PUSH2 0x2BCD JUMP JUMPDEST SWAP3 POP POP DUP2 SWAP1 SSTORE POP PUSH2 0x1EFF JUMP JUMPDEST DUP1 PUSH1 0x14 PUSH0 DUP10 DUP2 MSTORE PUSH1 0x20 ADD SWAP1 DUP2 MSTORE PUSH1 0x20 ADD PUSH0 KECCAK256 PUSH0 DUP3 DUP3 SLOAD PUSH2 0x1EF7 SWAP2 SWAP1 PUSH2 0x2BCD JUMP JUMPDEST SWAP3 POP POP DUP2 SWAP1 SSTORE POP JUMPDEST DUP7 PUSH32 0x9E57AD86AFA392F77963FF69647D8172F5B28565BF3C7520591ACFC8EA579118 DUP5 DUP4 DUP9 PUSH1 0x40 MLOAD PUSH2 0x1F33 SWAP4 SWAP3 SWAP2 SWAP1 PUSH2 0x34DC JUMP JUMPDEST PUSH1 0x40 MLOAD DUP1 SWAP2 SUB SWAP1 LOG2 PUSH1 0x12 PUSH0 DUP9 DUP2 MSTORE PUSH1 0x20 ADD SWAP1 DUP2 MSTORE PUSH1 0x20 ADD PUSH0 KECCAK256 DUP4 SWAP1 DUP1 PUSH1 0x1 DUP2 SLOAD ADD DUP1 DUP3 SSTORE DUP1 SWAP2 POP POP PUSH1 0x1 SWAP1 SUB SWAP1 PUSH0 MSTORE PUSH1 0x20 PUSH0 KECCAK256 ADD PUSH0 SWAP1 SWAP2 SWAP1 SWAP2 SWAP1 SWAP2 POP SSTORE POP POP POP POP POP POP POP JUMP JUMPDEST PUSH0 PUSH1 0x4 PUSH0 SWAP1 SLOAD SWAP1 PUSH2 0x100 EXP SWAP1 DIV PUSH20 0xFFFFFFFFFFFFFFFFFFFFFFFFFFFFFFFFFFFFFFFF AND PUSH20 0xFFFFFFFFFFFFFFFFFFFFFFFFFFFFFFFFFFFFFFFF AND PUSH4 0x70A08231 DUP4 PUSH1 0x40 MLOAD DUP3 PUSH4 0xFFFFFFFF AND PUSH1 0xE0 SHL DUP2 MSTORE PUSH1 0x4 ADD PUSH2 0x1FD4 SWAP2 SWAP1 PUSH2 0x2871 JUMP JUMPDEST PUSH1 0x20 PUSH1 0x40 MLOAD DUP1 DUP4 SUB DUP2 DUP7 GAS STATICCALL ISZERO DUP1 ISZERO PUSH2 0x1FEF JUMPI RETURNDATASIZE PUSH0 DUP1 RETURNDATACOPY RETURNDATASIZE PUSH0 REVERT JUMPDEST POP POP POP POP PUSH1 0x40 MLOAD RETURNDATASIZE PUSH1 0x1F NOT PUSH1 0x1F DUP3 ADD AND DUP3 ADD DUP1 PUSH1 0x40 MSTORE POP DUP2 ADD SWAP1 PUSH2 0x2013 SWAP2 SWAP1 PUSH2 0x32C4 JUMP JUMPDEST SWAP1 POP SWAP2 SWAP1 POP JUMP JUMPDEST PUSH1 0x3 SLOAD DUP2 JUMP JUMPDEST PUSH1 0x9 PUSH0 DUP2 SLOAD DUP1 SWAP3 SWAP2 SWAP1 PUSH2 0x2032 SWAP1 PUSH2 0x2CD7 JUMP JUMPDEST SWAP2 SWAP1 POP SSTORE POP DUP2 PUSH1 0xF PUSH0 PUSH1 0x9 SLOAD DUP2 MSTORE PUSH1 0x20 ADD SWAP1 DUP2 MSTORE PUSH1 0x20 ADD PUSH0 KECCAK256 SWAP1 DUP2 PUSH2 0x2057 SWAP2 SWAP1 PUSH2 0x2EBB JUMP JUMPDEST POP PUSH1 0x9 SLOAD PUSH1 0x10 PUSH0 DUP4 PUSH20 0xFFFFFFFFFFFFFFFFFFFFFFFFFFFFFFFFFFFFFFFF AND PUSH20 0xFFFFFFFFFFFFFFFFFFFFFFFFFFFFFFFFFFFFFFFF AND DUP2 MSTORE PUSH1 0x20 ADD SWAP1 DUP2 MSTORE PUSH1 0x20 ADD PUSH0 KECCAK256 DUP2 SWAP1 SSTORE POP PUSH1 0x4 PUSH0 SWAP1 SLOAD SWAP1 PUSH2 0x100 EXP SWAP1 DIV PUSH20 0xFFFFFFFFFFFFFFFFFFFFFFFFFFFFFFFFFFFFFFFF AND PUSH20 0xFFFFFFFFFFFFFFFFFFFFFFFFFFFFFFFFFFFFFFFF AND PUSH4 0xBEC3FA17 DUP3 PUSH1 0x5 SLOAD PUSH1 0x40 MLOAD DUP4 PUSH4 0xFFFFFFFF AND PUSH1 0xE0 SHL DUP2 MSTORE PUSH1 0x4 ADD PUSH2 0x20FA SWAP3 SWAP2 SWAP1 PUSH2 0x3511 JUMP JUMPDEST PUSH0 PUSH1 0x40 MLOAD DUP1 DUP4 SUB DUP2 PUSH0 DUP8 DUP1 EXTCODESIZE ISZERO DUP1 ISZERO PUSH2 0x2111 JUMPI PUSH0 DUP1 REVERT JUMPDEST POP GAS CALL ISZERO DUP1 ISZERO PUSH2 0x2123 JUMPI RETURNDATASIZE PUSH0 DUP1 RETURNDATACOPY RETURNDATASIZE PUSH0 REVERT JUMPDEST POP POP POP POP PUSH32 0x0 PUSH32 0x91D8F88E2103E9FBF7B05234DB8DB9719FBB001942620D75CCB0FE36CC3D4E7E PUSH1 0x9 SLOAD DUP4 PUSH1 0x40 MLOAD PUSH2 0x217B SWAP3 SWAP2 SWAP1 PUSH2 0x3538 JUMP JUMPDEST PUSH1 0x40 MLOAD DUP1 SWAP2 SUB SWAP1 LOG2 POP POP JUMP JUMPDEST PUSH2 0x218F PUSH2 0x2374 JUMP JUMPDEST PUSH20 0xFFFFFFFFFFFFFFFFFFFFFFFFFFFFFFFFFFFFFFFF AND PUSH2 0x21AD PUSH2 0x12D2 JUMP JUMPDEST PUSH20 0xFFFFFFFFFFFFFFFFFFFFFFFFFFFFFFFFFFFFFFFF AND EQ PUSH2 0x220C JUMPI PUSH2 0x21D0 PUSH2 0x2374 JUMP JUMPDEST PUSH1 0x40 MLOAD PUSH32 0x118CDAA700000000000000000000000000000000000000000000000000000000 DUP2 MSTORE PUSH1 0x4 ADD PUSH2 0x2203 SWAP2 SWAP1 PUSH2 0x2871 JUMP JUMPDEST PUSH1 0x40 MLOAD DUP1 SWAP2 SUB SWAP1 REVERT JUMPDEST JUMP JUMPDEST PUSH0 DUP1 PUSH0 SWAP1 SLOAD SWAP1 PUSH2 0x100 EXP SWAP1 DIV PUSH20 0xFFFFFFFFFFFFFFFFFFFFFFFFFFFFFFFFFFFFFFFF AND SWAP1 POP DUP2 PUSH0 DUP1 PUSH2 0x100 EXP DUP2 SLOAD DUP2 PUSH20 0xFFFFFFFFFFFFFFFFFFFFFFFFFFFFFFFFFFFFFFFF MUL NOT AND SWAP1 DUP4 PUSH20 0xFFFFFFFFFFFFFFFFFFFFFFFFFFFFFFFFFFFFFFFF AND MUL OR SWAP1 SSTORE POP DUP2 PUSH20 0xFFFFFFFFFFFFFFFFFFFFFFFFFFFFFFFFFFFFFFFF AND DUP2 PUSH20 0xFFFFFFFFFFFFFFFFFFFFFFFFFFFFFFFFFFFFFFFF AND PUSH32 0x8BE0079C531659141344CD1FD0A4F28419497F9722A3DAAFE3B4186F6B6457E0 PUSH1 0x40 MLOAD PUSH1 0x40 MLOAD DUP1 SWAP2 SUB SWAP1 LOG3 POP POP JUMP JUMPDEST PUSH0 DUP1 PUSH1 0x10 PUSH0 DUP5 PUSH20 0xFFFFFFFFFFFFFFFFFFFFFFFFFFFFFFFFFFFFFFFF AND PUSH20 0xFFFFFFFFFFFFFFFFFFFFFFFFFFFFFFFFFFFFFFFF AND DUP2 MSTORE PUSH1 0x20 ADD SWAP1 DUP2 MSTORE PUSH1 0x20 ADD PUSH0 KECCAK256 SLOAD EQ ISZERO SWAP1 POP SWAP2 SWAP1 POP JUMP JUMPDEST PUSH0 DUP1 PUSH1 0x2 PUSH1 0x1 DUP5 PUSH2 0x2329 SWAP2 SWAP1 PUSH2 0x2BCD JUMP JUMPDEST PUSH2 0x2333 SWAP2 SWAP1 PUSH2 0x358C JUMP JUMPDEST SWAP1 POP DUP3 SWAP2 POP JUMPDEST DUP2 DUP2 LT ISZERO PUSH2 0x236E JUMPI DUP1 SWAP2 POP PUSH1 0x2 DUP2 DUP3 DUP6 PUSH2 0x2353 SWAP2 SWAP1 PUSH2 0x358C JUMP JUMPDEST PUSH2 0x235D SWAP2 SWAP1 PUSH2 0x2BCD JUMP JUMPDEST PUSH2 0x2367 SWAP2 SWAP1 PUSH2 0x358C JUMP JUMPDEST SWAP1 POP PUSH2 0x2339 JUMP JUMPDEST POP SWAP2 SWAP1 POP JUMP JUMPDEST PUSH0 CALLER SWAP1 POP SWAP1 JUMP JUMPDEST PUSH2 0x174F DUP1 PUSH2 0x35BD DUP4 CODECOPY ADD SWAP1 JUMP JUMPDEST PUSH0 DUP2 MLOAD SWAP1 POP SWAP2 SWAP1 POP JUMP JUMPDEST PUSH0 DUP3 DUP3 MSTORE PUSH1 0x20 DUP3 ADD SWAP1 POP SWAP3 SWAP2 POP POP JUMP JUMPDEST DUP3 DUP2 DUP4 MCOPY PUSH0 DUP4 DUP4 ADD MSTORE POP POP POP JUMP JUMPDEST PUSH0 PUSH1 0x1F NOT PUSH1 0x1F DUP4 ADD AND SWAP1 POP SWAP2 SWAP1 POP JUMP JUMPDEST PUSH0 PUSH2 0x23CA DUP3 PUSH2 0x2388 JUMP JUMPDEST PUSH2 0x23D4 DUP2 DUP6 PUSH2 0x2392 JUMP JUMPDEST SWAP4 POP PUSH2 0x23E4 DUP2 DUP6 PUSH1 0x20 DUP7 ADD PUSH2 0x23A2 JUMP JUMPDEST PUSH2 0x23ED DUP2 PUSH2 0x23B0 JUMP JUMPDEST DUP5 ADD SWAP2 POP POP SWAP3 SWAP2 POP POP JUMP JUMPDEST PUSH0 PUSH1 0x20 DUP3 ADD SWAP1 POP DUP2 DUP2 SUB PUSH0 DUP4 ADD MSTORE PUSH2 0x2410 DUP2 DUP5 PUSH2 0x23C0 JUMP JUMPDEST SWAP1 POP SWAP3 SWAP2 POP POP JUMP JUMPDEST PUSH0 PUSH1 0x40 MLOAD SWAP1 POP SWAP1 JUMP JUMPDEST PUSH0 DUP1 REVERT JUMPDEST PUSH0 DUP1 REVERT JUMPDEST PUSH0 DUP1 REVERT JUMPDEST PUSH0 DUP1 REVERT JUMPDEST PUSH32 0x4E487B7100000000000000000000000000000000000000000000000000000000 PUSH0 MSTORE PUSH1 0x41 PUSH1 0x4 MSTORE PUSH1 0x24 PUSH0 REVERT JUMPDEST PUSH2 0x2467 DUP3 PUSH2 0x23B0 JUMP JUMPDEST DUP2 ADD DUP2 DUP2 LT PUSH8 0xFFFFFFFFFFFFFFFF DUP3 GT OR ISZERO PUSH2 0x2486 JUMPI PUSH2 0x2485 PUSH2 0x2431 JUMP JUMPDEST JUMPDEST DUP1 PUSH1 0x40 MSTORE POP POP POP JUMP JUMPDEST PUSH0 PUSH2 0x2498 PUSH2 0x2418 JUMP JUMPDEST SWAP1 POP PUSH2 0x24A4 DUP3 DUP3 PUSH2 0x245E JUMP JUMPDEST SWAP2 SWAP1 POP JUMP JUMPDEST PUSH0 PUSH8 0xFFFFFFFFFFFFFFFF DUP3 GT ISZERO PUSH2 0x24C3 JUMPI PUSH2 0x24C2 PUSH2 0x2431 JUMP JUMPDEST JUMPDEST PUSH2 0x24CC DUP3 PUSH2 0x23B0 JUMP JUMPDEST SWAP1 POP PUSH1 0x20 DUP2 ADD SWAP1 POP SWAP2 SWAP1 POP JUMP JUMPDEST DUP3 DUP2 DUP4 CALLDATACOPY PUSH0 DUP4 DUP4 ADD MSTORE POP POP POP JUMP JUMPDEST PUSH0 PUSH2 0x24F9 PUSH2 0x24F4 DUP5 PUSH2 0x24A9 JUMP JUMPDEST PUSH2 0x248F JUMP JUMPDEST SWAP1 POP DUP3 DUP2 MSTORE PUSH1 0x20 DUP2 ADD DUP5 DUP5 DUP5 ADD GT ISZERO PUSH2 0x2515 JUMPI PUSH2 0x2514 PUSH2 0x242D JUMP JUMPDEST JUMPDEST PUSH2 0x2520 DUP5 DUP3 DUP6 PUSH2 0x24D9 JUMP JUMPDEST POP SWAP4 SWAP3 POP POP POP JUMP JUMPDEST PUSH0 DUP3 PUSH1 0x1F DUP4 ADD SLT PUSH2 0x253C JUMPI PUSH2 0x253B PUSH2 0x2429 JUMP JUMPDEST JUMPDEST DUP2 CALLDATALOAD PUSH2 0x254C DUP5 DUP3 PUSH1 0x20 DUP7 ADD PUSH2 0x24E7 JUMP JUMPDEST SWAP2 POP POP SWAP3 SWAP2 POP POP JUMP JUMPDEST PUSH0 PUSH1 0x20 DUP3 DUP5 SUB SLT ISZERO PUSH2 0x256A JUMPI PUSH2 0x2569 PUSH2 0x2421 JUMP JUMPDEST JUMPDEST PUSH0 DUP3 ADD CALLDATALOAD PUSH8 0xFFFFFFFFFFFFFFFF DUP2 GT ISZERO PUSH2 0x2587 JUMPI PUSH2 0x2586 PUSH2 0x2425 JUMP JUMPDEST JUMPDEST PUSH2 0x2593 DUP5 DUP3 DUP6 ADD PUSH2 0x2528 JUMP JUMPDEST SWAP2 POP POP SWAP3 SWAP2 POP POP JUMP JUMPDEST PUSH0 DUP2 SWAP1 POP SWAP2 SWAP1 POP JUMP JUMPDEST PUSH2 0x25AE DUP2 PUSH2 0x259C JUMP JUMPDEST DUP3 MSTORE POP POP JUMP JUMPDEST PUSH0 PUSH1 0x20 DUP3 ADD SWAP1 POP PUSH2 0x25C7 PUSH0 DUP4 ADD DUP5 PUSH2 0x25A5 JUMP JUMPDEST SWAP3 SWAP2 POP POP JUMP JUMPDEST PUSH2 0x25D6 DUP2 PUSH2 0x259C JUMP JUMPDEST DUP2 EQ PUSH2 0x25E0 JUMPI PUSH0 DUP1 REVERT JUMPDEST POP JUMP JUMPDEST PUSH0 DUP2 CALLDATALOAD SWAP1 POP PUSH2 0x25F1 DUP2 PUSH2 0x25CD JUMP JUMPDEST SWAP3 SWAP2 POP POP JUMP JUMPDEST PUSH0 PUSH1 0x20 DUP3 DUP5 SUB SLT ISZERO PUSH2 0x260C JUMPI PUSH2 0x260B PUSH2 0x2421 JUMP JUMPDEST JUMPDEST PUSH0 PUSH2 0x2619 DUP5 DUP3 DUP6 ADD PUSH2 0x25E3 JUMP JUMPDEST SWAP2 POP POP SWAP3 SWAP2 POP POP JUMP JUMPDEST PUSH0 DUP2 ISZERO ISZERO SWAP1 POP SWAP2 SWAP1 POP JUMP JUMPDEST PUSH2 0x2636 DUP2 PUSH2 0x2622 JUMP JUMPDEST DUP3 MSTORE POP POP JUMP JUMPDEST PUSH0 PUSH1 0x20 DUP3 ADD SWAP1 POP PUSH2 0x264F PUSH0 DUP4 ADD DUP5 PUSH2 0x262D JUMP JUMPDEST SWAP3 SWAP2 POP POP JUMP JUMPDEST PUSH2 0x265E DUP2 PUSH2 0x2622 JUMP JUMPDEST DUP2 EQ PUSH2 0x2668 JUMPI PUSH0 DUP1 REVERT JUMPDEST POP JUMP JUMPDEST PUSH0 DUP2 CALLDATALOAD SWAP1 POP PUSH2 0x2679 DUP2 PUSH2 0x2655 JUMP JUMPDEST SWAP3 SWAP2 POP POP JUMP JUMPDEST PUSH0 DUP1 PUSH0 DUP1 PUSH0 DUP1 PUSH1 0xC0 DUP8 DUP10 SUB SLT ISZERO PUSH2 0x2699 JUMPI PUSH2 0x2698 PUSH2 0x2421 JUMP JUMPDEST JUMPDEST PUSH0 DUP8 ADD CALLDATALOAD PUSH8 0xFFFFFFFFFFFFFFFF DUP2 GT ISZERO PUSH2 0x26B6 JUMPI PUSH2 0x26B5 PUSH2 0x2425 JUMP JUMPDEST JUMPDEST PUSH2 0x26C2 DUP10 DUP3 DUP11 ADD PUSH2 0x2528 JUMP JUMPDEST SWAP7 POP POP PUSH1 0x20 PUSH2 0x26D3 DUP10 DUP3 DUP11 ADD PUSH2 0x25E3 JUMP JUMPDEST SWAP6 POP POP PUSH1 0x40 PUSH2 0x26E4 DUP10 DUP3 DUP11 ADD PUSH2 0x25E3 JUMP JUMPDEST SWAP5 POP POP PUSH1 0x60 PUSH2 0x26F5 DUP10 DUP3 DUP11 ADD PUSH2 0x25E3 JUMP JUMPDEST SWAP4 POP POP PUSH1 0x80 PUSH2 0x2706 DUP10 DUP3 DUP11 ADD PUSH2 0x25E3 JUMP JUMPDEST SWAP3 POP POP PUSH1 0xA0 PUSH2 0x2717 DUP10 DUP3 DUP11 ADD PUSH2 0x266B JUMP JUMPDEST SWAP2 POP POP SWAP3 SWAP6 POP SWAP3 SWAP6 POP SWAP3 SWAP6 JUMP JUMPDEST PUSH0 PUSH1 0x60 DUP3 ADD SWAP1 POP PUSH2 0x2737 PUSH0 DUP4 ADD DUP7 PUSH2 0x25A5 JUMP JUMPDEST DUP2 DUP2 SUB PUSH1 0x20 DUP4 ADD MSTORE PUSH2 0x2749 DUP2 DUP6 PUSH2 0x23C0 JUMP JUMPDEST SWAP1 POP DUP2 DUP2 SUB PUSH1 0x40 DUP4 ADD MSTORE PUSH2 0x275D DUP2 DUP5 PUSH2 0x23C0 JUMP JUMPDEST SWAP1 POP SWAP5 SWAP4 POP POP POP POP JUMP JUMPDEST PUSH0 PUSH20 0xFFFFFFFFFFFFFFFFFFFFFFFFFFFFFFFFFFFFFFFF DUP3 AND SWAP1 POP SWAP2 SWAP1 POP JUMP JUMPDEST PUSH0 PUSH2 0x2790 DUP3 PUSH2 0x2767 JUMP JUMPDEST SWAP1 POP SWAP2 SWAP1 POP JUMP JUMPDEST PUSH2 0x27A0 DUP2 PUSH2 0x2786 JUMP JUMPDEST DUP2 EQ PUSH2 0x27AA JUMPI PUSH0 DUP1 REVERT JUMPDEST POP JUMP JUMPDEST PUSH0 DUP2 CALLDATALOAD SWAP1 POP PUSH2 0x27BB DUP2 PUSH2 0x2797 JUMP JUMPDEST SWAP3 SWAP2 POP POP JUMP JUMPDEST PUSH0 PUSH1 0x20 DUP3 DUP5 SUB SLT ISZERO PUSH2 0x27D6 JUMPI PUSH2 0x27D5 PUSH2 0x2421 JUMP JUMPDEST JUMPDEST PUSH0 PUSH2 0x27E3 DUP5 DUP3 DUP6 ADD PUSH2 0x27AD JUMP JUMPDEST SWAP2 POP POP SWAP3 SWAP2 POP POP JUMP JUMPDEST PUSH0 DUP1 PUSH1 0x40 DUP4 DUP6 SUB SLT ISZERO PUSH2 0x2802 JUMPI PUSH2 0x2801 PUSH2 0x2421 JUMP JUMPDEST JUMPDEST PUSH0 DUP4 ADD CALLDATALOAD PUSH8 0xFFFFFFFFFFFFFFFF DUP2 GT ISZERO PUSH2 0x281F JUMPI PUSH2 0x281E PUSH2 0x2425 JUMP JUMPDEST JUMPDEST PUSH2 0x282B DUP6 DUP3 DUP7 ADD PUSH2 0x2528 JUMP JUMPDEST SWAP3 POP POP PUSH1 0x20 DUP4 ADD CALLDATALOAD PUSH8 0xFFFFFFFFFFFFFFFF DUP2 GT ISZERO PUSH2 0x284C JUMPI PUSH2 0x284B PUSH2 0x2425 JUMP JUMPDEST JUMPDEST PUSH2 0x2858 DUP6 DUP3 DUP7 ADD PUSH2 0x2528 JUMP JUMPDEST SWAP2 POP POP SWAP3 POP SWAP3 SWAP1 POP JUMP JUMPDEST PUSH2 0x286B DUP2 PUSH2 0x2786 JUMP JUMPDEST DUP3 MSTORE POP POP JUMP JUMPDEST PUSH0 PUSH1 0x20 DUP3 ADD SWAP1 POP PUSH2 0x2884 PUSH0 DUP4 ADD DUP5 PUSH2 0x2862 JUMP JUMPDEST SWAP3 SWAP2 POP POP JUMP JUMPDEST PUSH0 PUSH1 0xE0 DUP3 ADD SWAP1 POP PUSH2 0x289D PUSH0 DUP4 ADD DUP11 PUSH2 0x25A5 JUMP JUMPDEST DUP2 DUP2 SUB PUSH1 0x20 DUP4 ADD MSTORE PUSH2 0x28AF DUP2 DUP10 PUSH2 0x23C0 JUMP JUMPDEST SWAP1 POP PUSH2 0x28BE PUSH1 0x40 DUP4 ADD DUP9 PUSH2 0x25A5 JUMP JUMPDEST PUSH2 0x28CB PUSH1 0x60 DUP4 ADD DUP8 PUSH2 0x25A5 JUMP JUMPDEST PUSH2 0x28D8 PUSH1 0x80 DUP4 ADD DUP7 PUSH2 0x25A5 JUMP JUMPDEST PUSH2 0x28E5 PUSH1 0xA0 DUP4 ADD DUP6 PUSH2 0x25A5 JUMP JUMPDEST PUSH2 0x28F2 PUSH1 0xC0 DUP4 ADD DUP5 PUSH2 0x262D JUMP JUMPDEST SWAP9 SWAP8 POP POP POP POP POP POP POP POP JUMP JUMPDEST PUSH0 DUP1 PUSH1 0x40 DUP4 DUP6 SUB SLT ISZERO PUSH2 0x2914 JUMPI PUSH2 0x2913 PUSH2 0x2421 JUMP JUMPDEST JUMPDEST PUSH0 PUSH2 0x2921 DUP6 DUP3 DUP7 ADD PUSH2 0x25E3 JUMP JUMPDEST SWAP3 POP POP PUSH1 0x20 PUSH2 0x2932 DUP6 DUP3 DUP7 ADD PUSH2 0x25E3 JUMP JUMPDEST SWAP2 POP POP SWAP3 POP SWAP3 SWAP1 POP JUMP JUMPDEST PUSH0 DUP1 PUSH0 DUP1 PUSH0 PUSH1 0xA0 DUP7 DUP9 SUB SLT ISZERO PUSH2 0x2955 JUMPI PUSH2 0x2954 PUSH2 0x2421 JUMP JUMPDEST JUMPDEST PUSH0 DUP7 ADD CALLDATALOAD PUSH8 0xFFFFFFFFFFFFFFFF DUP2 GT ISZERO PUSH2 0x2972 JUMPI PUSH2 0x2971 PUSH2 0x2425 JUMP JUMPDEST JUMPDEST PUSH2 0x297E DUP9 DUP3 DUP10 ADD PUSH2 0x2528 JUMP JUMPDEST SWAP6 POP POP PUSH1 0x20 DUP7 ADD CALLDATALOAD PUSH8 0xFFFFFFFFFFFFFFFF DUP2 GT ISZERO PUSH2 0x299F JUMPI PUSH2 0x299E PUSH2 0x2425 JUMP JUMPDEST JUMPDEST PUSH2 0x29AB DUP9 DUP3 DUP10 ADD PUSH2 0x2528 JUMP JUMPDEST SWAP5 POP POP PUSH1 0x40 PUSH2 0x29BC DUP9 DUP3 DUP10 ADD PUSH2 0x25E3 JUMP JUMPDEST SWAP4 POP POP PUSH1 0x60 DUP7 ADD CALLDATALOAD PUSH8 0xFFFFFFFFFFFFFFFF DUP2 GT ISZERO PUSH2 0x29DD JUMPI PUSH2 0x29DC PUSH2 0x2425 JUMP JUMPDEST JUMPDEST PUSH2 0x29E9 DUP9 DUP3 DUP10 ADD PUSH2 0x2528 JUMP JUMPDEST SWAP3 POP POP PUSH1 0x80 DUP7 ADD CALLDATALOAD PUSH8 0xFFFFFFFFFFFFFFFF DUP2 GT ISZERO PUSH2 0x2A0A JUMPI PUSH2 0x2A09 PUSH2 0x2425 JUMP JUMPDEST JUMPDEST PUSH2 0x2A16 DUP9 DUP3 DUP10 ADD PUSH2 0x2528 JUMP JUMPDEST SWAP2 POP POP SWAP3 SWAP6 POP SWAP3 SWAP6 SWAP1 SWAP4 POP JUMP JUMPDEST PUSH0 DUP1 PUSH0 PUSH1 0x60 DUP5 DUP7 SUB SLT ISZERO PUSH2 0x2A3A JUMPI PUSH2 0x2A39 PUSH2 0x2421 JUMP JUMPDEST JUMPDEST PUSH0 PUSH2 0x2A47 DUP7 DUP3 DUP8 ADD PUSH2 0x25E3 JUMP JUMPDEST SWAP4 POP POP PUSH1 0x20 PUSH2 0x2A58 DUP7 DUP3 DUP8 ADD PUSH2 0x25E3 JUMP JUMPDEST SWAP3 POP POP PUSH1 0x40 PUSH2 0x2A69 DUP7 DUP3 DUP8 ADD PUSH2 0x266B JUMP JUMPDEST SWAP2 POP POP SWAP3 POP SWAP3 POP SWAP3 JUMP JUMPDEST PUSH32 0x4E487B7100000000000000000000000000000000000000000000000000000000 PUSH0 MSTORE PUSH1 0x22 PUSH1 0x4 MSTORE PUSH1 0x24 PUSH0 REVERT JUMPDEST PUSH0 PUSH1 0x2 DUP3 DIV SWAP1 POP PUSH1 0x1 DUP3 AND DUP1 PUSH2 0x2AB7 JUMPI PUSH1 0x7F DUP3 AND SWAP2 POP JUMPDEST PUSH1 0x20 DUP3 LT DUP2 SUB PUSH2 0x2ACA JUMPI PUSH2 0x2AC9 PUSH2 0x2A73 JUMP JUMPDEST JUMPDEST POP SWAP2 SWAP1 POP JUMP JUMPDEST PUSH32 0x44616F206E6F7420637265617465640000000000000000000000000000000000 PUSH0 DUP3 ADD MSTORE POP JUMP JUMPDEST PUSH0 PUSH2 0x2B04 PUSH1 0xF DUP4 PUSH2 0x2392 JUMP JUMPDEST SWAP2 POP PUSH2 0x2B0F DUP3 PUSH2 0x2AD0 JUMP JUMPDEST PUSH1 0x20 DUP3 ADD SWAP1 POP SWAP2 SWAP1 POP JUMP JUMPDEST PUSH0 PUSH1 0x20 DUP3 ADD SWAP1 POP DUP2 DUP2 SUB PUSH0 DUP4 ADD MSTORE PUSH2 0x2B31 DUP2 PUSH2 0x2AF8 JUMP JUMPDEST SWAP1 POP SWAP2 SWAP1 POP JUMP JUMPDEST PUSH32 0x4D6565742074686520696E766573746D656E74206C696D697400000000000000 PUSH0 DUP3 ADD MSTORE POP JUMP JUMPDEST PUSH0 PUSH2 0x2B6C PUSH1 0x19 DUP4 PUSH2 0x2392 JUMP JUMPDEST SWAP2 POP PUSH2 0x2B77 DUP3 PUSH2 0x2B38 JUMP JUMPDEST PUSH1 0x20 DUP3 ADD SWAP1 POP SWAP2 SWAP1 POP JUMP JUMPDEST PUSH0 PUSH1 0x20 DUP3 ADD SWAP1 POP DUP2 DUP2 SUB PUSH0 DUP4 ADD MSTORE PUSH2 0x2B99 DUP2 PUSH2 0x2B60 JUMP JUMPDEST SWAP1 POP SWAP2 SWAP1 POP JUMP JUMPDEST PUSH32 0x4E487B7100000000000000000000000000000000000000000000000000000000 PUSH0 MSTORE PUSH1 0x11 PUSH1 0x4 MSTORE PUSH1 0x24 PUSH0 REVERT JUMPDEST PUSH0 PUSH2 0x2BD7 DUP3 PUSH2 0x259C JUMP JUMPDEST SWAP2 POP PUSH2 0x2BE2 DUP4 PUSH2 0x259C JUMP JUMPDEST SWAP3 POP DUP3 DUP3 ADD SWAP1 POP DUP1 DUP3 GT ISZERO PUSH2 0x2BFA JUMPI PUSH2 0x2BF9 PUSH2 0x2BA0 JUMP JUMPDEST JUMPDEST SWAP3 SWAP2 POP POP JUMP JUMPDEST PUSH0 PUSH1 0x60 DUP3 ADD SWAP1 POP DUP2 DUP2 SUB PUSH0 DUP4 ADD MSTORE PUSH2 0x2C18 DUP2 DUP7 PUSH2 0x23C0 JUMP JUMPDEST SWAP1 POP PUSH2 0x2C27 PUSH1 0x20 DUP4 ADD DUP6 PUSH2 0x2862 JUMP JUMPDEST PUSH2 0x2C34 PUSH1 0x40 DUP4 ADD DUP5 PUSH2 0x25A5 JUMP JUMPDEST SWAP5 SWAP4 POP POP POP POP JUMP JUMPDEST PUSH0 PUSH2 0x2C46 DUP3 PUSH2 0x259C JUMP JUMPDEST SWAP2 POP PUSH2 0x2C51 DUP4 PUSH2 0x259C JUMP JUMPDEST SWAP3 POP DUP3 DUP3 SUB SWAP1 POP DUP2 DUP2 GT ISZERO PUSH2 0x2C69 JUMPI PUSH2 0x2C68 PUSH2 0x2BA0 JUMP JUMPDEST JUMPDEST SWAP3 SWAP2 POP POP JUMP JUMPDEST PUSH32 0x52656163682050726F706F73616C20436F6E646974696F6E0000000000000000 PUSH0 DUP3 ADD MSTORE POP JUMP JUMPDEST PUSH0 PUSH2 0x2CA3 PUSH1 0x18 DUP4 PUSH2 0x2392 JUMP JUMPDEST SWAP2 POP PUSH2 0x2CAE DUP3 PUSH2 0x2C6F JUMP JUMPDEST PUSH1 0x20 DUP3 ADD SWAP1 POP SWAP2 SWAP1 POP JUMP JUMPDEST PUSH0 PUSH1 0x20 DUP3 ADD SWAP1 POP DUP2 DUP2 SUB PUSH0 DUP4 ADD MSTORE PUSH2 0x2CD0 DUP2 PUSH2 0x2C97 JUMP JUMPDEST SWAP1 POP SWAP2 SWAP1 POP JUMP JUMPDEST PUSH0 PUSH2 0x2CE1 DUP3 PUSH2 0x259C JUMP JUMPDEST SWAP2 POP PUSH32 0xFFFFFFFFFFFFFFFFFFFFFFFFFFFFFFFFFFFFFFFFFFFFFFFFFFFFFFFFFFFFFFFF DUP3 SUB PUSH2 0x2D13 JUMPI PUSH2 0x2D12 PUSH2 0x2BA0 JUMP JUMPDEST JUMPDEST PUSH1 0x1 DUP3 ADD SWAP1 POP SWAP2 SWAP1 POP JUMP JUMPDEST PUSH0 DUP2 SWAP1 POP DUP2 PUSH0 MSTORE PUSH1 0x20 PUSH0 KECCAK256 SWAP1 POP SWAP2 SWAP1 POP JUMP JUMPDEST PUSH0 PUSH1 0x20 PUSH1 0x1F DUP4 ADD DIV SWAP1 POP SWAP2 SWAP1 POP JUMP JUMPDEST PUSH0 DUP3 DUP3 SHL SWAP1 POP SWAP3 SWAP2 POP POP JUMP JUMPDEST PUSH0 PUSH1 0x8 DUP4 MUL PUSH2 0x2D7A PUSH32 0xFFFFFFFFFFFFFFFFFFFFFFFFFFFFFFFFFFFFFFFFFFFFFFFFFFFFFFFFFFFFFFFF DUP3 PUSH2 0x2D3F JUMP JUMPDEST PUSH2 0x2D84 DUP7 DUP4 PUSH2 0x2D3F JUMP JUMPDEST SWAP6 POP DUP1 NOT DUP5 AND SWAP4 POP DUP1 DUP7 AND DUP5 OR SWAP3 POP POP POP SWAP4 SWAP3 POP POP POP JUMP JUMPDEST PUSH0 DUP2 SWAP1 POP SWAP2 SWAP1 POP JUMP JUMPDEST PUSH0 PUSH2 0x2DBF PUSH2 0x2DBA PUSH2 0x2DB5 DUP5 PUSH2 0x259C JUMP JUMPDEST PUSH2 0x2D9C JUMP JUMPDEST PUSH2 0x259C JUMP JUMPDEST SWAP1 POP SWAP2 SWAP1 POP JUMP JUMPDEST PUSH0 DUP2 SWAP1 POP SWAP2 SWAP1 POP JUMP JUMPDEST PUSH2 0x2DD8 DUP4 PUSH2 0x2DA5 JUMP JUMPDEST PUSH2 0x2DEC PUSH2 0x2DE4 DUP3 PUSH2 0x2DC6 JUMP JUMPDEST DUP5 DUP5 SLOAD PUSH2 0x2D4B JUMP JUMPDEST DUP3 SSTORE POP POP POP POP JUMP JUMPDEST PUSH0 SWAP1 JUMP JUMPDEST PUSH2 0x2E00 PUSH2 0x2DF4 JUMP JUMPDEST PUSH2 0x2E0B DUP2 DUP5 DUP5 PUSH2 0x2DCF JUMP JUMPDEST POP POP POP JUMP JUMPDEST JUMPDEST DUP2 DUP2 LT ISZERO PUSH2 0x2E2E JUMPI PUSH2 0x2E23 PUSH0 DUP3 PUSH2 0x2DF8 JUMP JUMPDEST PUSH1 0x1 DUP2 ADD SWAP1 POP PUSH2 0x2E11 JUMP JUMPDEST POP POP JUMP JUMPDEST PUSH1 0x1F DUP3 GT ISZERO PUSH2 0x2E73 JUMPI PUSH2 0x2E44 DUP2 PUSH2 0x2D1E JUMP JUMPDEST PUSH2 0x2E4D DUP5 PUSH2 0x2D30 JUMP JUMPDEST DUP2 ADD PUSH1 0x20 DUP6 LT ISZERO PUSH2 0x2E5C JUMPI DUP2 SWAP1 POP JUMPDEST PUSH2 0x2E70 PUSH2 0x2E68 DUP6 PUSH2 0x2D30 JUMP JUMPDEST DUP4 ADD DUP3 PUSH2 0x2E10 JUMP JUMPDEST POP POP JUMPDEST POP POP POP JUMP JUMPDEST PUSH0 DUP3 DUP3 SHR SWAP1 POP SWAP3 SWAP2 POP POP JUMP JUMPDEST PUSH0 PUSH2 0x2E93 PUSH0 NOT DUP5 PUSH1 0x8 MUL PUSH2 0x2E78 JUMP JUMPDEST NOT DUP1 DUP4 AND SWAP2 POP POP SWAP3 SWAP2 POP POP JUMP JUMPDEST PUSH0 PUSH2 0x2EAB DUP4 DUP4 PUSH2 0x2E84 JUMP JUMPDEST SWAP2 POP DUP3 PUSH1 0x2 MUL DUP3 OR SWAP1 POP SWAP3 SWAP2 POP POP JUMP JUMPDEST PUSH2 0x2EC4 DUP3 PUSH2 0x2388 JUMP JUMPDEST PUSH8 0xFFFFFFFFFFFFFFFF DUP2 GT ISZERO PUSH2 0x2EDD JUMPI PUSH2 0x2EDC PUSH2 0x2431 JUMP JUMPDEST JUMPDEST PUSH2 0x2EE7 DUP3 SLOAD PUSH2 0x2AA0 JUMP JUMPDEST PUSH2 0x2EF2 DUP3 DUP3 DUP6 PUSH2 0x2E32 JUMP JUMPDEST PUSH0 PUSH1 0x20 SWAP1 POP PUSH1 0x1F DUP4 GT PUSH1 0x1 DUP2 EQ PUSH2 0x2F23 JUMPI PUSH0 DUP5 ISZERO PUSH2 0x2F11 JUMPI DUP3 DUP8 ADD MLOAD SWAP1 POP JUMPDEST PUSH2 0x2F1B DUP6 DUP3 PUSH2 0x2EA0 JUMP JUMPDEST DUP7 SSTORE POP PUSH2 0x2F82 JUMP JUMPDEST PUSH1 0x1F NOT DUP5 AND PUSH2 0x2F31 DUP7 PUSH2 0x2D1E JUMP JUMPDEST PUSH0 JUMPDEST DUP3 DUP2 LT ISZERO PUSH2 0x2F58 JUMPI DUP5 DUP10 ADD MLOAD DUP3 SSTORE PUSH1 0x1 DUP3 ADD SWAP2 POP PUSH1 0x20 DUP6 ADD SWAP5 POP PUSH1 0x20 DUP2 ADD SWAP1 POP PUSH2 0x2F33 JUMP JUMPDEST DUP7 DUP4 LT ISZERO PUSH2 0x2F75 JUMPI DUP5 DUP10 ADD MLOAD PUSH2 0x2F71 PUSH1 0x1F DUP10 AND DUP3 PUSH2 0x2E84 JUMP JUMPDEST DUP4 SSTORE POP JUMPDEST PUSH1 0x1 PUSH1 0x2 DUP9 MUL ADD DUP9 SSTORE POP POP POP JUMPDEST POP POP POP POP POP POP JUMP JUMPDEST PUSH0 PUSH1 0x40 DUP3 ADD SWAP1 POP DUP2 DUP2 SUB PUSH0 DUP4 ADD MSTORE PUSH2 0x2FA2 DUP2 DUP6 PUSH2 0x23C0 JUMP JUMPDEST SWAP1 POP PUSH2 0x2FB1 PUSH1 0x20 DUP4 ADD DUP5 PUSH2 0x25A5 JUMP JUMPDEST SWAP4 SWAP3 POP POP POP JUMP JUMPDEST PUSH32 0x4E487B7100000000000000000000000000000000000000000000000000000000 PUSH0 MSTORE PUSH1 0x32 PUSH1 0x4 MSTORE PUSH1 0x24 PUSH0 REVERT JUMPDEST PUSH32 0x566F74696E67206E6F7420656E64656400000000000000000000000000000000 PUSH0 DUP3 ADD MSTORE POP JUMP JUMPDEST PUSH0 PUSH2 0x3019 PUSH1 0x10 DUP4 PUSH2 0x2392 JUMP JUMPDEST SWAP2 POP PUSH2 0x3024 DUP3 PUSH2 0x2FE5 JUMP JUMPDEST PUSH1 0x20 DUP3 ADD SWAP1 POP SWAP2 SWAP1 POP JUMP JUMPDEST PUSH0 PUSH1 0x20 DUP3 ADD SWAP1 POP DUP2 DUP2 SUB PUSH0 DUP4 ADD MSTORE PUSH2 0x3046 DUP2 PUSH2 0x300D JUMP JUMPDEST SWAP1 POP SWAP2 SWAP1 POP JUMP JUMPDEST PUSH32 0x526573756C7420616C72656164792063616C63756C6174656400000000000000 PUSH0 DUP3 ADD MSTORE POP JUMP JUMPDEST PUSH0 PUSH2 0x3081 PUSH1 0x19 DUP4 PUSH2 0x2392 JUMP JUMPDEST SWAP2 POP PUSH2 0x308C DUP3 PUSH2 0x304D JUMP JUMPDEST PUSH1 0x20 DUP3 ADD SWAP1 POP SWAP2 SWAP1 POP JUMP JUMPDEST PUSH0 PUSH1 0x20 DUP3 ADD SWAP1 POP DUP2 DUP2 SUB PUSH0 DUP4 ADD MSTORE PUSH2 0x30AE DUP2 PUSH2 0x3075 JUMP JUMPDEST SWAP1 POP SWAP2 SWAP1 POP JUMP JUMPDEST PUSH32 0x50726F706F73616C206661696C6564206F7220696E73756666696369656E7420 PUSH0 DUP3 ADD MSTORE PUSH32 0x62616C616E636500000000000000000000000000000000000000000000000000 PUSH1 0x20 DUP3 ADD MSTORE POP JUMP JUMPDEST PUSH0 PUSH2 0x310F PUSH1 0x27 DUP4 PUSH2 0x2392 JUMP JUMPDEST SWAP2 POP PUSH2 0x311A DUP3 PUSH2 0x30B5 JUMP JUMPDEST PUSH1 0x40 DUP3 ADD SWAP1 POP SWAP2 SWAP1 POP JUMP JUMPDEST PUSH0 PUSH1 0x20 DUP3 ADD SWAP1 POP DUP2 DUP2 SUB PUSH0 DUP4 ADD MSTORE PUSH2 0x313C DUP2 PUSH2 0x3103 JUMP JUMPDEST SWAP1 POP SWAP2 SWAP1 POP JUMP JUMPDEST PUSH32 0x44414F20616C7265616479206372656174656400000000000000000000000000 PUSH0 DUP3 ADD MSTORE POP JUMP JUMPDEST PUSH0 PUSH2 0x3177 PUSH1 0x13 DUP4 PUSH2 0x2392 JUMP JUMPDEST SWAP2 POP PUSH2 0x3182 DUP3 PUSH2 0x3143 JUMP JUMPDEST PUSH1 0x20 DUP3 ADD SWAP1 POP SWAP2 SWAP1 POP JUMP JUMPDEST PUSH0 PUSH1 0x20 DUP3 ADD SWAP1 POP DUP2 DUP2 SUB PUSH0 DUP4 ADD MSTORE PUSH2 0x31A4 DUP2 PUSH2 0x316B JUMP JUMPDEST SWAP1 POP SWAP2 SWAP1 POP JUMP JUMPDEST PUSH0 PUSH1 0x40 DUP3 ADD SWAP1 POP DUP2 DUP2 SUB PUSH0 DUP4 ADD MSTORE PUSH2 0x31C3 DUP2 DUP6 PUSH2 0x23C0 JUMP JUMPDEST SWAP1 POP DUP2 DUP2 SUB PUSH1 0x20 DUP4 ADD MSTORE PUSH2 0x31D7 DUP2 DUP5 PUSH2 0x23C0 JUMP JUMPDEST SWAP1 POP SWAP4 SWAP3 POP POP POP JUMP JUMPDEST PUSH32 0x4E6F7420612044414F206D656D62657200000000000000000000000000000000 PUSH0 DUP3 ADD MSTORE POP JUMP JUMPDEST PUSH0 PUSH2 0x3214 PUSH1 0x10 DUP4 PUSH2 0x2392 JUMP JUMPDEST SWAP2 POP PUSH2 0x321F DUP3 PUSH2 0x31E0 JUMP JUMPDEST PUSH1 0x20 DUP3 ADD SWAP1 POP SWAP2 SWAP1 POP JUMP JUMPDEST PUSH0 PUSH1 0x20 DUP3 ADD SWAP1 POP DUP2 DUP2 SUB PUSH0 DUP4 ADD MSTORE PUSH2 0x3241 DUP2 PUSH2 0x3208 JUMP JUMPDEST SWAP1 POP SWAP2 SWAP1 POP JUMP JUMPDEST PUSH32 0x416C726561647920766F74656400000000000000000000000000000000000000 PUSH0 DUP3 ADD MSTORE POP JUMP JUMPDEST PUSH0 PUSH2 0x327C PUSH1 0xD DUP4 PUSH2 0x2392 JUMP JUMPDEST SWAP2 POP PUSH2 0x3287 DUP3 PUSH2 0x3248 JUMP JUMPDEST PUSH1 0x20 DUP3 ADD SWAP1 POP SWAP2 SWAP1 POP JUMP JUMPDEST PUSH0 PUSH1 0x20 DUP3 ADD SWAP1 POP DUP2 DUP2 SUB PUSH0 DUP4 ADD MSTORE PUSH2 0x32A9 DUP2 PUSH2 0x3270 JUMP JUMPDEST SWAP1 POP SWAP2 SWAP1 POP JUMP JUMPDEST PUSH0 DUP2 MLOAD SWAP1 POP PUSH2 0x32BE DUP2 PUSH2 0x25CD JUMP JUMPDEST SWAP3 SWAP2 POP POP JUMP JUMPDEST PUSH0 PUSH1 0x20 DUP3 DUP5 SUB SLT ISZERO PUSH2 0x32D9 JUMPI PUSH2 0x32D8 PUSH2 0x2421 JUMP JUMPDEST JUMPDEST PUSH0 PUSH2 0x32E6 DUP5 DUP3 DUP6 ADD PUSH2 0x32B0 JUMP JUMPDEST SWAP2 POP POP SWAP3 SWAP2 POP POP JUMP JUMPDEST PUSH32 0x496E73756666696369656E7420746F6B656E7300000000000000000000000000 PUSH0 DUP3 ADD MSTORE POP JUMP JUMPDEST PUSH0 PUSH2 0x3323 PUSH1 0x13 DUP4 PUSH2 0x2392 JUMP JUMPDEST SWAP2 POP PUSH2 0x332E DUP3 PUSH2 0x32EF JUMP JUMPDEST PUSH1 0x20 DUP3 ADD SWAP1 POP SWAP2 SWAP1 POP JUMP JUMPDEST PUSH0 PUSH1 0x20 DUP3 ADD SWAP1 POP DUP2 DUP2 SUB PUSH0 DUP4 ADD MSTORE PUSH2 0x3350 DUP2 PUSH2 0x3317 JUMP JUMPDEST SWAP1 POP SWAP2 SWAP1 POP JUMP JUMPDEST PUSH32 0x45786365737320746F6B656E7300000000000000000000000000000000000000 PUSH0 DUP3 ADD MSTORE POP JUMP JUMPDEST PUSH0 PUSH2 0x338B PUSH1 0xD DUP4 PUSH2 0x2392 JUMP JUMPDEST SWAP2 POP PUSH2 0x3396 DUP3 PUSH2 0x3357 JUMP JUMPDEST PUSH1 0x20 DUP3 ADD SWAP1 POP SWAP2 SWAP1 POP JUMP JUMPDEST PUSH0 PUSH1 0x20 DUP3 ADD SWAP1 POP DUP2 DUP2 SUB PUSH0 DUP4 ADD MSTORE PUSH2 0x33B8 DUP2 PUSH2 0x337F JUMP JUMPDEST SWAP1 POP SWAP2 SWAP1 POP JUMP JUMPDEST PUSH32 0x566F74696E6720756E617661696C61626C650000000000000000000000000000 PUSH0 DUP3 ADD MSTORE POP JUMP JUMPDEST PUSH0 PUSH2 0x33F3 PUSH1 0x12 DUP4 PUSH2 0x2392 JUMP JUMPDEST SWAP2 POP PUSH2 0x33FE DUP3 PUSH2 0x33BF JUMP JUMPDEST PUSH1 0x20 DUP3 ADD SWAP1 POP SWAP2 SWAP1 POP JUMP JUMPDEST PUSH0 PUSH1 0x20 DUP3 ADD SWAP1 POP DUP2 DUP2 SUB PUSH0 DUP4 ADD MSTORE PUSH2 0x3420 DUP2 PUSH2 0x33E7 JUMP JUMPDEST SWAP1 POP SWAP2 SWAP1 POP JUMP JUMPDEST PUSH0 PUSH2 0x3431 DUP3 PUSH2 0x259C JUMP JUMPDEST SWAP2 POP PUSH2 0x343C DUP4 PUSH2 0x259C JUMP JUMPDEST SWAP3 POP DUP3 DUP3 MUL PUSH2 0x344A DUP2 PUSH2 0x259C JUMP JUMPDEST SWAP2 POP DUP3 DUP3 DIV DUP5 EQ DUP4 ISZERO OR PUSH2 0x3461 JUMPI PUSH2 0x3460 PUSH2 0x2BA0 JUMP JUMPDEST JUMPDEST POP SWAP3 SWAP2 POP POP JUMP JUMPDEST PUSH0 PUSH1 0x60 DUP3 ADD SWAP1 POP PUSH2 0x347B PUSH0 DUP4 ADD DUP7 PUSH2 0x2862 JUMP JUMPDEST PUSH2 0x3488 PUSH1 0x20 DUP4 ADD DUP6 PUSH2 0x2862 JUMP JUMPDEST PUSH2 0x3495 PUSH1 0x40 DUP4 ADD DUP5 PUSH2 0x25A5 JUMP JUMPDEST SWAP5 SWAP4 POP POP POP POP JUMP JUMPDEST PUSH0 DUP2 MLOAD SWAP1 POP PUSH2 0x34AB DUP2 PUSH2 0x2655 JUMP JUMPDEST SWAP3 SWAP2 POP POP JUMP JUMPDEST PUSH0 PUSH1 0x20 DUP3 DUP5 SUB SLT ISZERO PUSH2 0x34C6 JUMPI PUSH2 0x34C5 PUSH2 0x2421 JUMP JUMPDEST JUMPDEST PUSH0 PUSH2 0x34D3 DUP5 DUP3 DUP6 ADD PUSH2 0x349D JUMP JUMPDEST SWAP2 POP POP SWAP3 SWAP2 POP POP JUMP JUMPDEST PUSH0 PUSH1 0x60 DUP3 ADD SWAP1 POP PUSH2 0x34EF PUSH0 DUP4 ADD DUP7 PUSH2 0x25A5 JUMP JUMPDEST PUSH2 0x34FC PUSH1 0x20 DUP4 ADD DUP6 PUSH2 0x25A5 JUMP JUMPDEST PUSH2 0x3509 PUSH1 0x40 DUP4 ADD DUP5 PUSH2 0x262D JUMP JUMPDEST SWAP5 SWAP4 POP POP POP POP JUMP JUMPDEST PUSH0 PUSH1 0x40 DUP3 ADD SWAP1 POP PUSH2 0x3524 PUSH0 DUP4 ADD DUP6 PUSH2 0x2862 JUMP JUMPDEST PUSH2 0x3531 PUSH1 0x20 DUP4 ADD DUP5 PUSH2 0x25A5 JUMP JUMPDEST SWAP4 SWAP3 POP POP POP JUMP JUMPDEST PUSH0 PUSH1 0x40 DUP3 ADD SWAP1 POP PUSH2 0x354B PUSH0 DUP4 ADD DUP6 PUSH2 0x25A5 JUMP JUMPDEST PUSH2 0x3558 PUSH1 0x20 DUP4 ADD DUP5 PUSH2 0x2862 JUMP JUMPDEST SWAP4 SWAP3 POP POP POP JUMP JUMPDEST PUSH32 0x4E487B7100000000000000000000000000000000000000000000000000000000 PUSH0 MSTORE PUSH1 0x12 PUSH1 0x4 MSTORE PUSH1 0x24 PUSH0 REVERT JUMPDEST PUSH0 PUSH2 0x3596 DUP3 PUSH2 0x259C JUMP JUMPDEST SWAP2 POP PUSH2 0x35A1 DUP4 PUSH2 0x259C JUMP JUMPDEST SWAP3 POP DUP3 PUSH2 0x35B1 JUMPI PUSH2 0x35B0 PUSH2 0x355F JUMP JUMPDEST JUMPDEST DUP3 DUP3 DIV SWAP1 POP SWAP3 SWAP2 POP POP JUMP INVALID PUSH1 0xA0 PUSH1 0x40 MSTORE CALLVALUE DUP1 ISZERO PUSH2 0xF JUMPI PUSH0 DUP1 REVERT JUMPDEST POP PUSH1 0x40 MLOAD PUSH2 0x174F CODESIZE SUB DUP1 PUSH2 0x174F DUP4 CODECOPY DUP2 DUP2 ADD PUSH1 0x40 MSTORE DUP2 ADD SWAP1 PUSH2 0x31 SWAP2 SWAP1 PUSH2 0x1DD JUMP JUMPDEST DUP2 DUP2 DUP2 PUSH1 0x3 SWAP1 DUP2 PUSH2 0x42 SWAP2 SWAP1 PUSH2 0x460 JUMP JUMPDEST POP DUP1 PUSH1 0x4 SWAP1 DUP2 PUSH2 0x52 SWAP2 SWAP1 PUSH2 0x460 JUMP JUMPDEST POP POP POP CALLER PUSH20 0xFFFFFFFFFFFFFFFFFFFFFFFFFFFFFFFFFFFFFFFF AND PUSH1 0x80 DUP2 PUSH20 0xFFFFFFFFFFFFFFFFFFFFFFFFFFFFFFFFFFFFFFFF AND DUP2 MSTORE POP POP POP POP PUSH2 0x52F JUMP JUMPDEST PUSH0 PUSH1 0x40 MLOAD SWAP1 POP SWAP1 JUMP JUMPDEST PUSH0 DUP1 REVERT JUMPDEST PUSH0 DUP1 REVERT JUMPDEST PUSH0 DUP1 REVERT JUMPDEST PUSH0 DUP1 REVERT JUMPDEST PUSH0 PUSH1 0x1F NOT PUSH1 0x1F DUP4 ADD AND SWAP1 POP SWAP2 SWAP1 POP JUMP JUMPDEST PUSH32 0x4E487B7100000000000000000000000000000000000000000000000000000000 PUSH0 MSTORE PUSH1 0x41 PUSH1 0x4 MSTORE PUSH1 0x24 PUSH0 REVERT JUMPDEST PUSH2 0xEF DUP3 PUSH2 0xA9 JUMP JUMPDEST DUP2 ADD DUP2 DUP2 LT PUSH8 0xFFFFFFFFFFFFFFFF DUP3 GT OR ISZERO PUSH2 0x10E JUMPI PUSH2 0x10D PUSH2 0xB9 JUMP JUMPDEST JUMPDEST DUP1 PUSH1 0x40 MSTORE POP POP POP JUMP JUMPDEST PUSH0 PUSH2 0x120 PUSH2 0x90 JUMP JUMPDEST SWAP1 POP PUSH2 0x12C DUP3 DUP3 PUSH2 0xE6 JUMP JUMPDEST SWAP2 SWAP1 POP JUMP JUMPDEST PUSH0 PUSH8 0xFFFFFFFFFFFFFFFF DUP3 GT ISZERO PUSH2 0x14B JUMPI PUSH2 0x14A PUSH2 0xB9 JUMP JUMPDEST JUMPDEST PUSH2 0x154 DUP3 PUSH2 0xA9 JUMP JUMPDEST SWAP1 POP PUSH1 0x20 DUP2 ADD SWAP1 POP SWAP2 SWAP1 POP JUMP JUMPDEST DUP3 DUP2 DUP4 MCOPY PUSH0 DUP4 DUP4 ADD MSTORE POP POP POP JUMP JUMPDEST PUSH0 PUSH2 0x181 PUSH2 0x17C DUP5 PUSH2 0x131 JUMP JUMPDEST PUSH2 0x117 JUMP JUMPDEST SWAP1 POP DUP3 DUP2 MSTORE PUSH1 0x20 DUP2 ADD DUP5 DUP5 DUP5 ADD GT ISZERO PUSH2 0x19D JUMPI PUSH2 0x19C PUSH2 0xA5 JUMP JUMPDEST JUMPDEST PUSH2 0x1A8 DUP5 DUP3 DUP6 PUSH2 0x161 JUMP JUMPDEST POP SWAP4 SWAP3 POP POP POP JUMP JUMPDEST PUSH0 DUP3 PUSH1 0x1F DUP4 ADD SLT PUSH2 0x1C4 JUMPI PUSH2 0x1C3 PUSH2 0xA1 JUMP JUMPDEST JUMPDEST DUP2 MLOAD PUSH2 0x1D4 DUP5 DUP3 PUSH1 0x20 DUP7 ADD PUSH2 0x16F JUMP JUMPDEST SWAP2 POP POP SWAP3 SWAP2 POP POP JUMP JUMPDEST PUSH0 DUP1 PUSH1 0x40 DUP4 DUP6 SUB SLT ISZERO PUSH2 0x1F3 JUMPI PUSH2 0x1F2 PUSH2 0x99 JUMP JUMPDEST JUMPDEST PUSH0 DUP4 ADD MLOAD PUSH8 0xFFFFFFFFFFFFFFFF DUP2 GT ISZERO PUSH2 0x210 JUMPI PUSH2 0x20F PUSH2 0x9D JUMP JUMPDEST JUMPDEST PUSH2 0x21C DUP6 DUP3 DUP7 ADD PUSH2 0x1B0 JUMP JUMPDEST SWAP3 POP POP PUSH1 0x20 DUP4 ADD MLOAD PUSH8 0xFFFFFFFFFFFFFFFF DUP2 GT ISZERO PUSH2 0x23D JUMPI PUSH2 0x23C PUSH2 0x9D JUMP JUMPDEST JUMPDEST PUSH2 0x249 DUP6 DUP3 DUP7 ADD PUSH2 0x1B0 JUMP JUMPDEST SWAP2 POP POP SWAP3 POP SWAP3 SWAP1 POP JUMP JUMPDEST PUSH0 DUP2 MLOAD SWAP1 POP SWAP2 SWAP1 POP JUMP JUMPDEST PUSH32 0x4E487B7100000000000000000000000000000000000000000000000000000000 PUSH0 MSTORE PUSH1 0x22 PUSH1 0x4 MSTORE PUSH1 0x24 PUSH0 REVERT JUMPDEST PUSH0 PUSH1 0x2 DUP3 DIV SWAP1 POP PUSH1 0x1 DUP3 AND DUP1 PUSH2 0x2A1 JUMPI PUSH1 0x7F DUP3 AND SWAP2 POP JUMPDEST PUSH1 0x20 DUP3 LT DUP2 SUB PUSH2 0x2B4 JUMPI PUSH2 0x2B3 PUSH2 0x25D JUMP JUMPDEST JUMPDEST POP SWAP2 SWAP1 POP JUMP JUMPDEST PUSH0 DUP2 SWAP1 POP DUP2 PUSH0 MSTORE PUSH1 0x20 PUSH0 KECCAK256 SWAP1 POP SWAP2 SWAP1 POP JUMP JUMPDEST PUSH0 PUSH1 0x20 PUSH1 0x1F DUP4 ADD DIV SWAP1 POP SWAP2 SWAP1 POP JUMP JUMPDEST PUSH0 DUP3 DUP3 SHL SWAP1 POP SWAP3 SWAP2 POP POP JUMP JUMPDEST PUSH0 PUSH1 0x8 DUP4 MUL PUSH2 0x316 PUSH32 0xFFFFFFFFFFFFFFFFFFFFFFFFFFFFFFFFFFFFFFFFFFFFFFFFFFFFFFFFFFFFFFFF DUP3 PUSH2 0x2DB JUMP JUMPDEST PUSH2 0x320 DUP7 DUP4 PUSH2 0x2DB JUMP JUMPDEST SWAP6 POP DUP1 NOT DUP5 AND SWAP4 POP DUP1 DUP7 AND DUP5 OR SWAP3 POP POP POP SWAP4 SWAP3 POP POP POP JUMP JUMPDEST PUSH0 DUP2 SWAP1 POP SWAP2 SWAP1 POP JUMP JUMPDEST PUSH0 DUP2 SWAP1 POP SWAP2 SWAP1 POP JUMP JUMPDEST PUSH0 PUSH2 0x364 PUSH2 0x35F PUSH2 0x35A DUP5 PUSH2 0x338 JUMP JUMPDEST PUSH2 0x341 JUMP JUMPDEST PUSH2 0x338 JUMP JUMPDEST SWAP1 POP SWAP2 SWAP1 POP JUMP JUMPDEST PUSH0 DUP2 SWAP1 POP SWAP2 SWAP1 POP JUMP JUMPDEST PUSH2 0x37D DUP4 PUSH2 0x34A JUMP JUMPDEST PUSH2 0x391 PUSH2 0x389 DUP3 PUSH2 0x36B JUMP JUMPDEST DUP5 DUP5 SLOAD PUSH2 0x2E7 JUMP JUMPDEST DUP3 SSTORE POP POP POP POP JUMP JUMPDEST PUSH0 SWAP1 JUMP JUMPDEST PUSH2 0x3A5 PUSH2 0x399 JUMP JUMPDEST PUSH2 0x3B0 DUP2 DUP5 DUP5 PUSH2 0x374 JUMP JUMPDEST POP POP POP JUMP JUMPDEST JUMPDEST DUP2 DUP2 LT ISZERO PUSH2 0x3D3 JUMPI PUSH2 0x3C8 PUSH0 DUP3 PUSH2 0x39D JUMP JUMPDEST PUSH1 0x1 DUP2 ADD SWAP1 POP PUSH2 0x3B6 JUMP JUMPDEST POP POP JUMP JUMPDEST PUSH1 0x1F DUP3 GT ISZERO PUSH2 0x418 JUMPI PUSH2 0x3E9 DUP2 PUSH2 0x2BA JUMP JUMPDEST PUSH2 0x3F2 DUP5 PUSH2 0x2CC JUMP JUMPDEST DUP2 ADD PUSH1 0x20 DUP6 LT ISZERO PUSH2 0x401 JUMPI DUP2 SWAP1 POP JUMPDEST PUSH2 0x415 PUSH2 0x40D DUP6 PUSH2 0x2CC JUMP JUMPDEST DUP4 ADD DUP3 PUSH2 0x3B5 JUMP JUMPDEST POP POP JUMPDEST POP POP POP JUMP JUMPDEST PUSH0 DUP3 DUP3 SHR SWAP1 POP SWAP3 SWAP2 POP POP JUMP JUMPDEST PUSH0 PUSH2 0x438 PUSH0 NOT DUP5 PUSH1 0x8 MUL PUSH2 0x41D JUMP JUMPDEST NOT DUP1 DUP4 AND SWAP2 POP POP SWAP3 SWAP2 POP POP JUMP JUMPDEST PUSH0 PUSH2 0x450 DUP4 DUP4 PUSH2 0x429 JUMP JUMPDEST SWAP2 POP DUP3 PUSH1 0x2 MUL DUP3 OR SWAP1 POP SWAP3 SWAP2 POP POP JUMP JUMPDEST PUSH2 0x469 DUP3 PUSH2 0x253 JUMP JUMPDEST PUSH8 0xFFFFFFFFFFFFFFFF DUP2 GT ISZERO PUSH2 0x482 JUMPI PUSH2 0x481 PUSH2 0xB9 JUMP JUMPDEST JUMPDEST PUSH2 0x48C DUP3 SLOAD PUSH2 0x28A JUMP JUMPDEST PUSH2 0x497 DUP3 DUP3 DUP6 PUSH2 0x3D7 JUMP JUMPDEST PUSH0 PUSH1 0x20 SWAP1 POP PUSH1 0x1F DUP4 GT PUSH1 0x1 DUP2 EQ PUSH2 0x4C8 JUMPI PUSH0 DUP5 ISZERO PUSH2 0x4B6 JUMPI DUP3 DUP8 ADD MLOAD SWAP1 POP JUMPDEST PUSH2 0x4C0 DUP6 DUP3 PUSH2 0x445 JUMP JUMPDEST DUP7 SSTORE POP PUSH2 0x527 JUMP JUMPDEST PUSH1 0x1F NOT DUP5 AND PUSH2 0x4D6 DUP7 PUSH2 0x2BA JUMP JUMPDEST PUSH0 JUMPDEST DUP3 DUP2 LT ISZERO PUSH2 0x4FD JUMPI DUP5 DUP10 ADD MLOAD DUP3 SSTORE PUSH1 0x1 DUP3 ADD SWAP2 POP PUSH1 0x20 DUP6 ADD SWAP5 POP PUSH1 0x20 DUP2 ADD SWAP1 POP PUSH2 0x4D8 JUMP JUMPDEST DUP7 DUP4 LT ISZERO PUSH2 0x51A JUMPI DUP5 DUP10 ADD MLOAD PUSH2 0x516 PUSH1 0x1F DUP10 AND DUP3 PUSH2 0x429 JUMP JUMPDEST DUP4 SSTORE POP JUMPDEST PUSH1 0x1 PUSH1 0x2 DUP9 MUL ADD DUP9 SSTORE POP POP POP JUMPDEST POP POP POP POP POP POP JUMP JUMPDEST PUSH1 0x80 MLOAD PUSH2 0x11FA PUSH2 0x555 PUSH0 CODECOPY PUSH0 DUP2 DUP2 PUSH2 0x340 ADD MSTORE DUP2 DUP2 PUSH2 0x45B ADD MSTORE PUSH2 0x4ED ADD MSTORE PUSH2 0x11FA PUSH0 RETURN INVALID PUSH1 0x80 PUSH1 0x40 MSTORE CALLVALUE DUP1 ISZERO PUSH2 0xF JUMPI PUSH0 DUP1 REVERT JUMPDEST POP PUSH1 0x4 CALLDATASIZE LT PUSH2 0xA7 JUMPI PUSH0 CALLDATALOAD PUSH1 0xE0 SHR DUP1 PUSH4 0x3CF96AF1 GT PUSH2 0x6F JUMPI DUP1 PUSH4 0x3CF96AF1 EQ PUSH2 0x165 JUMPI DUP1 PUSH4 0x70A08231 EQ PUSH2 0x183 JUMPI DUP1 PUSH4 0x95D89B41 EQ PUSH2 0x1B3 JUMPI DUP1 PUSH4 0xA9059CBB EQ PUSH2 0x1D1 JUMPI DUP1 PUSH4 0xBEC3FA17 EQ PUSH2 0x201 JUMPI DUP1 PUSH4 0xDD62ED3E EQ PUSH2 0x21D JUMPI PUSH2 0xA7 JUMP JUMPDEST DUP1 PUSH4 0x6FDDE03 EQ PUSH2 0xAB JUMPI DUP1 PUSH4 0x95EA7B3 EQ PUSH2 0xC9 JUMPI DUP1 PUSH4 0x18160DDD EQ PUSH2 0xF9 JUMPI DUP1 PUSH4 0x23B872DD EQ PUSH2 0x117 JUMPI DUP1 PUSH4 0x313CE567 EQ PUSH2 0x147 JUMPI JUMPDEST PUSH0 DUP1 REVERT JUMPDEST PUSH2 0xB3 PUSH2 0x24D JUMP JUMPDEST PUSH1 0x40 MLOAD PUSH2 0xC0 SWAP2 SWAP1 PUSH2 0xC51 JUMP JUMPDEST PUSH1 0x40 MLOAD DUP1 SWAP2 SUB SWAP1 RETURN JUMPDEST PUSH2 0xE3 PUSH1 0x4 DUP1 CALLDATASIZE SUB DUP2 ADD SWAP1 PUSH2 0xDE SWAP2 SWAP1 PUSH2 0xD02 JUMP JUMPDEST PUSH2 0x2DD JUMP JUMPDEST PUSH1 0x40 MLOAD PUSH2 0xF0 SWAP2 SWAP1 PUSH2 0xD5A JUMP JUMPDEST PUSH1 0x40 MLOAD DUP1 SWAP2 SUB SWAP1 RETURN JUMPDEST PUSH2 0x101 PUSH2 0x2FF JUMP JUMPDEST PUSH1 0x40 MLOAD PUSH2 0x10E SWAP2 SWAP1 PUSH2 0xD82 JUMP JUMPDEST PUSH1 0x40 MLOAD DUP1 SWAP2 SUB SWAP1 RETURN JUMPDEST PUSH2 0x131 PUSH1 0x4 DUP1 CALLDATASIZE SUB DUP2 ADD SWAP1 PUSH2 0x12C SWAP2 SWAP1 PUSH2 0xD9B JUMP JUMPDEST PUSH2 0x308 JUMP JUMPDEST PUSH1 0x40 MLOAD PUSH2 0x13E SWAP2 SWAP1 PUSH2 0xD5A JUMP JUMPDEST PUSH1 0x40 MLOAD DUP1 SWAP2 SUB SWAP1 RETURN JUMPDEST PUSH2 0x14F PUSH2 0x336 JUMP JUMPDEST PUSH1 0x40 MLOAD PUSH2 0x15C SWAP2 SWAP1 PUSH2 0xE06 JUMP JUMPDEST PUSH1 0x40 MLOAD DUP1 SWAP2 SUB SWAP1 RETURN JUMPDEST PUSH2 0x16D PUSH2 0x33E JUMP JUMPDEST PUSH1 0x40 MLOAD PUSH2 0x17A SWAP2 SWAP1 PUSH2 0xE2E JUMP JUMPDEST PUSH1 0x40 MLOAD DUP1 SWAP2 SUB SWAP1 RETURN JUMPDEST PUSH2 0x19D PUSH1 0x4 DUP1 CALLDATASIZE SUB DUP2 ADD SWAP1 PUSH2 0x198 SWAP2 SWAP1 PUSH2 0xE47 JUMP JUMPDEST PUSH2 0x362 JUMP JUMPDEST PUSH1 0x40 MLOAD PUSH2 0x1AA SWAP2 SWAP1 PUSH2 0xD82 JUMP JUMPDEST PUSH1 0x40 MLOAD DUP1 SWAP2 SUB SWAP1 RETURN JUMPDEST PUSH2 0x1BB PUSH2 0x3A7 JUMP JUMPDEST PUSH1 0x40 MLOAD PUSH2 0x1C8 SWAP2 SWAP1 PUSH2 0xC51 JUMP JUMPDEST PUSH1 0x40 MLOAD DUP1 SWAP2 SUB SWAP1 RETURN JUMPDEST PUSH2 0x1EB PUSH1 0x4 DUP1 CALLDATASIZE SUB DUP2 ADD SWAP1 PUSH2 0x1E6 SWAP2 SWAP1 PUSH2 0xD02 JUMP JUMPDEST PUSH2 0x437 JUMP JUMPDEST PUSH1 0x40 MLOAD PUSH2 0x1F8 SWAP2 SWAP1 PUSH2 0xD5A JUMP JUMPDEST PUSH1 0x40 MLOAD DUP1 SWAP2 SUB SWAP1 RETURN JUMPDEST PUSH2 0x21B PUSH1 0x4 DUP1 CALLDATASIZE SUB DUP2 ADD SWAP1 PUSH2 0x216 SWAP2 SWAP1 PUSH2 0xD02 JUMP JUMPDEST PUSH2 0x459 JUMP JUMPDEST STOP JUMPDEST PUSH2 0x237 PUSH1 0x4 DUP1 CALLDATASIZE SUB DUP2 ADD SWAP1 PUSH2 0x232 SWAP2 SWAP1 PUSH2 0xE72 JUMP JUMPDEST PUSH2 0x55C JUMP JUMPDEST PUSH1 0x40 MLOAD PUSH2 0x244 SWAP2 SWAP1 PUSH2 0xD82 JUMP JUMPDEST PUSH1 0x40 MLOAD DUP1 SWAP2 SUB SWAP1 RETURN JUMPDEST PUSH1 0x60 PUSH1 0x3 DUP1 SLOAD PUSH2 0x25C SWAP1 PUSH2 0xEDD JUMP JUMPDEST DUP1 PUSH1 0x1F ADD PUSH1 0x20 DUP1 SWAP2 DIV MUL PUSH1 0x20 ADD PUSH1 0x40 MLOAD SWAP1 DUP2 ADD PUSH1 0x40 MSTORE DUP1 SWAP3 SWAP2 SWAP1 DUP2 DUP2 MSTORE PUSH1 0x20 ADD DUP3 DUP1 SLOAD PUSH2 0x288 SWAP1 PUSH2 0xEDD JUMP JUMPDEST DUP1 ISZERO PUSH2 0x2D3 JUMPI DUP1 PUSH1 0x1F LT PUSH2 0x2AA JUMPI PUSH2 0x100 DUP1 DUP4 SLOAD DIV MUL DUP4 MSTORE SWAP2 PUSH1 0x20 ADD SWAP2 PUSH2 0x2D3 JUMP JUMPDEST DUP3 ADD SWAP2 SWAP1 PUSH0 MSTORE PUSH1 0x20 PUSH0 KECCAK256 SWAP1 JUMPDEST DUP2 SLOAD DUP2 MSTORE SWAP1 PUSH1 0x1 ADD SWAP1 PUSH1 0x20 ADD DUP1 DUP4 GT PUSH2 0x2B6 JUMPI DUP3 SWAP1 SUB PUSH1 0x1F AND DUP3 ADD SWAP2 JUMPDEST POP POP POP POP POP SWAP1 POP SWAP1 JUMP JUMPDEST PUSH0 DUP1 PUSH2 0x2E7 PUSH2 0x5DE JUMP JUMPDEST SWAP1 POP PUSH2 0x2F4 DUP2 DUP6 DUP6 PUSH2 0x5E5 JUMP JUMPDEST PUSH1 0x1 SWAP2 POP POP SWAP3 SWAP2 POP POP JUMP JUMPDEST PUSH0 PUSH1 0x2 SLOAD SWAP1 POP SWAP1 JUMP JUMPDEST PUSH0 DUP1 PUSH2 0x312 PUSH2 0x5DE JUMP JUMPDEST SWAP1 POP PUSH2 0x31F DUP6 DUP3 DUP6 PUSH2 0x5F7 JUMP JUMPDEST PUSH2 0x32A DUP6 DUP6 DUP6 PUSH2 0x68A JUMP JUMPDEST PUSH1 0x1 SWAP2 POP POP SWAP4 SWAP3 POP POP POP JUMP JUMPDEST PUSH0 PUSH1 0x12 SWAP1 POP SWAP1 JUMP JUMPDEST PUSH32 0x0 DUP2 JUMP JUMPDEST PUSH0 DUP1 PUSH0 DUP4 PUSH20 0xFFFFFFFFFFFFFFFFFFFFFFFFFFFFFFFFFFFFFFFF AND PUSH20 0xFFFFFFFFFFFFFFFFFFFFFFFFFFFFFFFFFFFFFFFF AND DUP2 MSTORE PUSH1 0x20 ADD SWAP1 DUP2 MSTORE PUSH1 0x20 ADD PUSH0 KECCAK256 SLOAD SWAP1 POP SWAP2 SWAP1 POP JUMP JUMPDEST PUSH1 0x60 PUSH1 0x4 DUP1 SLOAD PUSH2 0x3B6 SWAP1 PUSH2 0xEDD JUMP JUMPDEST DUP1 PUSH1 0x1F ADD PUSH1 0x20 DUP1 SWAP2 DIV MUL PUSH1 0x20 ADD PUSH1 0x40 MLOAD SWAP1 DUP2 ADD PUSH1 0x40 MSTORE DUP1 SWAP3 SWAP2 SWAP1 DUP2 DUP2 MSTORE PUSH1 0x20 ADD DUP3 DUP1 SLOAD PUSH2 0x3E2 SWAP1 PUSH2 0xEDD JUMP JUMPDEST DUP1 ISZERO PUSH2 0x42D JUMPI DUP1 PUSH1 0x1F LT PUSH2 0x404 JUMPI PUSH2 0x100 DUP1 DUP4 SLOAD DIV MUL DUP4 MSTORE SWAP2 PUSH1 0x20 ADD SWAP2 PUSH2 0x42D JUMP JUMPDEST DUP3 ADD SWAP2 SWAP1 PUSH0 MSTORE PUSH1 0x20 PUSH0 KECCAK256 SWAP1 JUMPDEST DUP2 SLOAD DUP2 MSTORE SWAP1 PUSH1 0x1 ADD SWAP1 PUSH1 0x20 ADD DUP1 DUP4 GT PUSH2 0x410 JUMPI DUP3 SWAP1 SUB PUSH1 0x1F AND DUP3 ADD SWAP2 JUMPDEST POP POP POP POP POP SWAP1 POP SWAP1 JUMP JUMPDEST PUSH0 DUP1 PUSH2 0x441 PUSH2 0x5DE JUMP JUMPDEST SWAP1 POP PUSH2 0x44E DUP2 DUP6 DUP6 PUSH2 0x68A JUMP JUMPDEST PUSH1 0x1 SWAP2 POP POP SWAP3 SWAP2 POP POP JUMP JUMPDEST PUSH32 0x0 PUSH20 0xFFFFFFFFFFFFFFFFFFFFFFFFFFFFFFFFFFFFFFFF AND CALLER PUSH20 0xFFFFFFFFFFFFFFFFFFFFFFFFFFFFFFFFFFFFFFFF AND EQ PUSH2 0x4E7 JUMPI PUSH1 0x40 MLOAD PUSH32 0x8C379A000000000000000000000000000000000000000000000000000000000 DUP2 MSTORE PUSH1 0x4 ADD PUSH2 0x4DE SWAP1 PUSH2 0xF57 JUMP JUMPDEST PUSH1 0x40 MLOAD DUP1 SWAP2 SUB SWAP1 REVERT JUMPDEST PUSH2 0x530 DUP3 PUSH32 0x0 PUSH2 0x514 PUSH2 0x336 JUMP JUMPDEST PUSH1 0xA PUSH2 0x520 SWAP2 SWAP1 PUSH2 0x10D1 JUMP JUMPDEST DUP5 PUSH2 0x52B SWAP2 SWAP1 PUSH2 0x111B JUMP JUMPDEST PUSH2 0x5E5 JUMP JUMPDEST PUSH2 0x558 DUP3 PUSH2 0x53C PUSH2 0x336 JUMP JUMPDEST PUSH1 0xA PUSH2 0x548 SWAP2 SWAP1 PUSH2 0x10D1 JUMP JUMPDEST DUP4 PUSH2 0x553 SWAP2 SWAP1 PUSH2 0x111B JUMP JUMPDEST PUSH2 0x77A JUMP JUMPDEST POP POP JUMP JUMPDEST PUSH0 PUSH1 0x1 PUSH0 DUP5 PUSH20 0xFFFFFFFFFFFFFFFFFFFFFFFFFFFFFFFFFFFFFFFF AND PUSH20 0xFFFFFFFFFFFFFFFFFFFFFFFFFFFFFFFFFFFFFFFF AND DUP2 MSTORE PUSH1 0x20 ADD SWAP1 DUP2 MSTORE PUSH1 0x20 ADD PUSH0 KECCAK256 PUSH0 DUP4 PUSH20 0xFFFFFFFFFFFFFFFFFFFFFFFFFFFFFFFFFFFFFFFF AND PUSH20 0xFFFFFFFFFFFFFFFFFFFFFFFFFFFFFFFFFFFFFFFF AND DUP2 MSTORE PUSH1 0x20 ADD SWAP1 DUP2 MSTORE PUSH1 0x20 ADD PUSH0 KECCAK256 SLOAD SWAP1 POP SWAP3 SWAP2 POP POP JUMP JUMPDEST PUSH0 CALLER SWAP1 POP SWAP1 JUMP JUMPDEST PUSH2 0x5F2 DUP4 DUP4 DUP4 PUSH1 0x1 PUSH2 0x7F9 JUMP JUMPDEST POP POP POP JUMP JUMPDEST PUSH0 PUSH2 0x602 DUP5 DUP5 PUSH2 0x55C JUMP JUMPDEST SWAP1 POP PUSH32 0xFFFFFFFFFFFFFFFFFFFFFFFFFFFFFFFFFFFFFFFFFFFFFFFFFFFFFFFFFFFFFFFF DUP2 LT ISZERO PUSH2 0x684 JUMPI DUP2 DUP2 LT ISZERO PUSH2 0x675 JUMPI DUP3 DUP2 DUP4 PUSH1 0x40 MLOAD PUSH32 0xFB8F41B200000000000000000000000000000000000000000000000000000000 DUP2 MSTORE PUSH1 0x4 ADD PUSH2 0x66C SWAP4 SWAP3 SWAP2 SWAP1 PUSH2 0x115C JUMP JUMPDEST PUSH1 0x40 MLOAD DUP1 SWAP2 SUB SWAP1 REVERT JUMPDEST PUSH2 0x683 DUP5 DUP5 DUP5 DUP5 SUB PUSH0 PUSH2 0x7F9 JUMP JUMPDEST JUMPDEST POP POP POP POP JUMP JUMPDEST PUSH0 PUSH20 0xFFFFFFFFFFFFFFFFFFFFFFFFFFFFFFFFFFFFFFFF AND DUP4 PUSH20 0xFFFFFFFFFFFFFFFFFFFFFFFFFFFFFFFFFFFFFFFF AND SUB PUSH2 0x6FA JUMPI PUSH0 PUSH1 0x40 MLOAD PUSH32 0x96C6FD1E00000000000000000000000000000000000000000000000000000000 DUP2 MSTORE PUSH1 0x4 ADD PUSH2 0x6F1 SWAP2 SWAP1 PUSH2 0xE2E JUMP JUMPDEST PUSH1 0x40 MLOAD DUP1 SWAP2 SUB SWAP1 REVERT JUMPDEST PUSH0 PUSH20 0xFFFFFFFFFFFFFFFFFFFFFFFFFFFFFFFFFFFFFFFF AND DUP3 PUSH20 0xFFFFFFFFFFFFFFFFFFFFFFFFFFFFFFFFFFFFFFFF AND SUB PUSH2 0x76A JUMPI PUSH0 PUSH1 0x40 MLOAD PUSH32 0xEC442F0500000000000000000000000000000000000000000000000000000000 DUP2 MSTORE PUSH1 0x4 ADD PUSH2 0x761 SWAP2 SWAP1 PUSH2 0xE2E JUMP JUMPDEST PUSH1 0x40 MLOAD DUP1 SWAP2 SUB SWAP1 REVERT JUMPDEST PUSH2 0x775 DUP4 DUP4 DUP4 PUSH2 0x9C8 JUMP JUMPDEST POP POP POP JUMP JUMPDEST PUSH0 PUSH20 0xFFFFFFFFFFFFFFFFFFFFFFFFFFFFFFFFFFFFFFFF AND DUP3 PUSH20 0xFFFFFFFFFFFFFFFFFFFFFFFFFFFFFFFFFFFFFFFF AND SUB PUSH2 0x7EA JUMPI PUSH0 PUSH1 0x40 MLOAD PUSH32 0xEC442F0500000000000000000000000000000000000000000000000000000000 DUP2 MSTORE PUSH1 0x4 ADD PUSH2 0x7E1 SWAP2 SWAP1 PUSH2 0xE2E JUMP JUMPDEST PUSH1 0x40 MLOAD DUP1 SWAP2 SUB SWAP1 REVERT JUMPDEST PUSH2 0x7F5 PUSH0 DUP4 DUP4 PUSH2 0x9C8 JUMP JUMPDEST POP POP JUMP JUMPDEST PUSH0 PUSH20 0xFFFFFFFFFFFFFFFFFFFFFFFFFFFFFFFFFFFFFFFF AND DUP5 PUSH20 0xFFFFFFFFFFFFFFFFFFFFFFFFFFFFFFFFFFFFFFFF AND SUB PUSH2 0x869 JUMPI PUSH0 PUSH1 0x40 MLOAD PUSH32 0xE602DF0500000000000000000000000000000000000000000000000000000000 DUP2 MSTORE PUSH1 0x4 ADD PUSH2 0x860 SWAP2 SWAP1 PUSH2 0xE2E JUMP JUMPDEST PUSH1 0x40 MLOAD DUP1 SWAP2 SUB SWAP1 REVERT JUMPDEST PUSH0 PUSH20 0xFFFFFFFFFFFFFFFFFFFFFFFFFFFFFFFFFFFFFFFF AND DUP4 PUSH20 0xFFFFFFFFFFFFFFFFFFFFFFFFFFFFFFFFFFFFFFFF AND SUB PUSH2 0x8D9 JUMPI PUSH0 PUSH1 0x40 MLOAD PUSH32 0x94280D6200000000000000000000000000000000000000000000000000000000 DUP2 MSTORE PUSH1 0x4 ADD PUSH2 0x8D0 SWAP2 SWAP1 PUSH2 0xE2E JUMP JUMPDEST PUSH1 0x40 MLOAD DUP1 SWAP2 SUB SWAP1 REVERT JUMPDEST DUP2 PUSH1 0x1 PUSH0 DUP7 PUSH20 0xFFFFFFFFFFFFFFFFFFFFFFFFFFFFFFFFFFFFFFFF AND PUSH20 0xFFFFFFFFFFFFFFFFFFFFFFFFFFFFFFFFFFFFFFFF AND DUP2 MSTORE PUSH1 0x20 ADD SWAP1 DUP2 MSTORE PUSH1 0x20 ADD PUSH0 KECCAK256 PUSH0 DUP6 PUSH20 0xFFFFFFFFFFFFFFFFFFFFFFFFFFFFFFFFFFFFFFFF AND PUSH20 0xFFFFFFFFFFFFFFFFFFFFFFFFFFFFFFFFFFFFFFFF AND DUP2 MSTORE PUSH1 0x20 ADD SWAP1 DUP2 MSTORE PUSH1 0x20 ADD PUSH0 KECCAK256 DUP2 SWAP1 SSTORE POP DUP1 ISZERO PUSH2 0x9C2 JUMPI DUP3 PUSH20 0xFFFFFFFFFFFFFFFFFFFFFFFFFFFFFFFFFFFFFFFF AND DUP5 PUSH20 0xFFFFFFFFFFFFFFFFFFFFFFFFFFFFFFFFFFFFFFFF AND PUSH32 0x8C5BE1E5EBEC7D5BD14F71427D1E84F3DD0314C0F7B2291E5B200AC8C7C3B925 DUP5 PUSH1 0x40 MLOAD PUSH2 0x9B9 SWAP2 SWAP1 PUSH2 0xD82 JUMP JUMPDEST PUSH1 0x40 MLOAD DUP1 SWAP2 SUB SWAP1 LOG3 JUMPDEST POP POP POP POP JUMP JUMPDEST PUSH0 PUSH20 0xFFFFFFFFFFFFFFFFFFFFFFFFFFFFFFFFFFFFFFFF AND DUP4 PUSH20 0xFFFFFFFFFFFFFFFFFFFFFFFFFFFFFFFFFFFFFFFF AND SUB PUSH2 0xA18 JUMPI DUP1 PUSH1 0x2 PUSH0 DUP3 DUP3 SLOAD PUSH2 0xA0C SWAP2 SWAP1 PUSH2 0x1191 JUMP JUMPDEST SWAP3 POP POP DUP2 SWAP1 SSTORE POP PUSH2 0xAE6 JUMP JUMPDEST PUSH0 DUP1 PUSH0 DUP6 PUSH20 0xFFFFFFFFFFFFFFFFFFFFFFFFFFFFFFFFFFFFFFFF AND PUSH20 0xFFFFFFFFFFFFFFFFFFFFFFFFFFFFFFFFFFFFFFFF AND DUP2 MSTORE PUSH1 0x20 ADD SWAP1 DUP2 MSTORE PUSH1 0x20 ADD PUSH0 KECCAK256 SLOAD SWAP1 POP DUP2 DUP2 LT ISZERO PUSH2 0xAA1 JUMPI DUP4 DUP2 DUP4 PUSH1 0x40 MLOAD PUSH32 0xE450D38C00000000000000000000000000000000000000000000000000000000 DUP2 MSTORE PUSH1 0x4 ADD PUSH2 0xA98 SWAP4 SWAP3 SWAP2 SWAP1 PUSH2 0x115C JUMP JUMPDEST PUSH1 0x40 MLOAD DUP1 SWAP2 SUB SWAP1 REVERT JUMPDEST DUP2 DUP2 SUB PUSH0 DUP1 DUP7 PUSH20 0xFFFFFFFFFFFFFFFFFFFFFFFFFFFFFFFFFFFFFFFF AND PUSH20 0xFFFFFFFFFFFFFFFFFFFFFFFFFFFFFFFFFFFFFFFF AND DUP2 MSTORE PUSH1 0x20 ADD SWAP1 DUP2 MSTORE PUSH1 0x20 ADD PUSH0 KECCAK256 DUP2 SWAP1 SSTORE POP POP JUMPDEST PUSH0 PUSH20 0xFFFFFFFFFFFFFFFFFFFFFFFFFFFFFFFFFFFFFFFF AND DUP3 PUSH20 0xFFFFFFFFFFFFFFFFFFFFFFFFFFFFFFFFFFFFFFFF AND SUB PUSH2 0xB2D JUMPI DUP1 PUSH1 0x2 PUSH0 DUP3 DUP3 SLOAD SUB SWAP3 POP POP DUP2 SWAP1 SSTORE POP PUSH2 0xB77 JUMP JUMPDEST DUP1 PUSH0 DUP1 DUP5 PUSH20 0xFFFFFFFFFFFFFFFFFFFFFFFFFFFFFFFFFFFFFFFF AND PUSH20 0xFFFFFFFFFFFFFFFFFFFFFFFFFFFFFFFFFFFFFFFF AND DUP2 MSTORE PUSH1 0x20 ADD SWAP1 DUP2 MSTORE PUSH1 0x20 ADD PUSH0 KECCAK256 PUSH0 DUP3 DUP3 SLOAD ADD SWAP3 POP POP DUP2 SWAP1 SSTORE POP JUMPDEST DUP2 PUSH20 0xFFFFFFFFFFFFFFFFFFFFFFFFFFFFFFFFFFFFFFFF AND DUP4 PUSH20 0xFFFFFFFFFFFFFFFFFFFFFFFFFFFFFFFFFFFFFFFF AND PUSH32 0xDDF252AD1BE2C89B69C2B068FC378DAA952BA7F163C4A11628F55A4DF523B3EF DUP4 PUSH1 0x40 MLOAD PUSH2 0xBD4 SWAP2 SWAP1 PUSH2 0xD82 JUMP JUMPDEST PUSH1 0x40 MLOAD DUP1 SWAP2 SUB SWAP1 LOG3 POP POP POP JUMP JUMPDEST PUSH0 DUP2 MLOAD SWAP1 POP SWAP2 SWAP1 POP JUMP JUMPDEST PUSH0 DUP3 DUP3 MSTORE PUSH1 0x20 DUP3 ADD SWAP1 POP SWAP3 SWAP2 POP POP JUMP JUMPDEST DUP3 DUP2 DUP4 MCOPY PUSH0 DUP4 DUP4 ADD MSTORE POP POP POP JUMP JUMPDEST PUSH0 PUSH1 0x1F NOT PUSH1 0x1F DUP4 ADD AND SWAP1 POP SWAP2 SWAP1 POP JUMP JUMPDEST PUSH0 PUSH2 0xC23 DUP3 PUSH2 0xBE1 JUMP JUMPDEST PUSH2 0xC2D DUP2 DUP6 PUSH2 0xBEB JUMP JUMPDEST SWAP4 POP PUSH2 0xC3D DUP2 DUP6 PUSH1 0x20 DUP7 ADD PUSH2 0xBFB JUMP JUMPDEST PUSH2 0xC46 DUP2 PUSH2 0xC09 JUMP JUMPDEST DUP5 ADD SWAP2 POP POP SWAP3 SWAP2 POP POP JUMP JUMPDEST PUSH0 PUSH1 0x20 DUP3 ADD SWAP1 POP DUP2 DUP2 SUB PUSH0 DUP4 ADD MSTORE PUSH2 0xC69 DUP2 DUP5 PUSH2 0xC19 JUMP JUMPDEST SWAP1 POP SWAP3 SWAP2 POP POP JUMP JUMPDEST PUSH0 DUP1 REVERT JUMPDEST PUSH0 PUSH20 0xFFFFFFFFFFFFFFFFFFFFFFFFFFFFFFFFFFFFFFFF DUP3 AND SWAP1 POP SWAP2 SWAP1 POP JUMP JUMPDEST PUSH0 PUSH2 0xC9E DUP3 PUSH2 0xC75 JUMP JUMPDEST SWAP1 POP SWAP2 SWAP1 POP JUMP JUMPDEST PUSH2 0xCAE DUP2 PUSH2 0xC94 JUMP JUMPDEST DUP2 EQ PUSH2 0xCB8 JUMPI PUSH0 DUP1 REVERT JUMPDEST POP JUMP JUMPDEST PUSH0 DUP2 CALLDATALOAD SWAP1 POP PUSH2 0xCC9 DUP2 PUSH2 0xCA5 JUMP JUMPDEST SWAP3 SWAP2 POP POP JUMP JUMPDEST PUSH0 DUP2 SWAP1 POP SWAP2 SWAP1 POP JUMP JUMPDEST PUSH2 0xCE1 DUP2 PUSH2 0xCCF JUMP JUMPDEST DUP2 EQ PUSH2 0xCEB JUMPI PUSH0 DUP1 REVERT JUMPDEST POP JUMP JUMPDEST PUSH0 DUP2 CALLDATALOAD SWAP1 POP PUSH2 0xCFC DUP2 PUSH2 0xCD8 JUMP JUMPDEST SWAP3 SWAP2 POP POP JUMP JUMPDEST PUSH0 DUP1 PUSH1 0x40 DUP4 DUP6 SUB SLT ISZERO PUSH2 0xD18 JUMPI PUSH2 0xD17 PUSH2 0xC71 JUMP JUMPDEST JUMPDEST PUSH0 PUSH2 0xD25 DUP6 DUP3 DUP7 ADD PUSH2 0xCBB JUMP JUMPDEST SWAP3 POP POP PUSH1 0x20 PUSH2 0xD36 DUP6 DUP3 DUP7 ADD PUSH2 0xCEE JUMP JUMPDEST SWAP2 POP POP SWAP3 POP SWAP3 SWAP1 POP JUMP JUMPDEST PUSH0 DUP2 ISZERO ISZERO SWAP1 POP SWAP2 SWAP1 POP JUMP JUMPDEST PUSH2 0xD54 DUP2 PUSH2 0xD40 JUMP JUMPDEST DUP3 MSTORE POP POP JUMP JUMPDEST PUSH0 PUSH1 0x20 DUP3 ADD SWAP1 POP PUSH2 0xD6D PUSH0 DUP4 ADD DUP5 PUSH2 0xD4B JUMP JUMPDEST SWAP3 SWAP2 POP POP JUMP JUMPDEST PUSH2 0xD7C DUP2 PUSH2 0xCCF JUMP JUMPDEST DUP3 MSTORE POP POP JUMP JUMPDEST PUSH0 PUSH1 0x20 DUP3 ADD SWAP1 POP PUSH2 0xD95 PUSH0 DUP4 ADD DUP5 PUSH2 0xD73 JUMP JUMPDEST SWAP3 SWAP2 POP POP JUMP JUMPDEST PUSH0 DUP1 PUSH0 PUSH1 0x60 DUP5 DUP7 SUB SLT ISZERO PUSH2 0xDB2 JUMPI PUSH2 0xDB1 PUSH2 0xC71 JUMP JUMPDEST JUMPDEST PUSH0 PUSH2 0xDBF DUP7 DUP3 DUP8 ADD PUSH2 0xCBB JUMP JUMPDEST SWAP4 POP POP PUSH1 0x20 PUSH2 0xDD0 DUP7 DUP3 DUP8 ADD PUSH2 0xCBB JUMP JUMPDEST SWAP3 POP POP PUSH1 0x40 PUSH2 0xDE1 DUP7 DUP3 DUP8 ADD PUSH2 0xCEE JUMP JUMPDEST SWAP2 POP POP SWAP3 POP SWAP3 POP SWAP3 JUMP JUMPDEST PUSH0 PUSH1 0xFF DUP3 AND SWAP1 POP SWAP2 SWAP1 POP JUMP JUMPDEST PUSH2 0xE00 DUP2 PUSH2 0xDEB JUMP JUMPDEST DUP3 MSTORE POP POP JUMP JUMPDEST PUSH0 PUSH1 0x20 DUP3 ADD SWAP1 POP PUSH2 0xE19 PUSH0 DUP4 ADD DUP5 PUSH2 0xDF7 JUMP JUMPDEST SWAP3 SWAP2 POP POP JUMP JUMPDEST PUSH2 0xE28 DUP2 PUSH2 0xC94 JUMP JUMPDEST DUP3 MSTORE POP POP JUMP JUMPDEST PUSH0 PUSH1 0x20 DUP3 ADD SWAP1 POP PUSH2 0xE41 PUSH0 DUP4 ADD DUP5 PUSH2 0xE1F JUMP JUMPDEST SWAP3 SWAP2 POP POP JUMP JUMPDEST PUSH0 PUSH1 0x20 DUP3 DUP5 SUB SLT ISZERO PUSH2 0xE5C JUMPI PUSH2 0xE5B PUSH2 0xC71 JUMP JUMPDEST JUMPDEST PUSH0 PUSH2 0xE69 DUP5 DUP3 DUP6 ADD PUSH2 0xCBB JUMP JUMPDEST SWAP2 POP POP SWAP3 SWAP2 POP POP JUMP JUMPDEST PUSH0 DUP1 PUSH1 0x40 DUP4 DUP6 SUB SLT ISZERO PUSH2 0xE88 JUMPI PUSH2 0xE87 PUSH2 0xC71 JUMP JUMPDEST JUMPDEST PUSH0 PUSH2 0xE95 DUP6 DUP3 DUP7 ADD PUSH2 0xCBB JUMP JUMPDEST SWAP3 POP POP PUSH1 0x20 PUSH2 0xEA6 DUP6 DUP3 DUP7 ADD PUSH2 0xCBB JUMP JUMPDEST SWAP2 POP POP SWAP3 POP SWAP3 SWAP1 POP JUMP JUMPDEST PUSH32 0x4E487B7100000000000000000000000000000000000000000000000000000000 PUSH0 MSTORE PUSH1 0x22 PUSH1 0x4 MSTORE PUSH1 0x24 PUSH0 REVERT JUMPDEST PUSH0 PUSH1 0x2 DUP3 DIV SWAP1 POP PUSH1 0x1 DUP3 AND DUP1 PUSH2 0xEF4 JUMPI PUSH1 0x7F DUP3 AND SWAP2 POP JUMPDEST PUSH1 0x20 DUP3 LT DUP2 SUB PUSH2 0xF07 JUMPI PUSH2 0xF06 PUSH2 0xEB0 JUMP JUMPDEST JUMPDEST POP SWAP2 SWAP1 POP JUMP JUMPDEST PUSH32 0x6F6E6C792070726F6A6563740000000000000000000000000000000000000000 PUSH0 DUP3 ADD MSTORE POP JUMP JUMPDEST PUSH0 PUSH2 0xF41 PUSH1 0xC DUP4 PUSH2 0xBEB JUMP JUMPDEST SWAP2 POP PUSH2 0xF4C DUP3 PUSH2 0xF0D JUMP JUMPDEST PUSH1 0x20 DUP3 ADD SWAP1 POP SWAP2 SWAP1 POP JUMP JUMPDEST PUSH0 PUSH1 0x20 DUP3 ADD SWAP1 POP DUP2 DUP2 SUB PUSH0 DUP4 ADD MSTORE PUSH2 0xF6E DUP2 PUSH2 0xF35 JUMP JUMPDEST SWAP1 POP SWAP2 SWAP1 POP JUMP JUMPDEST PUSH32 0x4E487B7100000000000000000000000000000000000000000000000000000000 PUSH0 MSTORE PUSH1 0x11 PUSH1 0x4 MSTORE PUSH1 0x24 PUSH0 REVERT JUMPDEST PUSH0 DUP2 PUSH1 0x1 SHR SWAP1 POP SWAP2 SWAP1 POP JUMP JUMPDEST PUSH0 DUP1 DUP3 SWAP2 POP DUP4 SWAP1 POP JUMPDEST PUSH1 0x1 DUP6 GT ISZERO PUSH2 0xFF7 JUMPI DUP1 DUP7 DIV DUP2 GT ISZERO PUSH2 0xFD3 JUMPI PUSH2 0xFD2 PUSH2 0xF75 JUMP JUMPDEST JUMPDEST PUSH1 0x1 DUP6 AND ISZERO PUSH2 0xFE2 JUMPI DUP1 DUP3 MUL SWAP2 POP JUMPDEST DUP1 DUP2 MUL SWAP1 POP PUSH2 0xFF0 DUP6 PUSH2 0xFA2 JUMP JUMPDEST SWAP5 POP PUSH2 0xFB7 JUMP JUMPDEST SWAP5 POP SWAP5 SWAP3 POP POP POP JUMP JUMPDEST PUSH0 DUP3 PUSH2 0x100F JUMPI PUSH1 0x1 SWAP1 POP PUSH2 0x10CA JUMP JUMPDEST DUP2 PUSH2 0x101C JUMPI PUSH0 SWAP1 POP PUSH2 0x10CA JUMP JUMPDEST DUP2 PUSH1 0x1 DUP2 EQ PUSH2 0x1032 JUMPI PUSH1 0x2 DUP2 EQ PUSH2 0x103C JUMPI PUSH2 0x106B JUMP JUMPDEST PUSH1 0x1 SWAP2 POP POP PUSH2 0x10CA JUMP JUMPDEST PUSH1 0xFF DUP5 GT ISZERO PUSH2 0x104E JUMPI PUSH2 0x104D PUSH2 0xF75 JUMP JUMPDEST JUMPDEST DUP4 PUSH1 0x2 EXP SWAP2 POP DUP5 DUP3 GT ISZERO PUSH2 0x1065 JUMPI PUSH2 0x1064 PUSH2 0xF75 JUMP JUMPDEST JUMPDEST POP PUSH2 0x10CA JUMP JUMPDEST POP PUSH1 0x20 DUP4 LT PUSH2 0x133 DUP4 LT AND PUSH1 0x4E DUP5 LT PUSH1 0xB DUP5 LT AND OR ISZERO PUSH2 0x10A0 JUMPI DUP3 DUP3 EXP SWAP1 POP DUP4 DUP2 GT ISZERO PUSH2 0x109B JUMPI PUSH2 0x109A PUSH2 0xF75 JUMP JUMPDEST JUMPDEST PUSH2 0x10CA JUMP JUMPDEST PUSH2 0x10AD DUP5 DUP5 DUP5 PUSH1 0x1 PUSH2 0xFAE JUMP JUMPDEST SWAP3 POP SWAP1 POP DUP2 DUP5 DIV DUP2 GT ISZERO PUSH2 0x10C4 JUMPI PUSH2 0x10C3 PUSH2 0xF75 JUMP JUMPDEST JUMPDEST DUP2 DUP2 MUL SWAP1 POP JUMPDEST SWAP4 SWAP3 POP POP POP JUMP JUMPDEST PUSH0 PUSH2 0x10DB DUP3 PUSH2 0xCCF JUMP JUMPDEST SWAP2 POP PUSH2 0x10E6 DUP4 PUSH2 0xDEB JUMP JUMPDEST SWAP3 POP PUSH2 0x1113 PUSH32 0xFFFFFFFFFFFFFFFFFFFFFFFFFFFFFFFFFFFFFFFFFFFFFFFFFFFFFFFFFFFFFFFF DUP5 DUP5 PUSH2 0x1000 JUMP JUMPDEST SWAP1 POP SWAP3 SWAP2 POP POP JUMP JUMPDEST PUSH0 PUSH2 0x1125 DUP3 PUSH2 0xCCF JUMP JUMPDEST SWAP2 POP PUSH2 0x1130 DUP4 PUSH2 0xCCF JUMP JUMPDEST SWAP3 POP DUP3 DUP3 MUL PUSH2 0x113E DUP2 PUSH2 0xCCF JUMP JUMPDEST SWAP2 POP DUP3 DUP3 DIV DUP5 EQ DUP4 ISZERO OR PUSH2 0x1155 JUMPI PUSH2 0x1154 PUSH2 0xF75 JUMP JUMPDEST JUMPDEST POP SWAP3 SWAP2 POP POP JUMP JUMPDEST PUSH0 PUSH1 0x60 DUP3 ADD SWAP1 POP PUSH2 0x116F PUSH0 DUP4 ADD DUP7 PUSH2 0xE1F JUMP JUMPDEST PUSH2 0x117C PUSH1 0x20 DUP4 ADD DUP6 PUSH2 0xD73 JUMP JUMPDEST PUSH2 0x1189 PUSH1 0x40 DUP4 ADD DUP5 PUSH2 0xD73 JUMP JUMPDEST SWAP5 SWAP4 POP POP POP POP JUMP JUMPDEST PUSH0 PUSH2 0x119B DUP3 PUSH2 0xCCF JUMP JUMPDEST SWAP2 POP PUSH2 0x11A6 DUP4 PUSH2 0xCCF JUMP JUMPDEST SWAP3 POP DUP3 DUP3 ADD SWAP1 POP DUP1 DUP3 GT ISZERO PUSH2 0x11BE JUMPI PUSH2 0x11BD PUSH2 0xF75 JUMP JUMPDEST JUMPDEST SWAP3 SWAP2 POP POP JUMP INVALID LOG2 PUSH5 0x6970667358 0x22 SLT KECCAK256 SWAP14 DUP5 0xA9 EXP ISZERO CHAINID DUP10 CALL 0xDA PUSH30 0x40288999C31F212D8BC323D1F29FDEF7260BFC669D3564736F6C63430008 BYTE STOP CALLER LOG2 PUSH5 0x6970667358 0x22 SLT KECCAK256 0x4B TLOAD MLOAD 0x28 DUP11 OR 0xBC 0xD9 DUP7 CALLDATASIZE DUP6 0x1E SHR PUSH7 0xC9F351917330BD 0x21 0xC9 SGT CALLER PC BYTE 0xD PUSH8 0x4F563364736F6C63 NUMBER STOP ADDMOD BYTE STOP CALLER LOG2 PUSH5 0x6970667358 0x22 SLT KECCAK256 0x1F 0xE3 POP CHAINID 0x2F MSIZE 0xD0 0xDB TLOAD SWAP3 PUSH8 0x782A23F3FA767759 0xB1 PUSH5 0x464EA14136 0xE5 0xB6 REVERT 0xA5 0xE DUP11 PUSH5 0x736F6C6343 STOP ADDMOD BYTE STOP CALLER "
		},
		"gasEstimates": {
			"creation": {
				"codeDepositCost": "4851000",
				"executionCost": "10724",
				"totalCost": "4861724"
			},
			"external": {
				"createProject(string,string,uint256,uint256,uint256,uint256)": "infinite",
				"getNumberOfProjects()": "2432",
				"projectIdToAddress(uint256)": "2871",
				"projectNametoprojectId(string)": "infinite"
			}
		},
		"methodIdentifiers": {
			"createProject(string,string,uint256,uint256,uint256,uint256)": "04c956bf",
			"getNumberOfProjects()": "19ba0b63",
			"projectIdToAddress(uint256)": "303199db",
			"projectNametoprojectId(string)": "2ad968d7"
		}
	},
	"abi": [
		{
			"anonymous": false,
			"inputs": [
				{
					"indexed": true,
					"internalType": "uint256",
					"name": "projectId",
					"type": "uint256"
				},
				{
					"indexed": true,
					"internalType": "address",
					"name": "owner",
					"type": "address"
				}
			],
			"name": "ProjectCreated",
			"type": "event"
		},
		{
			"inputs": [
				{
					"internalType": "string",
					"name": "_name",
					"type": "string"
				},
				{
					"internalType": "string",
					"name": "_founderName",
					"type": "string"
				},
				{
					"internalType": "uint256",
					"name": "_budget",
					"type": "uint256"
				},
				{
					"internalType": "uint256",
					"name": "_duration",
					"type": "uint256"
				},
				{
					"internalType": "uint256",
					"name": "_proposalLimit",
					"type": "uint256"
				},
				{
					"internalType": "uint256",
					"name": "_investmentLimit",
					"type": "uint256"
				}
			],
			"name": "createProject",
			"outputs": [],
			"stateMutability": "nonpayable",
			"type": "function"
		},
		{
			"inputs": [],
			"name": "getNumberOfProjects",
			"outputs": [
				{
					"internalType": "uint256",
					"name": "",
					"type": "uint256"
				}
			],
			"stateMutability": "view",
			"type": "function"
		},
		{
			"inputs": [
				{
					"internalType": "uint256",
					"name": "",
					"type": "uint256"
				}
			],
			"name": "projectIdToAddress",
			"outputs": [
				{
					"internalType": "address",
					"name": "",
					"type": "address"
				}
			],
			"stateMutability": "view",
			"type": "function"
		},
		{
			"inputs": [
				{
					"internalType": "string",
					"name": "",
					"type": "string"
				}
			],
			"name": "projectNametoprojectId",
			"outputs": [
				{
					"internalType": "uint256",
					"name": "",
					"type": "uint256"
				}
			],
			"stateMutability": "view",
			"type": "function"
		}
	]
}